:4000000000800020110000008D0200008D02000080B500AF024A034B1B68136000F03AF9BC760040FA46004010B5054C237833B9044B13B10448AFF300800123237010BDC6
:400040008081FF1F00000000302D0000084B10B51BB108480849AFF300800848036803B910BD074B002BFBD0BDE81040184700BF00000000302D00008481FF1F0881FF1F97
:400080000000000090B593B002AF4FF47A7001F073FE1720012101F053FC0A2001F06CFE002387F83F3000BF01F0E0FA034683F00103DBB2002BF7D1012387F83F3000204D
:4000C000012101F03DFC0A2001F056FE00F022FB002000F04FFD0020002101F0C5F94FF6FF7001F0EDF9022001F0D6F9002001F0FDF9564800F0CAFF4FF4FC63009332209A
:4001000096216422962300F0F3FD1F230093232064212322C82300F0EBFD642064210A224FF61F0300F0C8FE4FF6E0730093962096214B224B2300F09BFC1720012101F0AE
:40014000FFFB0A2001F018FE01F090FA0346002B0AD00020012101F0F3FB012001F00CFE1720012101F0ECFB1720012101F0E8FB012001F001FE01F0BDFB0346002B5AD098
:400180000020012101F0DCFB012001F0F5FD0023009300200021F022322300F069FC0020052101F061F91720012101F0C9FB07F13C0107F13A0207F13903084611461A463D
:4001C00001F012FBBB8F1A46F02300931046962140F6D862002300F03DF803469BB2BB877B8F1A464FF4A0730093104682214FF47A62002300F02EF803469BB27B87BB8F8E
:400200001A467B8F1C463B1D18461149234602F001F90020012101F093FB012001F0ACFD3B1D184600F032FF012001F0A5FD1720012101F085FB0B20FF2101F079FA01F01C
:400240003DFB0A2001F098FD8EE700BF342D0000542D000080B485B000AFF860B9607A603B60FA68BB68D31AB9693A688A1A02FB03F27968BB68CB1A92FBF3F23B68134461
:4002800018461437BD465DF8047B704780B400AFFEE700BF80B586B000AF214B7B61214B3B611F4B7B611F4B3B612FE03B691B68FB603B695B68BB603B699B683B60002352
:4002C0007B600AE0BB681A1DBA60FA68111DF96012681A607B6804337B607A683B689A42F0D13B69DB683B6000237B6007E0BB681A1DBA6000221A607B6804337B607A6883
:400300003B689A42F3D13B6910333B617B695A1E7A61002BCAD102F043F8FFF7B3FEFEE7010000000C31000080B582B000AF174B174A1A60174A174B1B6843F4007313604D
:4003400000237B600FE07B68032B04D8124A7B6852F8233000E0114B11497A6841F822307B6801337B607B682F2BECD90D4B1B78DAB20D4B1A700D4B094A1A6000F00CF95D
:400380000B4B00221A600837BD4680BD0CED00E00004FA0514ED00E0000000008D0200000080FF1FBC7600400481FF1F08ED00E00081FF1F80B582B000AF786039607868F2
:4003C00000213A6802F01DF80837BD4680BD00BF80B584B000AFF860B9607A60F868B9687A6802F003F81037BD4680BD80B487B000AF7860396000233B6100237B6127E06B
:400400007B699B007A6813441B68BB60BB68FB73BB6823F0FF03BB6014E03B695B003A6813441B781A46BB68134419463B695B003A6813445B780B703B6901333B61FB7B9A
:40044000013BFB73FB7B002BE7D17B6901337B617B69102BD4D91C37BD465DF8047B704780B582B000AF2C4B00221A802B4B58221A702B4B06221A702A4B52221A702A4B05
:400480002A4A1278D2B21A70294B00221A80294B4FF4E1621A80284B41F251221A800023FB7019237B6014E0FB785B00DAB2234B1B78DBB203F00103DBB21343DBB203F0DE
:4004C0000303FB704FF4F07001F0D6FC7B68013B7B607B68002B02D0FB78032BE4D1144B07221A70164B00221A70164B48221A700F4B00221A70144B00221A70134B0222EE
:400500001A70134A124B1B78DBB243F00103DBB213700837BD4680BD80400040824000400043004000420040A14600400F0100490440004022420040204200402542004099
:4005400006400040084000400940004001400040A243004080B483B000AF0B4B1B78FB710A4AFB7903F00703DBB21370084AFB791B09DBB21370074B44221A700C37BD467C
:400580005DF8047B704700BFCF0100496E5800406F5800407658004080B586B000AF72B64A4A4A4B1B78DBB243F00403DBB213700023FB7513E0FA7D13465B0013445B0085
:4005C000434A13443B613B691A683B699B889BB210461946FFF7EEFEFB7D0133FB75FB7D082BE8D90023FB751CE0FA7D13469B0013445B00374A1344FB60FB681B68BB6042
:40060000FB685B687B60FB681A7A5B7A1B0213437B807B88B86879681A46FFF7D9FEFB7D0133FB75FB7D002BDFD04FF090402A49FFF7DCFE294A294B1B78DBB243F002034F
:40064000DBB21370264A264B1B78DBB243F00203DBB21370234A234B1B78DBB243F04003DBB21370204A204B1B78DBB243F01003DBB213701D481E490822FFF7A9FE1D485D
:400680001D490822FFF7A4FE1C481D490A22FFF79FFE1C4A1B4B1B78DBB243F00803DBB21370194B01221A70FFF7DAFE164B81221A70164B01221A70FFF74CFF14480949E5
:4006C0000E22FFF785FE1837BD4680BDE8460040642D00009C2D0000440000480350014013500140A0430040C2430040C2510040800200481251004088020048605100404B
:4007000090020048224300400048004004000840B043004080B500AF00F04EFF00F070FF914B00221A80904B1A88904B1A80904B01221A708F4B4FF6FF721A808D4B1A88FD
:400740008D4B1A808D4B01221A708D4B00221A708C4BF0221A608C4B4FF4A0721A604FF4FA7001F009FB012000F064FAC82001F003FBCF2000F05EFA002000F049FA8B20D8
:4007800000F046FA302000F043FAED2000F052FA672000F03DFA032000F03AFA122000F037FA812000F034FAE82000F043FA852000F02EFA102000F02BFA7A2000F028FA59
:4007C000CB2000F037FA392000F022FA2C2000F01FFA002000F01CFA342000F019FA022000F016FAF72000F025FA202000F010FAEA2000F01FFA002000F00AFA002000F0FD
:4008000007FAC02000F016FA1B2000F001FAC12000F010FA102000F0FBF9C52000F00AFA3F2000F0F5F93C2000F0F2F9C72000F001FAB72000F0ECF9362000F0FBF9082095
:4008400000F0E6F93A2000F0F5F9552000F0E0F9B12000F0EFF9002000F0DAF91B2000F0D7F9B62000F0E6F90A2000F0D1F9A22000F0CEF9F22000F0DDF9002000F0C8F901
:40088000262000F0D7F9012000F0C2F9E02000F0D1F90F2000F0BCF92A2000F0B9F9282000F0B6F9082000F0B3F90E2000F0B0F9082000F0ADF9542000F0AAF9A92000F0FC
:4008C000A7F9432000F0A4F90A2000F0A1F90F2000F09EF9002000F09BF9002000F098F9002000F095F9002000F092F9E12000F0A1F9002000F08CF9152000F089F9172082
:4009000000F086F9072000F083F9112000F080F9062000F07DF92B2000F07AF9562000F077F93C2000F074F9052000F071F9102000F06EF90F2000F06BF93F2000F068F919
:400940003F2000F065F90F2000F062F9112000F071F9782001F010FA292000F06BF9002000F008F980BD00BFB481FF1FAC81FF1FB781FF1FBC81FF1FBE81FF1FB681FF1F87
:40098000AE81FF1FB081FF1FB881FF1F80B582B000AF0346FB800B46BB8013467B80FA88BB881046194600F007F87B88184600F013F90837BD4680BD80B582B000AF0346E6
:4009C0000A46FB801346BB80FA88FB881046194600F0ECF8BA88BB881046194600F006F82C2000F027F90837BD4680BD80B582B000AF03460A46FB801346BB802B2000F00E
:400A000019F9FB88184600F0E7F8BB88184600F0E3F80837BD4680BD90B583B000AF0446084611461A462346FB800346BB800B467B8013463B802A2000F0FCF8FB881846BC
:400A400000F0CAF87B88184600F0C6F82B2000F0F1F8BB88184600F0BFF83B88184600F0BBF82C2000F0E6F80C37BD4690BD00BF90B585B000AF0446084611461A46234638
:400A8000FB800346BB800B467B8013463B80B7F90620364B1B689A4205DAB7F90420344B1B689A4200DB5EE0B7F90620B7F9023013445A1E2D4B1B689A4206DB2B4B1B683F
:400AC0009AB2FB88D31A9BB27B80B7F90420B7F9003013445A1E264B1B689A4206DB244B1B689AB2BB88D31A9BB23B80F888B988FA887B8813449BB2013B9CB2BA883B88CF
:400B000013449BB2013B9BB22246FFF785FF3B8C1B0A9BB2FB733B8CBB7300F071FD00F039FD3B88BB8018E07B88FB800CE0FB7B184600F091F8BB7B184600F08DF8FB884D
:400B40009BB2013B9BB2FB80B7F90630002BEEDCBB889BB2013B9BB2BB80B7F90430002BE2DC00F029FD1437BD4690BDB081FF1FB881FF1F90B585B002AF0346FB80094B8E
:400B80001B689AB2084B1B689BB212B21CB2FB880093002000212346FFF76AFF0C37BD4690BD00BFB081FF1FB881FF1F80B582B000AF03460A46FB801346BB802A2000F0A2
:400BC00039F8FB88184600F007F8BB88184600F003F80837BD4680BD80B584B000AF0346FB80FB881B0A9BB2FB73FB88BB7300F007FD00F0CFFCFB7B184600F02DF8BB7B2B
:400C0000184600F029F800F0D7FC1037BD4680BD80B582B000AF0346FB7100F0F1FC00F0B9FCFB79184600F017F800F0C5FC0837BD4680BD80B582B000AF0346FB7100F0F2
:400C4000CDFC00F0A7FCFB79184600F005F800F0B3FC0837BD4680BD80B582B000AF0346FB71FB79184600F0E3FF0837BD4680BD90B585B000AF0446084611461A4623466C
:400C8000FB800346BB800B467B8013463B80FA88FB8810461946FFF789FFBA887B8813449BB2BA8810461946FFF7A0FE2C20FFF7C1FF00F0A5FC00F06DFC0023FB810EE0B0
:400CC0003B881B0A9BB2DBB21846FFF7C5FF3B88DBB21846FFF7C0FFFB890133FB81FA897B889A42ECD300F067FC1437BD4690BD90B589B000AF0446084611461A4623468F
:400D0000FB800346BB800B467B8013463B807A88FB88D31A9BB2BB823A88BB88D31A9BB27B820023FB83FB8B7B83B7F91430002B04DDBB8A7B830123FB830AE0B7F9143034
:400D4000002B06DABB8A5B429BB27B834FF6FF73FB830023BB83BB8B3B83B7F91230002B04DD7B8A3B830123BB830AE0B7F91230002B06DA7B8A5B429BB23B834FF6FF7333
:400D8000BB83B7F91A20B7F918309A4248DBB7F91230184601F03AF90446B7F91430184601F034F903462046194601F037FA0346FB600023FB822CE0FA8AFB8813449BB2BB
:400DC0007B81B7F91630184601F020F903461846F96801F06FF903461C46BB88184601F015F903462046194601F05CF80346184601F0B0FA03463B8179893A893B8E084677
:400E000011461A46FFF7C2FDFA8AFB8B13449BB2FB82B7F91620B7F914309A42CCD147E0B7F91430184601F0F1F80446B7F91230184601F0EBF803462046194601F0EEF921
:400E40000346FB600023FB822CE0B7F91630184601F0DCF803461846F96801F02BF903461C46FB88184601F0D1F803462046194601F018F80346184601F06CFA03467B8154
:400E8000FA8ABB8813449BB23B8179893A893B8E084611461A46FFF779FDFA8ABB8B13449BB2FB82B7F91620B7F912309A42CCD12437BD4690BD00BF90B585B002AF0446F1
:400EC000084611461A462346FB800346BB800B467B8013463B80F888BA887B88D31A99B27B885B009BB201339AB23B88FFF7C0FEB7F90600B7F90410B7F902200023009384
:400F00003B880193032300F003F80C37BD4690BD90B587B000AF0446084611461A462346FB800346BB800B467B8013467B707B88C3F101039BB2FB820123BB827B881A46FB
:400F4000D203D31A5B009BB27B8200233B827B88FB8175E0B7F91630002B0DDBFB899BB2013B9BB2FB817B8A02339BB27B82FA8A7B8A13449BB2FB823B8A9BB201339BB2B6
:400F80003B82BB8A02339BB2BB82FA8ABB8A13449BB2FB827B7803F00103002B25D0FA883B8A134498B2BA88FB89D31A99B2FB895B009AB23B8D13449BB201339AB2BB8D37
:400FC000FFF756FEFA88FB89134498B2BA883B8AD31A99B23B8A5B009AB23B8D13449BB201339AB2BB8DFFF743FE7B7803F00203002B25D0FA883B8AD31A98B2BA88FB899B
:40100000D31A99B2FB895B009AB23B8D13449BB201339AB2BB8DFFF72BFEFA88FB89D31A98B2BA883B8AD31A99B23B8A5B009AB23B8D13449BB201339AB2BB8DFFF718FED2
:40104000B7F91020B7F90E309A4283DB1C37BD4690BD00BF80B584B000AF78600123FB737B681B78BB730BE0BB7B184600F09EF8FB7B7A6813441B78BB73FB7B0133FB7353
:40108000BB7B002BF0D11037BD4680BD90B5ADF2244D00AF3B1D18603B1D1B68C7F8143407F10C031846D7F8141401F0D7F907F10C031846374901F0E1F9C7F81C04364BA4
:4010C0001B781A46134692009B1A5B001A46334B1B681344C7F81034314B1B881BB2D7F81024D31AC7F818340023C7F80C3449E0294B1B781C46D7F81C0401F0B7F90346D3
:4011000003FB04F213465B0013445B00C7F80C34D7F80C24D7F818349A4217DD1E4B1B789BB2DB009AB21F4B1B889BB213449BB29AB21C4B1A801A4B00221A80D7F810248D
:40114000D7F80C34D31AC7F818340EE0D7F81824D7F80C34D21A104B1B7819460B4689005B1A5B001344C7F81834D7F81C04FFF771FF0D48FFF76EFF0020064901F07EF937
:40118000C7F81C04D7F81C34002BB1D107F22447BD4690BDA8300000B781FF1FB081FF1FB481FF1FAC81FF1FAC300000B0B584B002AF0346FB71FB790A2B10D1214B1B7851
:4011C0009BB2DB009AB2204B1B889BB213449BB29AB21D4B1A801D4B00221A802FE0FB790D2B09D10020FFF7C5FC174B00221A80164B00221A8022E0144B1888124B198864
:40120000134B1C88134B1A880E4B1B7800B209B2FD79009201932A46234600F01DF8094B1B789BB21A46520013445B009AB2074B1B889BB213449BB29AB2044B1A8008379B
:40124000BD46B0BDB781FF1FAC81FF1FB481FF1FBE81FF1FBC81FF1F90B587B002AF0446084611461A462346FB800346BB800B46FB7013463B80B7F90620784B1B689A42A6
:401280001ADAB7F90420764B1B689A4214DAB7F9061097F8242013465B0013445B000B44013B002B08DBB7F9042097F82430DB001344013B002B00DACDE00023FB73C5E0B3
:4012C00097F90F30062B02D100237B730BE0FA7897F90F10634813465B0013445B000B4403441B787B730023BB73A5E07B7B03F00103002B4AD097F82430012B17D1574B35
:401300001B689AB297F90F3099B2FB880B449BB2D31A99B297F90E309AB2BB8813449AB23B88084611461A46FFF730FB7CE04B4B1B689AB297F90F309BB297F8241089B2A9
:4013400001FB03F399B2FB880B449BB2D31A9BB298B297F90E309BB297F8242092B202FB03F39AB2BB8813449BB299B297F824309AB297F824309BB200B209B212B21CB28C
:401380003B8800932346FFF773FB4DE03A8C3B889A4249D097F82430012B17D12F4B1B689AB297F90F3099B2FB880B449BB2D31A99B297F90E309AB2BB8813449AB23B8CE7
:4013C000084611461A46FFF7E1FA2DE0234B1B689AB297F90F309BB297F8241089B201FB03F399B2FB880B449BB2D31A9BB298B297F90E309BB297F8242092B202FB03F3AE
:401400009AB2BB8813449BB299B297F824309AB297F824309BB200B209B212B21CB23B8C00932346FFF724FB7B7B5B087B73BB7BDBB20133DBB2BB7397F90E30072B7FF789
:4014400055AFFB7BDBB20133DBB2FB7397F90F30052B7FF735AF1437BD4690BDB081FF1FB881FF1FA82D000080B483B000AF03460A46FB801346BB80054AFB881380054A55
:40148000BB8813800C37BD465DF8047B704700BFB481FF1FAC81FF1F80B483B000AF0346FB71FB79002B01D0FB7900E00123034A13700C37BD465DF8047B7047B781FF1F7E
:4014C00080B483B000AF0346FB80064AFB881380044B1A88044B1A800C37BD465DF8047B704700BFBC81FF1FBE81FF1F80B582B000AF0346FB713620FFF79CFBFB7903F075
:401500000303DAB2204B1A701F4B1B78032B37D801A252F823F000BF291500003F150000551500006B1500004820FFF771FB174BF0221A60164B4FF4A0721A6020E028207F
:40154000FFF766FB114B4FF4A0721A60104BF0221A6015E08820FFF75BFB0C4BF0221A600B4B4FF4A0721A600AE0E820FFF750FB064B4FF4A0721A60054BF0221A6000BF23
:401580000837BD4680BD00BFAE81FF1FB081FF1FB881FF1F80B582B000AF00F0D5FB0346FB71FB7903F00E03FB71FB79184600F0BBFB0837BD4680BD80B582B000AF00F08E
:4015C000C3FB0346FB71FB7943F00103FB71FB79184600F0A9FB0837BD4680BD80B582B000AF00F0B1FB0346FB71FB7903F00D03FB71FB79184600F097FB0837BD4680BD5F
:4016000080B582B000AF00F09FFB0346FB71FB7943F00203FB71FB79184600F085FB0837BD4680BD80B582B000AF00F08DFB0346FB71FB7903F00B03FB71FB79184600F096
:4016400073FB0837BD4680BD80B582B000AF00F07BFB0346FB71FB7943F00403FB71FB79184600F061FB0837BD4680BD80B582B000AF00F095FA00F009F903461A4640F62F
:4016800011039A4201D000234EE0FFF7DDFF0320022100F04DF80A2000F06EFB0023BB710123FB7108E0FB79184600F063F80346BB71FB790133FB71FB79402BF3D904200C
:4016C000002100F035F84020012100F031F80A20012100F02DF82020602100F029F82120022100F025F84120A42100F021F85620062100F01DF84A20012100F019F84B20A4
:40170000012100F015F84B20002100F011F85820012100F00DF80B20FF2100F009F80920052100F005F8012318460837BD4680BD80B582B000AF03460A46FB801346BB803F
:40174000FFF770FF012000F017FBFB88DBB21846FFF782FA012000F00FFBBB88DBB21846FFF77AFA012000F007FBFFF76DFF0837BD4680BD80B584B000AF0346FB71FFF797
:4017800051FF012000F0F8FAFB7963F07F03DBB2184600F04DFA012000F0EEFA002000F047FA012000F0E8FA00BF00F06BFA0346002BFAD0012000F0DFFA002000F038FAB0
:4017C000642000F0FBFA00BF00F05CFA0346002BFAD000F047FA0346FB73FFF735FFFB7B18461037BD4680BD90B587B000AFF860B9607A600023FB750DE0FC7DD720FFF774
:40180000B9FF03461A4607F11803234403F8082CFB7D0133FB75FB7D032BEED93B7C9AB2FB681A80FB681B881B019AB2FB681A80FB681A887B7C1B09DBB29BB213439AB20E
:40184000FB681A807B7C9BB203F00F039AB2BB681A80BB681B881B029AB2BB681A80BB681A88BB7C9BB213439AB2BB681A80FA7C7B681A7000F054F80346002B03D00B20F4
:40188000FF21FFF755FF1C37BD4690BD80B582B000AF0020FFF76EFF0346FB80FB881B02FB800120FFF766FF03469AB2FB881343FB80FB8818460837BD4680BD80B500AFFA
:4018C0004B20FFF757FF034643F00103DBB29BB24B201946FFF72CFF4B20FFF74BFF03469BB203F0FE039BB24B201946FFF720FF80BD00BF80B582B000AF4020FFF73AFFEA
:401900000346FB71FB7923F07F03BB71BB79002B14BF01230023DBB218460837BD4680BD80B500AF4B20FFF725FF034603F02003002B14BF01230023DBB2184680BD00BFE6
:4019400080B584B000AF03460A46FB8013467B7100F0B2F80346FB7300F0A2F80346BB81FA88BB899A4200F08780454B1B78DBB203F00103FB72FB7B002B20D1BB89002BE8
:4019800002D0FB88002B1AD1BB89002B0BD13D4AFB8813803C4A3C4B1B78DBB223F04003DBB2137068E0384A374B1B78DBB243F04003DBB21370334AFB8813805CE0FB7A0B
:4019C000002B33D0314B00221A70314B01221A70304B00221A70304A2F4B1B78DBB203F07F03DBB21370284B1B78DBB203F00803002B02D0FB88002B18D1284ABB8913803A
:401A0000224B07221A7000BF204B1B78DBB203F00103002BF8D11A4A194B1B78DBB223F00103DBB21370194B00221A70144B1B78DBB203F00103002B13D0184AFB88138036
:401A4000124A7B79002B01D0032300E00123137000BF0E4B1B78DBB203F00103002BF8D10AE0084AFB8813800549054B1B78DAB2FB7A1343DBB20B701037BD4680BD00BF22
:401A8000A24300408040004082400040014000401040004014400040084000400240004080B400AF034B1B889BB21846BD465DF8047B70478040004080B400AF054B1B787D
:401AC000DBB203F00703DBB21846BD465DF8047B704700BF8240004080B500AF124B0F221A70124B02221A600120072100F0A0F901200F4900F074F90C4B01221A6000206F
:401B0000072100F095F900200A4900F069F900F0D1F800F06DF800F07BF8074B08221A70064B00221A7080BD8D64004080E100E0111D00001D1D00008A6400408B64004052
:401B400080B582B000AF00F09FF90346FB71114A104B1B78DBB243F02003DBB213700E4A0D4B1B78DBB243F01003DBB213700B4A0A4B1B78DBB243F01003DBB21370FB791C
:401B8000184600F085F900F01BF800F025F80837BD4680BD9D6400409A6400409B64004080B500AF054B1B78002B04D1FFF794FF024B01221A70FFF7C3FF80BD9C81FF1F92
:401BC00080B400AF034B02221A60BD465DF8047B704700BF00E100E080B400AF034B01221A60BD465DF8047B704700BF00E100E080B483B000AF054B1B78FB71FB791846F5
:401C00000C37BD465DF8047B704700BF6A64004080B483B000AF054B1B78FB71FB7918460C37BD465DF8047B704700BF6B64004080B483B000AF0346FB7100BF074B1B78C1
:401C4000DBB203F00403002BF8D0054AFB7913700C37BD465DF8047B704700BF6A6400404D64004080B483B000AF054B1B78FB71FB7918460C37BD465DF8047B704700BF4E
:401C80005D64004080B483B000AF094B1B78DBB203F02003002B01D0012300E00023FB71FB7918460C37BD465DF8047B704700BF6B64004080B582B000AF01E0114B1B789D
:401CC000114B1B78DBB203F02003002BF6D100F0DBF80346FB710D4A0C4B1B78DBB243F00103DBB21370094A084B1B78DBB223F00103DBB21370FB79184600F0C9F8083724
:401D0000BD4680BD5D6400406B6400409D64004080B400AFBD465DF8047B704780B400AFBD465DF8047B704780B483B000AF0346FB71044AFB7913700C37BD465DF8047B06
:401D4000704700BF7A64004080B400AF034B1B78DBB21846BD465DF8047B70477A64004080B483B000AF0346FB7101BE0C37BD465DF8047B704700BF80B582B000AF78606C
:401D800008E00C4B1B68184600F076F87B68A3F500437B607B68B3F5004FF2D8064B1B687A6802FB03F3184600F066F80837BD4680BD00BF1881FF1F1081FF1F80B582B008
:401DC00000AF0346FB80FB88044A127802FB03F3184600F051F80837BD4680BD1481FF1F80B584B000AF03463960FB710F4B1B68FB60FB791F2B02D90020FFF7B1FFFB79E8
:401E000003F01F0310339B00FA6813441B68BB60FB7903F01F0310339B00FA6813443A681A60BB6818461037BD4680BD08ED00E080B582B000AF03460A46FB711346BB719F
:401E4000BB79072B02D90020FFF78AFFFB791F2B02D90020FFF784FFFB7903F01F0303F1604303F56443BA795201D2B21A700837BD4680BD000000000230800803D000BF32
:401E800001380046FCD17047EFF3108072B6704780F31088704700BF80F0004002E000BF81F0004142001FBF5FEA410392EA030F7FEA226C7FEA236C6AD04FEA1262D2EB7C
:401EC0001363C1BFD218414048404140B8BF5B42192B88BF704710F0004F40F4000020F07F4018BF404211F0004F41F4000121F07F4118BF494292EA030F3FD0A2F101028B
:401F000041FA03FC10EB0C00C3F1200301FA03F100F0004302D5494260EB4000B0F5000F13D3B0F1807F06D340084FEA310102F10102FE2A51D2B1F1004F40EBC25008BF7E
:401F400020F0010040EA03007047490040EB000010F4000FA2F10102EDD1B0FA80FCACF1080CB2EB0C0200FA0CF0AABF00EBC25052421843BCBFD0401843704792F0000F96
:401F800081F4000106BF80F400000132013BB5E74FEA41037FEA226C18BF7FEA236C21D092EA030F04D092F0000F08BF0846704790EA010F1CBF0020704712F07F4F04D193
:401FC000400028BF40F00040704712F100723CBF00F50000704700F0004343F0FE4040F4000070477FEA226216BF08467FEA23630146420206BF5FEA412390EA010F40F42E
:40200000800070474FF0000304E000BF10F0004348BF40425FEA000C08BF704743F0964301464FF000001CE050EA010208BF70474FF000030AE000BF50EA010208BF7047F6
:4020400011F0004302D5404261EB41015FEA010C02BF84460146002043F0B64308BFA3F18053A3F50003BCFA8CF2083AA3EBC25310DB01FA02FC634400FA02FCC2F1200287
:40208000BCF1004F20FA02F243EB020008BF20F00100704702F1200201FA02FCC2F1200250EA4C0021FA02F243EB020008BF20EADC7070474FF0FF0C1CEAD0521EBF1CEA86
:4020C000D15392EA0C0F93EA0C0F6FD01A4480EA010C400218BF5FEA41211ED04FF0006343EA501043EA5111A0FB01310CF00040B1F5000F3EBF490041EAD3715B0040EA11
:40210000010062F17F02FD2A1DD8B3F1004F40EBC25008BF20F00100704790F0000F0CF0004C08BF49024CEA502040EA51207F3AC2BFD2F1FF0340EAC250704740F400009F
:402140004FF00003013A5DDC12F1190FDCBF00F000407047C2F10002410021FA02F1C2F1200200FA02FC5FEA310040F1000053EA4C0308BF20EADC70704792F0000F00F09F
:40218000004C02BF400010F4000F013AF9D040EA0C0093F0000F01F0004C02BF490011F4000F013BF9D041EA0C018FE70CEAD15392EA0C0F18BF93EA0C0F0AD030F0004C7F
:4021C00018BF31F0004CD8D180EA010000F00040704790F0000F17BF90F0004F084691F0000F91F0004F14D092EA0C0F01D142020FD193EA0C0F03D14B0218BF084608D196
:4022000080EA010000F0004040F0FE4040F40000704740F0FE4040F4400070474FF0FF0C1CEAD0521EBF1CEAD15392EA0C0F93EA0C0F69D0A2EB030280EA010C49024FEAA3
:40224000402037D04FF0805343EA111143EA10130CF000408B4238BF5B0042F17D024FF4000C8B4224BF5B1A40EA0C00B3EB510F24BFA3EB510340EA5C00B3EB910F24BF25
:40228000A3EB910340EA9C00B3EBD10F24BFA3EBD10340EADC001B0118BF5FEA1C1CE0D1FD2A3FF650AF8B4240EBC25008BF20F0010070470CF0004C4CEA50207F32C2BF34
:4022C000D2F1FF0340EAC250704740F400004FF00003013A37E792F0000F00F0004C02BF400010F4000F013AF9D040EA0C0093F0000F01F0004C02BF490011F4000F013B13
:40230000F9D041EA0C0195E70CEAD15392EA0C0F08D142027FF47DAF93EA0C0F7FF470AF084676E793EA0C0F04D14B023FF44CAF08466EE730F0004C18BF31F0004CCAD108
:4023400030F000427FF45CAF31F000437FF43CAF5FE700BF4FEA4002B2F1FE4F0FD34FF09E03B3EB12620DD94FEA002343F0004310F0004F23FA02F018BF404270474FF012
:402380000000704712F1610F01D1420205D110F0004008BF6FF0004070474FF0000070470E4B70B51E460E4C0025E41AA410A54204D056F8253098470135F8E700F094FECD
:4023C000084B094C1E46E41AA4100025A54204D056F8253098470135F8E770BDF4300000F4300000F4300000FC30000010B5431E0A44914204D011F8014B03F8014FF8E749
:4024000010BD03460244934202D003F8011BFAE7704700000EB400B54FF402719CB0ADF814106FF00041049107914FF6FF711DABADF81610084953F8042B02900690086830
:4024400002A9019300F074F9029B00221A701CB05DF804EB03B070477C81FF1F034611F8012B03F8012B002AF9D17047034613F8012B002AFBD1181A01387047174B2DE982
:40248000F0411D680646AC6D0F46FCB9502000F053F8A8658460AB6D046044601C61DC60AB6D9C615C61AB6DDC629C62AB6D5C631C63AB6DDC639C63AB6D5C641C64AB6D40
:4024C000DC649C64AB6D1C77AB6D5C6230463946AA6D0123BDE8F04100F002B87C81FF1FF0B548B9106838B9F0BD17F8016B5EB1B542FAD12BB1204604460F4614F8015BFF
:40250000F3E714600370F0BD4DB915602846F0BD17F8016BAE4207D0002EF9D11C4623460F4613F8015BF3E715B10021217000E02B461360F0BD0000024B0146186800F00F
:4025400047B800BF7C81FF1F30B500293CD051F8042C0B1F1D49002AB8BF9B180A680C4612B95A600B6030BD93420DD219685818904201BF5A5852181A60426823605A60B6
:4025800030BD994203D80A4651680029F9D1146815199D420AD11B682344D0188842136012D10868034413604B680CE002D90C23036030BD1C681819884201BF08684968A3
:4025C000001918605960536030BD00BFA481FF1F70B5CC1C24F0030408340C2C38BF0C24002C064603DA0C233360002070BD8C42F9D3204A136810461946A1B10A68121BA3
:402600000ED40B2A03D90A608B188C501FE08B420BBF5A684A6802605A6018BF0B4616E00B464968E9E7144D2B681BB9304600F007FB28603046214600F002FB421C03467F
:40264000D1D0C51C25F0030585420AD11C6003F10B001A1D20F00700821A0AD05142995070BD3046E91A00F0EBFA0130BBD02B46ECE770BDA481FF1FA081FF1F2DE9F047E7
:402680008E688246B3420C469046994640D38A8912F4906F3AD02568096902236F1A656905EB450595FBF3F57B1C4B449D4238BF1D4653050FD52946FFF78AFF064698B1E0
:4026C00021693A46FFF792FEA38923F4906343F08003A38113E02A4600F0EBFA064670B950462169FFF730FF0C23CAF80030A3894FF0FF3043F04003A381BDE8F087266150
:402700003E4426604E466561ED1BA560B14500D24E4632462068414600F0B0FAA36800209B1BA36023681E442660BDE8F08700002DE9F0439DB003938B8906461C060D4639
:4027400090460CD50B6953B94021FFF741FF2860286110B90C233360CCE040236B610023099320238DF8293030238DF82A3043461C4613F8012B1AB9B4EB08090FD002E09C
:40278000252AF5D1F8E73046294642464B46FFF775FF013000F0A980099B4B4409932378002B00F0A28000234FF0FF3204930793059206938DF853301A9304F1010844469B
:4027C000DFF8489121784846052200F049FA08F10108049B30B1C9EB00000122824013430493ECE7D80644BF20228DF85320190744BF2B228DF8532022782A2A02D00799EA
:4028000023460EE0039A0134111D12680391002ABBBF524243F0020307920792B8BF04930AE01C4622780133303A092A03D80A2000FB0121F5E7079123782E2B1AD163787C
:402840002A2B0AD1039B02341A1D1B680392002BB8BF4FF0FF3305930CE0611C00220C4623780131303B092B03D80A2000FB0232F5E70592DFF8988021784046032200F047
:40288000EFF938B1049AC8EB00004023834013430493013421781A48062204F101088DF8281000F0DDF988B1164B33B9039B073323F007030833039313E003AB0093304614
:4028C00004A92A46104BAFF3008007E003AB0093304604A92A460C4B00F092F8421C074603D0099B3B44099341E7AB895B0601D4099801E04FF0FF301DB0BDE8F08300BF4F
:40290000BC300000000000007D260000B2300000B83000002DE9F84391461F468A680B6906469342B8BF1346C9F8003091F843200C46DDF8208012B10133C9F80030236843
:40294000990642BFD9F800300233C9F80030256815F006051CD094F843302268003318BF012392061FD5E118302081F843005A1C94F845102244023382F8431013E0304697
:40298000394604F119020123C047013007D00135E368D9F800209B1A9D42F0DBDBE74FF0FF30BDE8F8833046394604F14302C0470130F4D02268D9F80050E36802F0060219
:4029C000042A08BF5D1B2269A3680CBF25EAE57500259342C4BF9B1AED184FF00009A9450ADA3046394604F11A020123C0470130D5D009F10109F2E70020BDE8F88300002B
:402A00002DE9FF410C461746227E98466E2A06460A9B01F1430100F0B08012D8632A23D00AD8002A00F0BD80582A40F0CC8084F84520DFF804E257E0642A1ED0692A1CD0C3
:402A4000C1E0732A00F0B18009D86F2A2ED0702A40F0B980226842F0200222603FE0752A24D0782A3BD0AEE01A6804F14205111D1960136884F84230A9E020681A6810F0CE
:402A8000800F02D0101D186008E010F0400F02F10400186002D0B2F9003000E01368002B3EDA2D225B4284F8432039E020681A6810F0800F02D0101D186007E010F0400FF5
:402AC00002F10400186001D0138800E01368227EDFF864E16F2A0CBF08220A221CE07822DFF858E184F845202268186812F0800F00F104051D6003D1550601D5038800E021
:402B00000368D00744BF42F0200222601BB9226822F0200222601022002084F8430002E0DFF814E10A226568002DA8BF2068A560A4BF20F00400206003B965B10D46B3FBC3
:402B4000F2F002FB10331EF8033005F8013D03460028F4D100E00D46082A0BD12368DA0708D5236962689A42DEBF302305F8013C05F1FF35491B21612EE025681A6815F061
:402B8000800F606903D0151D1D60136808E015F0400F02F104051D60136801D0188000E01860002323610D4616E01A68111D1960156800212846626800F052F808B1401B92
:402BC0006060636804E004F1420584F8422001232361002384F84330CDF800803046214603AA3B46FFF796FE013002D14FF0FF301FE0304639462A462369C0470130F5D059
:402C000023689B0705D4E068039B9842B8BF18460FE00025E368039A9B1A9D42F3DA3046394604F119020123C0470130DED00135F0E704B0BDE8F081C3300000D4300000BF
:402C400038B5064C002305460846236000F062F8431C02D1236803B12B6038BDC081FF1F10B5C9B202449042034605D01C7801308C42F8D1184610BD002010BD814210B5CA
:402C800001EB020301D3421E0BE09842FBD28118D21AD34204D013F8014D01F8014DF8E710BD994204D011F8014B02F8014FF8E710BDF8B5074615460E4621B91146BDE82A
:402CC000F840FFF785BC1AB9FFF73EFC2846F8BD00F015F8A8420ED238462946FFF778FC044650B131462A46FFF780FB38463146FFF72AFC01E03046F8BD2046F8BD51F8FD
:402D0000040C0028BEBF091851F8043CC018043870470000044A05491368002B08BF0B461844106018467047A881FF1FC881FF1F00000000746674206C6364207363726512
:402D4000656E207769746820776F72642077726170000000782C793A202569202020202569000000005100401000205100404000F0510040100000000140800C000D01409D
:402D8000000300140140000800400140000A004C014000020050014020000000800C0140000200488000000000000000000000000000000000000000000000000000000051
:402DC00000000000000000000000000000000000000000000000000000000000000000000000000000000000000000000000000000000000000000000000000000000000D3
:402E00000000000000000000000000000000000000000000000000000000000000000000000000000000000000000000000000000000000000000000000000000000000092
:402E4000000000000000000000000000000000000000000000000000000000000000000000000000000000000000000000000000004F000000000700070000147F147F14BB
:402E800000242A7F2A1200231308646200364955225000000503000000001C224100000041221C000014083E08140008083E0808000050300000000808080808000060607D
:402EC0000000002010080402003E5149453E0000427F4000004261514946002141454B31001814127F10002745454539003C4A49493000017109050300364949493600067E
:402F00004949291E00363600000000563600000000081422410000141414141400004122140800020151090600304979413E007E1111117E007F49494936003E41414122A8
:402F4000007F4141221C007F49494941007F09090901003E4149497A007F0808087F0000417F4100002040413F01007F08142241007F40404040007F020C027F007F040843
:402F8000107F003E4141413E007F09090906003E4151215E007F091929460046494949310001017F0101003F4040403F001F2040201F003F4030403F006314081463000748
:402FC0000870080700615149454300007F414100000204081020000041417F00000402010204004040404040000001020400002054545478007F50484830003844444420EC
:4030000000384444487F00385454541800087E090102000C5252523E007F080404780000447D4000002040443D00007F102844000000417F4000007804584478007C0804EF
:403040000478003844444438007C1414140800081414187C007C0804040800485454542000043F444020003C4040207C001C2040201C003C4030403C004428102844000C09
:403080005050503C004464544C440000083641000000007F0000000041360800000C020C100C00000000000020090000200000004300232D302B2000686C4C0065666745B7
:4030C00046470030313233343536373839414243444546003031323334353637383961626364656600000000F8B500BFF8BC08BC9E4670474D00000029030000F8B500BFDB
:40310000F8BC08BC9E46704729000000203100000881FF1F7800000048000000000000000000000000366E01C05D0000180000000000E02E000000000000000000000000B3
:403140000000000000000000000000000000000000000000B0300000000000000000000000000000000000000000000000000000000000000000000000000000000000006F
:4031800000000000000000000000000000000000000000001C81FF1F0000000000000000000000000000000000000000000000000000000000000000000000000000000054
:4031C00000000000000000000000000000000000000000000000000000000000000000000000000000000000000000000000000000000000000000000000000000000000CF
:40320000000000000000000000000000000000000000000000000000000000000000000000000000000000000000000000000000000000000000000000000000000000008E
:40324000000000000000000000000000000000000000000000000000000000000000000000000000000000000000000000000000000000000000000000000000000000004E
:40328000000000000000000000000000000000000000000000000000000000000000000000000000000000000000000000000000000000000000000000000000000000000E
:020000040003F7
:0200000480007A
:4000000003520040016400400205014002090140330A0140320B01400A0C0140390D01400340014002410140064201400C44014009450140074601400347014003500140BA
:40004000015101403098311834408D0FE204E608AF21B0410108021003340402060D07020C0D0E10100111241202131B141D1514172B1C1D1D0D1F30201D241D28022A04E0
:400080002C022E0832103303340F373C3A203B803E0454095604580459045B045F018C048E09900E9405960AA003A204B00FB802D440D604D804DB04DF0100040140024058
:4000C00007010A910D080E80118512081702180419081C801E80210423013248330139083B0159145A42638265086652680169106A088340850486028910914592D3960859
:40010000970199149A509B03A148A208A320C08DC23DC41FCC0BCE03D60FD8F9E00801010302110415061701290437073B8059045F010014014209480A8010A8138018114F
:400140001A421B2020062108225823122540270129502B082F083008325033013608370139453B103C0240014108430148054906525053086301682869456A106B807080B1
:400180007140720180109608A004AE04B004C00FC20DC40FCA2CCCCFCE8FD00BD20CD808E401EC0833803580CC309D80A780818087809D80A780E220E61008105304540162
:4001C0005B02650266407108C202D404D607D801DC0183029D029E409F02A401A508AF04B010EA04864088019D029E40A401A508E001B10AE801EC0400010C010E01000FD8
:40020000609A000004980002012100D80498800207FC38030A021098003800C056130964840000008400000080020400849A000008007F0F02E08013080000280000510016
:400240003405100006BEFD0C1FFFFFFF2200F008040000000000022004040404000000010000C00040011011C0010011400140010000000000000000000000000000000085
:400280000040400040000000000B0B0000000000040040BCBC00BC0000000000000000000000000000000000000000000000000000000000000000000000000000000000F0
:4002C00000000000000000000000000000000000000000000000000000000000000000000000000000000000000000000000000000000000000000000000000000000000FE
:4003000000000000000000000000000000000000000000000000000000000000000000000000000000000000000000000000000000000000000000000000000000000000BD
:40034000000000000000000000000000000000000000000000000000000000000000000000000000000000000000000000000000000000000000000000000000000000007D
:40038000000000000000000000000000000000000000000000000000000000000000000000000000000000000000000000000000000000000000000000000000000000003D
:0200000490006A
:0400000000004005B7
:0200000490105A
:04000000BC90ACAF55
:0200000490303A
:02000000D42406
:0200000490402A
:4000000000000000000000000000000000000000000000000000000000000000000000000000000000000000000000000000000000000000000000000000000000000000C0
:400040000000000000000000000000000000000000000000000000000000000000000000000000000000000000000000000000000000000000000000000000000000000080
:400080000000000000000000000000000000000000000000000000000000000000000000000000000000000000000000000000000000000000000000000000000000000040
:4000C0000000000000000000000000000000000000000000000000000000000000000000000000000000000000000000000000000000000000000000000000000000000000
:0200000490501A
:0C00000000012E12306900012E26048D34
:00000001FF