:400000000080002011000000850200008502000080B500AF47F2BC63C4F2000344F2FA62C4F2000212681A6000F030F910B5054C237833B9044810B10448AFF3008001217B
:40004000217010BD8881FF1F000000002032000008B5064B1BB106480649AFF300800648016811B1054A02B1904708BD00000000203200008C81FF1F0881FF1F00000000D5
:4000800080B592B002AF4FF47A7002F005F94FF017004FF0010101F04FFE4FF00A0002F0FBF84FF0000387F83F3000BF01F092FC034683F00103DBB2002BF7D14FF0010307
:4000C00087F83F304FF000004FF0010101F034FE4FF00A0002F0E0F800F0B2FB4FF0000000F052FE4FF000004FF0000101F03EFB4FF6FF7001F068FB4FF0020001F04EFB14
:400100004FF0010001F07AFB4FF4FC6300934FF032004FF096014FF064024FF0960300F0FDFE4FF01F0300934FF023004FF064014FF023024FF0C80300F0F0FE4FF064004C
:400140004FF064014FF00A024FF61F0300F0CAFF4FF017004FF0010101F0EEFD4FF00A0002F09AF801F036FC0346002B0FD04FF000004FF0010101F0DFFD4FF0010002F03B
:400180008BF84FF017004FF0010101F0D5FD4FF017004FF0010101F0CFFD4FF0010002F07BF85CE04FF017004FF0010101F0C4FD01F0B8FD034687F83E304FF0FF0387F848
:4001C000393007F13C0107F13A0207F13903084611461A4601F0ECFC97F83E2097F8393007F10401084643F22421C0F2000102F09DFB4FF000004FF0010101F09DFD4FF0EA
:40020000010002F049F807F10403184601F05EF84FF0010002F040F84FF0000300934FF028004FF000014FF0C8024FF0140300F01FFD4FF000004FF0000101F097FA4FF055
:4002400017004FF0010101F077FD4FF0010002F023F84FF017004FF0010101F06DFD01F039FD0346002B9DD14FF00B004FF0FF0101F036FC01F010FD4FF00A0002F00CF890
:4002800085E700BF80B400AFFEE700BF80B586B000AF40F20103C0F200037B6143F2D453C0F200033B6140F20103C0F200037B6143F2D453C0F200033B613BE03B691B6848
:4002C000FB603B695B68BB603B699B683B604FF000037B600FE0FB681A68BB681A60BB6803F10403BB60FB6803F10403FB607B6803F104037B607A683B689A42EBD13B69E5
:40030000DB683B604FF000037B600BE0BB684FF000021A60BB6803F10403BB607B6803F104037B607A683B689A42EFD13B6903F110033B617B69002B0CBF00230123DBB2F1
:400340007A6902F1FF327A61002BB7D102F0B6FAFFF796FEFEE700BF80B582B000AF4EF60C53CEF200034FF48062C0F2FA521A604EF61453CEF200034EF61452CEF2000225
:40038000126842F400721A604FF000037B6019E07B68032B07D840F20003C0F200037A6853F8223003E040F28523C0F2000348F20002C1F6FF72796842F821307B6803F119
:4003C00001037B607B682F2BE2D947F2BC63C4F200031B78DAB248F20413C1F6FF731A704EF60853CEF2000348F20002C1F6FF721A6000F037F948F20013C1F6FF734FF0DD
:4004000000021A6007F10807BD4680BD80B582B000AF7860396078684FF000013A6802F07CFA07F10807BD4680BD00BF80B584B000AFF860B9607A60F868B9687A6802F08A
:4004400063FA07F11007BD4680BD00BF80B487B000AF786039604FF000033B614FF000037B612CE07B694FEA83037A68D3181B68BB60BB68FB73BB6823F0FF03BB6017E095
:400480003B694FEA43033A68D3181B781A46BB68D3183A694FEA420239688A1852781A703B6903F101033B61FB7B03F1FF33FB73FB7B002BE4D17B6903F101037B617B69A0
:4004C0000F2BCFD907F11C07BD4680BC704700BF80B582B000AF4FF48143C4F200034FF000021A8044F28203C4F200034FF058021A704FF48643C4F200034FF006021A706C
:400500004FF48443C4F200034FF052021A7044F2A163C4F2000340F20F12C4F600121278D2B21A7044F20403C4F200034FF000021A8044F22223C4F200034FF4E1621A800C
:4005400044F22023C4F2000341F251221A804FF00003FB704FF019037B6019E0FB784FEA4303DAB244F22523C4F200031B78DBB203F00103DBB21343DBB203F00303FB708D
:400580004FF4F07001F068FE7B6803F1FF337B607B68002B02D0FB78032BDFD144F20403C4F200034FF007021A7044F20603C4F200034FF000021A7044F20803C4F20003A7
:4005C0004FF048021A7044F20403C4F200034FF000021A7044F20903C4F200034FF000021A7044F20103C4F200034FF002021A7044F2A233C4F2000344F2A232C4F200021B
:400600001278D2B242F00102D2B21A7007F10807BD4680BD80B483B000AF40F2CF13C4F600131B78FB7145F66E03C4F20003FA7902F00702D2B21A7045F66F03C4F20003E5
:40064000FA794FEA1212D2B21A7045F67603C4F200034FF044021A7007F10C07BD4680BC704700BF80B586B000AF72B644F2E863C4F2000344F2E862C4F200021278D2B29E
:4006800042F00402D2B21A704FF00003FB7519E0FA7D13464FEA43039B184FEA430343F23422C0F200029B183B613B691A683B699B889BB210461946FFF7A8FEFB7D03F143
:4006C0000103FB75FB7D072BE2D94FF00003FB7523E0FA7D13464FEA83039B184FEA430343F26422C0F200029B18FB60FB681B68BB60FB685B687B60FB681A7A5B7A4FEA27
:40070000032313437B807B88B86879681A46FFF78DFEFB7D03F10103FB75FB7D002BD8D04FF090404FF04001C4F60001FFF78EFE45F20303C4F2010345F20302C4F201027A
:400740001278D2B242F00202D2B21A7045F21303C4F2010345F21302C4F201021278D2B242F00202D2B21A7044F2A033C4F2000344F2A032C4F200021278D2B242F04002C5
:40078000D2B21A7044F2C233C4F2000344F2C232C4F200021278D2B242F01002D2B21A7045F2C210C4F200004FF41971C4F600014FF00802FFF73AFE45F26010C4F20000EA
:4007C0004FF41B71C4F600014FF00A02FFF72EFE44F22233C4F2000344F22232C4F200021278D2B242F00802D2B21A704FF49043C4F200034FF001021A70FFF769FE4FF4E9
:400800009043C4F200034FF081021A704FF00403C4F208034FF001021A70FFF7FBFE44F2B030C4F2000044F2A031C4F200014FF00E02FFF7FBFD07F11807BD4680BD00BF41
:4008400080B500AF01F062F801F088F848F2B813C1F6FF734FF000021A8048F2B813C1F6FF731A8848F2B013C1F6FF731A8048F2BB13C1F6FF734FF001021A7048F2C01335
:40088000C1F6FF734FF6FF721A8048F2C013C1F6FF731A8848F2C213C1F6FF731A8048F2BA13C1F6FF734FF001021A7048F2B213C1F6FF734FF000021A7048F2B413C1F66E
:4008C000FF734FF0F0021A6048F2BC13C1F6FF734FF4A0721A604FF4FA7001F0DDFC4FF0010000F0BBFA4FF0C80001F0D5FC4FF0CF0000F0B3FA4FF0000000F09BFA4FF007
:400900008B0000F097FA4FF0300000F093FA4FF0ED0000F0A3FA4FF0670000F08BFA4FF0030000F087FA4FF0120000F083FA4FF0810000F07FFA4FF0E80000F08FFA4FF072
:40094000850000F077FA4FF0100000F073FA4FF07A0000F06FFA4FF0CB0000F07FFA4FF0390000F067FA4FF02C0000F063FA4FF0000000F05FFA4FF0340000F05BFA4FF060
:40098000020000F057FA4FF0F70000F067FA4FF0200000F04FFA4FF0EA0000F05FFA4FF0000000F047FA4FF0000000F043FA4FF0C00000F053FA4FF01B0000F03BFA4FF08D
:4009C000C10000F04BFA4FF0100000F033FA4FF0C50000F043FA4FF03F0000F02BFA4FF03C0000F027FA4FF0C70000F037FA4FF0B70000F01FFA4FF0360000F02FFA4FF052
:400A0000080000F017FA4FF03A0000F027FA4FF0550000F00FFA4FF0B10000F01FFA4FF0000000F007FA4FF01B0000F003FA4FF0B60000F013FA4FF00A0000F0FBF94FF0C8
:400A4000A20000F0F7F94FF0F20000F007FA4FF0000000F0EFF94FF0260000F0FFF94FF0010000F0E7F94FF0E00000F0F7F94FF00F0000F0DFF94FF02A0000F0DBF94FF0DD
:400A8000280000F0D7F94FF0080000F0D3F94FF00E0000F0CFF94FF0080000F0CBF94FF0540000F0C7F94FF0A90000F0C3F94FF0430000F0BFF94FF00A0000F0BBF94FF01E
:400AC0000F0000F0B7F94FF0000000F0B3F94FF0000000F0AFF94FF0000000F0ABF94FF0000000F0A7F94FF0E10000F0B7F94FF0000000F09FF94FF0150000F09BF94FF055
:400B0000170000F097F94FF0070000F093F94FF0110000F08FF94FF0060000F08BF94FF02B0000F087F94FF0560000F083F94FF03C0000F07FF94FF0050000F07BF94FF036
:400B4000100000F077F94FF00F0000F073F94FF03F0000F06FF94FF03F0000F06BF94FF00F0000F067F94FF0110000F077F94FF0780001F091FB4FF0290000F06FF94FF032
:400B8000000000F001F980BD80B582B000AF13460246FA800A46BA807B80FA88BB881046194600F009F87B88184600F025F907F10807BD4680BD00BF80B582B000AF02461A
:400BC0000B46FA80BB80FA88FB881046194600F0FBF8BA88BB881046194600F009F84FF02C0000F03BF907F10807BD4680BD00BF80B582B000AF02460B46FA80BB804FF0EF
:400C00002B0000F02BF9FB88184600F0F5F8BB88184600F0F1F807F10807BD4680BD00BF80B582B000AFF880B9807A803B804FF02A0000F013F9FB88184600F0DDF87B88AD
:400C4000184600F0D9F84FF02B0000F007F9BB88184600F0D1F83B88184600F0CDF84FF02C0000F0FBF807F10807BD4680BD00BF90B585B000AFF880B9807A803B80B7F938
:400C8000062048F2B413C1F6FF731B689A4276DAB7F9042048F2BC13C1F6FF731B689A426DDAB7F90620B7F90230D31803F1FF3248F2B413C1F6FF731B689A4209DB48F21A
:400CC000B413C1F6FF731B689AB2FB88D31A9BB27B80B7F90420B7F90030D31803F1FF3248F2BC13C1F6FF731B689A4209DB48F2BC13C1F6FF731B689AB2BB88D31A9BB2C6
:400D00003B80F888B988FA887B88D3189BB203F1FF339AB2BC883B88E3189BB203F1FF339BB2FFF77DFF3B8C4FEA13239BB2FB733B8CBB7300F012FE00F0D4FD3B88BB802F
:400D400016E07B88FB800BE0FB7B184600F09AF8BB7B184600F096F8FB8803F1FF33FB80B7F90630002BEFDCBB8803F1FF33BB80B7F90430002BE4DC00F0C8FD00E000BFE5
:400D800007F11407BD4690BD80B584B002AF0346FB8048F2B413C1F6FF731B689AB248F2BC13C1F6FF731B689BB212B21BB2F98800914FF000004FF00001FFF759FF07F18F
:400DC0000807BD4680BD00BF80B582B000AF02460B46FA80BB804FF02A0000F03FF8FB88184600F009F8BB88184600F005F807F10807BD4680BD00BF80B584B000AF03462A
:400E0000FB80FB884FEA13239BB2FB73FB88BB7300F0A4FD00F066FDFB7B184600F032F8BB7B184600F02EF800F070FD07F11007BD4680BD80B582B000AF0346FB7100F0F6
:400E40008DFD00F04FFDFB79184600F01BF800F05DFD07F10807BD4680BD00BF80B582B000AF0346FB7100F065FD00F03BFDFB79184600F007F800F049FD07F10807BD4641
:400E800080BD00BF80B582B000AF0346FB71FB79184601F035F907F10807BD4680BD00BF80B584B000AFF880B9807A803B80FA88FB8810461946FFF787FFBA887B88D31890
:400EC0009BB2BA8810461946FFF792FE4FF02C00FFF7C4FF00F042FD00F004FD4FF00003FB8110E03B884FEA13239BB2DBB21846FFF7C8FF3B88DBB21846FFF7C3FFFB8925
:400F000003F10103FB81FA897B889A42EAD300F0FDFC07F11007BD4680BD00BF90B589B000AFF880B9807A803B807A88FB88D31A9BB2BB823A88BB88D31A9BB27B824FF01D
:400F40000003FB83FB8B7B83B7F91430002B05DDBB8A7B834FF00103FB830BE0B7F91430002B07DABB8AC3F100039BB27B834FF6FF73FB834FF00003BB83BB8B3B83B7F9CC
:400F80001230002B05DD7B8A3B834FF00103BB830BE0B7F91230002B07DA7B8AC3F100039BB23B834FF6FF73BB83B7F91A20B7F918309A4249DBB7F91230184601F0B4FA28
:400FC0000446B7F91430184601F0AEFA03462046194601F0B1FB0346FB604FF00003FB822CE0FA8AFB88D3189BB27B81B7F91630184601F099FA03461846F96801F0E8FAB4
:4010000003461C46BB88184601F08EFA03462046194601F0D5F90346184601F029FC03463B8179893A893B8E084611461A46FFF7ABFDFA8AFB8BD3189BB2FB82B7F9162086
:40104000B7F914309A42CCD148E0B7F91430184601F06AFA0446B7F91230184601F064FA03462046194601F067FB0346FB604FF00003FB822CE0B7F91630184601F054FAE8
:4010800003461846F96801F0A3FA03461C46FB88184601F049FA03462046194601F090F90346184601F0E4FB03467B81FA8ABB88D3189BB23B8179893A893B8E08461146A8
:4010C0001A46FFF761FDFA8ABB8BD3189BB2FB82B7F91620B7F912309A42CCD107F12407BD4690BD80B584B002AFF880B9807A803B80F888BA887B88D31A99B27B884FEA40
:4011000043039BB203F101039AB23B88FFF7C8FEB7F90610B7F90420B7F902304FF00000009038880190084611461A464FF0030300F004F807F10807BD4680BD80B586B0D5
:4011400000AFF880B9807A807B707B88C3F101039BB2FB824FF00103BB827B881A464FEAC232D31A4FEA43039BB27B824FF000033B827B88FB817DE0B7F91630002B0DDBFB
:40118000FB8903F1FF33FB817B8A03F102039BB27B82FA8A7B8AD3189BB2FB823B8A03F101033B82BB8A03F102039BB2BB82FA8ABB8AD3189BB2FB827B7803F00103002BAE
:4011C00029D0FA883B8AD31898B2BA88FB89D31A99B2FB894FEA43039AB23B8CD3189BB203F101039AB2BB8CFFF75AFEFA88FB89D31898B2BA883B8AD31A99B23B8A4FEADD
:4012000043039AB23B8CD3189BB203F101039AB2BB8CFFF745FE7B7803F00203002B29D0FA883B8AD31A98B2BA88FB89D31A99B2FB894FEA43039AB23B8CD3189BB203F18C
:4012400001039AB2BB8CFFF72BFEFA88FB89D31A98B2BA883B8AD31A99B23B8A4FEA43039AB23B8CD3189BB203F101039AB2BB8CFFF716FEB7F91020B7F90E309A42FFF679
:401280007BAF07F11807BD4680BD00BF80B584B000AF78604FF00103FB737B681B78BB730CE0BB7B184600F0C7F8FB7B7A68D3181B78BB73FB7B03F10103FB73BB7B002B39
:4012C000EFD107F11007BD4680BD00BF90B5ADF2244D00AF07F10403186007F104031B68C7F8143407F10C031846D7F8141401F041FB07F10C03184643F27051C0F2000185
:4013000001F048FBC7F81C0448F2BB13C1F6FF731B781A4613464FEA82029B1A4FEA43031A4648F2B413C1F6FF731B68D318C7F8103448F2B813C1F6FF731B881BB2D7F8C4
:401340001024D31AC7F818344FF00003C7F80C3467E048F2BB13C1F6FF731B781C46D7F81C0401F00FFB034603FB04F213464FEA43039B184FEA4303C7F80C34D7F80C2464
:40138000D7F818349A4224DD48F2BB13C1F6FF731B784FEAC3039AB248F2B013C1F6FF731B889BB2D3189BB29AB248F2B013C1F6FF731A8048F2B813C1F6FF734FF000025D
:4013C0001A80D7F81024D7F80C34D31AC7F8183413E0D7F81824D7F80C34D11A48F2BB13C1F6FF731B781A4613464FEA82029B1A4FEA4303CB18C7F81834D7F81C04FFF710
:4014000045FF43F27450C0F20000FFF73FFF4FF0000043F27051C0F2000101F0BBFAC7F81C04D7F81C34002B93D107F1240707F58067BD4690BD00BFB0B584B002AF0346C6
:40144000FB71FB790A2B1DD148F2BB13C1F6FF731B784FEAC3039AB248F2B013C1F6FF731B889BB2D3189BB29AB248F2B013C1F6FF731A8048F2B813C1F6FF734FF0000291
:401480001A8053E0FB790D2B12D14FF00000FFF77BFC48F2B013C1F6FF734FF000021A8048F2B813C1F6FF734FF000021A803DE048F2B813C1F6FF73198848F2B013C1F67A
:4014C000FF731A8848F2C213C1F6FF731C8848F2C013C1F6FF731D8848F2BB13C1F6FF73187809B212B2FB7900950190084611461A46234600F01EF848F2BB13C1F6FF73A2
:401500001B781A464FEA4202D3184FEA43039AB248F2B813C1F6FF731B889BB2D3189BB29AB248F2B813C1F6FF731A8007F10807BD46B0BD90B587B002AFF880B980FA705C
:401540003B80B7F9062048F2B413C1F6FF731B689A4280F20681B7F9042048F2BC13C1F6FF731B689A4280F2FC80B7F9061097F8242013464FEA43039B184FEA4303CB187F
:4015800003F1FF33002BC0F2EC80B7F9042097F824304FEAC303D31803F1FF33002BC0F2E0804FF00003FB73D5E097F90F30062B03D14FF000037B7310E0F97897F90F004F
:4015C00043F27022C0F200020B464FEA43035B184FEA43031B18D3181B787B734FF00003BB73AFE07B7B03F00103002B4FD097F82430012B1AD148F2B413C1F6FF731B6832
:401600009AB297F90F3099B2FB88CB189BB2D31A99B297F90E309AB2BB88D3189AB23B88084611461A46FFF7AFFA83E048F2B413C1F6FF731B689AB297F90F309BB297F857
:40164000241089B201FB03F399B2FB88CB189BB2D31A9BB298B297F90E309BB297F8242092B202FB03F39AB2BB88D3189BB299B297F824309AB297F824309BB200B209B284
:4016800012B21BB23C880094FFF7F2FA52E03A8C3B889A424ED097F82430012B1AD148F2B413C1F6FF731B689AB297F90F3099B2FB88CB189BB2D31A99B297F90E309AB298
:4016C000BB88D3189AB23B8C084611461A46FFF75BFA2FE048F2B413C1F6FF731B689AB297F90F309BB297F8241089B201FB03F399B2FB88CB189BB2D31A9BB298B297F933
:401700000E309BB297F8242092B202FB03F39AB2BB88D3189BB299B297F824309AB297F824309BB200B209B212B21BB23C8C0094FFF79EFA7B7B4FEA53037B73BB7B03F11E
:401740000103BB7397F90E30072B7FF74BAFFB7B03F10103FB7397F90F30052B7FF725AF00E000BF07F11407BD4690BD80B483B000AF02460B46FA80BB8048F2B813C1F680
:40178000FF73FA881A8048F2B013C1F6FF73BA881A8007F10C07BD4680BC704780B483B000AF0346FB71FB79002B01D0FA7901E04FF0010248F2BB13C1F6FF731A7007F114
:4017C0000C07BD4680BC704780B483B000AF0346FB8048F2C013C1F6FF73FA881A8048F2C013C1F6FF731A8848F2C213C1F6FF731A8007F10C07BD4680BC704780B582B0A2
:4018000000AF0346FB714FF03600FFF727FBFB7903F00303DAB248F2B213C1F6FF731A7048F2B213C1F6FF731B78032B56D801A252F823F0451800006B180000911800006C
:40184000B71800004FF04800FFF7F4FA48F2B413C1F6FF734FF0F0021A6048F2BC13C1F6FF734FF4A0721A6038E04FF02800FFF7E1FA48F2B413C1F6FF734FF4A0721A600F
:4018800048F2BC13C1F6FF734FF0F0021A6025E04FF08800FFF7CEFA48F2B413C1F6FF734FF0F0021A6048F2BC13C1F6FF734FF4A0721A6012E04FF0E800FFF7BBFA48F2ED
:4018C000B413C1F6FF734FF4A0721A6048F2BC13C1F6FF734FF0F0021A6000BF07F10807BD4680BD80B582B000AF00F0A7FC0346FB71FB7903F00E03FB71FB79184600F042
:401900008DFC07F10807BD4680BD00BF80B582B000AF00F093FC0346FB71FB7943F00103FB71FB79184600F079FC07F10807BD4680BD00BF80B582B000AF00F07FFC0346B0
:40194000FB71FB7903F00D03FB71FB79184600F065FC07F10807BD4680BD00BF80B582B000AF00F06BFC0346FB71FB7943F00203FB71FB79184600F051FC07F10807BD469C
:4019800080BD00BF80B582B000AF00F057FC0346FB71FB7903F00B03FB71FB79184600F03DFC07F10807BD4680BD00BF80B582B000AF00F043FC0346FB71FB7943F0040393
:4019C000FB71FB79184600F029FC07F10807BD4680BD00BF80B582B000AF00F043FB00F03FF903461A4640F611039A4202D04FF000036FE0FFF7DAFF4FF003004FF002019D
:401A000000F06EF84FF00A0000F046FC4FF00003BB714FF00103FB7109E0FB79184600F085F80346BB71FB7903F10103FB71FB79402BF2D94FF004004FF0000100F050F8DE
:401A40004FF040004FF0010100F04AF84FF00A004FF0010100F044F84FF020004FF0600100F03EF84FF021004FF0020100F038F84FF041004FF0A40100F032F84FF05600C4
:401A80004FF0060100F02CF84FF04A004FF0010100F026F84FF04B004FF0010100F020F84FF04B004FF0000100F01AF84FF058004FF0010100F014F84FF00B004FF0FF01F8
:401AC00000F00EF84FF009004FF0050100F008F84FF00103184607F10807BD4680BD00BF80B582B000AF02460B46FA80BB80FFF749FF4FF0010000F0CFFBFB88DBB21846C2
:401B0000FFF7C0F94FF0010000F0C6FBBB88DBB21846FFF7B7F94FF0010000F0BDFBFFF745FF07F10807BD4680BD00BF80B584B000AF0346FB71FFF725FF4FF0010000F0F2
:401B4000ABFBFB7963F07F03DBB2184600F0D8FA4FF0010000F0A0FB4FF0000000F0D0FA4FF0010000F098FB00BF00F0F5FA0346002BFAD04FF0010000F08EFB4FF000006E
:401B800000F0BEFA4FF0640000F0AAFB00BF00F0E3FA0346002BFAD000F0CEFA0346FB73FFF704FFFB7B184607F11007BD4680BD90B587B000AFF860B9607A604FF0000338
:401BC000FB750FE0FC7D4FF0D700FFF7AFFF03461A4607F118010B1903F8082CFB7D03F10103FB75FB7D032BECD93B7C1A46FB681A80FB681B884FEA03139AB2FB681A8049
:401C0000FB681A887B7C4FEA1313DBB213439AB2FB681A807B7C03F00F039AB2BB681A80BB681B884FEA03239AB2BB681A80BB681A88BB7C13439AB2BB681A80FA7C7B6836
:401C40001A7000F05FF80346002B05D04FF00B004FF0FF01FFF744FF07F11C07BD4690BD80B582B000AF4FF00000FFF75FFF0346FB80FB884FEA0323FB804FF00100FFF71D
:401C800055FF03461A46FB881343FB80FB88184607F10807BD4680BD80B500AF4FF04B00FFF744FF034643F00103DBB24FF04B001946FFF715FF4FF04B00FFF737FF034605
:401CC00003F0FE039BB24FF04B001946FFF708FF80BD00BF80B582B000AF4FF04000FFF725FF0346FB71FB7923F07F03BB71BB79002B0CBF00230123DBB2184607F10807C5
:401D0000BD4680BD80B500AF4FF04B00FFF70EFF034603F02003002B0CBF00230123DBB2184680BD80B500AF4FF04C00FFF7FEFE0346184680BD00BF80B584B000AF0246CA
:401D40000B46FA807B7100F0F7F80346FB7300F0E7F80346BB81FA88BB899A4200F0DC8044F2A233C4F200031B78DBB203F00103FB72FB7B002B32D1BB89002B02D0FB8824
:401D8000002B2CD1BB89002B14D14FF48143C4F20003FA881A8044F28203C4F2000344F28202C4F200021278D2B222F04002D2B21A70B1E044F28203C4F2000344F28202B6
:401DC000C4F200021278D2B242F04002D2B21A704FF48143C4F20003FA881A809CE0FB7A002B5CD044F20103C4F200034FF000021A7044F21003C4F200034FF001021A70EB
:401E000044F21403C4F200034FF000021A7044F20803C4F2000344F20802C4F200021278D2B202F07F02D2B21A7044F28203C4F200031B78DBB203F00803002B02D0FB883E
:401E4000002B2CD144F20203C4F20003BA891A8044F20103C4F200034FF007021A7000BF44F20103C4F200031B78DBB203F00103002BF5D144F2A233C4F2000344F2A2321C
:401E8000C4F200021278D2B222F00102D2B21A7044F20103C4F200034FF000021A7044F2A233C4F200031B78DBB203F00103002B1ED044F20203C4F20003FA881A8044F241
:401EC0000103C4F200037A79002A02D04FF0030201E04FF001021A7000BF44F20103C4F200031B78DBB203F00103002BF5D113E04FF48143C4F20003FA881A8044F2A233B1
:401F0000C4F2000344F2A232C4F200021278D1B2FA7A0A43D2B21A7007F11007BD4680BD80B400AF4FF48143C4F200031B889BB21846BD4680BC704780B400AF44F2820376
:401F4000C4F200031B78DBB203F00703DBB21846BD4680BC704700BF80B500AF46F28D43C4F200034FF00F021A704EF28013CEF200034FF002021A604FF001004FF0070192
:401F800000F0F2F94FF0010042F20521C0F2000100F0BAF94EF28013CEF200034FF001021A604FF000004FF0070100F0DDF94FF0000042F21121C0F2000100F0A5F900F0E2
:401FC000E5F800F07DF800F08BF846F28B43C4F200034FF008021A7046F28A43C4F200034FF000021A7080BD80B582B000AF00F03DF90346FB7146F29D43C4F2000346F2DA
:402000009D42C4F200021278D2B242F02002D2B21A7046F29B43C4F2000346F29B42C4F200021278D2B242F01002D2B21A7046F29A43C4F2000346F29A42C4F20002127879
:40204000D2B242F01002D2B21A70FB79184600F011F900F01DF800F027F807F10807BD4680BD00BF80B500AF48F2A413C1F6FF731B78002B08D1FFF76FFF48F2A413C1F603
:40208000FF734FF001021A70FFF7AEFF80BD00BF80B400AF4FF46143CEF200034FF002021A60BD4680BC704780B400AF4FF46143CEF200034FF001021A60BD4680BC7047C4
:4020C00080B483B000AF46F26B43C4F200031B78FB71FB79184607F10C07BD4680BC704780B483B000AF46F26A43C4F200031B78FB71FB79184607F10C07BD4680BC7047D3
:4021000080B483B000AF0346FB7100BF46F26B43C4F200031B78DBB203F00403002BF5D046F24D43C4F20003FA791A7007F10C07BD4680BC704700BF80B483B000AF46F2E0
:402140005D43C4F200031B78FB71FB79184607F10C07BD4680BC704780B483B000AF46F26A43C4F200031B78DBB203F02003002B02D04FF0010301E04FF00003FB71FB7907
:40218000184607F10C07BD4680BC704780B582B000AF04E046F25D43C4F200031B7846F26A43C4F200031B78DBB203F02003002BF0D100F05BF80346FB7146F29D43C4F21C
:4021C000000346F29D42C4F200021278D2B242F00102D2B21A7046F29D43C4F2000346F29D42C4F200021278D2B222F00102D2B21A70FB79184600F03DF807F10807BD46EA
:4022000080BD00BF80B400AFBD4680BC704700BF80B400AFBD4680BC704700BF80B483B000AF0346FB7146F27A43C4F20003FA791A7007F10C07BD4680BC704780B400AF18
:4022400046F27A43C4F200031B78DBB21846BD4680BC7047000000000230800800F0058000BF013800467FF4FCAF7047EFF3108072B6704780F31088704700BFAFF3008006
:4022800080B483B000AF0346FB7101BE07F10C07BD4680BC704700BF80B582B000AF78600BE048F21813C1F6FF731B681846FFF7D3FF7B68A3F500437B607B68B3F5004F51
:4022C000EFD848F21013C1F6FF731B687A6802FB03F31846FFF7C0FF07F10807BD4680BD80B582B000AF0346FB80FA8848F21413C1F6FF731B7803FB02F31846FFF7ACFF74
:4023000007F10807BD4680BD80B584B000AF03463960FB714EF60853CEF200031B68FB60FB791F2B03D94FF00000FFF7A9FFFB7903F01F0303F110034FEA8303FA68D3189D
:402340001B68BB60FB7903F01F0303F110034FEA8303FA68D3183A681A60BB68184607F11007BD4680BD00BF80B582B000AF02460B46FA71BB71BB79072B03D94FF00000B1
:40238000FFF77EFFFB791F2B03D94FF00000FFF777FFFB7903F01F0303F1604303F56443BA794FEA4212D2B21A7007F10807BD4680BD00BF80F0004002E000BF81F00041CF
:4023C00042001FBF5FEA410392EA030F7FEA226C7FEA236C6AD04FEA1262D2EB1363C1BFD218414048404140B8BF5B42192B88BF704710F0004F40F4000020F07F4018BF26
:40240000404211F0004F41F4000121F07F4118BF494292EA030F3FD0A2F1010241FA03FC10EB0C00C3F1200301FA03F100F0004302D5494260EB4000B0F5000F13D3B0F1CC
:40244000807F06D340084FEA310102F10102FE2A51D2B1F1004F40EBC25008BF20F0010040EA03007047490040EB000010F4000FA2F10102EDD1B0FA80FCACF1080CB2EB57
:402480000C0200FA0CF0AABF00EBC25052421843BCBFD0401843704792F0000F81F4000106BF80F400000132013BB5E74FEA41037FEA226C18BF7FEA236C21D092EA030F19
:4024C00004D092F0000F08BF0846704790EA010F1CBF0020704712F07F4F04D1400028BF40F00040704712F100723CBF00F50000704700F0004343F0FE4040F400007047D1
:402500007FEA226216BF08467FEA23630146420206BF5FEA412390EA010F40F4800070474FF0000304E000BF10F0004348BF40425FEA000C08BF704743F0964301464FF094
:4025400000001CE050EA010208BF70474FF000030AE000BF50EA010208BF704711F0004302D5404261EB41015FEA010C02BF84460146002043F0B64308BFA3F18053A3F599
:402580000003BCFA8CF2083AA3EBC25310DB01FA02FC634400FA02FCC2F12002BCF1004F20FA02F243EB020008BF20F00100704702F1200201FA02FCC2F1200250EA4C0075
:4025C00021FA02F243EB020008BF20EADC7070474FF0FF0C1CEAD0521EBF1CEAD15392EA0C0F93EA0C0F6FD01A4480EA010C400218BF5FEA41211ED04FF0006343EA50102B
:4026000043EA5111A0FB01310CF00040B1F5000F3EBF490041EAD3715B0040EA010062F17F02FD2A1DD8B3F1004F40EBC25008BF20F00100704790F0000F0CF0004C08BFC5
:4026400049024CEA502040EA51207F3AC2BFD2F1FF0340EAC250704740F400004FF00003013A5DDC12F1190FDCBF00F000407047C2F10002410021FA02F1C2F1200200FA72
:4026800002FC5FEA310040F1000053EA4C0308BF20EADC70704792F0000F00F0004C02BF400010F4000F013AF9D040EA0C0093F0000F01F0004C02BF490011F4000F013BCD
:4026C000F9D041EA0C018FE70CEAD15392EA0C0F18BF93EA0C0F0AD030F0004C18BF31F0004CD8D180EA010000F00040704790F0000F17BF90F0004F084691F0000F91F02B
:40270000004F14D092EA0C0F01D142020FD193EA0C0F03D14B0218BF084608D180EA010000F0004040F0FE4040F40000704740F0FE4040F4400070474FF0FF0C1CEAD05223
:402740001EBF1CEAD15392EA0C0F93EA0C0F69D0A2EB030280EA010C49024FEA402037D04FF0805343EA111143EA10130CF000408B4238BF5B0042F17D024FF4000C8B421C
:4027800024BF5B1A40EA0C00B3EB510F24BFA3EB510340EA5C00B3EB910F24BFA3EB910340EA9C00B3EBD10F24BFA3EBD10340EADC001B0118BF5FEA1C1CE0D1FD2A3FF6EF
:4027C00050AF8B4240EBC25008BF20F0010070470CF0004C4CEA50207F32C2BFD2F1FF0340EAC250704740F400004FF00003013A37E792F0000F00F0004C02BF400010F4C8
:40280000000F013AF9D040EA0C0093F0000F01F0004C02BF490011F4000F013BF9D041EA0C0195E70CEAD15392EA0C0F08D142027FF47DAF93EA0C0F7FF470AF084676E767
:4028400093EA0C0F04D14B023FF44CAF08466EE730F0004C18BF31F0004CCAD130F000427FF45CAF31F000437FF43CAF5FE700BF4FEA4002B2F1FE4F0FD34FF09E03B3EB10
:4028800012620DD94FEA002343F0004310F0004F23FA02F018BF404270474FF00000704712F1610F01D1420205D110F0004008BF6FF0004070474FF00000704738B50E4D8E
:4028C0000E4B0024E81A8510AC4205D00B4951F8242090470134F7E700F06AFE0849094A541AA5100024AC4205D0054B53F8240080470134F7E738BDBC350000BC350000C0
:40290000BC350000C435000010B50023934203D0CC5CC4540133F9E710BD82180346934202D003F8011BFAE7704700000EB400B59CB0029006906FF000401DAB0490079046
:402940004FF402710A4853F8042BADF814104FF6FF71ADF81610006802A9019300F0D6F8029B00221A701CB05DF804EB03B070478081FF1F034611F8012B03F8012B002A76
:40298000F9D17047034613F8012B002AFBD1181A013870472DE9F041184D07462E688846F46D0CBB502000F083FB2B68F065DA6D9460D86D14600461D96D54608C61DA6D2C
:4029C000C460D462D86D4C614463D96D9462CC63DA6D04635464D86D8C63C464D96D14640C77DB6D84645C62044A384613684146DA6D0123BDE8F04100F002B88081FF1FB0
:402A0000F0B510B91068002828D004462746387801340E4616F8015B45B1A842FAD1002BF4D11460384604F8013CF0BD234638B91060F0BD17F8015B854206D0002DF9D14D
:402A400013F8010B0F461E46F4E718B1002103F8011C00E006461660601EF0BDF0BD2DE9F8439368064689461446002B41D1928912F4906F3DD0616903254D432369276867
:402A80000220FF1A95FBF0F5791C02F48062A94211B2A8BF3D18304679B1294600F010FB8046A0B13A462169FFF72EFFA38923F4906040F08002A28113E019462A4600F087
:402AC00057FB804668B93046216900F0ADFAA0890C2340F0400233604FF0FF30A281BDE8F88308EB07016561ED1BC4F810802160A560A368002B06DD206800F8019BA2681E
:402B00002060511EA1600020BDE8F8832DE9F0479CB003938B890D4603F0800114460AB2064662B12B6953B9402100F0C9FA2860286110B90C213160D3E040206861002797
:402B40002021302209978DF829108DF82A2023461F4613F8010B28B9B7EB040A16D04FF000090DE02528F3D1F6E7304614F809102A46FFF774FF013000F0AC8009F1010951
:402B8000D145F2DB099901EB0A0209923B78002B00F0A08000244FF0FF3004940794059006948DF853401A9407F101094F4F4C4638462178052200F0CDFA09F10109049B8B
:402BC00030B1C41B012707FA04F73B430493EDE7D90602D520218DF853101A0702D52B228DF8532020782A2802D0079B27460EE0039A1768101D002F039001DB079704E0CA
:402C0000794243F002030791049301340AE03C46217801373039092903D80A2404FB0313F5E7079322782E2A19D160782A2809D1039802340368021D002B0392B8BF4FF020
:402C4000FF330BE0671C00233C46217801373039092903D80A2404FB0313F5E70593244F21783846032200F075FA38B1C71B402101FA07F1049B01340B43049314F8011B03
:402C80001C4806228DF8281000F064FA88B11A4A32B9039FFB1D23F007000830039014E003A90091304604A92A46144BAFF3008007E003A8009004A930462A460F4B00F012
:402CC0008FF8B0F1FF3F804604D0099A02EB080109913CE7AB8903F0400002B20AB9099801E04FF0FF301CB0BDE8F0877A3500008035000084350000000000005F2A000022
:402D00002DE9F047154699468A680B6980469A42A8BF13462B6091F843000C46DDF820A008B1591C29602668B20602D52A68931C2B60206810F0060618D094F84370206823
:402D40003E1C18BF012683061AD5A119302281F8432094F84530023681F8443010E04046617E4A46D047013006D00136E1682A688B1A9E42F3DBE0E74FF0FF30BDE8F087BC
:402D80000027B74209DAE119404691F843104A46D0470130F0D00137F3E721682868E66801F00602042A08BFC0EB06052369A6680CBF25EAE57500259E42C4BFC3EB0603F2
:402DC000ED180026AE4207DA4046A17E4A46D0470130D1D00136F5E70020BDE8F08700002DE9F0430C46257E85B06E2D9046074699460C9904F1430200F0AA8012D8632DE7
:402E000024D009D8002D00F0BB80582D40F0CB8084F84550824D57E0642D20D0692D40F0C2801CE0732D00F0AF8009D86F2D2FD0702D40F0B880256845F0200626603FE0FC
:402E4000752D25D0782D40F0AE8039E0086804F14206021D0A60016884F84210A7E020680B6810F0800F02D01E1D0E6008E003F1040510F0400F0D6002D0B3F9001000E097
:402E8000196800293CDA2D20494284F8430037E025680E6815F0800F02D0331D0B6007E006F1040015F0400F086001D0318800E03168267E5A4D6F2E14BF0A2308231BE0D1
:402EC0007820584D84F8450020680B6810F0800F03F104060E6003D1410601D5198800E01968C60744BF40F02000206019B9206820F0200323601023002084F8430001E048
:402F0000474D0A236668002EA66003DB206820F00400206001B96EB104F14200B1FBF3FE03FB1E11695C064600F8011971460029F4D100E01646921B082B22613CD12368FB
:402F4000D80739D56068904236DC511C616033E026680B6816F0800F05D01E1D0E601968606908600CE003F1040016F0400F086003D018686369038002E061691E683160AB
:402F800000232361164617E00E68321D0A6036683046FFF7F7FC63682061984288BF23612069606005E004F1420684F8425001232361002184F84310CDF8009038462146AF
:402FC00003AA4346FFF79CFE013002D14FF0FF3022E000252269954207DA3846715D4246C8470130F2D00135F4E72168890705D4E06803998842B8BF08460DE00025E06889
:40300000039BC21A9542F3DA3846617E4246C8470130DBD00135F2E705B0BDE8F08300BF8B3500009C35000030B500293CD051F8042C0B1F1D49002AB8BF9B180A6812B9C2
:403040005A600B6030BD93420ED219685818904203D15A5889184268196014485A60036030BD994203D80A4651680029F9D1146815199D420AD118682318D0188842136020
:4030800012D108681B1813604B680CE002D90C23036030BD18681C188C4203D10C684968001918605960536030BD00BFA881FF1F024B0146186800F003B800BF8081FF1F16
:4030C00070B5CD1C25F0030508350C2D38BF0C25002D06462DDB8D422BD31D4B1B681C469CB12268501B0DD40B2802D92060241817E0A34203D16068154A10601DE0616872
:4031000059601AE023466468EAE72946304600F053F8431C01460CD0CC1C24F003048C4201D1256009E03046611A00F045F80130F7D10C203060002070BD04F10B01231DC2
:4031400021F00700C31A02D05A42E25070BD70BDA881FF1F10B5C9B2034682189342184604D0047801338C42F8D100E0002010BDF8B5064615460C4621B91146BDE8F84027
:40318000FFF79EBF1AB9FFF74FFF2C4612E000F023F8A8420ED230462946FFF791FF074638B121462A46FFF7AFFB30462146FFF73BFF3C462046F8BD38B5064C00230546FD
:4031C0000846236000F012F8431C02D1216801B1296038BDC481FF1F51F8040C002802DA04390B58C018043870470000094A13686BB118186946884202D8106018467047FC
:40320000054B0C221A604FF0FF3318467047034B1360EEE7AC81FF1FC481FF1FC881FF1F00000000782C792C7A3A20256920202020256900005100406000F051004010002A
:4032400000000140800C000D0140000300140140000800400140000A004C01400002005001402000800C0140E401004880000000000000000000000000000000000000008E
:40328000000000000000000000000000000000000000000000000000000000000000000000000000000000000000000000000000000000000000000000000000000000000E
:4032C00000000000000000000000000000000000000000000000000000000000000000000000000000000000000000000000000000000000000000000000000000000000CE
:403300000000000000000000000000000000000000000000000000000000000000000000000000000000000000000000000000000000000000000000004F00000000070037
:40334000070000147F147F1400242A7F2A1200231308646200364955225000000503000000001C224100000041221C000014083E08140008083E0808000050300000000857
:4033800008080808000060600000002010080402003E5149453E0000427F4000004261514946002141454B31001814127F10002745454539003C4A49493000017109050326
:4033C00000364949493600064949291E00363600000000563600000000081422410000141414141400004122140800020151090600304979413E007E1111117E007F494939
:403400004936003E41414122007F4141221C007F49494941007F09090901003E4149497A007F0808087F0000417F4100002040413F01007F08142241007F40404040007FF6
:40344000020C027F007F0408107F003E4141413E007F09090906003E4151215E007F091929460046494949310001017F0101003F4040403F001F2040201F003F4030403F66
:4034800000631408146300070870080700615149454300007F414100000204081020000041417F00000402010204004040404040000001020400002054545478007F5048C6
:4034C000483000384444442000384444487F00385454541800087E090102000C5252523E007F080404780000447D4000002040443D00007F102844000000417F400000782F
:4035000004584478007C08040478003844444438007C1414140800081414187C007C0804040800485454542000043F444020003C4040207C001C2040201C003C4030403C98
:40354000004428102844000C5050503C004464544C440000083641000000007F0000000041360800000C020C100C00000000000020090000200000004300232D302B200095
:40358000686C4C006566674546470030313233343536373839414243444546003031323334353637383961626364656600000000F8B500BFF8BC08BC9E4670475100000013
:4035C00059030000F8B500BFF8BC08BC9E4670472D000000E83500000881FF1F8000000040000000000000000000000000366E01C05D0000180000000000E02E0000000057
:4036000000000000000000000000000000000000000000000000000000000000783500000000000000000000000000000000000000000000000000000000000000000000DD
:4036400000000000000000000000000000000000000000000000000000000000000000001C81FF1F000000000000000000000000000000000000000000000000000000008F
:40368000000000000000000000000000000000000000000000000000000000000000000000000000000000000000000000000000000000000000000000000000000000000A
:4036C00000000000000000000000000000000000000000000000000000000000000000000000000000000000000000000000000000000000000000000000000000000000CA
:403700000000000000000000000000000000000000000000000000000000000000000000000000000000000000000000000000000000000000000000000000000000000089
:403740000000000000000000000000000000000000000000000000000000000000000000000000000000000000000000000000000000000000000000000000000000000049
:020000040003F7
:0200000480007A
:4000000003520040016400400205014002090140350A0140390B01402C0D01400340014002410140064201400C4401400A4501400946014002470140035001400151014080
:400040003094318834408D0FE208E601AB21B640008D0442060808400B200C0D0E80141115051622173A186219131A141B041C021D0E1E0D208D248D288D29042B392E80E4
:40008000328033303470360F370F39803AA03E0454405604580459045B045F0188098A069002920D9405960AA403A60CB00FBA02D409D604D804DB04DF01000401610204A4
:4000C00005100A2A0D040E80102A13021708181419101A021C401E8022402310291032543B10480249405C015D285E40609061606782680169106B108080874089108F1057
:400100009001914992689444971099089A049B0A9D10A02AA120A320A401B410C04FC237C42FCA04CC0ECE04D6F0D89F009401010AA8102811401302181119401A401B20E4
:40014000200821042254230829102A0632543955408441044844494850025120520460406828695572027302871088019880B080C00FC20EC40FCA07CC0ECE0FD007D20CE7
:40018000D801E00832403580CC3096809D808240858096809D80E210E6800810574058205B025C0867807A01C202D403D603D801DC018740880897809C289F02A601A74001
:4001C000B010E001EA0488208F409C20A601A740B702E001E402E808B601E80800010C010E01000F8496000056920904010400926092000404000000072138D20A07106811
:40020000003200C0849600008404000080FA04050400800008007F1D020780E008000088000051003206500004BEF0DC3BFFFFFF2200F008040000000000022C040404048B
:40024000000000010000C00040011011C001001140014001000000000000000000000000000000000040400040000000040040BCBC00BC00000000000000000000000000CF
:40028000000000000000000000000000000000000000000000000000000000000000000000000000000000000000000000000000000000000000000000000000000000003E
:4002C00000000000000000000000000000000000000000000000000000000000000000000000000000000000000000000000000000000000000000000000000000000000FE
:4003000000000000000000000000000000000000000000000000000000000000000000000000000000000000000000000000000000000000000000000000000000000000BD
:40034000000000000000000000000000000000000000000000000000000000000000000000000000000000000000000000000000000000000000000000000000000000007D
:0200000490006A
:0400000000004005B7
:0200000490105A
:04000000BC90ACAF55
:0200000490303A
:02000000902846
:0200000490402A
:4000000000000000000000000000000000000000000000000000000000000000000000000000000000000000000000000000000000000000000000000000000000000000C0
:400040000000000000000000000000000000000000000000000000000000000000000000000000000000000000000000000000000000000000000000000000000000000080
:400080000000000000000000000000000000000000000000000000000000000000000000000000000000000000000000000000000000000000000000000000000000000040
:4000C0000000000000000000000000000000000000000000000000000000000000000000000000000000000000000000000000000000000000000000000000000000000000
:0200000490501A
:0C00000000012E12306900012E29C09171
:00000001FF