:400000000080002011000000850400008504000080B500AF47F2BC63C4F2000344F2FA62C4F2000212681A6000F030FA10B5054C237833B9044810B10448AFF30080012176
:40004000217010BD2081FF1F000000002C1E000008B5064B1BB106480649AFF300800648016811B1054A02B1904708BD000000002C1E00002481FF1F0881FF1F00000000B5
:4000800080B592B002AF4FF47A7001F009FE4FF017004FF0010100F0DFFC4FF00A0001F0FFFD4FF0000387F83F3001F0B3FA0346002B03D04FF0010387F83F304FF00000D6
:4000C0004FF0010100F0C8FC4FF00A0001F0E8FD00F0D2FD4FF0000001F03EF84FF000004FF0000101F0D6F94FF6FF7001F000FA4FF0020001F0E6F94FF017004FF0010141
:4001000000F0AAFC4FF00A0001F0CAFD01F082FA4FF000004FF0010100F09EFC4FF00A0001F0BEFD4FF078004FF028014FF0140247F6EF3301F0DAF84FF078004FF07801B7
:400140004FF0140247F6EF3301F0D0F84FF078004FF0C8014FF0140247F6EF3301F0C6F84FF078004FF48C714FF0140247F6EF3301F0BCF847F6EF3300934FF0AF004FF081
:400180000F014FF032024FF0320300F059FF47F6EF3300934FF0AF004FF05F014FF032024FF0320300F04CFF47F6EF3300934FF0AF004FF0AF014FF032024FF0320300F0B9
:4001C0003FFF47F6EF3300934FF0AF004FF0FF014FF032024FF0320300F032FF4FF0C8004FF028014FF014024FF0000301F07EF84FF0C8004FF078014FF014024FF00003D7
:4002000001F074F84FF0C8004FF0C8014FF014024FF0000301F06AF84FF0C8004FF48C714FF014024FF0000301F060F84FF017004FF0010100F010FC4FF0010001F030FD50
:4002400001F068FB0346002B00F0CF8007F13C0107F13A0207F13903084611461A4601F0C7FABB8F4FF0F002009218464FF0960140F6D8624FF0000300F0E8F803469BB2CA
:40028000BB877B8F4FF4A072009218464FF082014FF47A624FF0000300F0D8F803469BB27B874FF000004FF0010100F0D5FBBB8FAF2B70D9BB8FE02B6DD87B8F0F2B0DD9C1
:4002C0007B8F402B0AD84FF078004FF028014FF014024FF4784301F009F809E04FF078004FF028014FF0140247F6EF3300F0FEFF7B8F5F2B0DD97B8F902B0AD84FF07800C2
:400300004FF078014FF014024FF4784300F0EEFF09E04FF078004FF078014FF0140247F6EF3300F0E3FF7B8FAF2B0DD97B8FE02B0AD84FF078004FF0C8014FF014024FF4DF
:40034000784300F0D3FF09E04FF078004FF0C8014FF0140247F6EF3300F0C8FF7B8FFF2B0ED97B8FB3F5937F0AD84FF078004FF48C714FF014024FF4784300F0B7FF33E029
:400380004FF078004FF48C714FF0140247F6EF3300F0ACFF28E04FF078004FF028014FF0140247F6EF3300F0A1FF4FF078004FF078014FF0140247F6EF3300F097FF4FF0A4
:4003C00078004FF0C8014FF0140247F6EF3300F08DFF4FF078004FF48C714FF0140247F6EF3300F083FF21E720E701F075FA4FF000004FF0010100F02FFB4FF078004FF031
:4004000028014FF0140247F6EF3300F06FFF4FF078004FF078014FF0140247F6EF3300F065FF4FF078004FF0C8014FF0140247F6EF3300F05BFF4FF078004FF48C714FF017
:40044000140247F6EF3300F051FFEFE680B485B000AFF860B9607A603B60FA68BB68D31AB9693A688A1A02FB03F27968BB68CB1A92FBF3F23B68D318184607F11407BD46CB
:4004800080BC704780B400AFFEE700BF80B586B000AF40F20103C0F200037B6141F69063C0F200033B6140F20103C0F200037B6141F69063C0F200033B613BE03B691B68E2
:4004C000FB603B695B68BB603B699B683B604FF000037B600FE0FB681A68BB681A60BB6803F10403BB60FB6803F10403FB607B6803F104037B607A683B689A42EBD13B69E3
:40050000DB683B604FF000037B600BE0BB684FF000021A60BB6803F10403BB607B6803F104037B607A683B689A42EFD13B6903F110033B617B69002B0CBF00230123DBB2EF
:400540007A6902F1FF327A61002BB7D101F036FCFFF796FDFEE700BF80B582B000AF4EF60C53CEF200034FF48062C0F2FA521A604EF61453CEF200034EF61452CEF20002A3
:40058000126842F400721A604FF000037B6019E07B68032B07D840F20003C0F200037A6853F8223003E040F28543C0F2000348F20002C1F6FF72796842F821307B6803F1F7
:4005C00001037B607B682F2BE2D947F2BC63C4F200031B78DAB248F20413C1F6FF731A704EF60853CEF2000348F20002C1F6FF721A6000F043F948F20013C1F6FF734FF0CF
:4006000000021A6007F10807BD4680BD80B582B000AF7860396078684FF000013A6801F0FCFB07F10807BD4680BD00BF80B584B000AFF860B9607A60F868B9687A6801F009
:40064000E3FB07F11007BD4680BD00BF80B483B000AF0346FB71FEE780B487B000AF786039604FF000033B614FF000037B612CE07B694FEA83037A68D3181B68BB60BB681A
:40068000FB73BB6823F0FF03BB6017E03B694FEA43033A68D3181B781A46BB68D3183A694FEA420239688A1852781A703B6903F101033B61FB7B03F1FF33FB73FB7B002B37
:4006C000E4D17B6903F101037B617B690F2BCFD907F11C07BD4680BC704700BF80B582B000AF4FF48143C4F200034FF000021A8044F28203C4F200034FF058021A704FF46C
:400700008643C4F200034FF002021A704FF040234FF008021A704FF48443C4F200034FF002021A7044F2A163C4F2000340F20B12C4F600121278D2B21A7044F22223C4F28E
:4007400000034FF4E1621A8044F22023C4F2000341F251221A804FF00003FB704FF019037B6019E0FB784FEA4303DAB244F22523C4F200031B78DBB203F00103DBB2134359
:40078000DBB203F00303FB704FF4F07001F068FA7B6803F1FF337B607B68002B02D0FB78032BDFD17B68002B03D14FF00300FFF74DFF44F20403C4F200034FF480721A8012
:4007C00044F20403C4F200034FF007021A7044F20603C4F200034FF000021A7044F20803C4F200034FF048021A7044F20403C4F200034FF000021A7044F20103C4F20003AD
:400800004FF002021A7044F2A233C4F2000344F2A232C4F200021278D2B242F00102D2B21A7007F10807BD4680BD00BF80B483B000AF40F2CF13C4F600131B78FB7145F6DD
:400840006E03C4F20003FA7902F00702D2B21A7045F66F03C4F20003FA794FEA1212D2B21A7045F67603C4F200034FF044021A7007F10C07BD4680BC704700BF80B586B0E7
:4008800000AF72B644F2E863C4F2000344F2E862C4F200021278D2B242F00402D2B21A704FF00003FB7519E0FA7D13464FEA43039B184FEA430341F63062C0F200029B183F
:4008C0003B613B691A683B699B889BB210461946FFF79CFEFB7D03F10103FB75FB7D072BE2D94FF00003FB7523E0FA7D13464FEA83039B184FEA430341F66062C0F2000275
:400900009B18FB60FB681B68BB60FB685B687B60FB681A7A5B7A4FEA032313437B807B88B86879681A46FFF781FEFB7D03F10103FB75FB7D002BD8D04FF090404FF0400198
:40094000C4F60001FFF788FE45F20303C4F2010345F20302C4F201021278D2B242F00202D2B21A7045F21303C4F2010345F21302C4F201021278D2B242F00202D2B21A70A4
:4009800044F2A033C4F2000344F2A032C4F200021278D2B242F04002D2B21A7044F2C233C4F2000344F2C232C4F200021278D2B242F01002D2B21A7045F2C210C4F2000040
:4009C0004FF41F71C4F600014FF00802FFF72EFE45F26010C4F200004FF42171C4F600014FF00A02FFF722FE44F22233C4F2000344F22232C4F200021278D2B242F00802E0
:400A0000D2B21A704FF49043C4F200034FF001021A70FFF763FE4FF49043C4F200034FF081021A704FF00403C4F208034FF001021A70FFF7FBFE44F2B030C4F2000044F2D7
:400A4000A031C4F200014FF00E02FFF7EFFD07F11807BD4680BD00BF80B584B000AF02460B46FA807B7100F0F7F80346FB7300F0E7F80346BB81FA88BB899A4200F0DC80B8
:400A800044F2A233C4F200031B78DBB203F00103FB72FB7B002B32D1BB89002B02D0FB88002B2CD1BB89002B14D14FF48143C4F20003FA881A8044F28203C4F2000344F284
:400AC0008202C4F200021278D2B222F04002D2B21A70B1E044F28203C4F2000344F28202C4F200021278D2B242F04002D2B21A704FF48143C4F20003FA881A809CE0FB7A76
:400B0000002B5CD044F20103C4F200034FF000021A7044F21003C4F200034FF001021A7044F21403C4F200034FF000021A7044F20803C4F2000344F20802C4F20002127885
:400B4000D2B202F07F02D2B21A7044F28203C4F200031B78DBB203F00803002B02D0FB88002B2CD144F20203C4F20003BA891A8044F20103C4F200034FF007021A7000BFE1
:400B800044F20103C4F200031B78DBB203F00103002BF5D144F2A233C4F2000344F2A232C4F200021278D2B222F00102D2B21A7044F20103C4F200034FF000021A7044F28F
:400BC000A233C4F200031B78DBB203F00103002B1ED044F20203C4F20003FA881A8044F20103C4F200037A79002A02D04FF0030201E04FF001021A7000BF44F20103C4F2A5
:400C000000031B78DBB203F00103002BF5D113E04FF48143C4F20003FA881A8044F2A233C4F2000344F2A232C4F200021278D1B2FA7A0A43D2B21A7007F11007BD4680BD29
:400C400080B400AF4FF48143C4F200031B889BB21846BD4680BC704780B400AF44F28203C4F200031B78DBB203F00703DBB21846BD4680BC704700BF80B500AF00F066FC43
:400C800000F08CFC48F25013C1F6FF734FF000021A8048F25013C1F6FF731A8848F24013C1F6FF731A8048F25313C1F6FF734FF001021A7048F25C13C1F6FF734FF6FF7246
:400CC0001A8048F25C13C1F6FF731A8848F25E13C1F6FF731A8048F25213C1F6FF734FF001021A7048F24813C1F6FF734FF000021A7048F24C13C1F6FF734FF0F0021A60EE
:400D000048F25413C1F6FF734FF4A0721A604FF4FA7000F0C5FF4FF0010000F087FA4FF0C80000F0BDFF4FF0CF0000F07FFA4FF0000000F067FA4FF08B0000F063FA4FF0F8
:400D4000300000F05FFA4FF0ED0000F06FFA4FF0670000F057FA4FF0030000F053FA4FF0120000F04FFA4FF0810000F04BFA4FF0E80000F05BFA4FF0850000F043FA4FF0F4
:400D8000100000F03FFA4FF07A0000F03BFA4FF0CB0000F04BFA4FF0390000F033FA4FF02C0000F02FFA4FF0000000F02BFA4FF0340000F027FA4FF0020000F023FA4FF05F
:400DC000F70000F033FA4FF0200000F01BFA4FF0EA0000F02BFA4FF0000000F013FA4FF0000000F00FFA4FF0C00000F01FFA4FF01B0000F007FA4FF0C10000F017FA4FF036
:400E0000100000F0FFF94FF0C50000F00FFA4FF03F0000F0F7F94FF03C0000F0F3F94FF0C70000F003FA4FF0B70000F0EBF94FF0360000F0FBF94FF0080000F0E3F94FF0A0
:400E40003A0000F0F3F94FF0550000F0DBF94FF0B10000F0EBF94FF0000000F0D3F94FF01B0000F0CFF94FF0B60000F0DFF94FF00A0000F0C7F94FF0A20000F0C3F94FF0B1
:400E8000F20000F0D3F94FF0000000F0BBF94FF0260000F0CBF94FF0010000F0B3F94FF0E00000F0C3F94FF00F0000F0ABF94FF02A0000F0A7F94FF0280000F0A3F94FF0D4
:400EC000080000F09FF94FF00E0000F09BF94FF0080000F097F94FF0540000F093F94FF0A90000F08FF94FF0430000F08BF94FF00A0000F087F94FF00F0000F083F94FF0B3
:400F0000000000F07FF94FF0000000F07BF94FF0000000F077F94FF0000000F073F94FF0E10000F083F94FF0000000F06BF94FF0150000F067F94FF0170000F063F94FF0C8
:400F4000070000F05FF94FF0110000F05BF94FF0060000F057F94FF02B0000F053F94FF0560000F04FF94FF03C0000F04BF94FF0050000F047F94FF0100000F043F94FF0B9
:400F80000F0000F03FF94FF03F0000F03BF94FF03F0000F037F94FF00F0000F033F94FF0110000F043F94FF0780000F079FE4FF0290000F03BF94FF0000000F0CDF880BDF9
:400FC00080B582B000AF02460B46FA80BB804FF02B0000F02BF9FB88184600F0F5F8BB88184600F0F1F807F10807BD4680BD00BF80B582B000AFF880B9807A803B804FF016
:401000002A0000F013F9FB88184600F0DDF87B88184600F0D9F84FF02B0000F007F9BB88184600F0D1F83B88184600F0CDF84FF02C0000F0FBF807F10807BD4680BD00BFE4
:4010400090B585B000AFF880B9807A803B80B7F9062048F24C13C1F6FF731B689A4276DAB7F9042048F25413C1F6FF731B689A426DDAB7F90620B7F90230D31803F1FF328E
:4010800048F24C13C1F6FF731B689A4209DB48F24C13C1F6FF731B689AB2FB88D31A9BB27B80B7F90420B7F90030D31803F1FF3248F25413C1F6FF731B689A4209DB48F2D7
:4010C0005413C1F6FF731B689AB2BB88D31A9BB23B80F888B988FA887B88D3189BB203F1FF339AB2BC883B88E3189BB203F1FF339BB2FFF77DFF3B8C4FEA13239BB2FB7344
:401100003B8CBB7300F04AFA00F00CFA3B88BB8016E07B88FB800BE0FB7B184600F09AF8BB7B184600F096F8FB8803F1FF33FB80B7F90630002BEFDCBB8803F1FF33BB8027
:40114000B7F90430002BE4DC00F000FA00E000BF07F11407BD4690BD80B584B002AF0346FB8048F24C13C1F6FF731B689AB248F25413C1F6FF731B689BB212B21BB2F98899
:4011800000914FF000004FF00001FFF759FF07F10807BD4680BD00BF80B582B000AF02460B46FA80BB804FF02A0000F03FF8FB88184600F009F8BB88184600F005F807F17F
:4011C0000807BD4680BD00BF80B584B000AF0346FB80FB884FEA13239BB2FB73FB88BB7300F0DCF900F09EF9FB7B184600F032F8BB7B184600F02EF800F0A8F907F1100723
:40120000BD4680BD80B582B000AF0346FB7100F0C5F900F087F9FB79184600F01BF800F095F907F10807BD4680BD00BF80B582B000AF0346FB7100F09DF900F073F9FB790B
:40124000184600F007F800F081F907F10807BD4680BD00BF80B582B000AF0346FB71FB79184600F053FC07F10807BD4680BD00BF80B584B000AFF880B9807A803B80FA88CF
:40128000FB8810461946FFF787FFBA887B88D3189BB2BA8810461946FFF792FE4FF02C00FFF7C4FF00F07AF900F03CF94FF00003FB8110E03B884FEA13239BB2DBB21846BC
:4012C000FFF7C8FF3B88DBB21846FFF7C3FFFB8903F10103FB81FA897B889A42EAD300F035F907F11007BD4680BD00BF80B584B002AFF880B9807A803B80F888BA887B8843
:40130000D31A99B27B884FEA43039BB203F101039AB23B88FFF7ACFFB7F90610B7F90420B7F902304FF00000009038880190084611461A464FF0030300F004F807F1080725
:40134000BD4680BD80B586B000AFF880B9807A807B707B88C3F101039BB2FB824FF00103BB827B881A464FEAC232D31A4FEA43039BB27B824FF000033B827B88FB817DE057
:40138000B7F91630002B0DDBFB8903F1FF33FB817B8A03F102039BB27B82FA8A7B8AD3189BB2FB823B8A03F101033B82BB8A03F102039BB2BB82FA8ABB8AD3189BB2FB82B8
:4013C0007B7803F00103002B29D0FA883B8AD31898B2BA88FB89D31A99B2FB894FEA43039AB23B8CD3189BB203F101039AB2BB8CFFF73EFFFA88FB89D31898B2BA883B8A17
:40140000D31A99B23B8A4FEA43039AB23B8CD3189BB203F101039AB2BB8CFFF729FF7B7803F00203002B29D0FA883B8AD31A98B2BA88FB89D31A99B2FB894FEA43039AB262
:401440003B8CD3189BB203F101039AB2BB8CFFF70FFFFA88FB89D31A98B2BA883B8AD31A99B23B8A4FEA43039AB23B8CD3189BB203F101039AB2BB8CFFF7FAFEB7F910207A
:40148000B7F90E309A42FFF67BAF07F11807BD4680BD00BF80B483B000AF02460B46FA80BB8048F25013C1F6FF73FA881A8048F24013C1F6FF73BA881A8007F10C07BD4647
:4014C00080BC704780B483B000AF0346FB71FB79002B01D0FA7901E04FF0010248F25313C1F6FF731A7007F10C07BD4680BC704780B483B000AF0346FB8048F25C13C1F69A
:40150000FF73FA881A8048F25C13C1F6FF731A8848F25E13C1F6FF731A8007F10C07BD4680BC704780B582B000AF00F08DFB0346FB71FB7903F00E03FB71FB79184600F051
:4015400073FB07F10807BD4680BD00BF80B582B000AF00F079FB0346FB71FB7943F00103FB71FB79184600F05FFB07F10807BD4680BD00BF80B582B000AF00F065FB0346E0
:40158000FB71FB7903F00D03FB71FB79184600F04BFB07F10807BD4680BD00BF80B582B000AF00F051FB0346FB71FB7943F00203FB71FB79184600F037FB07F10807BD46B1
:4015C00080BD00BF80B582B000AF00F03DFB0346FB71FB7903F00B03FB71FB79184600F023FB07F10807BD4680BD00BF80B582B000AF00F029FB0346FB71FB7943F00403A8
:40160000FB71FB79184600F00FFB07F10807BD4680BD00BF80B582B000AF00F029FA00F03FF903461A4640F611039A4202D04FF000036FE0FFF7DAFF4FF003004FF0020196
:4016400000F06EF84FF00A0000F02AFB4FF00003BB714FF00103FB7109E0FB79184600F085F80346BB71FB7903F10103FB71FB79402BF2D94FF004004FF0000100F050F8BF
:401680004FF040004FF0010100F04AF84FF00A004FF0010100F044F84FF020004FF0600100F03EF84FF021004FF0020100F038F84FF041004FF0A40100F032F84FF0560088
:4016C0004FF0060100F02CF84FF04A004FF0010100F026F84FF04B004FF0010100F020F84FF04B004FF0000100F01AF84FF058004FF0010100F014F84FF00B004FF0FF01BC
:4017000000F00EF84FF009004FF0050100F008F84FF00103184607F10807BD4680BD00BF80B582B000AF02460B46FA80BB80FFF749FF4FF0010000F0B3FAFB88DBB21846A2
:40174000FFF788FD4FF0010000F0AAFABB88DBB21846FFF77FFD4FF0010000F0A1FAFFF745FF07F10807BD4680BD00BF80B584B000AF0346FB71FFF725FF4FF0010000F058
:401780008FFAFB7963F07F03DBB2184600F0BEF94FF0010000F084FA4FF0000000F0B6F94FF0010000F07CFA00BF00F0DBF90346002BFAD04FF0010000F072FA4FF00000F7
:4017C00000F0A4F94FF0640000F08EFA00BF00F0C9F90346002BFAD000F0B4F90346FB73FFF704FFFB7B184607F11007BD4680BD90B587B000AFF860B9607A604FF000036A
:40180000FB750FE0FC7D4FF0D700FFF7AFFF03461A4607F118010B1903F8082CFB7D03F10103FB75FB7D032BECD93B7C1A46FB681A80FB681B884FEA03139AB2FB681A800C
:40184000FB681A887B7C4FEA1313DBB213439AB2FB681A807B7C03F00F039AB2BB681A80BB681B884FEA03239AB2BB681A80BB681A88BB7C13439AB2BB681A80FA7C7B68FA
:401880001A7000F05FF80346002B05D04FF00B004FF0FF01FFF744FF07F11C07BD4690BD80B582B000AF4FF00000FFF75FFF0346FB80FB884FEA0323FB804FF00100FFF7E1
:4018C00055FF03461A46FB881343FB80FB88184607F10807BD4680BD80B500AF4FF04B00FFF744FF034643F00103DBB24FF04B001946FFF715FF4FF04B00FFF737FF0346C9
:4019000003F0FE039BB24FF04B001946FFF708FF80BD00BF80B582B000AF4FF04000FFF725FF0346FB71FB7923F07F03BB71BB79002B0CBF00230123DBB2184607F1080788
:40194000BD4680BD80B500AF4FF04B00FFF70EFF034603F02003002B0CBF00230123DBB2184680BD80B500AF46F28D43C4F200034FF00F021A704EF28013CEF200034FF09E
:4019800002021A604FF001004FF0070100F0F0F94FF0010041F61141C0F2000100F0B8F94EF28013CEF200034FF001021A604FF000004FF0070100F0DBF94FF0000041F61A
:4019C0001D41C0F2000100F0A3F900F0E5F800F07DF800F08BF846F28A43C4F200034FF008021A7046F28B43C4F200034FF000021A7080BD80B582B000AF00F03BF90346CA
:401A0000FB7146F29D43C4F2000346F29D42C4F200021278D2B242F02002D2B21A7046F29A43C4F2000346F29A42C4F200021278D2B242F01002D2B21A7046F29B43C4F264
:401A4000000346F29B42C4F200021278D2B242F01002D2B21A70FB79184600F00FF900F01DF800F027F807F10807BD4680BD00BF80B500AF48F23C13C1F6FF731B78002BFE
:401A800008D1FFF76FFF48F23C13C1F6FF734FF001021A70FFF7AEFF80BD00BF80B400AF4FF46143CEF200034FF002021A60BD4680BC704780B400AF4FF46143CEF20003FF
:401AC0004FF001021A60BD4680BC704780B483B000AF46F26A43C4F200031B78FB71FB79184607F10C07BD4680BC704780B483B000AF46F26B43C4F200031B78FB71FB7986
:401B0000184607F10C07BD4680BC704780B483B000AF0346FB7100BF46F26A43C4F200031B78DBB203F00403002BF5D046F24D43C4F20003FA791A7007F10C07BD4680BC4C
:401B4000704700BF80B483B000AF46F25D43C4F200031B78FB71FB79184607F10C07BD4680BC704780B483B000AF46F26B43C4F200031B78DBB203F02003002B02D04FF04F
:401B8000010301E04FF00003FB71FB79184607F10C07BD4680BC704780B582B000AF04E046F25D43C4F200031B7846F26B43C4F200031B78DBB203F02003002BF0D100F0F0
:401BC00059F80346FB7146F29D43C4F2000346F29D42C4F200021278D2B242F00102D2B21A7046F29D43C4F2000346F29D42C4F200021278D2B222F00102D2B21A70FB79A9
:401C0000184600F03BF807F10807BD4680BD00BF80B400AFBD4680BC704700BF80B400AFBD4680BC704700BF80B483B000AF0346FB7146F27A43C4F20003FA791A7007F17F
:401C40000C07BD4680BC704780B400AF46F27A43C4F200031B78DBB21846BD4680BC70470230800800F0058000BF013800467FF4FCAF7047EFF3108072B6704780F31088B8
:401C8000704700BFAFF3008080B483B000AF0346FB7101BE07F10C07BD4680BC704700BF80B582B000AF78600BE048F21813C1F6FF731B681846FFF7D3FF7B68A3F5004374
:401CC0007B607B68B3F5004FEFD848F21013C1F6FF731B687A6802FB03F31846FFF7C0FF07F10807BD4680BD80B582B000AF0346FB80FA8848F21413C1F6FF731B7803FBB9
:401D000002F31846FFF7ACFF07F10807BD4680BD80B584B000AF03463960FB714EF60853CEF200031B68FB60FB791F2B03D94FF00000FFF7A9FFFB7903F01F0303F11003BB
:401D40004FEA8303FA68D3181B68BB60FB7903F01F0303F110034FEA8303FA68D3183A681A60BB68184607F11007BD4680BD00BF80B582B000AF02460B46FA71BB71BB79F8
:401D8000072B03D94FF00000FFF77EFFFB791F2B03D94FF00000FFF777FFFB7903F01F0303F1604303F56443BA794FEA4212D2B21A7007F10807BD4680BD00BF38B50E4D43
:401DC0000E4B0024E81A8510AC4205D00B4951F8242090470134F7E700F048F80849094A541AA5100024AC4205D0054B53F8240080470134F7E738BD781E0000781E0000A9
:401E0000781E0000801E000010B50023934203D0CC5CC4540133F9E710BD82180346934202D003F8011BFAE77047000000000000005100406000F0510040100000000140C1
:401E4000800C000D0140000300140140000800400140000A004C01400002005001402000800C0140FC01004880000000F8B500BFF8BC08BC9E46704751000000590500009D
:401E8000F8B500BFF8BC08BC9E4670472D000000A01E00000881FF1F18000000400000000000000000366E01C05D0000180000000000E02E000000000000000000000000D1
:401EC00000000000000000000000000000000000000000000000000000000000000000000000000000000000000000000000000000000000000000000000000000000000E2
:401F000000000000000000000000000000000000000000000000000000000000000000000000000000000000000000000000000000000000000000000000000000000000A1
:401F40000000000000000000000000000000000000000000000000000000000000000000000000000000000000000000000000000000000000000000000000000000000061
:401F80000000000000000000000000000000000000000000000000000000000000000000000000000000000000000000000000000000000000000000000000000000000021
:020000040003F7
:0200000480007A
:4000000004520040016400400205014002090140370A01403D0B0140300D01400340014002410140064201400C440140094501400B46014001470140035001400151014075
:4000400030943188344060408D0FE204E608AF10E808008D0462054A0614073509070C0D0E801002120D141115291622174218401B101C421E08208D248D288D2D022E8065
:400080002F7C300F3280330F35303670374039083A823E043F4054095604580459045B045F018405860A8C098E069002920D9403960CB00FBA02D440D604D804DB04DF0143
:4000C0000004014104040540081009080A410B080D080E80100B1104130219481A411C401E802120224023102940312838043B10581059055A80628063806401650866127A
:40010000680169106B108340860289308F10900491459308944099059A109B029D40A00AA108A280A401B284B410C0ADC23FC40FCA08CC06CE06D60FD8F900940101080102
:4001400009080A02100811441302181019011A48200421282201280129402A022B0831283201334039544004410842404844494450025210530C6040680869556B40720207
:4001800073028801A004B004C00FC20DC40FCA0DCC0FCE0ED007D20CD80133803580CC309D80A780818087809D80A780E220E6100810574058205B025C0867807402C20267
:4001C000D403D603D801DE04880897809C289F02A402A740B010E001EA0488208B408F4097809C20A402A740B702E001E403E808AC0200010C010E01000F000084000000FB
:400200000A9210040104009260920004563209C007073868002100D20496000084960000840000008004040004FA800580E07F07021D0000080000220000110025034000A4
:4002400006BEF0DC3BFFFFFF2200F008040000000000022C04040404000000010000C00040011011C001001140014001000000000000000000000000000000000040400063
:4002800040000000040040BCBC00BC000000000000000000000000000000000000000000000000000000000000000000000000000000000000000000000000000000000086
:4002C00000000000000000000000000000000000000000000000000000000000000000000000000000000000000000000000000000000000000000000000000000000000FE
:4003000000000000000000000000000000000000000000000000000000000000000000000000000000000000000000000000000000000000000000000000000000000000BD
:40034000000000000000000000000000000000000000000000000000000000000000000000000000000000000000000000000000000000000000000000000000000000007D
:40038000000000000000000000000000000000000000000000000000000000000000000000000000000000000000000000000000000000000000000000000000000000003D
:0200000490006A
:0400000000004005B7
:0200000490105A
:04000000BC90ACAF55
:0200000490303A
:02000000BA7DC7
:0200000490402A
:4000000000000000000000000000000000000000000000000000000000000000000000000000000000000000000000000000000000000000000000000000000000000000C0
:400040000000000000000000000000000000000000000000000000000000000000000000000000000000000000000000000000000000000000000000000000000000000080
:400080000000000000000000000000000000000000000000000000000000000000000000000000000000000000000000000000000000000000000000000000000000000040
:4000C0000000000000000000000000000000000000000000000000000000000000000000000000000000000000000000000000000000000000000000000000000000000000
:0200000490501A
:0C00000000012E12306900012E20EAE6FB
:00000001FF