:400000000080002011000000150100001501000080B500AF47F2BC63C4F2000344F2FA62C4F2000212681A6000F078F810B5054C237833B9044810B10448AFF30080012116
:40004000217010BD8881FF1F000000000826000008B5064B1BB106480649AFF300800648016811B1054A02B1904708BD00000000082600008C81FF1F0881FF1F000000001D
:4000800080B582B002AF00F02FFB4FF0000000F0D1FD4FF000004FF0000101F0AFF94FF6FF7001F0D9F94FF0020001F0BFF94FF0010001F0EBF942F20C60C0F2000000F041
:4000C0004DFF4FF4FC6300934FF032004FF096014FF064024FF0960300F03CFE4FF01F0300934FF023004FF064014FF023024FF0C80300F02FFE4FF6E07300934FF096000C
:400100004FF096014FF04B024FF04B0300F006FDFEE700BF80B400AFFEE700BF80B586B000AF40F20103C0F200037B6142F6BC13C0F200033B6140F20103C0F200037B61B2
:4001400042F6BC13C0F200033B613BE03B691B68FB603B695B68BB603B699B683B604FF000037B600FE0FB681A68BB681A60BB6803F10403BB60FB6803F10403FB607B6863
:4001800003F104037B607A683B689A42EBD13B69DB683B604FF000037B600BE0BB684FF000021A60BB6803F10403BB607B6803F104037B607A683B689A42EFD13B6903F139
:4001C00010033B617B69002B0CBF00230123DBB27A6902F1FF327A61002BB7D102F0EAF8FFF74EFFFEE700BF80B582B000AF4EF60C53CEF200034FF48062C0F2FA521A6039
:400200004EF61453CEF200034EF61452CEF20002126842F400721A604FF000037B6019E07B68032B07D840F20003C0F200037A6853F8223003E040F21513C0F2000348F2AD
:400240000002C1F6FF72796842F821307B6803F101037B607B682F2BE2D947F2BC63C4F200031B78DAB248F20413C1F6FF731A704EF60853CEF2000348F20002C1F6FF7240
:400280001A6000F043F948F20013C1F6FF734FF000021A6007F10807BD4680BD80B582B000AF7860396078684FF000013A6802F0B0F807F10807BD4680BD00BF80B584B0CE
:4002C00000AFF860B9607A60F868B9687A6802F097F807F11007BD4680BD00BF80B483B000AF0346FB71FEE780B487B000AF786039604FF000033B614FF000037B612CE0CF
:400300007B694FEA83037A68D3181B68BB60BB68FB73BB6823F0FF03BB6017E03B694FEA43033A68D3181B781A46BB68D3183A694FEA420239688A1852781A703B6903F1D4
:4003400001033B61FB7B03F1FF33FB73FB7B002BE4D17B6903F101037B617B69102BCFD907F11C07BD4680BC704700BF80B582B000AF4FF48143C4F200034FF002021A807B
:4003800044F28203C4F200034FF018021A704FF48643C4F200034FF002021A704FF040234FF008021A704FF48443C4F200034FF003021A7044F2A163C4F200034FF4847222
:4003C000C4F600121278D2B21A7044F22223C4F200034FF008021A8044F22023C4F2000341F251221A804FF00003FB704FF019037B6019E0FB784FEA4303DAB244F2252338
:40040000C4F200031B78DBB203F00103DBB21343DBB203F00303FB704FF4F07001F098FC7B6803F1FF337B607B68002B02D0FB78032BDFD17B68002B03D14FF00300FFF7C1
:400440004DFF44F20403C4F200034FF480721A8044F20403C4F200034FF007021A7044F20603C4F200034FF000021A7044F20803C4F200034FF048021A7044F20403C4F2E0
:4004800000034FF000021A7044F20103C4F200034FF002021A7044F2A233C4F2000344F2A232C4F200021278D2B242F00102D2B21A7007F10807BD4680BD00BF80B483B06A
:4004C00000AF40F2CF13C4F600131B78FB7145F66E03C4F20003FA7902F00702D2B21A7045F66F03C4F20003FA794FEA1212D2B21A7045F67603C4F200034FF044021A70CC
:4005000007F10C07BD4680BC704700BF80B586B000AF72B644F2E863C4F2000344F2E862C4F200021278D2B242F00402D2B21A704FF00003FB7519E0FA7D13464FEA4303F9
:400540009B184FEA430342F24462C0F200029B183B613B691A683B699B889BB210461946FFF79CFEFB7D03F10103FB75FB7D092BE2D94FF00003FB7523E0FA7D13464FEAE8
:4005800083039B184FEA430342F28062C0F200029B18FB60FB681B68BB60FB685B687B60FB681A7A5B7A4FEA032313437B807B88B86879681A46FFF781FEFB7D03F10103E4
:4005C000FB75FB7D002BD8D04FF090404FF04401C4F60001FFF788FE45F20303C4F2010345F20302C4F201021278D2B242F00202D2B21A7045F21303C4F2010345F21302E5
:40060000C4F201021278D2B242F00202D2B21A7044F2A033C4F2000344F2A032C4F200021278D2B242F04002D2B21A7044F2C233C4F2000344F2C232C4F200021278D2B2C9
:4006400042F01002D2B21A7045F24210C4F200004FF42B71C4F600014FF00802FFF72EFE45F26210C4F200004FF42D71C4F600014FF00802FFF722FE44F22233C4F2000346
:4006800044F22232C4F200021278D2B242F00802D2B21A704FF49043C4F200034FF001021A70FFF763FE4FF49043C4F200034FF081021A704FF00403C4F208034FF001024A
:4006C0001A70FFF7FBFE44F2B030C4F2000044F2A031C4F200014FF00E02FFF7EFFD07F11807BD4680BD00BF80B500AF01F042F800F054FF00F07AFF48F2C813C1F6FF73B7
:400700004FF000021A8048F2C813C1F6FF731A8848F2C013C1F6FF731A8048F2CB13C1F6FF734FF001021A7048F2D013C1F6FF734FF6FF721A8048F2D013C1F6FF731A88A3
:4007400048F2D213C1F6FF731A8048F2CA13C1F6FF734FF001021A7048F2C213C1F6FF734FF000021A7048F2C413C1F6FF734FF0F0021A6048F2CC13C1F6FF734FF4A0720C
:400780001A604FF4FA7001F003FB4FF0010000F0BBFA4FF0C80001F0FBFA4FF0CF0000F0B3FA4FF0000000F09BFA4FF08B0000F097FA4FF0300000F093FA4FF0ED0000F08F
:4007C000A3FA4FF0670000F08BFA4FF0030000F087FA4FF0120000F083FA4FF0810000F07FFA4FF0E80000F08FFA4FF0850000F077FA4FF0100000F073FA4FF07A0000F08D
:400800006FFA4FF0CB0000F07FFA4FF0390000F067FA4FF02C0000F063FA4FF0000000F05FFA4FF0340000F05BFA4FF0020000F057FA4FF0F70000F067FA4FF0200000F0C3
:400840004FFA4FF0EA0000F05FFA4FF0000000F047FA4FF0000000F043FA4FF0C00000F053FA4FF01B0000F03BFA4FF0C10000F04BFA4FF0100000F033FA4FF0C50000F091
:4008800043FA4FF03F0000F02BFA4FF03C0000F027FA4FF0C70000F037FA4FF0B70000F01FFA4FF0360000F02FFA4FF0080000F017FA4FF03A0000F027FA4FF0550000F0D2
:4008C0000FFA4FF0B10000F01FFA4FF0000000F007FA4FF01B0000F003FA4FF0B60000F013FA4FF00A0000F0FBF94FF0A20000F0F7F94FF0F20000F007FA4FF0000000F04E
:40090000EFF94FF0260000F0FFF94FF0010000F0E7F94FF0E00000F0F7F94FF00F0000F0DFF94FF02A0000F0DBF94FF0280000F0D7F94FF0080000F0D3F94FF00E0000F0C9
:40094000CFF94FF0080000F0CBF94FF0540000F0C7F94FF0A90000F0C3F94FF0430000F0BFF94FF00A0000F0BBF94FF00F0000F0B7F94FF0000000F0B3F94FF0000000F0CE
:40098000AFF94FF0000000F0ABF94FF0000000F0A7F94FF0E10000F0B7F94FF0000000F09FF94FF0150000F09BF94FF0170000F097F94FF0070000F093F94FF0110000F0B6
:4009C0008FF94FF0060000F08BF94FF02B0000F087F94FF0560000F083F94FF03C0000F07FF94FF0050000F07BF94FF0100000F077F94FF00F0000F073F94FF03F0000F089
:400A00006FF94FF03F0000F06BF94FF00F0000F067F94FF0110000F077F94FF0780001F0B7F94FF0290000F06FF94FF6FF7000F001F980BD80B582B000AF13460246FA800A
:400A40000A46BA807B80FA88BB881046194600F009F87B88184600F025F907F10807BD4680BD00BF80B582B000AF02460B46FA80BB80FA88FB881046194600F0FBF8BA88CE
:400A8000BB881046194600F009F84FF02C0000F03BF907F10807BD4680BD00BF80B582B000AF02460B46FA80BB804FF02B0000F02BF9FB88184600F0F5F8BB88184600F087
:400AC000F1F807F10807BD4680BD00BF80B582B000AFF880B9807A803B804FF02A0000F013F9FB88184600F0DDF87B88184600F0D9F84FF02B0000F007F9BB88184600F073
:400B0000D1F83B88184600F0CDF84FF02C0000F0FBF807F10807BD4680BD00BF90B585B000AFF880B9807A803B80B7F9062048F2C413C1F6FF731B689A4276DAB7F90420A0
:400B400048F2CC13C1F6FF731B689A426DDAB7F90620B7F90230D31803F1FF3248F2C413C1F6FF731B689A4209DB48F2C413C1F6FF731B689AB2FB88D31A9BB27B80B7F9D7
:400B80000420B7F90030D31803F1FF3248F2CC13C1F6FF731B689A4209DB48F2CC13C1F6FF731B689AB2BB88D31A9BB23B80F888B988FA887B88D3189BB203F1FF339AB263
:400BC000BC883B88E3189BB203F1FF339BB2FFF77DFF3B8C4FEA13239BB2FB733B8CBB7300F004FD00F0C6FC3B88BB8016E07B88FB800BE0FB7B184600F09AF8BB7B1846F1
:400C000000F096F8FB8803F1FF33FB80B7F90630002BEFDCBB8803F1FF33BB80B7F90430002BE4DC00F0BAFC00E000BF07F11407BD4690BD80B584B002AF0346FB8048F203
:400C4000C413C1F6FF731B689AB248F2CC13C1F6FF731B689BB212B21BB2F98800914FF000004FF00001FFF759FF07F10807BD4680BD00BF80B582B000AF02460B46FA80F4
:400C8000BB804FF02A0000F03FF8FB88184600F009F8BB88184600F005F807F10807BD4680BD00BF80B584B000AF0346FB80FB884FEA13239BB2FB73FB88BB7300F096FC47
:400CC00000F058FCFB7B184600F032F8BB7B184600F02EF800F062FC07F11007BD4680BD80B582B000AF0346FB7100F07FFC00F041FCFB79184600F01BF800F04FFC07F110
:400D00000807BD4680BD00BF80B582B000AF0346FB7100F057FC00F02DFCFB79184600F007F800F03BFC07F10807BD4680BD00BF80B582B000AF0346FB71FB79184600F003
:400D4000ABFD4FF0010001F047F807F10807BD4680BD00BF90B589B000AFF880B9807A803B807A88FB88D31A9BB2BB823A88BB88D31A9BB27B824FF00003FB83FB8B7B8346
:400D8000B7F91430002B05DDBB8A7B834FF00103FB830BE0B7F91430002B07DABB8AC3F100039BB27B834FF6FF73FB834FF00003BB83BB8B3B83B7F91230002B05DD7B8A3F
:400DC0003B834FF00103BB830BE0B7F91230002B07DA7B8AC3F100039BB23B834FF6FF73BB83B7F91A20B7F918309A4249DBB7F91230184601F014F90446B7F91430184643
:400E000001F00EF903462046194601F011FA0346FB604FF00003FB822CE0FA8AFB88D3189BB27B81B7F91630184601F0F9F803461846F96801F048F903461C46BB8818464A
:400E400001F0EEF803462046194601F035F80346184601F089FA03463B8179893A893B8E084611461A46FFF7E5FDFA8AFB8BD3189BB2FB82B7F91620B7F914309A42CCD1D2
:400E800048E0B7F91430184601F0CAF80446B7F91230184601F0C4F803462046194601F0C7F90346FB604FF00003FB822CE0B7F91630184601F0B4F803461846F96801F0A6
:400EC00003F903461C46FB88184601F0A9F803462046194600F0F0FF0346184601F044FA03467B81FA8ABB88D3189BB23B8179893A893B8E084611461A46FFF79BFDFA8A70
:400F0000BB8BD3189BB2FB82B7F91620B7F912309A42CCD107F12407BD4690BD80B584B000AF78604FF00103FB737B681B78BB730CE0BB7B184600F0C7F8FB7B7A68D3183B
:400F40001B78BB73FB7B03F10103FB73BB7B002BEFD107F11007BD4680BD00BF90B5ADF2244D00AF07F10403186007F104031B68C7F8143407F10C031846D7F8141401F054
:400F800050FA07F10C03184642F68C11C0F2000101F058FAC7F81C0448F2CB13C1F6FF731B781A4613464FEA82029B1A4FEA43031A4648F2C413C1F6FF731B68D318C7F893
:400FC000103448F2C813C1F6FF731B881BB2D7F81024D31AC7F818344FF00003C7F80C3467E048F2CB13C1F6FF731B781C46D7F81C0401F01EFA034603FB04F213464FEA7F
:4010000043039B184FEA4303C7F80C34D7F80C24D7F818349A4224DD48F2CB13C1F6FF731B784FEAC3039AB248F2C013C1F6FF731B889BB2D3189BB29AB248F2C013C1F6B5
:40104000FF731A8048F2C813C1F6FF734FF000021A80D7F81024D7F80C34D31AC7F8183413E0D7F81824D7F80C34D11A48F2CB13C1F6FF731B781A4613464FEA82029B1A4A
:401080004FEA4303CB18C7F81834D7F81C04FFF745FF42F69010C0F20000FFF73FFF4FF0000042F68C11C0F2000101F0CBF9C7F81C04D7F81C34002B93D107F1240707F5B4
:4010C0008067BD4690BD00BFB0B584B002AF0346FB71FB790A2B1DD148F2CB13C1F6FF731B784FEAC3039AB248F2C013C1F6FF731B889BB2D3189BB29AB248F2C013C1F6D7
:40110000FF731A8048F2C813C1F6FF734FF000021A8053E0FB790D2B12D14FF00000FFF789FD48F2C013C1F6FF734FF000021A8048F2C813C1F6FF734FF000021A803DE0C6
:4011400048F2C813C1F6FF73198848F2C013C1F6FF731A8848F2D213C1F6FF731C8848F2D013C1F6FF731D8848F2CB13C1F6FF73187809B212B2FB79009501900846114652
:401180001A46234600F01EF848F2CB13C1F6FF731B781A464FEA4202D3184FEA43039AB248F2C813C1F6FF731B889BB2D3189BB29AB248F2C813C1F6FF731A8007F1080768
:4011C000BD46B0BD90B587B002AFF880B980FA703B80B7F9062048F2C413C1F6FF731B689A4280F20681B7F9042048F2CC13C1F6FF731B689A4280F2FC80B7F9061097F85C
:40120000242013464FEA43039B184FEA4303CB1803F1FF33002BC0F2EC80B7F9042097F824304FEAC303D31803F1FF33002BC0F2E0804FF00003FB73D5E097F90F30062BA5
:4012400003D14FF000037B7310E0F97897F90F0042F28C62C0F200020B464FEA43035B184FEA43031B18D3181B787B734FF00003BB73AFE07B7B03F00103002B4FD097F86E
:401280002430012B1AD148F2C413C1F6FF731B689AB297F90F3099B2FB88CB189BB2D31A99B297F90E309AB2BB88D3189AB23B88084611461A46FFF7BDFB83E048F2C41337
:4012C000C1F6FF731B689AB297F90F309BB297F8241089B201FB03F399B2FB88CB189BB2D31A9BB298B297F90E309BB297F8242092B202FB03F39AB2BB88D3189BB299B231
:4013000097F824309AB297F824309BB200B209B212B21BB23C880094FFF700FC52E03A8C3B889A424ED097F82430012B1AD148F2C413C1F6FF731B689AB297F90F3099B234
:40134000FB88CB189BB2D31A99B297F90E309AB2BB88D3189AB23B8C084611461A46FFF769FB2FE048F2C413C1F6FF731B689AB297F90F309BB297F8241089B201FB03F3A4
:4013800099B2FB88CB189BB2D31A9BB298B297F90E309BB297F8242092B202FB03F39AB2BB88D3189BB299B297F824309AB297F824309BB200B209B212B21BB23C8C0094BB
:4013C000FFF7ACFB7B7B4FEA53037B73BB7B03F10103BB7397F90E30072B7FF74BAFFB7B03F10103FB7397F90F30052B7FF725AF00E000BF07F11407BD4690BD80B483B083
:4014000000AF02460B46FA80BB8048F2C813C1F6FF73FA881A8048F2C013C1F6FF73BA881A8007F10C07BD4680BC704780B483B000AF0346FB71FB79002B01D0FA7901E0B3
:401440004FF0010248F2CB13C1F6FF731A7007F10C07BD4680BC704780B483B000AF0346FB8048F2D013C1F6FF73FA881A8048F2D013C1F6FF731A8848F2D213C1F6FF73F2
:401480001A8007F10C07BD4680BC704780B582B000AF0346FB714FF03600FFF735FCFB7903F00303DAB248F2C213C1F6FF731A7048F2C213C1F6FF731B78032B56D801A2A5
:4014C00052F823F0D5140000FB14000021150000471500004FF04800FFF702FC48F2C413C1F6FF734FF0F0021A6048F2CC13C1F6FF734FF4A0721A6038E04FF02800FFF71F
:40150000EFFB48F2C413C1F6FF734FF4A0721A6048F2CC13C1F6FF734FF0F0021A6025E04FF08800FFF7DCFB48F2C413C1F6FF734FF0F0021A6048F2CC13C1F6FF734FF4C8
:40154000A0721A6012E04FF0E800FFF7C9FB48F2C413C1F6FF734FF4A0721A6048F2CC13C1F6FF734FF0F0021A6000BF07F10807BD4680BD80B582B000AF00F0DBFB0346EB
:40158000FB71FB7903F00E03FB71FB79184600F0C1FB07F10807BD4680BD00BF80B582B000AF00F0C7FB0346FB71FB7943F00103FB71FB79184600F0ADFB07F10807BD464F
:4015C00080BD00BF80B582B000AF00F0B3FB0346FB71FB7903F00D03FB71FB79184600F099FB07F10807BD4680BD00BF80B582B000AF00F09FFB0346FB71FB7943F0020346
:40160000FB71FB79184600F085FB07F10807BD4680BD00BF80B500AF46F28E43C4F200034FF00F021A704EF28013CEF200034FF002021A604FF001004FF0070100F010FCA0
:401640004FF0010041F6A121C0F2000100F0D8FB4EF28013CEF200034FF001021A604FF000004FF0070100F0FBFB4FF0000041F6CD31C0F2000100F0C3FB00F0D5F948F230
:40168000DA13C1F6FF734FF000021A7048F2D413C1F6FF734FF000021A7048F2D713C1F6FF734FF000021A7048F2DB13C1F6FF734FF000021A7048F2D613C1F6FF734FF075
:4016C00000021A7048F2D513C1F6FF734FF000021A7000F095F800F0B9F846F28D43C4F200034FF000021A7046F28C43C4F200034FF020021A7080BD80B582B000AF00F0B0
:4017000031FB0346FB7146F29E43C4F2000346F29E42C4F200021278D2B242F02002D2B21A7046F29D43C4F2000346F29D42C4F200021278D2B242F01002D2B21A7046F27E
:401740009C43C4F2000346F29C42C4F200021278D2B242F01002D2B21A70FB79184600F005FB00F01DF800F027F807F10807BD4680BD00BF80B500AF48F2B413C1F6FF73B9
:401780001B78002B08D1FFF745FF48F2B413C1F6FF734FF001021A70FFF7AEFF80BD00BF80B400AF4FF46143CEF200034FF002021A60BD4680BC704780B400AF4FF46143B9
:4017C000CEF200034FF001021A60BD4680BC704780B400AF4EF28013CEF200034FF002021A60BD4680BC704780B400AF4EF28013CEF200034FF001021A60BD4680BC70471D
:4018000080B582B000AFFFF7E3FF46F26D43C4F200031B78DAB248F2D913C1F6FF731B78DBB203F00903DBB21343FB7148F2D913C1F6FF734FF000021A70FFF7B1FFFB7909
:40184000184607F10807BD4680BD00BF80B582B000AFFFF7C9FF46F26C43C4F200031B78DAB248F2D813C1F6FF731B78DBB203F04003DBB21343FB7148F2D813C1F6FF7330
:401880004FF000021A70FFF797FFFB79184607F10807BD4680BD00BF80B584B000AF0346FB7148F2D613C1F6FF731B78FB73FB7B002B03D14FF00703FB7303E0FB7B03F166
:4018C000FF33FB7348F2D513C1F6FF731B78DBB2FA7B9A42E5D0FFF77BFF46F26D43C4F200031B78DAB248F2D913C1F6FF731B78DBB203F00903DBB21343BB7348F2D91302
:40190000C1F6FF73BA7B1A7048F2D613C1F6FF731B78DAB248F2D513C1F6FF731B78DBB29A4210D148F2D913C1F6FF731B78DBB203F00403002B06D046F24E43C4F2000340
:40194000FA791A7069E048F2D513C1F6FF731B78DBB203F10103DAB248F2D513C1F6FF731A7048F2D513C1F6FF731B78DBB2072B06D948F2D513C1F6FF734FF000021A70CB
:4019800048F2D513C1F6FF731B78DAB248F2D613C1F6FF731B78DBB29A4223D148F2D613C1F6FF731B78DBB203F10103DAB248F2D613C1F6FF731A7048F2D613C1F6FF736F
:4019C0001B78DBB2072B06D948F2D613C1F6FF734FF000021A7048F2DB13C1F6FF734FF001021A7048F2D513C1F6FF731B78DBB21A4648F2A413C1F6FF73F979995446F206
:401A00008D43C4F2000346F28D42C4F200021278D2B242F00402D2B21A70FFF7C1FE07F11007BD4680BD00BF80B582B000AF04E046F25E43C4F200031B7846F26C43C4F28B
:401A400000031B78DBB203F02003002BF0D100F089F90346FB7146F29E43C4F2000346F29E42C4F200021278D2B242F00102D2B21A7046F29E43C4F2000346F29E42C4F287
:401A800000021278D2B222F00102D2B21A70FB79184600F06BF907F10807BD4680BD00BF80B483B000AF5FE046F26D43C4F200031B78DAB248F2D913C1F6FF731B78DBB243
:401AC00003F00903DBB21343FB7148F2D913C1F6FF73FA791A7048F2D913C1F6FF731B78DBB203F00403002B4DD048F2DB13C1F6FF731B78DBB2002B1DD148F2D613C1F637
:401B0000FF731B78DBB203F10103DAB248F2D613C1F6FF731A7048F2D613C1F6FF731B78DBB2072B0ED948F2D613C1F6FF734FF000021A7006E048F2DB13C1F6FF734FF0A7
:401B400000021A7046F24E43C4F2000348F2D612C1F6FF721278D2B2114648F2A412C1F6FF72525CD2B21A7048F2D613C1F6FF731B78DAB248F2D513C1F6FF731B78DBB2FE
:401B80009A4291D100E000BF48F2D613C1F6FF731B78DAB248F2D513C1F6FF731B78DBB29A420DD146F28D43C4F2000346F28D42C4F200021278D2B222F00402D2B21A7004
:401BC00007F10C07BD4680BC704700BF80B483B000AF46F26C43C4F200031B78DAB248F2D813C1F6FF731B78DBB203F04003DBB21343FB7148F2D813C1F6FF73FA791A7012
:401C000078E046F25E43C4F200031B78BB7148F2D713C1F6FF731B78DBB203F10103DAB248F2D713C1F6FF731A7048F2D713C1F6FF731B78DBB2072B06D948F2D713C1F6DA
:401C4000FF734FF000021A7048F2D713C1F6FF731B78DAB248F2D413C1F6FF731B78DBB29A4223D148F2D413C1F6FF731B78DBB203F10103DAB248F2D413C1F6FF731A70BF
:401C800048F2D413C1F6FF731B78DBB2072B06D948F2D413C1F6FF734FF000021A7048F2DA13C1F6FF734FF001021A7048F2D713C1F6FF731B78DBB21A4648F2AC13C1F6FB
:401CC000FF73B979995446F26C43C4F200031B78DAB248F2D813C1F6FF731B78DBB203F04003DBB21343FB7148F2D813C1F6FF73FA791A7048F2D813C1F6FF731B78DBB2E8
:401D000003F02003002B7FF47CAF07F10C07BD4680BC704780B483B000AF0346FB7146F27D43C4F20003FA791A7007F10C07BD4680BC704780B400AF46F27D43C4F20003B5
:401D40001B78DBB21846BD4680BC7047000000000230800800F0058000BF013800467FF4FCAF7047EFF3108072B6704780F31088704700BFAFF3008080B483B000AF03465A
:401D8000FB7101BE07F10C07BD4680BC704700BF80B582B000AF78600BE048F21813C1F6FF731B681846FFF7D3FF7B68A3F500437B607B68B3F5004FEFD848F21013C1F6DA
:401DC000FF731B687A6802FB03F31846FFF7C0FF07F10807BD4680BD80B582B000AF0346FB80FA8848F21413C1F6FF731B7803FB02F31846FFF7ACFF07F10807BD4680BD0D
:401E000080B584B000AF03463960FB714EF60853CEF200031B68FB60FB791F2B03D94FF00000FFF7A9FFFB7903F01F0303F110034FEA8303FA68D3181B68BB60FB7903F0E4
:401E40001F0303F110034FEA8303FA68D3183A681A60BB68184607F11007BD4680BD00BF80B582B000AF02460B46FA71BB71BB79072B03D94FF00000FFF77EFFFB791F2B8A
:401E800003D94FF00000FFF777FFFB7903F01F0303F1604303F56443BA794FEA4212D2B21A7007F10807BD4680BD00BF80F0004002E000BF81F0004142001FBF5FEA410358
:401EC00092EA030F7FEA226C7FEA236C6AD04FEA1262D2EB1363C1BFD218414048404140B8BF5B42192B88BF704710F0004F40F4000020F07F4018BF404211F0004F41F4D1
:401F0000000121F07F4118BF494292EA030F3FD0A2F1010241FA03FC10EB0C00C3F1200301FA03F100F0004302D5494260EB4000B0F5000F13D3B0F1807F06D340084FEA7F
:401F4000310102F10102FE2A51D2B1F1004F40EBC25008BF20F0010040EA03007047490040EB000010F4000FA2F10102EDD1B0FA80FCACF1080CB2EB0C0200FA0CF0AABF48
:401F800000EBC25052421843BCBFD0401843704792F0000F81F4000106BF80F400000132013BB5E74FEA41037FEA226C18BF7FEA236C21D092EA030F04D092F0000F08BF5F
:401FC0000846704790EA010F1CBF0020704712F07F4F04D1400028BF40F00040704712F100723CBF00F50000704700F0004343F0FE4040F4000070477FEA226216BF0846F2
:402000007FEA23630146420206BF5FEA412390EA010F40F4800070474FF0000304E000BF10F0004348BF40425FEA000C08BF704743F0964301464FF000001CE050EA010270
:4020400008BF70474FF000030AE000BF50EA010208BF704711F0004302D5404261EB41015FEA010C02BF84460146002043F0B64308BFA3F18053A3F50003BCFA8CF2083A5E
:40208000A3EBC25310DB01FA02FC634400FA02FCC2F12002BCF1004F20FA02F243EB020008BF20F00100704702F1200201FA02FCC2F1200250EA4C0021FA02F243EB0200B4
:4020C00008BF20EADC7070474FF0FF0C1CEAD0521EBF1CEAD15392EA0C0F93EA0C0F6FD01A4480EA010C400218BF5FEA41211ED04FF0006343EA501043EA5111A0FB013113
:402100000CF00040B1F5000F3EBF490041EAD3715B0040EA010062F17F02FD2A1DD8B3F1004F40EBC25008BF20F00100704790F0000F0CF0004C08BF49024CEA502040EA0B
:4021400051207F3AC2BFD2F1FF0340EAC250704740F400004FF00003013A5DDC12F1190FDCBF00F000407047C2F10002410021FA02F1C2F1200200FA02FC5FEA310040F1E9
:40218000000053EA4C0308BF20EADC70704792F0000F00F0004C02BF400010F4000F013AF9D040EA0C0093F0000F01F0004C02BF490011F4000F013BF9D041EA0C018FE704
:4021C0000CEAD15392EA0C0F18BF93EA0C0F0AD030F0004C18BF31F0004CD8D180EA010000F00040704790F0000F17BF90F0004F084691F0000F91F0004F14D092EA0C0FDD
:4022000001D142020FD193EA0C0F03D14B0218BF084608D180EA010000F0004040F0FE4040F40000704740F0FE4040F4400070474FF0FF0C1CEAD0521EBF1CEAD15392EA6F
:402240000C0F93EA0C0F69D0A2EB030280EA010C49024FEA402037D04FF0805343EA111143EA10130CF000408B4238BF5B0042F17D024FF4000C8B4224BF5B1A40EA0C0016
:40228000B3EB510F24BFA3EB510340EA5C00B3EB910F24BFA3EB910340EA9C00B3EBD10F24BFA3EBD10340EADC001B0118BF5FEA1C1CE0D1FD2A3FF650AF8B4240EBC25079
:4022C00008BF20F0010070470CF0004C4CEA50207F32C2BFD2F1FF0340EAC250704740F400004FF00003013A37E792F0000F00F0004C02BF400010F4000F013AF9D040EA99
:402300000C0093F0000F01F0004C02BF490011F4000F013BF9D041EA0C0195E70CEAD15392EA0C0F08D142027FF47DAF93EA0C0F7FF470AF084676E793EA0C0F04D14B02EF
:402340003FF44CAF08466EE730F0004C18BF31F0004CCAD130F000427FF45CAF31F000437FF43CAF5FE700BF4FEA4002B2F1FE4F0FD34FF09E03B3EB12620DD94FEA002319
:4023800043F0004310F0004F23FA02F018BF404270474FF00000704712F1610F01D1420205D110F0004008BF6FF0004070474FF00000704738B50E4D0E4B0024E81A851035
:4023C000AC4205D00B4951F8242090470134F7E700F0E2FA0849094A541AA5100024AC4205D0054B53F8240080470134F7E738BDA4290000A4290000A4290000AC2900000B
:4024000010B50023934203D0CC5CC4540133F9E710BD82180346934202D003F8011BFAE77047034611F8012B03F8012B002AF9D17047034613F8012B002AFBD1181A013881
:40244000704700002DE9F041184D07462E688846F46D0CBB502000F05BF82B68F065DA6D9460D86D14600461D96D54608C61DA6DC460D462D86D4C614463D96D9462CC63A0
:40248000DA6D04635464D86D8C63C464D96D14640C77DB6D84645C62044A384613684146DA6D0123BDE8F04100F002B88081FF1FF0B510B91068002828D0044627463878E6
:4024C00001340E4616F8015B45B1A842FAD1002BF4D11460384604F8013CF0BD234638B91060F0BD17F8015B854206D0002DF9D113F8010B0F461E46F4E718B1002103F870
:40250000011C00E006461660601EF0BDF0BD0000024B0146186800F003B800BF8081FF1F70B5CD1C25F0030508350C2D38BF0C25002D06462DDB8D422BD31D4B1B681C4603
:402540009CB12268501B0DD40B2802D92060241817E0A34203D16068154A10601DE0616859601AE023466468EAE72946304600F021F8431C01460CD0CC1C24F003048C4267
:4025800001D1256009E03046611A00F013F80130F7D10C203060002070BD04F10B01231D21F00700C31A02D05A42E25070BD70BDB881FF1F38B5064C0023054608462360E8
:4025C00000F008F8431C02D1216801B1296038BDDC81FF1F094A13686BB118186946884202D8106018467047054B0C221A604FF0FF3318467047034B1360EEE7BC81FF1F24
:40260000DC81FF1FE081FF1F00000000746674206C63642073637265656E207769746820776F7264207772617020776F726B696E6720626C616820626C616820626C616887
:4026400000000000005100404000505100401000C05100401000F0510040100000000140000E800E0140800100140140000800400140000A004C01400002005001402000DF
:40268000000E01402C0200488000000000000000000000000000000000000000000000000000000000000000000000000000000000000000000000000000000000000000D5
:4026C00000000000000000000000000000000000000000000000000000000000000000000000000000000000000000000000000000000000000000000000000000000000DA
:402700000000000000000000000000000000000000000000000000000000000000000000000000000000000000000000000000000000000000000000000000000000000099
:402740000000000000000000000000000000000000000000004F000000000700070000147F147F1400242A7F2A1200231308646200364955225000000503000000001C2229
:402780004100000041221C000014083E08140008083E0808000050300000000808080808000060600000002010080402003E5149453E0000427F40000042615149460021DF
:4027C00041454B31001814127F10002745454539003C4A49493000017109050300364949493600064949291E0036360000000056360000000008142241000014141414140F
:4028000000004122140800020151090600304979413E007E1111117E007F49494936003E41414122007F4141221C007F49494941007F09090901003E4149497A007F0808D4
:40284000087F0000417F4100002040413F01007F08142241007F40404040007F020C027F007F0408107F003E4141413E007F09090906003E4151215E007F091929460046C6
:40288000494949310001017F0101003F4040403F001F2040201F003F4030403F00631408146300070870080700615149454300007F414100000204081020000041417F0018
:4028C000000402010204004040404040000001020400002054545478007F5048483000384444442000384444487F00385454541800087E090102000C5252523E007F08040D
:4029000004780000447D4000002040443D00007F102844000000417F4000007804584478007C08040478003844444438007C1414140800081414187C007C0804040800480E
:402940005454542000043F444020003C4040207C001C2040201C003C4030403C004428102844000C5050503C004464544C440000083641000000007F0000000041360800F3
:40298000000C020C100C000000000000200900002000000043000000F8B500BFF8BC08BC9E46704751000000E9010000F8B500BFF8BC08BC9E4670472D000000D0290000F6
:4029C0000881FF1F8000000058000000000000000000000000366E01C05D0000180000000000E02E0000000000000000000000000000000000000000000000000000000070
:402A000000000000942900000000000000000000000000000000000000000000000000000000000000000000000000000000000000000000000000000000000000000000D9
:402A400000000000000000001C81FF1F000000000000000000000000000000000000000000000000000000000000000000000000000000000000000000000000000000009B
:402A80000000000000000000000000000000000000000000000000000000000000000000000000000000000000000000000000000000000000000000000000000000000016
:402AC00000000000000000000000000000000000000000000000000000000000000000000000000000000000000000000000000000000000000000000000000000000000D6
:402B00000000000000000000000000000000000000000000000000000000000000000000000000000000000000000000000000000000000000000000000000000000000095
:402B40000000000000000000000000000000000000000000000000000000000000000000000000000000000000000000000000000000000000000000000000000000000055
:020000040003F7
:0200000480007A
:400000000452004001640040010101400103014001050140010B0140460C0140440D01400A0E0140320F0140074001400441014002420140094401400C4501400250014023
:400040000151014020103023310634108E0FE204E608EE02AE400415050D060A090D0C140D0D0E09100E110D141315111604172219021B0D210D2562271429402D422F08E0
:40008000300F330F3610377038023B883E4054405604580459045B045F01800C8203840185058608873A880389028A048B0D8C0A900A940295139608970C98089A029B20A0
:4000C000A008A202A408A802AD09AF36B30FB40FB530BA20BB08D409D604D804D904DB04DF01008402880404058007010A140B800D040E8011101224132218041B201D8022
:400100001E80201021282680271129802D902E022F20312032083608371238143C803E14594A5B20618062016440665868216A2080208440852088018E1091089214938020
:400140009404994A9A5E9B029E019F01A040A228A508A810B402C0AFC23EC40ECAF8CCE6CE76D60FD8F9E009EC018301850189018D019F01A101B301BF04D904DF01001638
:4001800003010A150B80122A160817101810195021042228271028082A062B012E022F40304032283680384039143CC23E143F02400C41044301444047014802491852D664
:4001C0006108684169146A156B02720282018D12C00FC20FC407CA8FCC1ECEFED007D20CD802304035805F028180CC30D680E22084409C409F02E610AF02EE400A40500456
:40020000540858405C405E01C208D407D6058008860188408C40944096019C40A408A804B640E003EE0200010E01000F040080000A22100401040022562609008400000031
:4002400080070418840A0030843A00050026000004040000070938326022000400007F0780380800080000200000500024036000050EFDBC3DFFFFFF2200F00804000000C3
:400280000000022804040404000000010000C00040011011C001001140014001000000000000000000000000000000000010100010000000102F2F002F00000000000000C0
:4002C00000000000000000000000000000000000000000000000000000000000000000000000000000000000000000000000000000000000000000000000000000000000FE
:4003000000000000000000000000000000000000000000000000000000000000000000000000000000000000000000000000000000000000000000000000000000000000BD
:40034000000000000000000000000000000000000000000000000000000000000000000000000000000000000000000000000000000000000000000000000000000000007D
:40038000000000000000000000000000000000000000000000000000000000000000000000000000000000000000000000000000000000000000000000000000000000003D
:0200000490006A
:0400000000004005B7
:0200000490105A
:04000000BC90ACAF55
:0200000490303A
:02000000FE32CE
:0200000490402A
:4000000000000000000000000000000000000000000000000000000000000000000000000000000000000000000000000000000000000000000000000000000000000000C0
:400040000000000000000000000000000000000000000000000000000000000000000000000000000000000000000000000000000000000000000000000000000000000080
:400080000000000000000000000000000000000000000000000000000000000000000000000000000000000000000000000000000000000000000000000000000000000040
:4000C0000000000000000000000000000000000000000000000000000000000000000000000000000000000000000000000000000000000000000000000000000000000000
:0200000490501A
:0C00000000012E12306900012E252E9BFD
:00000001FF