:4000000000800020110000001D3500001D35000080B500AF024A034B1B68136003F082FABC760040FA46004010B5054C237833B9044B13B10448AFF300800123237010BDF4
:400040002081FF1F00000000F05F0000084B10B51BB108480849AFF300800848036803B910BD074B002BFBD0BDE81040184700BF00000000F05F00002481FF1F0881FF1F73
:4000800000000000B0B5A0B002AF03F09BF9A04B07F138041D460FCD0FC495E80F0084E80F00052300934FF4784301930020002119224FF4A07304F0B3FB03F0D5F903F0A6
:4000C00007FA00237B6700237B6710E07B6F9B0007F17802134453F8402C7B6F9B0007F178010B4443F8742C7B6F01337B677B6F072BEBDD002004F0F9FF03F081F87866A6
:400100007B6E002B12DB7B6E032B0FDC7B6E9B0007F17802134453F8403C5A427B6E9B0007F178010B4443F8402C0BE07B6E032B08DD7B6E043B012202FA03F3DBB2184612
:4001400004F0D4FF00237B677DE07B6F9B0007F17802134453F8402C7B6F9B0007F178010B4453F8743C9A426AD00123A7F8703004F0DCFF0346A7F862307B6F9B0007F1D2
:400180007802134453F8403CB3F1FF3F38D1786F4FF0FF3100F0A8F97B6F0133FF2202FA03F3A7F860300023FB667B6F002B15D00123FB660DE00122FB6E02FA03F39AB2BB
:4001C000B7F8703013439BB2A7F87030FB6E0133FB66FA6E7B6F9A42EDDB02E00023A7F87030B7F86020B7F870301343A7F85E30B7F86220B7F85E301340A7F8723017E09C
:400200007B6F9B0007F17802134453F8403C012B0ED1786F012100F067F901227B6F02FA03F39AB2B7F8623013439BB2A7F87230B7F87230DBB2184604F068FF00F03CF919
:400240007B6F01337B677B6F032B7FF77EAF04F079FF0346A7F85C3000237B6739E0B7F85C30D9B201227B6F02FA03F3DBB20A461340DBB287F85B30B7F86A30D9B2012242
:400280007B6F02FA03F3DBB20A461340DBB287F85A3097F85B30002B0AD097F85A30002B06D17B6F01331846012101F049FC0DE097F85B30002B09D197F85A30002B05D069
:4002C0007B6F01331846002101F03AFC7B6F01337B677B6F032BC2DDB7F85C30A7F86A3004F0F8FE0346A7F85830B7F85820B7F868309A4206D0B7F85830DBB20020194652
:4003000002F03AFEB7F85830A7F86830D9E600BFF45F00000000000090B58FB002AF786008233B623B6A002B06DD4FF4A0723B6A92FBF3F3FB6202E040F24113FB62FB6AD8
:40034000DA0F13445B10BB62BB6A7B62786A05F069F802460B461046194651A3D3E9002305F056FB0346002B06D047237B627B6ABB62BB6A5B00FB623B6A01334FF4A07276
:4003800092FBF3F2BB6AD90F0B445B10D31AFB61786A05F047F802460B46104619464FF00002414B05F0A4F802460B464FF000003E4904F0E9FE02460B461046194605F07C
:4003C00031FB0346BB61BB6998B27B6801339BB2FA6992B202FB03F39AB27B68B96A01FB03F3D90F0B445B109BB213449BB299B27B6A9AB2BB6A9BB200B209B212B21CB23C
:4004000047F6EF330093234603F05CFD7B6ADA0F13445B101A46BB6913447B61B86A05F001F802460B46104619464FF00002204B05F05EF802460B46104619464FF00002EA
:400440004FF0804305F07EF902460B461046194605F0E8FA03463B617B680133FA6902FB03F27B680133B96A01FB03F3D90F0B445B101344FB607B6999B2FB689AB23B6996
:400480009BB209B212B21BB2084611461A46002304F02CF83437BD4690BD00BFAFF300800000000000C051400000044000006E400000E83FAFF3008080B500AF17200121FE
:4004C00003F086FA04F012FC0346002B05D000BF04F00CFC0346002BFAD10020012103F077FA80BD000000002DE9F0418CB002AF7860396008233B613B69002B06DD4FF400
:40050000A0723B6992FBF3F37B6202E040F241137B627B6ADA0F13445B103B623B6A5B00FB61F86904F07EFF02460B461046194635A3D3E9002305F06BFA0346002B09D069
:400540004723FB61FB69DA0F13445B103B623B6A5B007B623B6901334FF4A07292FBF3F23B6AD90F0B445B10D31AFB60F86904F059FF02460B46104619464FF00002244B53
:4005800004F0B6FF02460B464FF00000214904F0FBFD02460B461046194605F043FA0346BB60BB6898B27B6801339BB2FA6892B202FB03F39AB27B68396A01FB03F3D90F6A
:4005C0000B445B109BB213449BB299B2FB699AB23B6A9CB23B6A002B00DA03339B109BB200B209B212B224B21BB2009347F6EF330193234604F014F93B68012B40F0298519
:400600000023BB61C9E200BF0000000000C051400000F83F00006E40B86804F003FF04460D46F86904F0FEFE02460B4610461946DDA3D3E9002304F05BFF02460B461046ED
:4006400019464FF000024FF0804305F07BF802460B462046294604F099FD02460B461046194605F0DFF903461FFA83F87B680133FA6802FB03F27B68396A01FB03F3D90FB5
:400680000B445B101344184604F0CCFE04460D46386A04F0C7FE02460B4610461946C2A3D3E9002304F024FF02460B46104619464FF000024FF0804305F044F802460B4611
:4006C0002046294604F062FD02460B461046194605F0A8F903469EB2F86904F0A3FE02460B4610461946B2A3D3E9002304F000FF02460B461046194605F094F903469DB282
:40070000386A04F08FFE02460B4610461946A8A3D3E9002304F0ECFE02460B461046194605F080F903469CB2386A04F07BFE02460B46104619469EA3D3E9002304F0D8FEA6
:4007400002460B46104619464FF000029A4B04F0F9FF02460B461046194605F063F903469BB20FFA88F031B22AB224B21BB2009300230193234604F053F8B86804F052FEAB
:4007800004460D46F86904F04DFE02460B461046194685A3D3E9002304F0AAFE02460B46104619464FF000024FF0804304F0CAFF02460B462046294604F0E8FC02460B46DE
:4007C00014461D46F86904F02DFE02460B461046194677A3D3E9002304F08AFE02460B46104619464FF000024FF0804304F0AAFF02460B462046294604F0C8FC02460B460C
:4008000014461D46B86904F00DFE02460B462046294604F0B9FC02460B461046194605F001F903461FFA83F87B680133FA6802FB03F27B68396A01FB03F3D90F0B445B1025
:400840001344184604F0EEFD04460D46386A04F0E9FD02460B461046194653A3D3E9002304F046FE02460B46104619464FF000024FF0804304F066FF02460B462046294618
:4008800004F084FC02460B461046194605F0CAF803469EB2F86904F0C5FD02460B461046194643A3D3E9002304F022FE02460B46104619464FF000024FF0804304F042FF22
:4008C00002460B461046194605F0ACF803469DB2386A04F0A7FD02460B461046194634A3D3E9002304F004FE02460B461046194605F098F803469CB2386A04F093FD02466D
:400900000B46104619462AA3D3E9002304F0F0FD02460B46104619464FF00002264B04F011FF02460B461046194605F07BF803469BB20FFA88F031B22AB224B21BB200935E
:400940004FF6FF730193234603F06AFFB86804F069FD04460D46F86904F064FD02460B461046194610A3D3E9002304F0C1FD02460B46104619464FF000024FF0804304F083
:40098000E1FE02460B462046294604F0FFFB02460B4614461D46F86904F044FD02460B46104619460AE000BF333333333333C33F333333333333EB3F00001040E0A3D3E9FA
:4009C000002304F095FD02460B46104619464FF000024FF0804304F0B5FE02460B462046294604F0D3FB02460B4614461D46B86904F018FD02460B462046294604F0C4FB45
:400A000002460B461046194605F00CF803461FFA83F87B680133FA6802FB03F27B68396A01FB03F3D90F0B445B101344184604F0F9FC04460D46386A04F0F4FC02460B46B3
:400A400010461946C0A3D3E9002304F051FD02460B46104619464FF000024FF0804304F071FE02460B462046294604F08FFB02460B461046194604F0D5FF03469EB2F8694D
:400A800004F0D0FC02460B4610461946ACA3D3E9002304F02DFD02460B46104619464FF000024FF0804304F04DFE02460B461046194604F0B7FF03469DB2386A04F0B2FC38
:400AC00002460B46104619469DA3D3E9002304F00FFD02460B461046194604F0A3FF03469CB2386A04F09EFC02460B461046194693A3D3E9002304F0FBFC02460B461046A1
:400B000019464FF00002924B04F01CFE02460B461046194604F086FF03469BB20FFA88F031B22AB224B21BB2009300230193234603F0AAFDB86904F075FC04460D46F86919
:400B400004F070FC02460B46104619467CA3D3E9002304F0CDFC02460B46104619464FF000024FF0804304F0EDFD02460B46104619464FF000024FF0804304F0E3FD0246F0
:400B80000B462046294604F001FB02460B461046194604F047FF0346BB61B86904F042FC04460D46F86904F03DFC02460B461046194663A3D3E9002304F09AFC02460B465E
:400BC000104619464FF000024FF0804304F0BAFD02460B462046294604F0FCFE0346002B7FF41AADB86804F01DFC04460D46F86904F018FC02460B461046194652A3D3E916
:400C0000002304F075FC02460B46104619464FF000024FF0804304F095FD02460B462046294604F0B3FA02460B461046194604F0F9FE03461FFA83F87B680133FA6802FB7A
:400C400003F27B68396A01FB03F3D90F0B445B101344184604F0E6FB04460D46386A04F0E1FB02460B461046194637A3D3E9002304F03EFC02460B46104619464FF0000208
:400C80004FF0804304F05EFD02460B462046294604F07CFA02460B461046194604F0C2FE03469EB2F86904F0BDFB02460B461046194623A3D3E9002304F01AFC02460B46CD
:400CC0001046194604F0AEFE03469DB2386A04F0A9FB02460B461046194619A3D3E9002304F006FC02460B461046194604F09AFE03469CB2386A04F095FB02460B46104668
:400D000019460FA3D3E9002304F0F2FB02460B46104619464FF000020D4B04F013FD02460B461046194604F07DFE03469BB20FFA88F031B22AB224B21BB200930AE000BF85
:400D4000333333333333EB3F333333333333C33F000010404FF4FC630193234603F060FDB86804F05FFB04460D46F86904F05AFB02460B4610461946BBA3D3E9002304F070
:400D8000B7FB02460B46104619464FF000024FF0804304F0D7FC02460B462046294604F0F5F902460B461046194604F03BFE03461FFA83F87B680133FA6802FB03F27B6833
:400DC000396A01FB03F3D90F0B445B101344184604F028FB04460D46386A04F023FB02460B4610461946A0A3D3E9002304F080FB02460B46104619464FF000024FF080432F
:400E000004F0A0FC02460B462046294604F0BEF902460B461046194604F004FE03469EB2F86904F0FFFA02460B461046194690A3D3E9002304F05CFB02460B4610461946E5
:400E40004FF000024FF0804304F07CFC02460B461046194604F0E6FD03469DB2386A04F0E1FA02460B461046194681A3D3E9002304F03EFB02460B461046194604F0D2FD06
:400E800003469CB2386A04F0CDFA02460B461046194677A3D3E9002304F02AFB02460B46104619464FF00002734B04F04BFC02460B461046194604F0B5FD03469BB20FFAC3
:400EC00088F031B22AB224B21BB200934FF6FF730193234603F0A4FCB86804F0A3FA04460D46F86904F09EFA02460B46104619465DA3D3E9002304F0FBFA02460B461046FE
:400F000019464FF000024FF0804304F01BFC02460B462046294604F039F902460B461046194604F07FFD03461FFA83F87B680133FA6802FB03F27B68396A01FB03F3D90F0A
:400F40000B445B101344184604F06CFA04460D46386A04F067FA02460B461046194642A3D3E9002304F0C4FA02460B46104619464FF000024FF0804304F0E4FB02460B4653
:400F80002046294604F002F902460B461046194604F048FD03469EB2F86904F043FA02460B461046194632A3D3E9002304F0A0FA02460B46104619464FF000024FF080439A
:400FC00004F0C0FB02460B461046194604F02AFD03469DB2386A04F025FA02460B461046194623A3D3E9002304F082FA02460B461046194604F016FD03469CB2386A04F0A7
:4010000011FA02460B461046194619A3D3E9002304F06EFA02460B46104619464FF00002154B04F08FFB02460B461046194604F0F9FC03469BB20FFA88F031B22AB224B210
:401040001BB2009300230193234603F01DFB00F066BD3B68B3F1FF3F40F0618500237B6190E200BFAFF30080333333333333C33F333333333333EB3F00001040B86804F0F1
:40108000D1F904460D46F86904F0CCF902460B4610461946E0A3D3E9002304F029FA02460B46104619464FF000024FF0804304F049FB02460B462046294604F067F8024616
:4010C0000B461046194604F0ADFC03461FFA83F87B680133FA6802FB03F27B68396A01FB03F3D90F0B445B101344184604F09AF904460D46386A04F095F902460B461046FF
:401100001946C5A3D3E9002304F0F2F902460B46104619464FF000024FF0804304F012FB02460B462046294604F030F802460B461046194604F076FC03469EB2F86904F06C
:4011400071F902460B4610461946B5A3D3E9002304F0CEF902460B461046194604F062FC03469DB2386A04F05DF902460B4610461946ABA3D3E9002304F0BAF902460B46E6
:401180001046194604F04EFC03469CB2386A04F049F902460B4610461946A1A3D3E9002304F0A6F902460B46104619464FF000029D4B04F0C7FA02460B461046194604F05B
:4011C00031FC03469BB20FFA88F031B22AB224B21BB200934FF4FC630193234603F020FBB86804F01FF904460D46F86904F01AF902460B461046194687A3D3E9002304F08D
:4012000077F902460B46104619464FF000024FF0804304F097FA02460B462046294603F0B5FF02460B4614461D46786904F0FAF802460B462046294603F0A8FF02460B4655
:401240001046194604F0EEFB03461FFA83F87B680133FA6802FB03F27B68396A01FB03F3D90F0B445B101344184604F0DBF804460D46386A04F0D6F802460B4610461946AF
:4012800065A3D3E9002304F033F902460B46104619464FF000024FF0804304F053FA02460B462046294603F071FF02460B461046194604F0B7FB03469EB2F86904F0B2F8F8
:4012C00002460B461046194655A3D3E9002304F00FF902460B46104619464FF000024FF0804304F02FFA02460B461046194604F099FB03469DB2386A04F094F802460B46F6
:401300001046194646A3D3E9002304F0F1F802460B461046194604F085FB03469CB2386A04F080F802460B46104619463CA3D3E9002304F0DDF802460B46104619464FF08A
:401340000002394B04F0FEF902460B461046194604F068FB03469BB20FFA88F031B22AB224B21BB200934FF6FF730193234603F057FAB86804F056F804460D46F86904F0FF
:4013800051F802460B461046194623A3D3E9002304F0AEF802460B46104619464FF000024FF0804304F0CEF902460B462046294603F0ECFE02460B4614461D46786904F095
:4013C00031F802460B462046294603F0DFFE02460B461046194604F025FB03461FFA83F87B680133FA6802FB03F27B68396A01FB03F3D90F0B445B101344184604F012F80F
:4014000004460D46386A04F00DF802460B4610460CE000BFAFF30080333333333333C33F333333333333EB3F000010401946E2A3D3E9002304F05CF802460B46104619467F
:401440004FF000024FF0804304F07CF902460B462046294603F09AFE02460B461046194604F0E0FA03469EB2F86903F0DBFF02460B4610461946D2A3D3E9002304F038F81E
:4014800002460B46104619464FF000024FF0804304F058F902460B461046194604F0C2FA03469DB2386A03F0BDFF02460B4610461946C3A3D3E9002304F01AF802460B463D
:4014C0001046194604F0AEFA03469CB2386A03F0A9FF02460B4610461946B9A3D3E9002304F006F802460B46104619464FF00002B54B04F027F902460B461046194604F067
:4015000091FA03469BB20FFA88F031B22AB224B21BB2009300230193234603F0B5F8786903F080FF04460D46F86903F07BFF02460B4610461946A2A3D3E9002303F0D8FF5A
:4015400002460B46104619464FF000024FF0804304F0F8F802460B46104619464FF000024FF0804304F0EEF802460B462046294603F00CFE02460B461046194604F052FA92
:4015800003467B61786903F04DFF04460D46F86903F048FF02460B461046194688A3D3E9002303F0A5FF02460B46104619464FF000024FF0804304F0C5F802460B4620467E
:4015C000294604F007FA0346002B7FF457ADB86803F028FF04460D46F86903F023FF02460B461046194674A3D3E9002303F080FF02460B46104619464FF000024FF0804308
:4016000004F0A0F802460B462046294603F0BEFD02460B461046194604F004FA03461FFA83F87B680133FA6802FB03F27B68396A01FB03F3D90F0B445B101344184603F0B8
:40164000F1FE04460D46386A03F0ECFE02460B461046194658A3D3E9002303F049FF02460B46104619464FF000024FF0804304F069F802460B462046294603F087FD0246E9
:401680000B461046194604F0CDF903469EB2F86903F0C8FE02460B461046194648A3D3E9002303F025FF02460B461046194604F0B9F903469DB2386A03F0B4FE02460B461C
:4016C000104619463EA3D3E9002303F011FF02460B461046194604F0A5F903469CB2386A03F0A0FE02460B461046194634A3D3E9002303F0FDFE02460B46104619464FF049
:401700000002314B04F01EF802460B461046194604F088F903469BB20FFA88F031B22AB224B21BB2009300230193234603F078F8B86803F077FE04460D46F86903F072FEE6
:4017400002460B46104619461BA3D3E9002303F0CFFE02460B46104619464FF000024FF0804303F0EFFF02460B462046294603F00DFD02460B4614461D46F86903F052FEE7
:4017800002460B46104619460DA3D3E9002303F0AFFE02460B46104619464FF000024FF0804303F0CFFF02460B462046294603F0EDFC0BE0AFF30080333333333333C33FCF
:4017C000333333333333EB3F0000104002460B461046194604F026F903461FFA83F87B680133FA6802FB03F27B68396A01FB03F3D90F0B445B101344184603F013FE044677
:401800000D46386A03F00EFE02460B4610461946C5A3D3E9002303F06BFE02460B46104619464FF000024FF0804303F08BFF02460B462046294603F0A9FC02460B461046C0
:40184000194604F0EFF803469EB2F86903F0EAFD02460B4610461946B5A3D3E9002303F047FE02460B46104619464FF000024FF0804303F067FF02460B461046194604F071
:40188000D1F803469DB2386A03F0CCFD02460B4610461946A6A3D3E9002303F029FE02460B461046194604F0BDF803469CB2386A03F0B8FD02460B46104619469CA3D3E9B8
:4018C000002303F015FE02460B46104619464FF00002994B03F036FF02460B461046194604F0A0F803469BB20FFA88F031B22AB224B21BB200934FF6FF730193234602F098
:401900008FFFB86803F08EFD04460D46F86903F089FD02460B461046194683A3D3E9002303F0E6FD02460B46104619464FF000024FF0804303F006FF02460B4620462946E4
:4019400003F024FC02460B4614461D46F86903F069FD02460B461046194675A3D3E9002303F0C6FD02460B46104619464FF000024FF0804303F0E6FE02460B462046294673
:4019800003F004FC02460B461046194604F04AF803461FFA83F87B680133FA6802FB03F27B68396A01FB03F3D90F0B445B101344184603F037FD04460D46386A03F032FD11
:4019C00002460B461046194657A3D3E9002303F08FFD02460B46104619464FF000024FF0804303F0AFFE02460B462046294603F0CDFB02460B461046194604F013F8034651
:401A00009EB2F86903F00EFD02460B461046194647A3D3E9002303F06BFD02460B46104619464FF000024FF0804303F08BFE02460B461046194603F0F5FF03469DB2386A09
:401A400003F0F0FC02460B461046194638A3D3E9002303F04DFD02460B461046194603F0E1FF03469CB2386A03F0DCFC02460B46104619462EA3D3E9002303F039FD0246AE
:401A80000B46104619464FF000022B4B03F05AFE02460B461046194603F0C4FF03469BB20FFA88F031B22AB224B21BB2009300230193234602F0E8FD786903F0B3FC04464A
:401AC0000D46F86903F0AEFC02460B461046194617A3D3E9002303F00BFD02460B46104619464FF000024FF0804303F02BFE02460B46104619464FF000024FF0804303F082
:401B000021FE02460B462046294603F03FFB02460B461046194603F085FF03467B612837BD46BDE8F08100BF333333333333C33F333333333333EB3F00001040AFF30080C8
:401B400080B58CB000AF786039603B68002B03D147F6EF33FB8505E03B68012B02D14FF47843FB8505233B623B6A002B06DD4FF4A0723B6A92FBF3F3BB6202E040F24113E4
:401B8000BB62BB6ADA0F13445B107B62786A03F049FC02460B461046194637A3D3E9002303F036FF0346002B01D047237B62BA6A7B6AD31ADA0F13445B10FB61B86A03F074
:401BC00031FC02460B46104619464FF000022C4B03F08EFC02460B46104619464FF00002284B03F0D3FA02460B461046194603F019FF0346BB617B6ADA0F13445B101A46C5
:401C0000BB6913447B61786A03F00CFC02460B46104619464FF00002194B03F069FC02460B46104619464FF000024FF0804303F089FD02460B461046194603F0F3FE0346A0
:401C40003B617B68BA6A02FB03F2FB691A447B6AD90F0B445B101344FB607B6999B2FB689AB23B699BB208B211B21AB2FB8D02F03DFC3037BD4680BD0000000000C0514011
:401C80000000E83F000039402DE9F0418CB002AF78600B46FB7005237B617B69002B06DD4FF4A0727B6992FBF3F33B6202E040F241133B623B6ADA0F13445B10FB61FB6968
:401CC0005B00BB61BB691933184603F0ABFB02460B46104619464FF000027D4B03F098FE0346002B09D04723BB61BB69DA0F13445B10FB61FB695B003B627B6901334FF471
:401D0000A07292FBF3F2FB69D90F0B445B10D31A3B61BB69DA0F13445B101933FB60FB78002B03D04FF47843FB8402E04FF48173FB84F86803F076FB04460D46B86903F01F
:401D400071FB02460B461046194659A3D3E9002303F0CEFB02460B46104619464FF000024FF0804303F0EEFC02460B462046294603F00CFA02460B461046194603F052FEAC
:401D800003461FFA83F87B6801333A6902FB03F27B68F96901FB03F3D90F0B445B101344184603F03FFB04460D46F86903F03AFB02460B46104619463FA3D3E9002303F0B7
:401DC00097FB02460B46104619464FF000024FF0804303F0B7FC02460B462046294603F0D5F902460B461046194603F01BFE03469EB2B86903F016FB02460B461046194685
:401E00002FA3D3E9002303F073FB02460B46104619464FF000022F4B03F094FC02460B461046194603F0FEFD03469DB2F86903F0F9FA02460B461046194623A3D3E90023F6
:401E400003F056FB02460B461046194603F0EAFD03469CB2B86903F0E5FA02460B461046194617A3D3E9002303F042FB02460B46104619464FF00002174B03F063FC0246CA
:401E80000B461046194603F0CDFD03469BB20FFA88F031B22AB224B21BB20093FB8C0193234602F0BDFC2837BD46BDE8F08100BF9A9999999999C93FCDCCCCCCCCCCDC3F6A
:401EC0009A9999999999E93F9A9999999999E13F000058400000244000004440AFF300802DE9F0418CB002AF78600B46FB7005237B617B69002B06DD4FF4A0727B6992FB46
:401F0000F3F33B6202E040F241133B623B6ADA0F13445B10FB61FB695B00BB61BB691933184603F07FFA02460B46104619464FF00002914B03F06CFD0346002B09D04723DA
:401F4000BB61BB69DA0F13445B10FB61FB695B003B627B6901334FF4A07292FBF3F2FB69D90F0B445B10D31A3B61BB69DA0F13445B101933FB60FB78002B03D04FF478436B
:401F8000FB8402E04FF48173FB84F86803F04AFA04460D46B86903F045FA02460B46104619466DA3D3E9002303F0A2FA02460B46104619464FF000024FF0804303F0C2FB76
:401FC00002460B462046294603F0E0F802460B4614461D46BB69694A82FB03129210DB17D31A184603F01EFA02460B462046294603F0CCF802460B461046194603F012FD8A
:4020000003461FFA83F87B6801333A6902FB03F27B68F96901FB03F3D90F0B445B101344184603F0FFF904460D46F86903F0FAF902460B461046194649A3D3E9002303F0AE
:4020400057FA02460B46104619464FF000024FF0804303F077FB02460B462046294603F095F802460B461046194603F0DBFC03469EB2F86903F0D6F902460B461046194609
:4020800039A3D3E9002303F033FA02460B4614461D46BB69394A82FB03129210DB17D31A184603F0BFF902460B462046294603F06BF802460B461046194603F0B3FC03462F
:4020C0009DB2B86903F0AEF902460B461046194627A3D3E9002303F00BFA02460B46104619464FF00002264B03F02CFB02460B461046194603F096FC03469CB2B86903F04F
:4021000091F902460B461046194619A3D3E9002303F0EEF902460B46104619464FF00002184B03F00FFB02460B461046194603F079FC03469BB20FFA88F031B22AB224B201
:402140001BB20093FB8C0193234602F069FB2837BD46BDE8F08100BF9A9999999999C93F666666666666D63FCDCCCCCCCCCCE43F9A9999999999E93F0000584067666666FA
:4021800000002440000044402DE9F0418CB002AF78600B46FB7005237B617B69002B06DD4FF4A0727B6992FBF3F33B6202E040F241133B623B6ADA0F13445B10FB61FB691B
:4021C0005B00BB61BB691933184603F02BF902460B46104619464FF000029F4B03F018FC0346002B09D04723BB61BB69DA0F13445B10FB61FB695B003B627B6901334FF44E
:40220000A07292FBF3F2FB69D90F0B445B10D31A3B61BB69DA0F13445B101933FB60FB78002B03D04FF47843FB8402E04FF48173FB84F86803F0F6F804460D46B86903F09D
:40224000F1F802460B461046194679A3D3E9002303F04EF902460B46104619464FF000024FF0804303F06EFA02460B462046294602F08CFF02460B4614461D46BB69774AE0
:4022800082FB03129210DB17D31A184603F0CAF802460B462046294602F078FF02460B4614461D46F86903F0BDF802460B461046194661A3D3E9002303F01AF902460B46F2
:4022C0002046294602F062FF02460B461046194603F0A8FB03461FFA83F87B6801333A6902FB03F27B68F96901FB03F3D90F0B445B101344184603F095F804460D46F8693D
:4023000003F090F802460B46104619464CA3D3E9002303F0EDF802460B46104619464FF000024FF0804303F00DFA02460B462046294602F02BFF02460B461046194603F0D8
:4023400071FB03469EB2F86903F06CF802460B46104619463CA3D3E9002303F0C9F802460B4614461D46BB693C4A82FB03129210DB17D31A184603F055F802460B46204630
:40238000294602F001FF02460B461046194603F049FB03469DB2B86903F044F802460B46104619462AA3D3E9002303F0A1F802460B46104619464FF00002294B03F0C2F918
:4023C00002460B461046194603F02CFB03469CB2B86903F027F802460B46104619461CA3D3E9002303F084F802460B46104619464FF000021B4B03F0A5F902460B461046DB
:40240000194603F00FFB03469BB20FFA88F031B22AB224B21BB20093FB8C0193234602F0FFF92837BD46BDE8F08100BFAFF300809A9999999999C93F666666666666E63F45
:40244000666666666666D63FCDCCCCCCCCCCE43F9A9999999999E93F000058406766666600002440000044402DE9F0418CB002AF78600B46FB7005237B617B69002B06DD61
:402480004FF4A0727B6992FBF3F33B6202E040F241133B623B6ADA0F13445B10FB61FB695B00BB61BB691933184602F0BBFF02460B46104619464FF000028B4B03F0A8FAD3
:4024C0000346002B09D04723BB61BB69DA0F13445B10FB61FB695B003B627B6901334FF4A07292FBF3F2FB69D90F0B445B10D31A3B61BB69DA0F13445B101933FB60FB782B
:40250000002B03D04FF47843FB8402E04FF48173FB84F86802F086FF04460D46B86902F081FF02460B461046194665A3D3E9002302F0DEFF02460B462046294602F026FEF9
:4025400002460B4614461D46B86902F06BFF02460B46104619465CA3D3E9002302F0C8FF02460B46104619464FF000024FF0804303F0E8F802460B462046294602F004FEDD
:4025800002460B461046194603F04CFA03461FFA83F87B6801333A6902FB03F27B68F96901FB03F3D90F0B445B101344184602F039FF04460D46F86902F034FF02460B4697
:4025C0001046194642A3D3E9002302F091FF02460B46104619464FF000024FF0804303F0B1F802460B462046294602F0CFFD02460B461046194603F015FA03469EB2B8697D
:4026000002F010FF02460B461046194632A3D3E9002302F06DFF02460B46104619464FF00002324B03F08EF802460B461046194603F0F8F903469DB2F86902F0F3FE02465E
:402640000B461046194626A3D3E9002302F050FF02460B461046194603F0E4F903469CB2B86902F0DFFE02460B46104619461AA3D3E9002302F03CFF02460B461046194661
:402680004FF000021A4B03F05DF802460B461046194603F0C7F903469BB20FFA88F031B22AB224B21BB20093FB8C0193234602F0B7F82837BD46BDE8F08100BFAFF30080A1
:4026C000CDCCCCCCCCCCEC3FB81E85EB51B8CE3FCDCCCCCCCCCCDC3F9A9999999999E93F9A9999999999E13F000058400000244000004440AFF300802DE9F0418CB002AF5A
:4027000078600B46FB7005237B617B69002B06DD4FF4A0727B6992FBF3F33B6202E040F241133B623B6ADA0F13445B10FB61FB695B00BB61BB691933184602F073FE0246C1
:402740000B46104619464FF00002B94B03F060F90346002B09D04723BB61BB69DA0F13445B10FB61FB695B003B627B6901334FF4A07292FBF3F2FB69D90F0B445B10D31A96
:402780003B61BB69DA0F13445B101933FB60FB78002B03D04FF47843FB8402E04FF48173FB84F86802F03EFE04460D46B86902F039FE02460B461046194693A3D3E90023A9
:4027C00002F096FE02460B46104619464FF000024FF0804302F0B6FF02460B462046294602F0D4FC02460B4614461D46BB69914A82FB03129210DB17D31A184602F012FE23
:4028000002460B462046294602F0C0FC02460B4614461D46F86902F005FE02460B46104619467BA3D3E9002302F062FE02460B462046294602F0AAFC02460B4610461946DF
:4028400003F0F0F803461FFA83F87B6801333A6902FB03F27B68F96901FB03F3D90F0B445B101344184602F0DDFD04460D46F86902F0D8FD02460B461046194666A3D3E9C2
:40288000002302F035FE02460B46104619464FF000024FF0804302F055FF02460B462046294602F073FC02460B4614461D46F86902F0B8FD02460B461046194658A3D3E9C7
:4028C000002302F015FE02460B462046294602F05DFC02460B4614461D46B86902F0A2FD02460B46104619464FA3D3E9002302F0FFFD02460B46104619464FF000024E4BBA
:4029000002F020FF02460B462046294602F03CFC02460B461046194603F084F803469EB2F86902F07FFD02460B46104619463CA3D3E9002302F0DCFD02460B4614461D469C
:40294000BB693C4A82FB03129210DB17D31A184602F068FD02460B462046294602F014FC02460B461046194603F05CF803469DB2B86902F057FD02460B46104619462AA3C6
:40298000D3E9002302F0B4FD02460B46104619464FF00002284B02F0D5FE02460B461046194603F03FF803469CB2B86902F03AFD02460B46104619461BA3D3E9002302F098
:4029C00097FD02460B46104619464FF000021B4B02F0B8FE02460B461046194603F022F803469BB20FFA88F031B22AB224B21BB20093FB8C0193234601F012FF2837BD4657
:402A0000BDE8F081AFF300809A9999999999C93F666666666666E63F666666666666D63FCDCCCCCCCCCCE43F9A9999999999E93F00005840676666660000244000004440F9
:402A40002DE9F0418CB002AF78600B46FB7005237B617B69002B06DD4FF4A0727B6992FBF3F33B6202E040F241133B623B6ADA0F13445B10FB61FB695B00BB61BB69193353
:402A8000184602F0CFFC02460B46104619464FF00002AB4B02F0BCFF0346002B09D04723BB61BB69DA0F13445B10FB61FB695B003B627B6901334FF4A07292FBF3F2FB692C
:402AC000D90F0B445B10D31A3B61BB69DA0F13445B101933FB60FB78002B03D04FF47843FB8402E04FF48173FB84F86802F09AFC04460D46B86902F095FC02460B46104697
:402B0000194687A3D3E9002302F0F2FC02460B46104619464FF000024FF0804302F012FE02460B462046294602F030FB02460B4614461D46BB69834A82FB03129210DB17C2
:402B4000D31A184602F06EFC02460B462046294602F01CFB02460B461046194602F062FF03461FFA83F87B6801333A6902FB03F27B68F96901FB03F3D90F0B445B101344DD
:402B8000184602F04FFC04460D46F86902F04AFC02460B461046194663A3D3E9002302F0A7FC02460B46104619464FF000024FF0804302F0C7FD02460B462046294602F0D5
:402BC000E5FA02460B4614461D46F86902F02AFC02460B461046194655A3D3E9002302F087FC02460B462046294602F0CFFA02460B4614461D46B86902F014FC02460B4652
:402C0000104619464CA3D3E9002302F071FC02460B46104619464FF000024B4B02F092FD02460B462046294602F0AEFA02460B461046194602F0F6FE03469EB2F86902F0E4
:402C4000F1FB02460B461046194639A3D3E9002302F04EFC02460B4614461D46BB69394A82FB03129210DB17D31A184602F0DAFB02460B462046294602F086FA02460B4675
:402C80001046194602F0CEFE03469DB2B86902F0C9FB02460B461046194627A3D3E9002302F026FC02460B46104619464FF00002254B02F047FD02460B461046194602F0B2
:402CC000B1FE03469CB2B86902F0ACFB02460B461046194618A3D3E9002302F009FC02460B46104619464FF00002184B02F02AFD02460B461046194602F094FE03469BB282
:402D00000FFA88F031B22AB224B21BB20093FB8C0193234601F084FD2837BD46BDE8F0819A9999999999C93F666666666666D63FCDCCCCCCCCCCE43F9A9999999999E93FEC
:402D4000000058406766666600002440000044402DE9F0418CB002AF78600B46FB7005237B617B69002B06DD4FF4A0727B6992FBF3F33B6202E040F241133B623B6ADA0FA0
:402D800013445B10FB61FB695B00BB61BB691933184602F047FB02460B46104619464FF00002714B02F034FE0346002B09D04723BB61BB69DA0F13445B10FB61FB695B00EC
:402DC0003B627B6901334FF4A07292FBF3F2FB69D90F0B445B10D31A3B61BB69DA0F13445B101933FB60FB78002B03D04FF47843FB8402E04FF48173FB84BA6913465B00F5
:402E000013441A01D31A594A82FB03125211DB17D31A9AB2FB689BB213449BB21FFA83F87B6801333A6902FB03F27B68F96901FB03F3D90F0B445B101344184602F0F2FA70
:402E400004460D46F86902F0EDFA02460B46104619463DA3D3E9002302F04AFB02460B46104619464FF000024FF0804302F06AFC02460B462046294602F088F902460B46D4
:402E80001046194602F0CEFD03469EB2B86902F0C9FA02460B46104619462DA3D3E9002302F026FB02460B46104619464FF000022F4B02F047FC02460B461046194602F0A3
:402EC000B1FD03469DB2F86902F0ACFA02460B461046194620A3D3E9002302F009FB02460B461046194602F09DFD03469CB2B86902F098FA02460B461046194618A3D3E9D2
:402F0000002302F0F5FA02460B46104619464FF00002184B02F016FC02460B461046194602F080FD03469BB20FFA88F031B22AB224B21BB20093FB8C0193234601F070FCED
:402F40002837BD46BDE8F081CDCCCCCCCCCCDC3FCDCCCCCCCCCCEC3F9A9999999999E13F9A9999999999E93F000058401F85EB510000244000004440F0B58BB002AF7860C2
:402F80000B46FB7005233B613B69002B06DD4FF4A0723B6992FBF3F3FB6102E040F24113FB61FB69DA0F13445B10BB61BB695B007B617B691933184602F034FA02460B4686
:402FC000104619464FF000028B4B02F021FD0346002B09D047237B617B69DA0F13445B10BB61BB695B00FB613B6901334FF4A07292FBF3F2BB69D90F0B445B10D31AFB602F
:403000007B69DA0F13445B101933BB60BB6898B27B6801339BB2FA6892B202FB03F39AB27B68B96901FB03F3D90F0B445B109BB213449BB299B27B699AB2BB699BB200B2BC
:4030400009B212B21CB247F6EF330093234600F039FFB86802F0E6F904460D46786902F0E1F902460B46104619465FA3D3E9002302F03EFA02460B46104619464FF000025D
:403080004FF0804302F05EFB02460B462046294602F07CF802460B461046194602F0C2FC03469EB27B680133FA6802FB03F27B68B96901FB03F3D90F0B445B10134418469F
:4030C00002F0B0F904460D46B86902F0ABF902460B461046194644A3D3E9002302F008FA02460B46104619464FF000024FF0804302F028FB02460B462046294602F046F895
:4031000002460B461046194602F08CFC03469DB2786902F087F902460B461046194634A3D3E9002302F0E4F902460B461046194602F078FC03469CB2B86902F073F90246F7
:403140000B46104619462AA3D3E9002302F0D0F902460B461046194602F064FC03469BB230B229B222B21CB200230093234600F0A9FEFB7803F00103DBB278681946FEF76C
:4031800083FDFB7803F00203DBB278681946FEF7A7FEFB7803F00403DBB278681946FEF7F3FFFB7803F00803DBB278681946FFF75BF9FB7803F01003DBB278681946FFF7DC
:4031C0009BFAFB7803F02003DBB278681946FFF737FCFB7803F04003DBB278681946FFF7B7FD2437BD46F0BD9A9999999999B93FCDCCCCCCCCCCEC3F00005840AFF3008055
:4032000080B58CB002AF08237B617B69002B06DD4FF4A0727B6992FBF3F37B6202E040F241137B627B6ADA0F13445B103B623B6A5B00FB61F86902F0F5F802460B461046ED
:4032400019464FF000025C4B02F0E2FB0346002B09D06023FB61FB69DA0F13445B103B623B6A5B007B627B6901334FF4A07292FBF3F23B6AD90F0B445B10D31A3B61F86973
:4032800002F0D0F802460B46104619464FF000024A4B02F02DF902460B464FF00000484901F072FF02460B461046194602F0BAFB0346FB600023BB611720012100F088FBA9
:4032C000012001F089FE01F011FD0346002B66D007F10A0107F10802FB1D084611461A4601F07EFC7B891A46F02300931046962140F6D862002300F09BF803469BB27B8140
:403300003B891A464FF4A0730093104682214FF47A62002300F08CF803469BB23B817B891A46FB689A4243DD7B891946FB69DA0F13445B10C3F1F003994239DA0023BB6176
:4033400020E03B891946BB6901333A6902FB03F3994214DD3B8919463B6ADA0F13445B101A463B691344BA69013202FB03F3994205DA0020012100F02BFBBB6918E0BB6907
:403380000133BB61BA697B699A42DADB01F092FC0020012100F01CFB4FF0FF3308E001F089FC0020012100F013FB4FF0FF33FFE718462837BD4680BD000058400000F83F2B
:4033C00000006E4080B500AF4FF47A7001F004FE1720012100F0FCFA0A2001F0FDFD00BF01F040FB034683F00103DBB2002BF7D14FF47A7001F0F0FD0020012100F0E8FA7D
:403400000A2001F0E9FD00F0AFFB002000F0DCFD0020002101F078FA4FF6FF7001F0A0FA022001F089FA0A2001F0D6FD80BD00BF80B485B000AFF860B9607A603B60FA6845
:40344000BB68D31AB9693A688A1A02FB03F27968BB68CB1A92FBF3F23B68134418461437BD465DF8047B7047B0B58AB000AF00237B62164B3C1D1D460FCD0FC495E80F00B0
:4034800084E80F0000237B620DE07B6A9B0007F12802134453F8243C786A1946FDF724F87B6A01337B627B6A032BEEDD04237B6205E0786AFCF730FF7B6A01337B627B6A13
:4034C000072BF6DD2837BD46B0BD00BFF45F000080B582B000AF00237B600023FB7000237B6007E0FB7878681946FFF745FD7B6801337B607B68002BF4DD01237B6006E0BF
:4035000078680021FEF71CFB7B6801337B607B68042BF5DD0837BD4680BD00BF80B400AFFEE700BF80B586B000AF214B7B61214B3B611F4B7B611F4B3B612FE03B691B68F7
:40354000FB603B695B68BB603B699B683B6000237B600AE0BB681A1DBA60FA68111DF96012681A607B6804337B607A683B689A42F0D13B69DB683B6000237B6007E0BB6852
:403580001A1DBA6000221A607B6804337B607A683B689A42F3D13B6910333B617B695A1E7A61002BCAD102F0E9FCFCF76BFDFEE7010000007C60000080B582B000AF174B18
:4035C000174A1A60174A174B1B6843F40073136000237B600FE07B68032B04D8124A7B6852F8233000E0114B11497A6841F822307B6801337B607B682F2BECD90D4B1B78F5
:40360000DAB20D4B1A700D4B094A1A6000F022F90B4B00221A600837BD4680BD0CED00E00004FA0514ED00E0000000001D3500000080FF1FBC7600400481FF1F08ED00E0E4
:403640000081FF1F80B582B000AF78603960786800213A6802F0C3FC0837BD4680BD00BF80B584B000AFF860B9607A60F868B9687A6802F0A9FC1037BD4680BD80B483B047
:4036800000AF0346FB71FEE780B487B000AF7860396000233B6100237B6127E07B699B007A6813441B68BB60BB68FB73BB6823F0FF03BB6014E03B695B003A6813441B78B8
:4036C0001A46BB68134419463B695B003A6813445B780B703B6901333B61FB7B013BFB73FB7B002BE7D17B6901337B617B69112BD4D91C37BD465DF8047B704780B582B055
:4037000000AF334B00221A80324B58221A70324B00221A80314B58221A70314B02221A704FF0402308221A702E4B03221A702E4B2E4A1278D2B21A702D4B08221A802D4B81
:4037400041F251221A800023FB7019237B6014E0FB785B00DAB2284B1B78DBB203F00103DBB21343DBB203F00303FB704FF4F07001F0F6FC7B68013B7B607B68002B02D058
:40378000FB78032BE4D17B68002B02D10320FFF775FF1A4B4FF480721A80184B07221A70174B00221A70174B48221A70134B00221A70154B02221A70144A144B1B78DBB2A2
:4037C00043F00303DBB213700837BD4680BD00BF804000408240004084400040864000400043004000420040A1460040080100492242004020420040254200400440004047
:40380000064000400840004001400040A243004080B483B000AF0B4B1B78FB710A4AFB7903F00703DBB21370084AFB791B09DBB21370074B44221A700C37BD465DF8047B3E
:40384000704700BFCF0100496E5800406F5800407658004080B586B000AF72B64A4A4A4B1B78DBB243F00403DBB213700023FB7513E0FA7D13465B0013445B00434A134482
:403880003B613B691A683B699B889BB210461946FFF7D8FEFB7D0133FB75FB7D082BE8D90023FB751CE0FA7D13469B0013445B00374A1344FB60FB681B68BB60FB685B6823
:4038C0007B60FB681A7A5B7A1B0213437B807B88B86879681A46FFF7C3FEFB7D0133FB75FB7D002BDFD04FF090402A49FFF7CCFE294A294B1B78DBB243F00203DBB2137099
:40390000264A264B1B78DBB243F00203DBB21370234A234B1B78DBB243F04003DBB21370204A204B1B78DBB243F01003DBB213701D481E490822FFF793FE1D481D49082200
:40394000FFF78EFE1C481D490A22FFF789FE1C4A1B4B1B78DBB243F00803DBB21370194B01221A70FFF7CAFE164B81221A70164B01221A70FFF74CFF144809490E22FFF798
:403980006FFE1837BD4680BDE8460040146000004C600000480000480350014013500140A0430040C2430040C2510040680300481251004070030048605100407803004835
:4039C000224300400048004004000840B043004080B584B000AF03460A46FB8013467B7100F0B2F80346FB7300F0A2F80346BB81FA88BB899A4200F08780454B1B78DBB201
:403A000003F00203FB72FB7B002B20D1BB89002B02D0FB88002B1AD1BB89002B0BD13D4AFB8813803C4A3C4B1B78DBB223F04003DBB2137068E0384A374B1B78DBB243F09B
:403A40004003DBB21370334AFB8813805CE0FB7A002B33D0314B00221A70314B02221A70304B00221A70304A2F4B1B78DBB203F07F03DBB21370284B1B78DBB203F00803DE
:403A8000002B02D0FB88002B18D1284ABB891380224B07221A7000BF204B1B78DBB203F00103002BF8D11A4A194B1B78DBB223F00203DBB21370194B00221A70144B1B78C2
:403AC000DBB203F00203002B13D0184AFB881380124A7B79002B01D0032300E00123137000BF0E4B1B78DBB203F00103002BF8D10AE0084AFB8813800549054B1B78DAB290
:403B0000FB7A1343DBB20B701037BD4680BD00BFA24300408440004086400040014000401040004014400040084000400240004080B400AF034B1B889BB21846BD465DF8B7
:403B4000047B70478440004080B400AF054B1B78DBB203F00703DBB21846BD465DF8047B704700BF8640004080B500AF00F020FF00F042FF914B00221A80904B1A88904B69
:403B80001A80904B01221A708F4B4FF6FF721A808D4B1A888D4B1A808D4B01221A708D4B00221A708C4BF0221A608C4B4FF4A0721A604FF4FA7001F00FFA012000F064FAA5
:403BC000C82001F009FACF2000F05EFA002000F049FA8B2000F046FA302000F043FAED2000F052FA672000F03DFA032000F03AFA122000F037FA812000F034FAE82000F0BF
:403C000043FA852000F02EFA102000F02BFA7A2000F028FACB2000F037FA392000F022FA2C2000F01FFA002000F01CFA342000F019FA022000F016FAF72000F025FA2020CE
:403C400000F010FAEA2000F01FFA002000F00AFA002000F007FAC02000F016FA1B2000F001FAC12000F010FA102000F0FBF9C52000F00AFA3F2000F0F5F93C2000F0F2F9D0
:403C8000C72000F001FAB72000F0ECF9362000F0FBF9082000F0E6F93A2000F0F5F9552000F0E0F9B12000F0EFF9002000F0DAF91B2000F0D7F9B62000F0E6F90A2000F099
:403CC000D1F9A22000F0CEF9F22000F0DDF9002000F0C8F9262000F0D7F9012000F0C2F9E02000F0D1F90F2000F0BCF92A2000F0B9F9282000F0B6F9082000F0B3F90E20B3
:403D000000F0B0F9082000F0ADF9542000F0AAF9A92000F0A7F9432000F0A4F90A2000F0A1F90F2000F09EF9002000F09BF9002000F098F9002000F095F9002000F092F9F4
:403D4000E12000F0A1F9002000F08CF9152000F089F9172000F086F9072000F083F9112000F080F9062000F07DF92B2000F07AF9562000F077F93C2000F074F9052000F0CB
:403D800071F9102000F06EF90F2000F06BF93F2000F068F93F2000F065F90F2000F062F9112000F071F9782001F016F9292000F06BF9002000F008F980BD00BF4881FF1F04
:403DC0004081FF1F4B81FF1F5081FF1F5281FF1F4A81FF1F4281FF1F4481FF1F4C81FF1F80B582B000AF0346FB800B46BB8013467B80FA88BB881046194600F007F87B885C
:403E0000184600F013F90837BD4680BD80B582B000AF03460A46FB801346BB80FA88FB881046194600F0ECF8BA88BB881046194600F006F82C2000F027F90837BD4680BD5A
:403E400080B582B000AF03460A46FB801346BB802B2000F019F9FB88184600F0E7F8BB88184600F0E3F80837BD4680BD90B583B000AF0446084611461A462346FB800346F9
:403E8000BB800B467B8013463B802A2000F0FCF8FB88184600F0CAF87B88184600F0C6F82B2000F0F1F8BB88184600F0BFF83B88184600F0BBF82C2000F0E6F80C37BD4607
:403EC00090BD00BF90B585B000AF0446084611461A462346FB800346BB800B467B8013463B80B7F90620364B1B689A4205DAB7F90420344B1B689A4200DB5EE0B7F9062040
:403F0000B7F9023013445A1E2D4B1B689A4206DB2B4B1B689AB2FB88D31A9BB27B80B7F90420B7F9003013445A1E264B1B689A4206DB244B1B689AB2BB88D31A9BB23B8071
:403F4000F888B988FA887B8813449BB2013B9CB2BA883B8813449BB2013B9BB22246FFF785FF3B8C1B0A9BB2FB733B8CBB7300F043FD00F00BFD3B88BB8018E07B88FB8081
:403F80000CE0FB7B184600F091F8BB7B184600F08DF8FB889BB2013B9BB2FB80B7F90630002BEEDCBB889BB2013B9BB2BB80B7F90430002BE2DC00F0FBFC1437BD4690BD6D
:403FC0004481FF1F4C81FF1F90B585B002AF0346FB80094B1B689AB2084B1B689BB212B21CB2FB880093002000212346FFF76AFF0C37BD4690BD00BF4481FF1F4C81FF1FED
:4040000080B582B000AF03460A46FB801346BB802A2000F039F8FB88184600F007F8BB88184600F003F80837BD4680BD80B584B000AF0346FB80FB881B0A9BB2FB73FB88BA
:40404000BB7300F0D9FC00F0A1FCFB7B184600F02DF8BB7B184600F029F800F0A9FC1037BD4680BD80B582B000AF0346FB7100F0C3FC00F08BFCFB79184600F017F800F064
:4040800097FC0837BD4680BD80B582B000AF0346FB7100F09FFC00F079FCFB79184600F005F800F085FC0837BD4680BD80B582B000AF0346FB71FB79184600F0E9FE0837D1
:4040C000BD4680BD90B585B000AF0446084611461A462346FB800346BB800B467B8013463B80FA88FB8810461946FFF789FFBA887B8813449BB2BA8810461946FFF7A0FE94
:404100002C20FFF7C1FF00F077FC00F03FFC0023FB810EE03B881B0A9BB2DBB21846FFF7C5FF3B88DBB21846FFF7C0FFFB890133FB81FA897B889A42ECD300F039FC143760
:40414000BD4690BD90B585B002AF0446084611461A462346FB800346BB800B467B8013463B80F888B988FA887B8813449BB2013B9AB2BC883B880093234600F003F80C370A
:40418000BD4690BD90B589B000AF0446084611461A462346FB800346BB800B467B8013463B807A88FB88D31A9BB2BB823A88BB88D31A9BB27B820023FB83FB8B7B83B7F95E
:4041C0001430002B04DDBB8A7B830123FB830AE0B7F91430002B06DABB8A5B429BB27B834FF6FF73FB830023BB83BB8B3B83B7F91230002B04DD7B8A3B830123BB830AE0CD
:40420000B7F91230002B06DA7B8A5B429BB23B834FF6FF73BB83B7F91A20B7F918309A4248DBB7F91230184601F0DEFC0446B7F91430184601F0D8FC03462046194601F083
:40424000DBFD0346FB600023FB822CE0FA8AFB8813449BB27B81B7F91630184601F0C4FC03461846F96801F013FD03461C46BB88184601F0B9FC03462046194601F000FC74
:404280000346184601F054FE03463B8179893A893B8E084611461A46FFF7A2FDFA8AFB8B13449BB2FB82B7F91620B7F914309A42CCD147E0B7F91430184601F095FC044624
:4042C000B7F91230184601F08FFC03462046194601F092FD0346FB600023FB822CE0B7F91630184601F080FC03461846F96801F0CFFC03461C46FB88184601F075FC034658
:404300002046194601F0BCFB0346184601F010FE03467B81FA8ABB8813449BB23B8179893A893B8E084611461A46FFF759FDFA8ABB8B13449BB2FB82B7F91620B7F912305C
:404340009A42CCD12437BD4690BD00BF90B587B000AF0446084611461A462346FB800346BB800B467B8013467B707B88C3F101039BB2FB820123BB827B881A46D203D31ADD
:404380005B009BB27B8200233B827B88FB81A3E0B7F91630002B0DDBFB899BB2013B9BB2FB817B8A02339BB27B82FA8A7B8A13449BB2FB823B8A9BB201339BB23B82BB8AD4
:4043C00002339BB2BB82FA8ABB8A13449BB2FB827B7803F00403002B1BD0FA883B8A134499B2BA88FB8913449AB23B8D084611461A46FFF7F5FCFA88FB89134499B2BA8821
:404400003B8A13449AB23B8D084611461A46FFF7E7FC7B7803F00203002B1BD0FA883B8A134499B2BA88FB89D31A9AB23B8D084611461A46FFF7D4FCFA88FB89134499B24A
:40444000BA883B8AD31A9AB23B8D084611461A46FFF7C6FC7B7803F00803002B1BD0FA88FB89D31A99B2BA883B8A13449AB23B8D084611461A46FFF7B3FCFA883B8AD31AE2
:4044800099B2BA88FB8913449AB23B8D084611461A46FFF7A5FC7B7803F00103002B1BD0FA88FB89D31A99B2BA883B8AD31A9AB23B8D084611461A46FFF792FCFA883B8ACE
:4044C000D31A99B2BA88FB89D31A9AB23B8D084611461A46FFF784FCB7F91020B7F90E309A42FFF655AF1C37BD4690BD90B585B002AF0446084611461A462346FB80034655
:40450000BB800B467B8013463B80F888BA887B88D31A99B27B885B009BB201339AB23B88FFF7D0FDB7F90600B7F90410B7F90220002300933B880193032300F003F80C3785
:40454000BD4690BD90B587B000AF0446084611461A462346FB800346BB800B467B8013467B707B88C3F101039BB2FB820123BB827B881A46D203D31A5B009BB27B820023A6
:404580003B827B88FB8175E0B7F91630002B0DDBFB899BB2013B9BB2FB817B8A02339BB27B82FA8A7B8A13449BB2FB823B8A9BB201339BB23B82BB8A02339BB2BB82FA8A85
:4045C000BB8A13449BB2FB827B7803F00103002B25D0FA883B8A134498B2BA88FB89D31A99B2FB895B009AB23B8D13449BB201339AB2BB8DFFF766FDFA88FB89134498B206
:40460000BA883B8AD31A99B23B8A5B009AB23B8D13449BB201339AB2BB8DFFF753FD7B7803F00203002B25D0FA883B8AD31A98B2BA88FB89D31A99B2FB895B009AB23B8DDB
:4046400013449BB201339AB2BB8DFFF73BFDFA88FB89D31A98B2BA883B8AD31A99B23B8A5B009AB23B8D13449BB201339AB2BB8DFFF728FDB7F91020B7F90E309A4283DB61
:404680001C37BD4690BD00BF90B585B002AF0446084611461A462346FB800346BB800B467B8013463B80FA883B8B13449BB299B23B8B1A46D203D31A5B009AB27B88134436
:4046C0009BB29BB208B2B7F904101AB2BB8BFFF739FDFA883B8B13449BB298B2BA883B8813449BB2013B9BB299B23B8B1A46D203D31A5B009AB27B8813449BB29BB200B27C
:4047000009B21AB2BB8BFFF71DFDF888BA883B8B134499B23B8B1A46D203D31A5B009AB23B8813449AB2BB8BFFF7CCFCFA887B8813449BB2013B98B2BA883B8B134499B220
:404740003B8B1A46D203D31A5B009AB23B8813449AB2BB8BFFF7B6FCFA883B8B13449BB299B2BA883B8B13449BB29BB208B219B2B7F91820BB8B00930123FFF7E7FDFA8860
:404780007B8813449AB23B8BD31A9BB2013B9BB299B2BA883B8B13449BB29BB208B219B2B7F91820BB8B00930223FFF7CFFDFA887B8813449AB23B8BD31A9BB2013B9BB2A8
:4047C00099B2BA883B8813449AB23B8BD31A9BB2013B9BB29BB208B219B2B7F91820BB8B00930423FFF7B2FDFA883B8B13449BB299B2BA883B8813449AB23B8BD31A9BB2FF
:40480000013B9BB29BB208B219B2B7F91820BB8B00930823FFF79AFD0C37BD4690BD00BF90B585B002AF0446084611461A462346FB800346BB800B467B8013463B80FA888E
:404840003B8B13449BB299B23B8B1A46D203D31A5B009AB27B8813449BB29BB208B2B7F904101AB2B7F90040BB8B00932346FFF729FBFA887B8813449AB23B8BD31A9BB242
:40488000013B9BB298B2BA883B8B13449BB299B23B8B1A46D203D31A5B009AB23B8813449BB2013B9BB29BB200B209B2B7F918201BB20093BB8B01930123FFF743FEFA88F6
:4048C0003B8B13449BB298B2BA883B8B13449BB299B23B8B1A46D203D31A5B009AB23B8813449BB2013B9BB29BB200B209B2B7F918201BB20093BB8B01930223FFF722FE77
:404900000C37BD4690BD00BF80B483B000AF03460A46FB801346BB80054AFB881380054ABB8813800C37BD465DF8047B704700BF4881FF1F4081FF1F80B483B000AF034628
:40494000FB71FB79002B01D0FB7900E00123034A13700C37BD465DF8047B70474B81FF1F80B483B000AF0346FB80064AFB881380044B1A88044B1A800C37BD465DF8047B24
:40498000704700BF5081FF1F5281FF1F80B582B000AF00F009FB0346FB71FB7903F00E03FB71FB79184600F0EFFA0837BD4680BD80B582B000AF00F0F7FA0346FB71FB79B4
:4049C00043F00103FB71FB79184600F0DDFA0837BD4680BD80B582B000AF00F0E5FA0346FB71FB7903F00D03FB71FB79184600F0CBFA0837BD4680BD80B582B000AF00F073
:404A0000D3FA0346FB71FB7943F00203FB71FB79184600F0B9FA0837BD4680BD80B582B000AF00F0C1FA0346FB71FB7903F00B03FB71FB79184600F0A7FA0837BD4680BDAF
:404A400080B582B000AF00F0AFFA0346FB71FB7943F00403FB71FB79184600F095FA0837BD4680BD80B582B000AF00F0C9F900F009F903461A4640F611039A4201D000236B
:404A80004EE0FFF7DDFF0320022100F04DF80A2000F0A2FA0023BB710123FB7108E0FB79184600F063F80346BB71FB790133FB71FB79402BF3D90420002100F035F84020EB
:404AC000012100F031F80A20012100F02DF82020602100F029F82120022100F025F84120A42100F021F85620062100F01DF84A20012100F019F84B20012100F015F84B2084
:404B0000002100F011F85820012100F00DF80B20FF2100F009F80920052100F005F8012318460837BD4680BD80B582B000AF03460A46FB801346BB80FFF770FF012000F01F
:404B40004BFAFB88DBB21846FFF7B0FA012000F043FABB88DBB21846FFF7A8FA012000F03BFAFFF76DFF0837BD4680BD80B584B000AF0346FB71FFF751FF012000F02CFA5D
:404B8000FB7963F07F03DBB2184600F081F9012000F022FA002000F07BF9012000F01CFA00BF00F09FF90346002BFAD0012000F013FA002000F06CF9642000F02FFA00BF0B
:404BC00000F090F90346002BFAD000F07BF90346FB73FFF735FFFB7B18461037BD4680BD90B587B000AFF860B9607A600023FB750DE0FC7DD720FFF7B9FF03461A4607F1A9
:404C00001803234403F8082CFB7D0133FB75FB7D032BEED93B7C9AB2FB681A80FB681B881B019AB2FB681A80FB681A887B7C1B09DBB29BB213439AB2FB681A807B7C9BB2F2
:404C400003F00F039AB2BB681A80BB681B881B029AB2BB681A80BB681A88BB7C9BB213439AB2BB681A80FA7C7B681A7000F054F80346002B03D00B20FF21FFF755FF1C3744
:404C8000BD4690BD80B582B000AF0020FFF76EFF0346FB80FB881B02FB800120FFF766FF03469AB2FB881343FB80FB8818460837BD4680BD80B500AF4B20FFF757FF034683
:404CC00043F00103DBB29BB24B201946FFF72CFF4B20FFF74BFF03469BB203F0FE039BB24B201946FFF720FF80BD00BF80B582B000AF4020FFF73AFF0346FB71FB7923F07A
:404D00007F03BB71BB79002B14BF01230023DBB218460837BD4680BD80B500AF4B20FFF725FF034603F02003002B14BF01230023DBB2184680BD00BF80B500AF124B0F227C
:404D40001A70124B02221A600120072100F0A0F901200F4900F074F90C4B01221A600020072100F095F900200A4900F069F900F0D1F800F06DF800F07BF8074B08221A7010
:404D8000064B00221A7080BD8C64004080E100E0714F00007D4F00008A6400408D64004080B582B000AF00F0E3F90346FB71114A104B1B78DBB243F02003DBB213700E4A32
:404DC0000D4B1B78DBB243F01003DBB213700B4A0A4B1B78DBB243F01003DBB21370FB79184600F0C9F900F01BF800F025F80837BD4680BD9C6400409A6400409D640040F3
:404E000080B500AF054B1B78002B04D1FFF794FF024B01221A70FFF7C3FF80BD3C81FF1F80B400AF034B02221A60BD465DF8047B704700BF00E100E080B400AF034B012227
:404E40001A60BD465DF8047B704700BF00E100E080B483B000AF054B1B78FB71FB7918460C37BD465DF8047B704700BF6A64004080B483B000AF054B1B78FB71FB7918469E
:404E80000C37BD465DF8047B704700BF6D64004080B483B000AF0346FB7100BF074B1B78DBB203F00403002BF8D0054AFB7913700C37BD465DF8047B704700BF6A64004084
:404EC0004D64004080B483B000AF054B1B78FB71FB7918460C37BD465DF8047B704700BF5D64004080B483B000AF094B1B78DBB203F02003002B01D0012300E00023FB71CA
:404F0000FB7918460C37BD465DF8047B704700BF6D64004080B582B000AF01E0114B1B78114B1B78DBB203F02003002BF6D100F01FF90346FB710D4A0C4B1B78DBB243F0D6
:404F40000103DBB21370094A084B1B78DBB223F00103DBB21370FB79184600F00DF90837BD4680BD5D6400406D6400409D64004080B400AFBD465DF8047B704780B400AF42
:404F8000BD465DF8047B704780B483B000AF0346FB71044AFB7913700C37BD465DF8047B704700BF7E64004080B400AF034B1B78DBB21846BD465DF8047B70477E64004042
:404FC00080B483B000AF0346FB7101BE0C37BD465DF8047B704700BF80B582B000AF786008E00C4B1B68184600F0BAF87B68A3F500437B607B68B3F5004FF2D8064B1B68D6
:405000007A6802FB03F3184600F0AAF80837BD4680BD00BF1881FF1F1081FF1F80B582B000AF0346FB80FB88044A127802FB03F3184600F095F80837BD4680BD1481FF1FD2
:4050400080B584B000AF03463960FB710F4B1B68FB60FB791F2B02D90020FFF7B1FFFB7903F01F0310339B00FA6813441B68BB60FB7903F01F0310339B00FA6813443A68B3
:405080001A60BB6818461037BD4680BD08ED00E080B582B000AF03460A46FB711346BB71BB79072B02D90020FFF78AFFFB791F2B02D90020FFF784FFFB7903F01F0303F16A
:4050C000604303F56443BA795201D2B21A700837BD4680BD80B400AF034B1B78DBB21846BD465DF8047B70476F64004080B483B000AF0346FB71044AFB7913700C37BD46B5
:405100005DF8047B704700BF7B64004080B483B000AF0346FB71044AFB7913700C37BD465DF8047B704700BF7F64004080B400AF034B1B78DBB21846BD465DF8047B704706
:405140007F64004080B400AF034B1B78DBB21846BD465DF8047B70476B640040000000000230800803D000BF01380046FCD17047EFF3108072B6704780F31088704700BF9F
:4051800081F0004102E000BF83F0004330B54FEA41044FEA430594EA050F08BF90EA020F1FBF54EA000C55EA020C7FEA645C7FEA655C00F0E2804FEA5454D4EB5555B8BF43
:4051C0006D420CDD2C4480EA020281EA030382EA000083EA010180EA020281EA0303362D88BF30BD11F0004F4FEA01314FF4801C4CEA113102D0404261EB410113F0004F31
:405200004FEA03334CEA133302D0524263EB430394EA050F00F0A780A4F10104D5F1200E0DDB02FA0EFC22FA05F2801841F1000103FA0EF2801843FA05F359410EE0A5F19E
:4052400020050EF1200E012A03FA0EFC28BF4CF0020C43FA05F3C01851EBE37101F0004507D54FF0000EDCF1000C7EEB00006EEB0101B1F5801F1BD3B1F5001F0CD34908B8
:405280005FEA30004FEA3C0C04F101044FEA445212F5800F80F09A80BCF1004F08BF5FEA500C50F1000041EB045141EA050130BD5FEA4C0C404141EB010111F4801FA4F13A
:4052C0000104E9D191F0000F04BF01460020B1FA81F308BF2033A3F10B03B3F120020CDA0C3208DD02F1140CC2F10C0201FA0CF021FA02F10CE002F11402D8BFC2F1200C47
:4053000001FA02F120FA0CFCDCBF41EA0C019040E41AA2BF01EB0451294330BD6FEA04041F3C1CDA0C340EDC04F11404C4F1200220FA04F001FA02F340EA030021FA04F3C4
:4053400045EA030130BDC4F10C04C4F1200220FA02F001FA04F340EA0300294630BD21FA04F0294630BD94F0000F83F4801306BF81F480110134013D4EE77FEA645C18BF6F
:405380007FEA655C29D094EA050F08BF90EA020F05D054EA000C04BF1946104630BD91EA030F1EBF0021002030BD5FEA545C05D14000494128BF41F0004130BD14F580045E
:4053C0003CBF01F5801130BD01F0004545F0FE4141F470014FF0000030BD7FEA645C1ABF194610467FEA655C1CBF0B46024650EA013406BF52EA033591EA030F41F40021E2
:4054000030BD00BF90F0000F04BF0021704730B54FF4806404F132044FF000054FF0000150E700BF90F0000F04BF0021704730B54FF4806404F1320410F0004548BF4042B6
:405440004FF000013EE700BF42004FEAE2014FEA31014FEA02701FBF12F07F4393F07F4F81F06051704792F0000F14BF93F07F4F704730B54FF4607401F0004521F00041D8
:4054800020E700BF50EA010208BF704730B54FF000050AE050EA010208BF704730B511F0004502D5404261EB41014FF4806404F132045FEA915C3FF4DCAE4FF003025FEAB9
:4054C000DC0C18BF03325FEADC0C18BF033202EBDC02C2F1200300FA03FC20FA02F001FA03FE40EA0E0021FA02F11444C1E600BF70B54FF0FF0C4CF4E06C1CEA11541DBF93
:405500001CEA135594EA0C0F95EA0C0F00F0DEF82C4481EA030621EA4C5123EA4C5350EA013518BF52EA033541F4801143F4801338D0A0FB02CE4FF00005E1FB02E506F011
:405540000042E0FB03E54FF00006E1FB03569CF0000F18BF4EF0010EA4F1FF04B6F5007F64F5407404D25FEA4E0E6D4146EB060642EAC62141EA55514FEAC52040EA5E50DE
:405580004FEACE2EB4F1FD0C88BFBCF5E06F1ED8BEF1004F08BF5FEA500E50F1000041EB045170BD06F0004646EA010140EA020081EA0301B4EB5C04C2BFD4EB0C0541EAEC
:4055C000045170BD41F480114FF0000E013C00F3AB8014F1360FDEBF002001F0004170BDC4F10004203C35DA0C341BDC04F11404C4F1200500FA05F320FA04F001FA05F221
:4056000040EA020001F0004221F0004110EBD37021FA04F642EB06015EEA430E08BF20EAD37070BDC4F10C04C4F1200500FA04F320FA05F001FA04F240EA020001F000416A
:4056400010EBD37041F100015EEA430E08BF20EAD37070BDC4F1200500FA05F24EEA020E20FA04F301FA05F243EA020321FA04F001F0004121FA04F220EA020000EBD3700B
:405680005EEA430E08BF20EAD37070BD94F0000F0FD101F00046400041EB010111F4801F08BF013CF7D041EA060195F0000F18BF704703F00046520043EB030313F4801FD0
:4056C00008BF013DF7D043EA0603704794EA0C0F0CEA135518BF95EA0C0F0CD050EA410618BF52EA4306D1D181EA030101F000414FF0000070BD50EA410606BF1046194626
:4057000052EA430619D094EA0C0F02D150EA013613D195EA0C0F05D152EA03361CBF104619460AD181EA030101F0004141F0FE4141F470014FF0000070BD41F0FE4141F422
:40574000780170BD70B54FF0FF0C4CF4E06C1CEA11541DBF1CEA135594EA0C0F95EA0C0F00F0A7F8A4EB050481EA030E52EA03354FEA013100F088804FEA03334FF08055A3
:4057800045EA131343EA12634FEA022245EA111545EA10654FEA00260EF000419D4208BF964244F1FD0404F5407402D25B084FEA3202B61A65EB03055B084FEA32024FF4BE
:4057C00080104FF4002CB6EB020E75EB030E22BFB61A754640EA0C005B084FEA3202B6EB020E75EB030E22BFB61A754640EA5C005B084FEA3202B6EB020E75EB030E22BF2F
:40580000B61A754640EA9C005B084FEA3202B6EB020E75EB030E22BFB61A754640EADC0055EA060E18D04FEA051545EA16754FEA06164FEAC30343EA52734FEAC2025FEADF
:405840001C1CC0D111F4801F0BD141EA00014FF000004FF0004CB6E711F4801F04BF01430020B4F1FD0C88BFBCF5E06F3FF6AFAEB5EB030C04BFB6EB020C5FEA500C50F1F3
:40588000000041EB045170BD0EF0004E4EEA113114EB5C04C2BFD4EB0C0541EA045170BD41F480114FF0000E013C90E645EA060E8DE60CEA135594EA0C0F08BF95EA0C0F43
:4058C0003FF43BAF94EA0C0F0AD150EA01347FF434AF95EA0C0F7FF425AF104619462CE795EA0C0F06D152EA03353FF4FDAE1046194622E750EA410618BF52EA43067FF4D8
:40590000C5AE50EA41047FF40DAF52EA43057FF4EBAE12E74FF0FF3C06E000BF4FF0010C02E000BF4FF0010C4DF804CD4FEA410C7FEA6C5C4FEA430C18BF7FEA6C5C1BD01D
:4059400001B050EA410C0CBF52EA430C91EA030F02BF90EA020F0020704710F1000F91EA030F58BF994208BF90422CBFD8176FEAE37040F0010070474FEA410C7FEA6C5C9C
:4059800002D150EA013C07D14FEA430C7FEA6C5CD6D152EA033CD3D05DF8040B704700BF8446104662468C461946634600E000BF01B5FFF7B7FF002848BF10F1000F01BDCD
:4059C0004DF808EDFFF7F4FF0CBF012000205DF808FB00BF4DF808EDFFF7EAFF34BF012000205DF808FB00BF4DF808EDFFF7E0FF94BF012000205DF808FB00BF4DF808ED09
:405A0000FFF7CEFF94BF012000205DF808FB00BF4DF808EDFFF7C4FF34BF012000205DF808FB00BF4FEA410212F5001215D211D56FF47873B3EB625212D94FEAC12343F07D
:405A4000004343EA505311F0004F23FA02F018BF404270474FF00000704750EA013005D111F0004008BF6FF0004070474FF00000704700BF80F0004002E000BF81F0004157
:405A800042001FBF5FEA410392EA030F7FEA226C7FEA236C6AD04FEA1262D2EB1363C1BFD218414048404140B8BF5B42192B88BF704710F0004F40F4000020F07F4018BF2F
:405AC000404211F0004F41F4000121F07F4118BF494292EA030F3FD0A2F1010241FA03FC10EB0C00C3F1200301FA03F100F0004302D5494260EB4000B0F5000F13D3B0F1D6
:405B0000807F06D340084FEA310102F10102FE2A51D2B1F1004F40EBC25008BF20F0010040EA03007047490040EB000010F4000FA2F10102EDD1B0FA80FCACF1080CB2EB60
:405B40000C0200FA0CF0AABF00EBC25052421843BCBFD0401843704792F0000F81F4000106BF80F400000132013BB5E74FEA41037FEA226C18BF7FEA236C21D092EA030F22
:405B800004D092F0000F08BF0846704790EA010F1CBF0020704712F07F4F04D1400028BF40F00040704712F100723CBF00F50000704700F0004343F0FE4040F400007047DA
:405BC0007FEA226216BF08467FEA23630146420206BF5FEA412390EA010F40F4800070474FF0000304E000BF10F0004348BF40425FEA000C08BF704743F0964301464FF09E
:405C000000001CE050EA010208BF70474FF000030AE000BF50EA010208BF704711F0004302D5404261EB41015FEA010C02BF84460146002043F0B64308BFA3F18053A3F5A2
:405C40000003BCFA8CF2083AA3EBC25310DB01FA02FC634400FA02FCC2F12002BCF1004F20FA02F243EB020008BF20F00100704702F1200201FA02FCC2F1200250EA4C007E
:405C800021FA02F243EB020008BF20EADC7070474FF0FF0C1CEAD0521EBF1CEAD15392EA0C0F93EA0C0F6FD01A4480EA010C400218BF5FEA41211ED04FF0006343EA501034
:405CC00043EA5111A0FB01310CF00040B1F5000F3EBF490041EAD3715B0040EA010062F17F02FD2A1DD8B3F1004F40EBC25008BF20F00100704790F0000F0CF0004C08BFCF
:405D000049024CEA502040EA51207F3AC2BFD2F1FF0340EAC250704740F400004FF00003013A5DDC12F1190FDCBF00F000407047C2F10002410021FA02F1C2F1200200FA7B
:405D400002FC5FEA310040F1000053EA4C0308BF20EADC70704792F0000F00F0004C02BF400010F4000F013AF9D040EA0C0093F0000F01F0004C02BF490011F4000F013BD6
:405D8000F9D041EA0C018FE70CEAD15392EA0C0F18BF93EA0C0F0AD030F0004C18BF31F0004CD8D180EA010000F00040704790F0000F17BF90F0004F084691F0000F91F034
:405DC000004F14D092EA0C0F01D142020FD193EA0C0F03D14B0218BF084608D180EA010000F0004040F0FE4040F40000704740F0FE4040F4400070474FF0FF0C1CEAD0522D
:405E00001EBF1CEAD15392EA0C0F93EA0C0F69D0A2EB030280EA010C49024FEA402037D04FF0805343EA111143EA10130CF000408B4238BF5B0042F17D024FF4000C8B4225
:405E400024BF5B1A40EA0C00B3EB510F24BFA3EB510340EA5C00B3EB910F24BFA3EB910340EA9C00B3EBD10F24BFA3EBD10340EADC001B0118BF5FEA1C1CE0D1FD2A3FF6F8
:405E800050AF8B4240EBC25008BF20F0010070470CF0004C4CEA50207F32C2BFD2F1FF0340EAC250704740F400004FF00003013A37E792F0000F00F0004C02BF400010F4D1
:405EC000000F013AF9D040EA0C0093F0000F01F0004C02BF490011F4000F013BF9D041EA0C0195E70CEAD15392EA0C0F08D142027FF47DAF93EA0C0F7FF470AF084676E771
:405F000093EA0C0F04D14B023FF44CAF08466EE730F0004C18BF31F0004CCAD130F000427FF45CAF31F000437FF43CAF5FE700BF4FEA4002B2F1FE4F0FD34FF09E03B3EB19
:405F400012620DD94FEA002343F0004310F0004F23FA02F018BF404270474FF00000704712F1610F01D1420205D110F0004008BF6FF0004070474FF0000070470E4B70B561
:405F80001E460E4C0025E41AA410A54204D056F8253098470135F8E700F05EF8084B094C1E46E41AA4100025A54204D056F8253098470135F8E770BD6460000064600000CA
:405FC000646000006C60000010B5431E0A44914204D011F8014B03F8014FF8E710BD03460244934202D003F8011BFAE77047000000000000FFFFFFFFFFFFFFFFFFFFFFFFD1
:40600000FFFFFFFFFFFFFFFFFFFFFFFFFFFFFFFFFFFFFFFF005100401000205100404000F0510040100000000140800C000D0140000300140140000800400140000A004CFF
:40604000014000020050014020000000800C0140E802004880000000F8B500BFF8BC08BC9E4670474D000000B9350000F8B500BFF8BC08BC9E46704729000000906000005B
:406080000881FF1F1800000038000000000000000000000000366E01C05D0000180000000000E02E0000000000000000000000000000000000000000000000000000000001
:4060C00000000000000000000000000000000000000000000000000000000000000000000000000000000000000000000000000000000000000000000000000000000000A0
:40610000000000000000000000000000000000000000000000000000000000000000000000000000000000000000000000000000000000000000000000000000000000005F
:40614000000000000000000000000000000000000000000000000000000000000000000000000000000000000000000000000000000000000000000000000000000000001F
:4061800000000000000000000000000000000000000000000000000000000000000000000000000000000000000000000000000000000000000000000000000000000000DF
:020000040003F7
:0200000480007A
:4000000003520040016400400103014001050140400A0140370B0140050C0140380D0140430E01402C0F01400340014004410140034201400F4401400745014003460140CB
:4000400003500140015101403084319034408C0FE602E20400100443050D06B0070208E00C100E0410581109128714261649180419031A101B041C142014241025082604A5
:4000800028043001310E32E2341E370138083A203B023E013F4054095604580459045B045C115D105F0181D08525874A89D08D298F8691D09513972C99029B0D9D209FD03D
:4000C000A5D0ADD0B50FB7F0BBA0D40FD904DB04DC10DF0100040142030809120A2110201204130218041A401B0820402102230126A0270428102A042C202D403102321025
:4001000036A0370A38043C443D203E0146204704581059045A425EAA63816EAA83408B0891409223944499069A049B0A9E20A020A110C00FC20FC40ECA52CCF5CEF2D6FF91
:40014000D809560257245B045D105F0100440AA1102811401302180119031A8220082118221023082A442B8030283141384639204045480549044B015254610862506340FA
:4001800066206C296D606E016F8074807540770287409444954096A09701A001A4A8A780A810B001B101B708C005C20DC40FCA0BCC0FCE0FD00DD20CD82FEC0100040340BD
:4001C000040A061007C0080109230C560E090FC010041407163819801C601D0F1F102004240429182A042B052C042D082F1631C0327F333C3507380839203F145804590423
:400200005B045C115F01803B813182C483028506871989158B0A8D038F2C90B0920A941D966298299AD6B018B134B207B4E0B70FB82AB982BE15BF41D47FD804D904DB0460
:40024000DF010054038007400AA00B010E5410A8114018101D041E8821012324260127022B0A32103340386439023D823E1449804A015E885F226584670469806B186C102E
:400280006D826E546F4A8D408F10C01FC27DC40FCA0CCC0CCEFFD6F0D87032203580CC3086209D80A620E64081809D80E2200840520856205B026102641078808D028E209B
:4002C000C202D406D602D803DC01E40A9C80AB02B050B608E804EA01EC0288809C80E00400030C030E03000F0004000901020604000E00000704000A010406000009030404
:40030000000500080C0D00000C0D00000C080000080004000400080107000001000E080000000200000040042406100005BEFD0C1FFFFFFF2200F008040000004000040069
:4003400004040404111100010000C00040011011C001001140014001000000000000000000000000000000000040400040000000000B0B0000000000040040BCBC00BC0086
:40038000000000000000000000000000000000000000000000000000000000000000000000000000000000000000000000000000000000000000000000000000000000003D
:4003C00000000000000000000000000000000000000000000000000000000000000000000000000000000000000000000000000000000000000000000000000000000000FD
:4004000000000000000000000000000000000000000000000000000000000000000000000000000000000000000000000000000000000000000000000000000000000000BC
:40044000000000000000000000000000000000000000000000000000000000000000000000000000000000000000000000000000000000000000000000000000000000007C
:0200000490006A
:0400000000004005B7
:0200000490105A
:04000000BC90ACAF55
:0200000490303A
:020000001539B0
:0200000490402A
:4000000000000000000000000000000000000000000000000000000000000000000000000000000000000000000000000000000000000000000000000000000000000000C0
:400040000000000000000000000000000000000000000000000000000000000000000000000000000000000000000000000000000000000000000000000000000000000080
:400080000000000000000000000000000000000000000000000000000000000000000000000000000000000000000000000000000000000000000000000000000000000040
:4000C0000000000000000000000000000000000000000000000000000000000000000000000000000000000000000000000000000000000000000000000000000000000000
:0200000490501A
:0C00000000012E12306900012E3A45A2CA
:00000001FF