:400000000080002011000000A5030000A503000080B500AF024A034B1B68136000F0C6F9BC760040FA46004010B5054C237833B9044B13B10448AFF300800123237010BD08
:400040002081FF1F0000000054190000084B10B51BB108480849AFF300800848036803B910BD074B002BFBD0BDE81040184700BF00000000541900002481FF1F0881FF1F37
:400080000000000080B592B002AF4FF47A7001F099FB1720012100F0D5FB0A2001F092FB002387F83F3001F0D3F80346002B02D0012387F83F300020012100F0C3FB0A2066
:4000C00001F080FB00F08AFC002000F087FE0020002101F00FF84FF6FF7001F037F8022001F020F81720012100F0ACFB0A2001F069FB01F0ADF80020012100F0A3FB0A2052
:4001000001F060FB78202821142247F6EF3300F023FF78207821142247F6EF3300F01CFF7820C821142247F6EF3300F015FF78204FF48C71142247F6EF3300F00DFF47F65A
:40014000EF330093AF200F213222322300F0C4FD47F6EF330093AF205F213222322300F0BBFD47F6EF330093AF20AF213222322300F0B2FD47F6EF330093AF20FF213222D1
:40018000322300F0A9FDC82028211422002300F0E3FEC82078211422002300F0DDFEC820C8211422002300F0D7FEC8204FF48C711422002300F0D0FE1720012100F042FBA0
:4001C000012001F0FFFA01F087F90346002B00F0A98007F13C0107F13A0207F13903084611461A4601F0F2F8BB8F1A46F02300931046962140F6D862002300F0B7F80346A1
:400200009BB2BB877B8F1A464FF4A0730093104682214FF47A62002300F0A8F803469BB27B870020012100F00DFBBB8FAF2B5AD9BB8FE02B57D87B8F0F2B0AD97B8F402BC8
:4002400007D87820282114224FF4784300F084FE06E078202821142247F6EF3300F07CFE7B8F5F2B0AD97B8F902B07D87820782114224FF4784300F06FFE06E0782078215E
:40028000142247F6EF3300F067FE7B8FAF2B0AD97B8FE02B07D87820C82114224FF4784300F05AFE06E07820C821142247F6EF3300F052FE7B8FFF2B0CD97B8FB3F5937F83
:4002C00008D878204FF48C7114224FF4784300F043FE26E078204FF48C71142247F6EF3300F03AFE1DE078202821142247F6EF3300F032FE78207821142247F6EF3300F0FD
:400300002BFE7820C821142247F6EF3300F024FE78204FF48C71142247F6EF3300F01CFE23E022E001F0BCF80020012100F08AFA78202821142247F6EF3300F00DFE78208C
:400340007821142247F6EF3300F006FE7820C821142247F6EF3300F0FFFD78204FF48C71142247F6EF3300F0F7FD25E780B485B000AFF860B9607A603B60FA68BB68D31A8C
:40038000B9693A688A1A02FB03F27968BB68CB1A92FBF3F23B68134418461437BD465DF8047B704780B400AFFEE700BF80B586B000AF214B7B61214B3B611F4B7B611F4BB6
:4003C0003B612FE03B691B68FB603B695B68BB603B699B683B6000237B600AE0BB681A1DBA60FA68111DF96012681A607B6804337B607A683B689A42F0D13B69DB683B603A
:4004000000237B6007E0BB681A1DBA6000221A607B6804337B607A683B689A42F3D13B6910333B617B695A1E7A61002BCAD101F057FAFFF727FEFEE701000000C019000011
:4004400080B582B000AF174B174A1A60174A174B1B6843F40073136000237B600FE07B68032B04D8124A7B6852F8233000E0114B11497A6841F822307B6801337B607B6838
:400480002F2BECD90D4B1B78DAB20D4B1A700D4B094A1A6000F018F90B4B00221A600837BD4680BD0CED00E00004FA0514ED00E000000000A50300000080FF1FBC760040B8
:4004C0000481FF1F08ED00E00081FF1F80B582B000AF78603960786800213A6801F031FA0837BD4680BD00BF80B584B000AFF860B9607A60F868B9687A6801F017FA103752
:40050000BD4680BD80B483B000AF0346FB71FEE780B487B000AF7860396000233B6100237B6127E07B699B007A6813441B68BB60BB68FB73BB6823F0FF03BB6014E03B69A9
:400540005B003A6813441B781A46BB68134419463B695B003A6813445B780B703B6901333B61FB7B013BFB73FB7B002BE7D17B6901337B617B690F2BD4D91C37BD465DF8BE
:40058000047B704780B582B000AF304B00221A802F4B58221A702F4B02221A704FF0402308221A702C4B02221A702C4B2C4A1278D2B21A702B4B4FF4E1621A802A4B41F2D4
:4005C00051221A800023FB7019237B6014E0FB785B00DAB2254B1B78DBB203F00103DBB21343DBB203F00303FB704FF4F07001F067F97B68013B7B607B68002B02D0FB785F
:40060000032BE4D17B68002B02D10320FFF77AFF174B4FF480721A80154B07221A70154B00221A70144B48221A70114B00221A70124B02221A70124A114B1B78DBB243F0A3
:400640000103DBB213700837BD4680BD80400040824000400043004000420040A14600400B0100492242004020420040254200400440004006400040084000400140004064
:40068000A243004080B483B000AF0B4B1B78FB710A4AFB7903F00703DBB21370084AFB791B09DBB21370074B44221A700C37BD465DF8047B704700BFCF0100496E580040EA
:4006C0006F5800407658004080B586B000AF72B64A4A4A4B1B78DBB243F00403DBB213700023FB7513E0FA7D13465B0013445B00434A13443B613B691A683B699B889BB2F3
:4007000010461946FFF7E2FEFB7D0133FB75FB7D082BE8D90023FB751CE0FA7D13469B0013445B00374A1344FB60FB681B68BB60FB685B687B60FB681A7A5B7A1B02134386
:400740007B807B88B86879681A46FFF7CDFEFB7D0133FB75FB7D002BDFD04FF090402A49FFF7D6FE294A294B1B78DBB243F00203DBB21370264A264B1B78DBB243F0020317
:40078000DBB21370234A234B1B78DBB243F04003DBB21370204A204B1B78DBB243F01003DBB213701D481E490822FFF79DFE1D481D490822FFF798FE1C481D490A22FFF769
:4007C00093FE1C4A1B4B1B78DBB243F00803DBB21370194B01221A70FFF7D4FE164B81221A70164B01221A70FFF74CFF144809490E22FFF779FE1837BD4680BDE846004030
:400800005819000090190000400000480350014013500140A0430040C2430040C25100407802004812510040800200486051004088020048224300400048004004000840B8
:40084000B043004080B584B000AF03460A46FB8013467B7100F0B2F80346FB7300F0A2F80346BB81FA88BB899A4200F08780454B1B78DBB203F00103FB72FB7B002B20D135
:40088000BB89002B02D0FB88002B1AD1BB89002B0BD13D4AFB8813803C4A3C4B1B78DBB223F04003DBB2137068E0384A374B1B78DBB243F04003DBB21370334AFB8813805E
:4008C0005CE0FB7A002B33D0314B00221A70314B01221A70304B00221A70304A2F4B1B78DBB203F07F03DBB21370284B1B78DBB203F00803002B02D0FB88002B18D1284A71
:40090000BB891380224B07221A7000BF204B1B78DBB203F00103002BF8D11A4A194B1B78DBB223F00103DBB21370194B00221A70144B1B78DBB203F00103002B13D0184A86
:40094000FB881380124A7B79002B01D0032300E00123137000BF0E4B1B78DBB203F00103002BF8D10AE0084AFB8813800549054B1B78DAB2FB7A1343DBB20B701037BD4619
:4009800080BD00BFA24300408040004082400040014000401040004014400040084000400240004080B400AF034B1B889BB21846BD465DF8047B70478040004080B400AF75
:4009C000054B1B78DBB203F00703DBB21846BD465DF8047B704700BF8240004080B500AF00F0DCFB00F0FEFB914B00221A80904B1A88904B1A80904B01221A708F4B4FF68B
:400A0000FF721A808D4B1A888D4B1A808D4B01221A708D4B00221A708C4BF0221A608C4B4FF4A0721A604FF4FA7000F0CBFE012000F034FAC82000F0C5FECF2000F02EFA66
:400A4000002000F019FA8B2000F016FA302000F013FAED2000F022FA672000F00DFA032000F00AFA122000F007FA812000F004FAE82000F013FA852000F0FEF9102000F04A
:400A8000FBF97A2000F0F8F9CB2000F007FA392000F0F2F92C2000F0EFF9002000F0ECF9342000F0E9F9022000F0E6F9F72000F0F5F9202000F0E0F9EA2000F0EFF9002087
:400AC00000F0DAF9002000F0D7F9C02000F0E6F91B2000F0D1F9C12000F0E0F9102000F0CBF9C52000F0DAF93F2000F0C5F93C2000F0C2F9C72000F0D1F9B72000F0BCF948
:400B0000362000F0CBF9082000F0B6F93A2000F0C5F9552000F0B0F9B12000F0BFF9002000F0AAF91B2000F0A7F9B62000F0B6F90A2000F0A1F9A22000F09EF9F22000F063
:400B4000ADF9002000F098F9262000F0A7F9012000F092F9E02000F0A1F90F2000F08CF92A2000F089F9282000F086F9082000F083F90E2000F080F9082000F07DF95420EE
:400B800000F07AF9A92000F077F9432000F074F90A2000F071F90F2000F06EF9002000F06BF9002000F068F9002000F065F9002000F062F9E12000F071F9002000F05CF961
:400BC000152000F059F9172000F056F9072000F053F9112000F050F9062000F04DF92B2000F04AF9562000F047F93C2000F044F9052000F041F9102000F03EF90F2000F06D
:400C00003BF93F2000F038F93F2000F035F90F2000F032F9112000F041F9782000F0D2FD292000F03BF9002000F0D8F880BD00BF5081FF1F4081FF1F5381FF1F5C81FF1F83
:400C40005E81FF1F5281FF1F4881FF1F4C81FF1F5481FF1F80B582B000AF03460A46FB801346BB802B2000F019F9FB88184600F0E7F8BB88184600F0E3F80837BD4680BD1B
:400C800090B583B000AF0446084611461A462346FB800346BB800B467B8013463B802A2000F0FCF8FB88184600F0CAF87B88184600F0C6F82B2000F0F1F8BB88184600F071
:400CC000BFF83B88184600F0BBF82C2000F0E6F80C37BD4690BD00BF90B585B000AF0446084611461A462346FB800346BB800B467B8013463B80B7F90620364B1B689A4217
:400D000005DAB7F90420344B1B689A4200DB5EE0B7F90620B7F9023013445A1E2D4B1B689A4206DB2B4B1B689AB2FB88D31A9BB27B80B7F90420B7F9003013445A1E264BD9
:400D40001B689A4206DB244B1B689AB2BB88D31A9BB23B80F888B988FA887B8813449BB2013B9CB2BA883B8813449BB2013B9BB22246FFF785FF3B8C1B0A9BB2FB733B8CC7
:400D8000BB7300F02FFA00F0F7F93B88BB8018E07B88FB800CE0FB7B184600F091F8BB7B184600F08DF8FB889BB2013B9BB2FB80B7F90630002BEEDCBB889BB2013B9BB28E
:400DC000BB80B7F90430002BE2DC00F0E7F91437BD4690BD4C81FF1F5481FF1F90B585B002AF0346FB80094B1B689AB2084B1B689BB212B21CB2FB8800930020002123461B
:400E0000FFF76AFF0C37BD4690BD00BF4C81FF1F5481FF1F80B582B000AF03460A46FB801346BB802A2000F039F8FB88184600F007F8BB88184600F003F80837BD4680BD1F
:400E400080B584B000AF0346FB80FB881B0A9BB2FB73FB88BB7300F0C5F900F08DF9FB7B184600F02DF8BB7B184600F029F800F095F91037BD4680BD80B582B000AF03466C
:400E8000FB7100F0AFF900F077F9FB79184600F017F800F083F90837BD4680BD80B582B000AF0346FB7100F08BF900F065F9FB79184600F005F800F071F90837BD4680BDED
:400EC00080B582B000AF0346FB71FB79184600F0D5FB0837BD4680BD90B585B000AF0446084611461A462346FB800346BB800B467B8013463B80FA88FB8810461946FFF726
:400F000089FFBA887B8813449BB2BA8810461946FFF7A0FE2C20FFF7C1FF00F063F900F02BF90023FB810EE03B881B0A9BB2DBB21846FFF7C5FF3B88DBB21846FFF7C0FF89
:400F4000FB890133FB81FA897B889A42ECD300F025F91437BD4690BD90B585B002AF0446084611461A462346FB800346BB800B467B8013463B80F888BA887B88D31A99B234
:400F80007B885B009BB201339AB23B88FFF7A4FFB7F90600B7F90410B7F90220002300933B880193032300F003F80C37BD4690BD90B587B000AF0446084611461A462346CA
:400FC000FB800346BB800B467B8013467B707B88C3F101039BB2FB820123BB827B881A46D203D31A5B009BB27B8200233B827B88FB8175E0B7F91630002B0DDBFB899BB224
:40100000013B9BB2FB817B8A02339BB27B82FA8A7B8A13449BB2FB823B8A9BB201339BB23B82BB8A02339BB2BB82FA8ABB8A13449BB2FB827B7803F00103002B25D0FA88B3
:401040003B8A134498B2BA88FB89D31A99B2FB895B009AB23B8D13449BB201339AB2BB8DFFF73AFFFA88FB89134498B2BA883B8AD31A99B23B8A5B009AB23B8D13449BB2C0
:4010800001339AB2BB8DFFF727FF7B7803F00203002B25D0FA883B8AD31A98B2BA88FB89D31A99B2FB895B009AB23B8D13449BB201339AB2BB8DFFF70FFFFA88FB89D31A6F
:4010C00098B2BA883B8AD31A99B23B8A5B009AB23B8D13449BB201339AB2BB8DFFF7FCFEB7F91020B7F90E309A4283DB1C37BD4690BD00BF80B483B000AF03460A46FB8043
:401100001346BB80054AFB881380054ABB8813800C37BD465DF8047B704700BF5081FF1F4081FF1F80B483B000AF0346FB71FB79002B01D0FB7900E00123034A13700C376D
:40114000BD465DF8047B70475381FF1F80B483B000AF0346FB80064AFB881380044B1A88044B1A800C37BD465DF8047B704700BF5C81FF1F5E81FF1F80B582B000AF00F047
:4011800009FB0346FB71FB7903F00E03FB71FB79184600F0EFFA0837BD4680BD80B582B000AF00F0F7FA0346FB71FB7943F00103FB71FB79184600F0DDFA0837BD4680BD8D
:4011C00080B582B000AF00F0E5FA0346FB71FB7903F00D03FB71FB79184600F0CBFA0837BD4680BD80B582B000AF00F0D3FA0346FB71FB7943F00203FB71FB79184600F00A
:40120000B9FA0837BD4680BD80B582B000AF00F0C1FA0346FB71FB7903F00B03FB71FB79184600F0A7FA0837BD4680BD80B582B000AF00F0AFFA0346FB71FB7943F0040331
:40124000FB71FB79184600F095FA0837BD4680BD80B582B000AF00F0C9F900F009F903461A4640F611039A4201D000234EE0FFF7DDFF0320022100F04DF80A2000F0A2FA84
:401280000023BB710123FB7108E0FB79184600F063F80346BB71FB790133FB71FB79402BF3D90420002100F035F84020012100F031F80A20012100F02DF82020602100F007
:4012C00029F82120022100F025F84120A42100F021F85620062100F01DF84A20012100F019F84B20012100F015F84B20002100F011F85820012100F00DF80B20FF2100F025
:4013000009F80920052100F005F8012318460837BD4680BD80B582B000AF03460A46FB801346BB80FFF770FF012000F04BFAFB88DBB21846FFF7C4FD012000F043FABB8840
:40134000DBB21846FFF7BCFD012000F03BFAFFF76DFF0837BD4680BD80B584B000AF0346FB71FFF751FF012000F02CFAFB7963F07F03DBB2184600F081F9012000F022FA97
:40138000002000F07BF9012000F01CFA00BF00F09FF90346002BFAD0012000F013FA002000F06CF9642000F02FFA00BF00F090F90346002BFAD000F07BF90346FB73FFF746
:4013C00035FFFB7B18461037BD4680BD90B587B000AFF860B9607A600023FB750DE0FC7DD720FFF7B9FF03461A4607F11803234403F8082CFB7D0133FB75FB7D032BEED96F
:401400003B7C9AB2FB681A80FB681B881B019AB2FB681A80FB681A887B7C1B09DBB29BB213439AB2FB681A807B7C9BB203F00F039AB2BB681A80BB681B881B029AB2BB6804
:401440001A80BB681A88BB7C9BB213439AB2BB681A80FA7C7B681A7000F054F80346002B03D00B20FF21FFF755FF1C37BD4690BD80B582B000AF0020FFF76EFF0346FB802F
:40148000FB881B02FB800120FFF766FF03469AB2FB881343FB80FB8818460837BD4680BD80B500AF4B20FFF757FF034643F00103DBB29BB24B201946FFF72CFF4B20FFF70B
:4014C0004BFF03469BB203F0FE039BB24B201946FFF720FF80BD00BF80B582B000AF4020FFF73AFF0346FB71FB7923F07F03BB71BB79002B14BF01230023DBB218460837BE
:40150000BD4680BD80B500AF4B20FFF725FF034603F02003002B14BF01230023DBB2184680BD00BF80B500AF124B0F221A70124B02221A600120072100F0A0F901200F4935
:4015400000F074F90C4B01221A600020072100F095F900200A4900F069F900F0D1F800F06DF800F07BF8074B08221A70064B00221A7080BD8D64004080E100E05D170000F8
:40158000691700008B6400408A64004080B582B000AF00F09DF90346FB71114A104B1B78DBB243F02003DBB213700E4A0D4B1B78DBB243F01003DBB213700B4A0A4B1B785E
:4015C000DBB243F01003DBB21370FB79184600F083F900F01BF800F025F80837BD4680BD9D6400409B6400409A64004080B500AF054B1B78002B04D1FFF794FF024B0122BD
:401600001A70FFF7C3FF80BD3C81FF1F80B400AF034B02221A60BD465DF8047B704700BF00E100E080B400AF034B01221A60BD465DF8047B704700BF00E100E080B483B030
:4016400000AF054B1B78FB71FB7918460C37BD465DF8047B704700BF6B64004080B483B000AF054B1B78FB71FB7918460C37BD465DF8047B704700BF6A64004080B483B0BF
:4016800000AF0346FB7100BF074B1B78DBB203F00403002BF8D0054AFB7913700C37BD465DF8047B704700BF6B6400404D64004080B483B000AF054B1B78FB71FB7918469B
:4016C0000C37BD465DF8047B704700BF5D64004080B483B000AF094B1B78DBB203F02003002B01D0012300E00023FB71FB7918460C37BD465DF8047B704700BF6A640040BA
:4017000080B582B000AF01E0114B1B78114B1B78DBB203F02003002BF6D100F0D9F80346FB710D4A0C4B1B78DBB243F00103DBB21370094A084B1B78DBB223F00103DBB24A
:401740001370FB79184600F0C7F80837BD4680BD5D6400406A6400409D64004080B400AFBD465DF8047B704780B400AFBD465DF8047B704780B483B000AF0346FB71044A9B
:40178000FB7913700C37BD465DF8047B704700BF7A64004080B400AF034B1B78DBB21846BD465DF8047B70477A64004080B483B000AF0346FB7101BE0C37BD465DF8047B85
:4017C000704700BF80B582B000AF786008E00C4B1B68184600F074F87B68A3F500437B607B68B3F5004FF2D8064B1B687A6802FB03F3184600F064F80837BD4680BD00BF3B
:401800001881FF1F1081FF1F80B582B000AF0346FB80FB88044A127802FB03F3184600F04FF80837BD4680BD1481FF1F80B584B000AF03463960FB710F4B1B68FB60FB7941
:401840001F2B02D90020FFF7B1FFFB7903F01F0310339B00FA6813441B68BB60FB7903F01F0310339B00FA6813443A681A60BB6818461037BD4680BD08ED00E080B582B03F
:4018800000AF03460A46FB711346BB71BB79072B02D90020FFF78AFFFB791F2B02D90020FFF784FFFB7903F01F0303F1604303F56443BA795201D2B21A700837BD4680BD0B
:4018C0000230800803D000BF01380046FCD17047EFF3108072B6704780F31088704700BF0E4B70B51E460E4C0025E41AA410A54204D056F8253098470135F8E700F04EF82C
:40190000084B094C1E46E41AA4100025A54204D056F8253098470135F8E770BDA8190000A8190000A8190000B019000010B5431E0A44914204D011F8014B03F8014FF8E79F
:4019400010BD03460244934202D003F8011BFAE77047000000000000005100401000205100404000F0510040100000000140800C000D014000030014014000080040014096
:40198000000A004C014000020050014020000000800C0140F801004880000000F8B500BFF8BC08BC9E4670474D00000041040000F8B500BFF8BC08BC9E4670472900000096
:4019C000D01900000881FF1F18000000400000000000000000366E01C05D0000180000000000E02E0000000000000000000000000000000000000000000000000000000017
:401A000000000000000000000000000000000000000000000000000000000000000000000000000000000000000000000000000000000000000000000000000000000000A6
:401A40000000000000000000000000000000000000000000000000000000000000000000000000000000000000000000000000000000000000000000000000000000000066
:401A80000000000000000000000000000000000000000000000000000000000000000000000000000000000000000000000000000000000000000000000000000000000026
:401AC00000000000000000000000000000000000000000000000000000000000000000000000000000000000000000000000000000000000000000000000000000000000E6
:020000040003F7
:0200000480007A
:4000000003520040016400400205014004090140380A0140400B01402E0D01400340014002410140064201400C440140094501400546014003470140035001400151014076
:400040003098318834408D0FE208E601A908AD12B010E8010080041D050A0735081D0C0D0E101082120814021507160D1B101C1D1D291F0220212242241D28C22A242D02A4
:400080002E102F3C30E0320F330F3410353039083A0A3E1054405604580459045B045F018002820D8C238E1C9C299E16A835AA0AB010B220B60FBA80BE05D409D604D804C7
:4000C000DB04DF01000801420208040107020A900B010F0210221362172018401A901B111C011D401E401F08210822102B013188321039083A403B405D185E4160806260AE
:4001000063206402678068116B08808082108401874088028B089148920193019440990A9B229D409F08A026A180A228A701B101B208C09FC28DC44FCA08CC0ECE02D6F088
:40014000D89FE40C0054010109800A500B081020132118111A01200621842214232229022B013180321539543B01404141044801492A5002522053046140682469556A5282
:4001800073018F0894109920A810B120C00FC20FC40ECA09CC0FCE0FD00BD20CD808EC0132403580CC3096809D808240858096809D80E210E6800810520857025B025D029C
:4001C00065107320C202D404D607D801DC018F029D129F20A608A702AB02B010E402EA04811085029D129F20A608AB20B208EC0100010C010E01000F849A000004980002A3
:400200000102009856980902049A8000802104D8603800C00713386484020000840000000A00100000FC000300007F0F00E0801308000028000040003405100006CEF0DB05
:400240003BFFFFFF2200F008040000000000022004040404000000010000C00040011011C001001140014001000000000000000000000000000000000040400040000000BF
:40028000000B0B0000000000040040BCBC00BC00000000000000000000000000000000000000000000000000000000000000000000000000000000000000000000000000B0
:4002C00000000000000000000000000000000000000000000000000000000000000000000000000000000000000000000000000000000000000000000000000000000000FE
:4003000000000000000000000000000000000000000000000000000000000000000000000000000000000000000000000000000000000000000000000000000000000000BD
:40034000000000000000000000000000000000000000000000000000000000000000000000000000000000000000000000000000000000000000000000000000000000007D
:40038000000000000000000000000000000000000000000000000000000000000000000000000000000000000000000000000000000000000000000000000000000000003D
:0200000490006A
:0400000000004005B7
:0200000490105A
:04000000BC90ACAF55
:0200000490303A
:0200000074AAE0
:0200000490402A
:4000000000000000000000000000000000000000000000000000000000000000000000000000000000000000000000000000000000000000000000000000000000000000C0
:400040000000000000000000000000000000000000000000000000000000000000000000000000000000000000000000000000000000000000000000000000000000000080
:400080000000000000000000000000000000000000000000000000000000000000000000000000000000000000000000000000000000000000000000000000000000000040
:4000C0000000000000000000000000000000000000000000000000000000000000000000000000000000000000000000000000000000000000000000000000000000000000
:0200000490501A
:0C00000000012E12306900012E1DA51316
:00000001FF