:400000000080002011000000490100004901000080B500AF47F2BC63C4F2000344F2FA62C4F2000212681A6000F092F810B5054C237833B9044810B10448AFF30080012194
:40004000217010BD8881FF1F00000000B822000008B5064B1BB106480649AFF300800648016811B1054A02B1904708BD00000000B82200008C81FF1F0881FF1F00000000C5
:4000800080B5B4B000AF4FF00003C7F8CC3062B600F05EFB01F00EFA4FF0000000F0FEFD4FF000004FF0000101F0F8F84FF6FF7001F022F94FF0020001F008F94FF00100E4
:4000C00001F034F900E000BF01F076FA034687F8C83097F8C830002B11D0D7F8CC30002B0DD13A4607F1C8031046194601F0F2FFD7F8CC3003F10103C7F8CC300AE097F8EA
:40010000C830002B06D03A4607F1C8031046194601F0D3FF97F8C830002BD4D1D7F8CC30002BD0DD3B46184600F068FE3B4618464FF000014FF0C80201F0B7FF4FF00003CB
:40014000C7F8CC30BFE700BF80B400AFFEE700BF80B586B000AF40F20103C0F200037B6142F24863C0F200033B6140F20103C0F200037B6142F24863C0F200033B613BE0B5
:400180003B691B68FB603B695B68BB603B699B683B604FF000037B600FE0FB681A68BB681A60BB6803F10403BB60FB6803F10403FB607B6803F104037B607A683B689A425F
:4001C000EBD13B69DB683B604FF000037B600BE0BB684FF000021A60BB6803F10403BB607B6803F104037B607A683B689A42EFD13B6903F110033B617B69002B0CBF002384
:400200000123DBB27A6902F1FF327A61002BB7D101F01CFFFFF734FFFEE700BF80B582B000AF4EF60C53CEF200034FF48062C0F2FA521A604EF61453CEF200034EF614526E
:40024000CEF20002126842F400721A604FF000037B6019E07B68032B07D840F20003C0F200037A6853F8223003E040F24913C0F2000348F20002C1F6FF72796842F82130BB
:400280007B6803F101037B607B682F2BE2D947F2BC63C4F200031B78DAB248F20413C1F6FF731A704EF60853CEF2000348F20002C1F6FF721A6000F051F948F20013C1F6DE
:4002C000FF734FF000021A6007F10807BD4680BD80B582B000AF7860396078684FF000013A6801F0E2FE07F10807BD4680BD00BF80B584B000AFF860B9607A60F868B96886
:400300007A6801F0C9FE07F11007BD4680BD00BF80B483B000AF0346FB71FEE780B487B000AF786039604FF000033B614FF000037B612CE07B694FEA83037A68D3181B68DF
:40034000BB60BB68FB73BB6823F0FF03BB6017E03B694FEA43033A68D3181B781A46BB68D3183A694FEA420239688A1852781A703B6903F101033B61FB7B03F1FF33FB73DD
:40038000FB7B002BE4D17B6903F101037B617B69162BCFD907F11C07BD4680BC704700BF80B582B000AF4FF48143C4F200034FF002021A8044F28203C4F200034FF0180212
:4003C0001A7044F28403C4F200034FF019021A8044F28603C4F200034FF018021A704FF48643C4F200034FF002021A704FF040234FF008021A704FF48443C4F200034FF0A5
:4004000003021A7044F2A163C4F200034FF48472C4F600121278D2B21A7044F22223C4F200034FF008021A8044F22023C4F2000341F251221A804FF00003FB704FF019030C
:400440007B6019E0FB784FEA4303DAB244F22523C4F200031B78DBB203F00103DBB21343DBB203F00303FB704FF4F07001F040FD7B6803F1FF337B607B68002B02D0FB7800
:40048000032BDFD17B68002B03D14FF00300FFF73FFF44F20403C4F200034FF480721A8044F20403C4F200034FF007021A7044F20603C4F200034FF000021A7044F2080375
:4004C000C4F200034FF048021A7044F20403C4F200034FF000021A7044F20103C4F200034FF002021A7044F2A233C4F2000344F2A232C4F200021278D2B242F00302D2B260
:400500001A7007F10807BD4680BD00BF80B483B000AF40F2CF13C4F600131B78FB7145F66E03C4F20003FA7902F00702D2B21A7045F66F03C4F20003FA794FEA1212D2B29A
:400540001A7045F67603C4F200034FF044021A7007F10C07BD4680BC704700BF80B586B000AF72B644F2E863C4F2000344F2E862C4F200021278D2B242F00402D2B21A70AD
:400580004FF00003FB7519E0FA7D13464FEA43039B184FEA430342F2BC22C0F200029B183B613B691A683B699B889BB210461946FFF78EFEFB7D03F10103FB75FB7D0B2BFB
:4005C000E2D94FF00003FB7523E0FA7D13464FEA83039B184FEA430342F20432C0F200029B18FB60FB681B68BB60FB685B687B60FB681A7A5B7A4FEA032313437B807B881D
:40060000B86879681A46FFF773FEFB7D03F10103FB75FB7D012BD8D94FF090404FF05C01C4F60001FFF77AFE45F20303C4F2010345F20302C4F201021278D2B242F00202B9
:40064000D2B21A7045F21303C4F2010345F21302C4F201021278D2B242F00202D2B21A7044F2A033C4F2000344F2A032C4F200021278D2B242F04002D2B21A7044F2C233D1
:40068000C4F2000344F2C232C4F200021278D2B242F01002D2B21A7045F21210C4F200004FF48761C4F600014FF00802FFF720FE45F24210C4F200004FF48861C4F60001C7
:4006C0004FF00802FFF714FE45F26210C4F200004FF48961C4F600014FF00802FFF708FE44F22233C4F2000344F22232C4F200021278D2B242F00802D2B21A704FF4904329
:40070000C4F200034FF001021A70FFF749FE4FF49043C4F200034FF081021A704FF00403C4F208034FF001021A70FFF7EFFE44F2B030C4F2000044F2A031C4F200014FF05D
:400740000E02FFF7D5FD07F11807BD4680BD00BF80B500AF01F0BEF800F070FE00F096FE48F2D013C1F6FF734FF000021A8048F2D013C1F6FF731A8848F2C813C1F6FF73D7
:400780001A8048F2D313C1F6FF734FF001021A7048F2D813C1F6FF734FF6FF721A8048F2D813C1F6FF731A8848F2DA13C1F6FF731A8048F2D213C1F6FF734FF001021A70FE
:4007C00048F2CA13C1F6FF734FF000021A7048F2CC13C1F6FF734FF0F0021A6048F2D413C1F6FF734FF4A0721A604FF4FA7001F09FFB4FF0010000F0BBFA4FF0C80001F0D3
:4008000097FB4FF0CF0000F0B3FA4FF0000000F09BFA4FF08B0000F097FA4FF0300000F093FA4FF0ED0000F0A3FA4FF0670000F08BFA4FF0030000F087FA4FF0120000F0B8
:4008400083FA4FF0810000F07FFA4FF0E80000F08FFA4FF0850000F077FA4FF0100000F073FA4FF07A0000F06FFA4FF0CB0000F07FFA4FF0390000F067FA4FF02C0000F0B8
:4008800063FA4FF0000000F05FFA4FF0340000F05BFA4FF0020000F057FA4FF0F70000F067FA4FF0200000F04FFA4FF0EA0000F05FFA4FF0000000F047FA4FF0000000F0E9
:4008C00043FA4FF0C00000F053FA4FF01B0000F03BFA4FF0C10000F04BFA4FF0100000F033FA4FF0C50000F043FA4FF03F0000F02BFA4FF03C0000F027FA4FF0C70000F019
:4009000037FA4FF0B70000F01FFA4FF0360000F02FFA4FF0080000F017FA4FF03A0000F027FA4FF0550000F00FFA4FF0B10000F01FFA4FF0000000F007FA4FF01B0000F027
:4009400003FA4FF0B60000F013FA4FF00A0000F0FBF94FF0A20000F0F7F94FF0F20000F007FA4FF0000000F0EFF94FF0260000F0FFF94FF0010000F0E7F94FF0E00000F0F5
:40098000F7F94FF00F0000F0DFF94FF02A0000F0DBF94FF0280000F0D7F94FF0080000F0D3F94FF00E0000F0CFF94FF0080000F0CBF94FF0540000F0C7F94FF0A90000F0BF
:4009C000C3F94FF0430000F0BFF94FF00A0000F0BBF94FF00F0000F0B7F94FF0000000F0B3F94FF0000000F0AFF94FF0000000F0ABF94FF0000000F0A7F94FF0E10000F0D2
:400A0000B7F94FF0000000F09FF94FF0150000F09BF94FF0170000F097F94FF0070000F093F94FF0110000F08FF94FF0060000F08BF94FF02B0000F087F94FF0560000F0EF
:400A400083F94FF03C0000F07FF94FF0050000F07BF94FF0100000F077F94FF00F0000F073F94FF03F0000F06FF94FF03F0000F06BF94FF00F0000F067F94FF0110000F090
:400A800077F94FF0780001F053FA4FF0290000F06FF94FF6FF7000F001F980BD80B582B000AF13460246FA800A46BA807B80FA88BB881046194600F009F87B88184600F0C4
:400AC00025F907F10807BD4680BD00BF80B582B000AF02460B46FA80BB80FA88FB881046194600F0FBF8BA88BB881046194600F009F84FF02C0000F03BF907F10807BD460D
:400B000080BD00BF80B582B000AF02460B46FA80BB804FF02B0000F02BF9FB88184600F0F5F8BB88184600F0F1F807F10807BD4680BD00BF80B582B000AFF880B9807A80D8
:400B40003B804FF02A0000F013F9FB88184600F0DDF87B88184600F0D9F84FF02B0000F007F9BB88184600F0D1F83B88184600F0CDF84FF02C0000F0FBF807F10807BD46AB
:400B800080BD00BF90B585B000AFF880B9807A803B80B7F9062048F2CC13C1F6FF731B689A4276DAB7F9042048F2D413C1F6FF731B689A426DDAB7F90620B7F90230D3187C
:400BC00003F1FF3248F2CC13C1F6FF731B689A4209DB48F2CC13C1F6FF731B689AB2FB88D31A9BB27B80B7F90420B7F90030D31803F1FF3248F2D413C1F6FF731B689A4215
:400C000009DB48F2D413C1F6FF731B689AB2BB88D31A9BB23B80F888B988FA887B88D3189BB203F1FF339AB2BC883B88E3189BB203F1FF339BB2FFF77DFF3B8C4FEA132325
:400C40009BB2FB733B8CBB7300F020FC00F0E2FB3B88BB8016E07B88FB800BE0FB7B184600F09AF8BB7B184600F096F8FB8803F1FF33FB80B7F90630002BEFDCBB8803F1EF
:400C8000FF33BB80B7F90430002BE4DC00F0D6FB00E000BF07F11407BD4690BD80B584B002AF0346FB8048F2CC13C1F6FF731B689AB248F2D413C1F6FF731B689BB212B268
:400CC0001BB2F98800914FF000004FF00001FFF759FF07F10807BD4680BD00BF80B582B000AF02460B46FA80BB804FF02A0000F03FF8FB88184600F009F8BB88184600F0EB
:400D000005F807F10807BD4680BD00BF80B584B000AF0346FB80FB884FEA13239BB2FB73FB88BB7300F0B2FB00F074FBFB7B184600F032F8BB7B184600F02EF800F07EFB79
:400D400007F11007BD4680BD80B582B000AF0346FB7100F09BFB00F05DFBFB79184600F01BF800F06BFB07F10807BD4680BD00BF80B582B000AF0346FB7100F073FB00F041
:400D800049FBFB79184600F007F800F057FB07F10807BD4680BD00BF80B582B000AF0346FB71FB79184600F027FE4FF0010001F0E3F807F10807BD4680BD00BF80B584B0B9
:400DC00000AF78604FF00103FB737B681B78BB730CE0BB7B184600F0C7F8FB7B7A68D3181B78BB73FB7B03F10103FB73BB7B002BEFD107F11007BD4680BD00BF90B5ADF2F5
:400E0000244D00AF07F10403186007F104031B68C7F8143407F10C031846D7F8141401F059F907F10C03184642F21861C0F2000101F060F9C7F81C0448F2D313C1F6FF73BC
:400E40001B781A4613464FEA82029B1A4FEA43031A4648F2CC13C1F6FF731B68D318C7F8103448F2D013C1F6FF731B881BB2D7F81024D31AC7F818344FF00003C7F80C3430
:400E800067E048F2D313C1F6FF731B781C46D7F81C0401F027F9034603FB04F213464FEA43039B184FEA4303C7F80C34D7F80C24D7F818349A4224DD48F2D313C1F6FF7327
:400EC0001B784FEAC3039AB248F2C813C1F6FF731B889BB2D3189BB29AB248F2C813C1F6FF731A8048F2D013C1F6FF734FF000021A80D7F81024D7F80C34D31AC7F818345F
:400F000013E0D7F81824D7F80C34D11A48F2D313C1F6FF731B781A4613464FEA82029B1A4FEA4303CB18C7F81834D7F81C04FFF745FF42F21C60C0F20000FFF73FFF4FF047
:400F4000000042F21861C0F2000101F0D3F8C7F81C04D7F81C34002B93D107F1240707F58067BD4690BD00BFB0B584B002AF0346FB71FB790A2B1DD148F2D313C1F6FF73D4
:400F80001B784FEAC3039AB248F2C813C1F6FF731B889BB2D3189BB29AB248F2C813C1F6FF731A8048F2D013C1F6FF734FF000021A8053E0FB790D2B12D14FF00000FFF7B1
:400FC0006DFE48F2C813C1F6FF734FF000021A8048F2D013C1F6FF734FF000021A803DE048F2D013C1F6FF73198848F2C813C1F6FF731A8848F2DA13C1F6FF731C8848F23A
:40100000D813C1F6FF731D8848F2D313C1F6FF73187809B212B2FB7900950190084611461A46234600F01EF848F2D313C1F6FF731B781A464FEA4202D3184FEA43039AB222
:4010400048F2D013C1F6FF731B889BB2D3189BB29AB248F2D013C1F6FF731A8007F10807BD46B0BD90B587B002AFF880B980FA703B80B7F9062048F2CC13C1F6FF731B68C1
:401080009A4280F20681B7F9042048F2D413C1F6FF731B689A4280F2FC80B7F9061097F8242013464FEA43039B184FEA4303CB1803F1FF33002BC0F2EC80B7F9042097F898
:4010C00024304FEAC303D31803F1FF33002BC0F2E0804FF00003FB73D5E097F90F30062B03D14FF000037B7310E0F97897F90F0042F21832C0F200020B464FEA43035B1871
:401100004FEA43031B18D3181B787B734FF00003BB73AFE07B7B03F00103002B4FD097F82430012B1AD148F2CC13C1F6FF731B689AB297F90F3099B2FB88CB189BB2D31A96
:4011400099B297F90E309AB2BB88D3189AB23B88084611461A46FFF7A1FC83E048F2CC13C1F6FF731B689AB297F90F309BB297F8241089B201FB03F399B2FB88CB189BB2B7
:40118000D31A9BB298B297F90E309BB297F8242092B202FB03F39AB2BB88D3189BB299B297F824309AB297F824309BB200B209B212B21BB23C880094FFF7E4FC52E03A8CF1
:4011C0003B889A424ED097F82430012B1AD148F2CC13C1F6FF731B689AB297F90F3099B2FB88CB189BB2D31A99B297F90E309AB2BB88D3189AB23B8C084611461A46FFF7CC
:401200004DFC2FE048F2CC13C1F6FF731B689AB297F90F309BB297F8241089B201FB03F399B2FB88CB189BB2D31A9BB298B297F90E309BB297F8242092B202FB03F39AB246
:40124000BB88D3189BB299B297F824309AB297F824309BB200B209B212B21BB23C8C0094FFF790FC7B7B4FEA53037B73BB7B03F10103BB7397F90E30072B7FF74BAFFB7BB8
:4012800003F10103FB7397F90F30052B7FF725AF00E000BF07F11407BD4690BD80B483B000AF02460B46FA80BB8048F2D013C1F6FF73FA881A8048F2C813C1F6FF73BA8837
:4012C0001A8007F10C07BD4680BC704780B483B000AF0346FB71FB79002B01D0FA7901E04FF0010248F2D313C1F6FF731A7007F10C07BD4680BC704780B483B000AF03464F
:40130000FB8048F2D813C1F6FF73FA881A8048F2D813C1F6FF731A8848F2DA13C1F6FF731A8007F10C07BD4680BC704780B582B000AF0346FB714FF03600FFF719FDFB792D
:4013400003F00303DAB248F2CA13C1F6FF731A7048F2CA13C1F6FF731B78032B56D801A252F823F0751300009B130000C1130000E71300004FF04800FFF7E6FC48F2CC1373
:40138000C1F6FF734FF0F0021A6048F2D413C1F6FF734FF4A0721A6038E04FF02800FFF7D3FC48F2CC13C1F6FF734FF4A0721A6048F2D413C1F6FF734FF0F0021A6025E0F1
:4013C0004FF08800FFF7C0FC48F2CC13C1F6FF734FF0F0021A6048F2D413C1F6FF734FF4A0721A6012E04FF0E800FFF7ADFC48F2CC13C1F6FF734FF4A0721A6048F2D41384
:40140000C1F6FF734FF0F0021A6000BF07F10807BD4680BD80B582B000AF00F03BFD0346FB71FB7903F00E03FB71FB79184600F021FD07F10807BD4680BD00BF80B582B0AE
:4014400000AF00F027FD0346FB71FB7943F00103FB71FB79184600F00DFD07F10807BD4680BD00BF80B582B000AF00F013FD0346FB71FB7903F00D03FB71FB79184600F09B
:40148000F9FC07F10807BD4680BD00BF80B582B000AF00F0FFFC0346FB71FB7943F00203FB71FB79184600F0E5FC07F10807BD4680BD00BF80B500AF48F2A413C1F6FF73BC
:4014C0001B78002B08D100F00BF848F2A413C1F6FF734FF001021A7000F022F880BD00BF80B500AF4FF0020041F28961C0F2000100F056FD4FF002004FF0070100F080FD49
:4015000046F28A43C4F200034FF072021A7046F28B43C4F200034FF020021A7080BD00BF80B582B000AF00F0EDFC0346FB7146F29A43C4F2000346F29A42C4F20002127842
:40154000D2B242F02002D2B21A7046F29B43C4F2000346F29B42C4F200021278D2B242F01002D2B21A704FF46143CEF200034FF004021A6000F09AFCFB79184600F0C6FC16
:4015800007F10807BD4680BD80B400AF4FF46143CEF200034FF004021A60BD4680BC704780B400AF4EF28013CEF200034FF004021A60BD4680BC704780B582B000AF4FF01F
:4015C0000003FB71FFF7ECFF48F2A513C1F6FF731B78BB7148F2A613C1F6FF731B787B7148F2A713C1F6FF731B78DBB2002B03D1BA797B799A4226D0BA7948F2DC13C1F6DE
:40160000FF739B5CFB71BB7903F10103BB71BB79C72B02D94FF00003BB7148F2A513C1F6FF73BA791A7048F2A713C1F6FF731B78DBB2002B20D048F2A713C1F6FF734FF082
:4016400000021A7018E046F26B43C4F200031B783B713B7903F02003002B0DD046F24D43C4F200031B78FB713B7903F01E03002B02D04FF00003FB71FFF786FFFB791846F6
:4016800007F10807BD4680BD80B483B000AF4FF00003BB7146F26B43C4F200031B78FB715EE048F2A613C1F6FF731B78DBB21A4646F24D43C4F200031B78D9B248F2DC131F
:4016C000C1F6FF7399544FF00103BB71BB79002B40D048F2A713C1F6FF731B78DBB2002B06D048F2A813C1F6FF734FF001021A7048F2A613C1F6FF731B78DBB203F101039A
:40170000DAB248F2A613C1F6FF731A7048F2A613C1F6FF731B78DBB2C72B06D948F2A613C1F6FF734FF000021A7048F2A613C1F6FF731B78DAB248F2A513C1F6FF731B789A
:40174000DBB29A4206D148F2A713C1F6FF734FF001021A7046F26B43C4F200031B78FB71FB7903F02003002B9BD107F10C07BD4680BC704780B500AF46F28D43C4F20003DB
:401780004FF00F021A704EF28013CEF200034FF002021A604FF001004FF0070100F030FC4FF0010041F60141C0F2000100F0F8FB4EF28013CEF200034FF001021A604FF079
:4017C00000004FF0070100F01BFC4FF0000041F62D51C0F2000100F0E3FB00F0D5F948F2AA23C1F6FF734FF000021A7048F2A423C1F6FF734FF000021A7048F2A723C1F6BD
:40180000FF734FF000021A7048F2AB23C1F6FF734FF000021A7048F2A623C1F6FF734FF000021A7048F2A523C1F6FF734FF000021A7000F095F800F0B9F846F28E43C4F2A5
:4018400000034FF000021A7046F28C43C4F200034FF020021A7080BD80B582B000AF00F051FB0346FB7146F29D43C4F2000346F29D42C4F200021278D2B242F02002D2B225
:401880001A7046F29E43C4F2000346F29E42C4F200021278D2B242F01002D2B21A7046F29C43C4F2000346F29C42C4F200021278D2B242F01002D2B21A70FB79184600F0DC
:4018C00025FB00F01DF800F027F807F10807BD4680BD00BF80B500AF48F2BC13C1F6FF731B78002B08D1FFF745FF48F2BC13C1F6FF734FF001021A70FFF7AEFF80BD00BF2A
:4019000080B400AF4FF46143CEF200034FF002021A60BD4680BC704780B400AF4FF46143CEF200034FF001021A60BD4680BC704780B400AF4EF28013CEF200034FF002026C
:401940001A60BD4680BC704780B400AF4EF28013CEF200034FF001021A60BD4680BC704780B582B000AFFFF7E3FF46F26E43C4F200031B78DAB248F2A923C1F6FF731B785B
:40198000DBB203F00903DBB21343FB7148F2A923C1F6FF734FF000021A70FFF7B1FFFB79184607F10807BD4680BD00BF80B582B000AFFFF7C9FF46F26C43C4F200031B78CD
:4019C000DAB248F2A823C1F6FF731B78DBB203F04003DBB21343FB7148F2A823C1F6FF734FF000021A70FFF797FFFB79184607F10807BD4680BD00BF80B584B000AF0346CA
:401A0000FB7148F2A623C1F6FF731B78FB73FB7B002B03D14FF00703FB7303E0FB7B03F1FF33FB7348F2A523C1F6FF731B78DBB2FA7B9A42E5D0FFF77BFF46F26E43C4F294
:401A400000031B78DAB248F2A923C1F6FF731B78DBB203F00903DBB21343BB7348F2A923C1F6FF73BA7B1A7048F2A623C1F6FF731B78DAB248F2A523C1F6FF731B78DBB261
:401A80009A4210D148F2A923C1F6FF731B78DBB203F00403002B06D046F24E43C4F20003FA791A7069E048F2A523C1F6FF731B78DBB203F10103DAB248F2A523C1F6FF735D
:401AC0001A7048F2A523C1F6FF731B78DBB2072B06D948F2A523C1F6FF734FF000021A7048F2A523C1F6FF731B78DAB248F2A623C1F6FF731B78DBB29A4223D148F2A623A1
:401B0000C1F6FF731B78DBB203F10103DAB248F2A623C1F6FF731A7048F2A623C1F6FF731B78DBB2072B06D948F2A623C1F6FF734FF000021A7048F2AB23C1F6FF734FF05E
:401B400001021A7048F2A523C1F6FF731B78DBB21A4648F2AC13C1F6FF73F979995446F28E43C4F2000346F28E42C4F200021278D2B242F00402D2B21A70FFF7C1FE07F129
:401B80001007BD4680BD00BF80B582B000AF04E046F25E43C4F200031B7846F26C43C4F200031B78DBB203F02003002BF0D100F0A9F90346FB7146F29E43C4F2000346F2DD
:401BC0009E42C4F200021278D2B242F00102D2B21A7046F29E43C4F2000346F29E42C4F200021278D2B222F00102D2B21A70FB79184600F08BF907F10807BD4680BD00BFDD
:401C000080B483B000AF5FE046F26E43C4F200031B78DAB248F2A923C1F6FF731B78DBB203F00903DBB21343FB7148F2A923C1F6FF73FA791A7048F2A923C1F6FF731B7803
:401C4000DBB203F00403002B4DD048F2AB23C1F6FF731B78DBB2002B1DD148F2A623C1F6FF731B78DBB203F10103DAB248F2A623C1F6FF731A7048F2A623C1F6FF731B78E6
:401C8000DBB2072B0ED948F2A623C1F6FF734FF000021A7006E048F2AB23C1F6FF734FF000021A7046F24E43C4F2000348F2A622C1F6FF721278D2B2114648F2AC12C1F6E5
:401CC000FF72525CD2B21A7048F2A623C1F6FF731B78DAB248F2A523C1F6FF731B78DBB29A4291D100E000BF48F2A623C1F6FF731B78DAB248F2A523C1F6FF731B78DBB2AE
:401D00009A420DD146F28E43C4F2000346F28E42C4F200021278D2B222F00402D2B21A7007F10C07BD4680BC704700BF80B483B000AF46F26C43C4F200031B78DAB248F264
:401D4000A823C1F6FF731B78DBB203F04003DBB21343FB7148F2A823C1F6FF73FA791A7078E046F25E43C4F200031B78BB7148F2A723C1F6FF731B78DBB203F10103DAB225
:401D800048F2A723C1F6FF731A7048F2A723C1F6FF731B78DBB2072B06D948F2A723C1F6FF734FF000021A7048F2A723C1F6FF731B78DAB248F2A423C1F6FF731B78DBB280
:401DC0009A4223D148F2A423C1F6FF731B78DBB203F10103DAB248F2A423C1F6FF731A7048F2A423C1F6FF731B78DBB2072B06D948F2A423C1F6FF734FF000021A7048F207
:401E0000AA23C1F6FF734FF001021A7048F2A723C1F6FF731B78DBB21A4648F2B413C1F6FF73B979995446F26C43C4F200031B78DAB248F2A823C1F6FF731B78DBB203F0EA
:401E40004003DBB21343FB7148F2A823C1F6FF73FA791A7048F2A823C1F6FF731B78DBB203F02003002B7FF47CAF07F10C07BD4680BC704780B483B000AF0346FB7146F274
:401E80007E43C4F20003FA791A7007F10C07BD4680BC704780B400AF46F27E43C4F200031B78DBB21846BD4680BC704780B400AF44F2A233C4F2000344F2A232C4F2000238
:401EC0001278D2B242F00202D2B21A7044F2B233C4F2000344F2B232C4F200021278D2B242F00202D2B21A70BD4680BC704700BF0230800800F0058000BF013800467FF403
:401F0000FCAF7047EFF3108072B6704780F31088704700BFAFF3008080B483B000AF0346FB7101BE07F10C07BD4680BC704700BF80B582B000AF78600BE048F21813C1F60C
:401F4000FF731B681846FFF7D3FF7B68A3F500437B607B68B3F5004FEFD848F21013C1F6FF731B687A6802FB03F31846FFF7C0FF07F10807BD4680BD80B582B000AF034675
:401F8000FB80FA8848F21413C1F6FF731B7803FB02F31846FFF7ACFF07F10807BD4680BD80B584B000AF03463960FB714EF60853CEF200031B68FB60FB791F2B03D94FF04F
:401FC0000000FFF7A9FFFB7903F01F0303F110034FEA8303FA68D3181B68BB60FB7903F01F0303F110034FEA8303FA68D3183A681A60BB68184607F11007BD4680BD00BFC2
:4020000080B582B000AF02460B46FA71BB71BB79072B03D94FF00000FFF77EFFFB791F2B03D94FF00000FFF777FFFB7903F01F0303F1604303F56443BA794FEA4212D2B21E
:402040001A7007F10807BD4680BD00BF38B50E4D0E4B0024E81A8510AC4205D00B4951F8242090470134F7E700F0DCFA0849094A541AA5100024AC4205D0054B53F82400B3
:4020800080470134F7E738BD3026000030260000302600003826000010B50023934203D0CC5CC4540133F9E710BD82180346934202D003F8011BFAE7704710B50446224690
:4020C00013780134002BFAD1CC5CD4540133002CFAD110BD034611F8012B03F8012B002AF9D17047034613F8012B002AFBD1181A013870472DE9F041184D07462E6888469D
:40210000F46D0CBB502000F05BF82B68F065DA6D9460D86D14600461D96D54608C61DA6DC460D462D86D4C614463D96D9462CC63DA6D04635464D86D8C63C464D96D146477
:402140000C77DB6D84645C62044A384613684146DA6D0123BDE8F04100F002B88081FF1FF0B510B91068002828D004462746387801340E4616F8015B45B1A842FAD1002BE0
:40218000F4D11460384604F8013CF0BD234638B91060F0BD17F8015B854206D0002DF9D113F8010B0F461E46F4E718B1002103F8011C00E006461660601EF0BDF0BD0000E5
:4021C000024B0146186800F003B800BF8081FF1F70B5CD1C25F0030508350C2D38BF0C25002D06462DDB8D422BD31D4B1B681C469CB12268501B0DD40B2802D920602418F1
:4022000017E0A34203D16068154A10601DE0616859601AE023466468EAE72946304600F021F8431C01460CD0CC1C24F003048C4201D1256009E03046611A00F013F801303A
:40224000F7D10C203060002070BD04F10B01231D21F00700C31A02D05A42E25070BD70BDC081FF1F38B5064C002305460846236000F008F8431C02D1216801B1296038BDA5
:40228000AC82FF1F094A13686BB118186946884202D8106018467047054B0C221A604FF0FF3318467047034B1360EEE7C481FF1FAC82FF1FB082FF1F00000000005100403C
:4022C0001000205100402000505100401000C05100401000F0510040100000000140800C000D01400001800E0140800100140140000800400140000A004C014000020050E7
:4023000001402000800C0140380300488000000E0140B80300488000000000000000000000000000000000000000000000000000000000000000000000000000000000009A
:40234000000000000000000000000000000000000000000000000000000000000000000000000000000000000000000000000000000000000000000000000000000000005D
:40238000000000000000000000000000000000000000000000000000000000000000000000000000000000000000000000000000000000000000000000000000000000001D
:4023C0000000000000000000000000000000000000000000000000000000000000000000004F000000000700070000147F147F1400242A7F2A120023130864620036495565
:40240000225000000503000000001C224100000041221C000014083E08140008083E0808000050300000000808080808000060600000002010080402003E5149453E00004F
:40244000427F4000004261514946002141454B31001814127F10002745454539003C4A49493000017109050300364949493600064949291E003636000000005636000000D0
:4024800000081422410000141414141400004122140800020151090600304979413E007E1111117E007F49494936003E41414122007F4141221C007F49494941007F090999
:4024C0000901003E4149497A007F0808087F0000417F4100002040413F01007F08142241007F40404040007F020C027F007F0408107F003E4141413E007F09090906003E8D
:402500004151215E007F091929460046494949310001017F0101003F4040403F001F2040201F003F4030403F00631408146300070870080700615149454300007F41410073
:40254000000204081020000041417F00000402010204004040404040000001020400002054545478007F5048483000384444442000384444487F00385454541800087E091F
:402580000102000C5252523E007F080404780000447D4000002040443D00007F102844000000417F4000007804584478007C08040478003844444438007C1414140800085C
:4025C0001414187C007C0804040800485454542000043F444020003C4040207C001C2040201C003C4030403C004428102844000C5050503C004464544C44000008364100DD
:402600000000007F0000000041360800000C020C100C000000000000200900002000000043000000F8B500BFF8BC08BC9E467047510000001D020000F8B500BFF8BC08BC07
:402640009E4670472D000000582600000881FF1F80000000280100000000000000366E01C05D0000180000000000E02E0000000000000000000000000000000000000000DC
:4026800000000000000000000000000020260000000000000000000000000000000000000000000000000000000000000000000000000000000000000000000000000000D4
:4026C000000000000000000000000000000000001C81FF1F00000000000000000000000000000000000000000000000000000000000000000000000000000000000000001F
:402700000000000000000000000000000000000000000000000000000000000000000000000000000000000000000000000000000000000000000000000000000000000099
:402740000000000000000000000000000000000000000000000000000000000000000000000000000000000000000000000000000000000000000000000000000000000059
:402780000000000000000000000000000000000000000000000000000000000000000000000000000000000000000000000000000000000000000000000000000000000019
:4027C00000000000000000000000000000000000000000000000000000000000000000000000000000000000000000000000000000000000000000000000000000000000D9
:020000040003F7
:0200000480007A
:40000000055200400364004001010140020301400105014004090140430A0140410B0140150C0140490D0140100E01403C0F014002190140021B014008400140064101409A
:40004000034201400C44014006450140024C0140024D014003500140015101400C0420103003312534108A728B388D0FE204E602EE04E2089C20A704B192B308001F018080
:4000800002200433060C07E309180A230C030DC01002113C13C2143F15FF180119E71A401B181D102008211C23E124042704280C29442C1C2D082E233010311F32403338BB
:4000C000340F362C37C03AA03B023E0156025713580459045B045C115D105F01880192019F01A801AB01AE01B201B301B808BA20BF04D418D604D804D904DB04DC01DD104E
:40010000DF010044020403800510082409020B200F8010801202132814041780180419151BC01F18202022022382250829842B842F0830843110320236803840390A3A0481
:400140003B1041034508462059015F0265406620678069406B147080733887409040912894049540972099409C209F14A280A410B420B540C04FC21EC4CFCA2FCC1FCE0F0F
:40018000D681D8B015051603170A19091A021B061D021F0D2103230C26032C01310F34033B0254405604580459045B045F0100280102024003010A590D080E08102011015E
:4001C0001209141015801602180819401A401E08205121152602274028202E023314341036083740380839623A0840154A804BA05201620266586740680469056A086B89A9
:40020000720173028204874088108B40918092109504981099029A109F8BA108A208A854A901AD10B020B380B480C00FC26FC4AFCA82CC76CE0DD00ED20CD8F1E404EC0998
:400240008CE0945D96A298499A909C08AC33AE44B0F0B20EB601B802BA08BE40D804DF010012010403010440081109080B480C900D08106011401204138A158018141980C1
:400280001C401D401E101F0C200221482208234128412B0830A03108330139443B0140844308480149064A08508052145380582059856140638069106A406B20834087208D
:4002C0008E40C08FC2EEC48FCA0DCC0FCE0BD007D20CD60FD809E0029C20A704B420B7043002322035805D028180CC70D680E2208620A402A620A902E640EE208402A402B6
:40030000E2100802500657805F80602087808C02C208D407D604D802E40280209C20A804AF80B402EA080040C002B440EA0200030C020E03003F0000000120262D000000CB
:40034000001410490D80200002000D00029F08002D9F00002D0000002D000000010A025102000400000010000F0700802018106000000200000050402306050001E000C072
:4003800022FFFFFF62A0F0410C0000000000022C04040404100100010000000000004002001030100010101200000000000000000000000000000000070738688492000403
:4003C0000100000004968000049200040A2110D25604099200040000849600008000040060FA0005843200C000E07F1D800008070800000A000050006305200004DEFC0BF1
:400400001FFFFFFF2200F008040000000900040004040404000000010000C00040011011C001001140014001000000000000000000000000000000000400000000000000EA
:400440000010100010000000102F2F002F000000000000000000000000000000000000000000000000000000000000000000000000000000000000000000000000000000AF
:40048000000000000000000000000000000000000000000000000000000000000000000000000000000000000000000000000000000000000000000000000000000000003C
:4004C00000000000000000000000000000000000000000000000000000000000000000000000000000000000000000000000000000000000000000000000000000000000FC
:4005000000000000000000000000000000000000000000000000000000000000000000000000000000000000000000000000000000000000000000000000000000000000BB
:40054000000000000000000000000000000000000000000000000000000000000000000000000000000000000000000000000000000000000000000000000000000000007B
:0200000490006A
:0400000000004005B7
:0200000490105A
:04000000BC90ACAF55
:0200000490303A
:020000000D26CB
:0200000490402A
:4000000000000000000000000000000000000000000000000000000000000000000000000000000000000000000000000000000000000000000000000000000000000000C0
:400040000000000000000000000000000000000000000000000000000000000000000000000000000000000000000000000000000000000000000000000000000000000080
:400080000000000000000000000000000000000000000000000000000000000000000000000000000000000000000000000000000000000000000000000000000000000040
:4000C0000000000000000000000000000000000000000000000000000000000000000000000000000000000000000000000000000000000000000000000000000000000000
:0200000490501A
:0C00000000012E12306900012E243D8FFB
:00000001FF