:400000000080002011000000BD000000BD00000080B500AF47F2BC63C4F2000344F2FA62C4F2000212681A6000F016FC00F04AF810B5054C237833B9044810B10448AFF396
:4000400000800121217010BD2881FF1F00000000A847000008B5064B1BB106480649AFF300800648016811B1054A02B1904708BD00000000A84700002C81FF1F0881FF1FB9
:400080000000000080B500AF01F004FD0346002B09D044F2FA63C4F200031B78DBB203F0C003402B06D144F2FA63C4F200034FF040021A7000F04EFBFEE700BF80B400AFA2
:4000C000FEE700BF80B586B000AF40F20103C0F200037B6144F61023C0F200033B6140F20103C0F200037B6144F61023C0F200033B613BE03B691B68FB603B695B68BB6019
:400100003B699B683B604FF000037B600FE0FB681A68BB681A60BB6803F10403BB60FB6803F10403FB607B6803F104037B607A683B689A42EBD13B69DB683B604FF0000363
:400140007B600BE0BB684FF000021A60BB6803F10403BB607B6803F104037B607A683B689A42EFD13B6903F110033B617B69002B0CBF00230123DBB27A6902F1FF327A61F1
:40018000002BB7D104F0D4FAFFF77CFFFEE700BF80B582B000AF4EF60C53CEF200034FF48062C0F2FA521A604EF61453CEF200034EF61452CEF20002126842F400721A6026
:4001C0004FF000037B6019E07B68032B07D840F20003C0F200037A6853F8223003E040F2BD03C0F2000348F20002C1F6FF72796842F821307B6803F101037B607B682F2B43
:40020000E2D947F2BC63C4F200031B78DAB248F20413C1F6FF731A704EF60853CEF2000348F20002C1F6FF721A6000F039F948F20013C1F6FF734FF000021A6007F1080735
:40024000BD4680BD80B582B000AF7860396078684FF000013A6804F09AFA07F10807BD4680BD00BF80B584B000AFF860B9607A60F868B9687A6804F081FA07F11007BD4620
:4002800080BD00BF80B584B000AFF860B9607A60F868B9687A6804F071FA07F11007BD4680BD00BF80B483B000AF0346FB71FEE780B487B000AF786039604FF000033B61F6
:4002C0004FF000037B612CE07B694FEA83037A68D3181B68BB60BB68FB73BB6823F0FF03BB6017E03B694FEA43033A68D3181B781A46BB68D3183A694FEA420239688A18D7
:4003000052781A703B6903F101033B61FB7B03F1FF33FB73FB7B002BE4D17B6903F101037B617B690F2BCFD907F11C07BD4680BC704700BF80B582B000AF4FF48643C4F2AB
:4003400000034FF006021A704FF48443C4F200034FF052021A7044F2A163C4F2000340F20F12C4F600121278D2B21A7044F22223C4F200034FF4E1621A8044F22023C4F29C
:40038000000341F251221A804FF00003FB704FF019037B6019E0FB784FEA4303DAB244F22523C4F200031B78DBB203F00103DBB21343DBB203F00303FB704FF4F07000F0EB
:4003C0007FFF7B6803F1FF337B607B68002B02D0FB78032BDFD17B68002B03D14FF00300FFF760FF44F20403C4F200034FF480721A8044F20403C4F200034FF007021A7064
:4004000044F20603C4F200034FF000021A7044F20803C4F200034FF048021A7044F20403C4F200034FF000021A7044F20903C4F200034FF000021A7044F20103C4F2000372
:400440004FF002021A7007F10807BD4680BD00BF80B483B000AF40F2CF13C4F600131B78FB7145F66E03C4F20003FA7902F00702D2B21A7045F66F03C4F20003FA794FEAC0
:400480001212D2B21A7045F67603C4F200034FF044021A7007F10C07BD4680BC704700BF80B582B000AF72B64FF00003FB7119E0FA7913464FEA43039B184FEA430344F236
:4004C000AC72C0F200029B183B603B681A683B689B889BB210461946FFF7B4FEFB7903F10103FB71FB79062BE2D944F2D870C0F2000044F61801C0F20001FFF7D9FE45F2D5
:400500000303C4F2010345F20302C4F201021278D2B242F00202D2B21A7045F21303C4F2010345F21302C4F201021278D2B242F00202D2B21A7044F2A033C4F2000344F25E
:40054000A032C4F200021278D2B242F04002D2B21A7044F2C233C4F2000344F2C232C4F200021278D2B242F01002D2B21A7045F2C010C4F2000044F66001C0F200014FF0F1
:400580000A02FFF77FFE45F2F010C4F2000044F66C01C0F200014FF00A02FFF773FE45F24010C4F2000044F67801C0F200014FF00A02FFF767FE44F22233C4F2000344F200
:4005C0002232C4F200021278D2B242F00802D2B21A704FF49043C4F200034FF001021A70FFF7A8FE4FF49043C4F200034FF081021A70FFF72DFF44F2B030C4F2000044F221
:40060000A031C4F200014FF00E02FFF72BFE07F10807BD4680BD00BF80B485B000AF78600B467B804FF6FF73FB817B883B817B88002B04D1FB896FEA0303FB8142E03A8949
:400640007B88D31A7A68D3181B78BB814FF00003FB721DE0FA89BB89534003F00103002B0AD0FB894FEA53039AB248F20843CFF6FF735340FB8103E0FB894FEA5303FB8150
:40068000BB894FEA5303BB81FB7A03F10103FB72FB7A072BDED97B8803F1FF337B807B88002BCCD1FB896FEA0303FB81FB89BB81FB894FEA03239AB2BB894FEA13239BB2B6
:4006C0001343FB81FB89184607F11407BD4680BC704700BF80B485B000AF786039604FF00003FB730AE03B6803F1FF333B607A683B68D3181A78FB7BD318FB733B68002B58
:40070000F1D1FB7B184607F11407BD4680BC704780B485B000AF786039604FF00003FB730EE03B6803F1FF333B607A683B68D31803F1804303F500431A78FB7BD318FB73CC
:400740003B68002BEDD1FB7B184607F11407BD4680BC704780B5CAB000AF00F00DFE0346002B03D04FF0000000F006FF3B46184600F014FE0346002B03D04FF0000000F0E5
:40078000FBFE48F21013C1F6FF731B681B684FF000001946FFF79EFF034687F8273148F20C13C1F6FF731B681B7897F82721D31A87F8273197F82731C3F1000387F82731BB
:4007C00048F20C13C1F6FF731B681B7897F827219A4207D148F21013C1F6FF731B681B68002B03D14FF0000000F0C6FE4FF0000000F05CF8C7F8200144F2FA63C4F20003A9
:400800001B78DBB203F0C003402B03D0D7F82031002B0AD044F2FA63C4F200034FF000021A704FF0000000F0D3F84FF0140000F0CFF800F005F807F59477BD4680BD00BF71
:4008400080B500AF44F2FA63C4F200034FF080021A7000F09DFE80BD80B500AF44F2FA63C4F200031B78DBB203F0C003802B19D144F2FA63C4F200034FF000021A704FF044
:4008800001004FF0000100F027FC0346002B09D04FF001004FF0000100F01EFC0346184600F002F880BD00BF004700BF90B587B000AF0346FB71FB794FF00200194600F096
:4008C0000BFC034603F101034FEA0324FB794FF00300194600F000FC0346E318FB604FF00003FB744FF00003BB74FB794FF00200194600F0F1FB034603F101034FEA0323FE
:400900007B6113E07B691B78FB72FB7A002B05D0FB7AFF2B02D04FF00103FB74BA7CFB7AD318BB747B6903F101037B617A69FB689A42E7D3FB794FF00200194600F0CCFB48
:40094000034603F101034FEA03234FEAD3037B61FA684FF6C073C0F203039A4203D0FB684FEAD30301E04FF40043FB600BE07B6903F190431B78DAB2BB7CD318BB747B698D
:4009800003F101037B617A69FB689A42EFD3BB7CC3F10003BB74FA7913464FEA03639B1A4FEA032303F57F3303F570731B78DBB2BA7C9A4202D1FB7C002B02D14FF006039C
:4009C00001E04FF00003184607F11C07BD4690BD80B5ADF56C7D00AF024607F107031A704FF00003A7F8AA334FF00003A7F8A8334FF00A0387F8A7334FF0000387F8A6330F
:400A00004FF0000387F8A53301F054F862B64FF0000387F8AD3307F107031B78002B03D007F107031B7801E04FF0FF0307F5187107F28E3208464FF4967101F0A9F8C7F8B6
:400A40009C0307F107031B78002B05D097F8A73303F1FF3387F8A73397F8A733002B03D0D7F89C33002BD6D1D7F89C33002B40F0CA82B7F88E33062B04D907F518731B78A6
:400A8000012B04D04FF0040387F8AD334EE007F51873DB784FEA03239AB207F518739B781343A7F8AA33B7F8AA3303F1050307F51872D35C4FEA03239AB2B7F8AA3303F10A
:400AC000040307F51871CB5C1343A7F89A33B7F8AA3303F10702B7F88E339A4204D94FF0030387F8AD3321E0B7F8AA3303F1060307F51872D35C172B04D04FF0040387F811
:400B0000AD3313E0B7F8AA3303F104039BB207F5187210461946FFF77FFD0346B7F89A239A4203D04FF0080387F8AD334FF00003A7F8AE3397F8AD33002B40F0588207F5F2
:400B400018731B7987F899334FF0040387F8AD3307F518735B78A3F131030A2B00F2358201A252F823F000BF950B0000D70B0000CB0F0000410C0000AB0D0000CB0F00006C
:400B8000BF0D00001B0E0000410C00006D0E0000A90F000097F8A533012B40F01B82B7F8AA33002B40F016824FF00000FFF77EFE0346002B14BF00230123DBB21A4607F5B9
:400BC00018731A714FF00103A7F8AE334FF0000387F8AD33FEE197F8A533012B40F0FC81B7F8AA33012B40F0F78197F89933032B00F2F2814FF00003A7F89633B7F89633EC
:400C0000DAB207F518731A71B7F896334FEA13239BB2DAB207F518735A7107F518734FF0FF029A7107F518734FF00302DA714FF00403A7F8AE334FF0000387F8AD33CBE109
:400C400007F518735B78342B25D197F8A533012B40F0CD81B7F8AA33032B40F0C88197F899333F2B09D997F899335BB2002B04DB4FF01003A7F8A83303E04FF49073A7F8D4
:400C8000A833B7F8A83307F59A7210464FF000011A4603F07CFD97F8A533012B40F09E81B7F8AA33022B40F29981B7F8A83307F59A72D118B7F8AA33A3F1030307F5187257
:400CC00002F10702084611461A4603F057FDB7F8A823B7F8AA33D3189BB2A3F10303A7F8A83397F899333F2B0BD997F899335BB2002B06DB00F01EFC4FF01003A7F8AA3365
:400D000003E04FF49073A7F8AA33B7F8A823B7F8AA339A4240D107F518739B794FEA03239AB207F518735B791343A7F8A83397F899333F2B1BD897F8A633002B17D107F17F
:400D40000C0318464FF000014FF4907203F01FFD07F10C034FF003004FF0FF011A464FF4907300F057FB4FF0010387F8A63397F89903B7F8A81307F59A72B7F8AA3300F04E
:400D800049FB0346002B02D04FF00A0301E04FF0000387F8AD3303E04FF0030387F8AD334FF00003A7F8A83318E197F8A533012B40F016814FF00003A7F8A83324E197F8F5
:400DC000A533012B40F00E81B7F8A823B7F8AA33D318B3F5967F1BD84FF0000387F8AD33B7F8A83307F59A72D118B7F8AA3307F5187202F10402084611461A4603F0BEFCB6
:400E0000B7F8A823B7F8AA33D318A7F8A833E9E04FF0030387F8AD33E4E0B7F8AA33002B40F0E28007F5967244F68403C0F2000393E8030082E803004FF0010387F8A533CE
:400E40004FF00803A7F8AE33B7F8AE3307F5187202F1040107F59672084611461A4603F08DFC4FF0000387F8AD33BDE097F8A533012B40F0BB80B7F8AA33032B40F0B680B9
:400E800007F518739B794FEA03239AB207F518735B791343A7F8943397F899333F2B14D997F899335BB2002B0FDBB7F894334FEA0313C7F89033D7F890034FF01001FFF7B7
:400EC00027FC034687F8A43313E097F899334FEA0322B7F89433D3184FEA0323C7F89033D7F890034FF48071FFF7F4FB034687F8A43397F899333F2B27D897F8993303F511
:400F000010334FEA0322B7F89433D3184FEA4313C7F890334FF00003A7F8A23311E0B7F8A223D7F89033D3181B78DAB297F8A433D31887F8A433B7F8A23303F10103A7F825
:400F4000A233B7F8A2331F2BE9D997F89933032B19D1B7F89433FF2B15D14FF6D073C0F203031B78DBB297F8A423D31A87F8A4334FF6D173C0F203031B78DBB297F8A42363
:400F8000D31A87F8A43397F8A433C3F10003DAB207F518731A714FF0000387F8AD334FF00103A7F8AE3321E04FF00000FFF77EFC0346002B06D144F2FA63C4F200034FF049
:400FC00080021A7000F0E4FA11E04FF0050387F8AD330CE000BF0AE000BF08E000BF06E000BF04E000BF02E000BF00E000BF97F8AD1307F51872B7F8AE33084611461A4693
:4010000000F012F800E000BF07F107031B78002B3FF4FDAC97F8A533012B3FF4F8AC07F56C77BD4680BD00BF80B584B000AF396013460246FA71BB803B684FF001021A70CC
:401040003B6803F10103FA791A703B6803F10203BA88D2B21A703B6803F10303BA884FEA122292B2D2B21A70BB8803F104039BB238681946FFF7D0FA0346FB81BB8803F108
:4010800004033A68D318FA89D2B21A70BB8803F105033A68D318FA894FEA122292B2D2B21A70BB8803F106033A68D3184FF017021A70BB8803F107039AB207F10403386822
:4010C00011461A464FF0960300F00EFD0346184607F11007BD4680BD80B586B000AF02460B46FA71BB714FF00203FB74FB7903F1FF33062B74D801A252F823F053110000F8
:40110000731100008D11000039110000AD110000C711000019110000BA7913464FEA03639B1A4FEA032303F57F3303F576737B614FF00403FB745BE0BA7913464FEA0363C2
:401140009B1A4FEA032303F57F3303F2D2337B614EE0BA7913464FEA03639B1A4FEA032303F57F3303F2C1337B614FF00403FB743EE0BA7913464FEA03639B1A4FEA0323ED
:4011800003F57F3303F2C5337B6131E0BA7913464FEA03639B1A4FEA032303F57F3303F2C9337B614FF00403FB7421E0BA7913464FEA03639B1A4FEA032303F57F3303F261
:4011C000D6337B6114E0BA7913464FEA03639B1A4FEA032303F57F3303F575737B6107E04FF0000000F0C8F94FF000037B6100BFFB7C022B0ED17B6903F101031B78DBB23E
:40120000FB607B691B78DBB24FEA0323FA681343FB6021E07B6903F103031B78DBB2FB607B6903F102031B78DBB24FEA0323FA681343FB607B6903F101031B78DBB24FEADF
:401240000343FA681343FB607B691B78DBB24FEA0363FA681343FB60FB79022B04D0032B0FD0012B0DD021E0FB689BB24FEA03239AB2FB684FEA13239BB213439BB2FB605B
:4012800015E0FB684FEA1362FB6803F47F034FEA13231A43FB6803F47F434FEA03231A43FB684FEA03631343FB6000E000BFFB68184607F11807BD4680BD00BF000000007F
:4012C0000230800800F0058000BF013800467FF4FCAF7047EFF3108072B6704780F31088704700BFAFF3008080B582B000AF00F0F1F94FF0FF337B6000F054FB0346002BC9
:4013000031D14FF0010000F007FB0346072B27D148F25C10C1F6FF704FF0020100F006FA0346022B12D14FF000037B6003E04FF0010000F065F944F22273C4F200031B780A
:40134000DBB203F00203002BF1D009E044F22273C4F200031B78DBB203F00203002BD7D000F064FB02E04FF004037B607B68184607F10807BD4680BD80B582B000AFFFF7BF
:40138000B3FF78607B68002B02D1FFF7ADFF78607B68184607F10807BD4680BD80B584B000AF78604FF00003FB6000F093F97B68002B0DD148F24413C1F6FF731A6848F255
:4013C0004413C1F6FF731A604FF00103FB601AE000F0E8FA0346002B0DD048F24413C1F6FF731A6848F24413C1F6FF731A604FF00403FB6007E048F24413C1F6FF737A68A4
:401400001A6000F013FBFB68184607F11007BD4680BD00BF80B586B000AFBA600246FA730A46BA81FB8000F0BDFA0346002B78D1FA7BFB881046B9681A4600F0A9F97861D8
:401440007B69072B6AD103E04FF0010000F0D8F844F22273C4F200031B78DBB203F00203002BF1D044F22273C4F200031B78DBB203F00203002B0ED044F22273C4F2000387
:401480001B78DBB24FEA9303DBB2002B03D14FF000037B6102E04FF0FF337B617B69002B3CD148F25C13C1F6FF731A7848F25C13C1F6FF735B78F87BB98900F0C7F9786101
:4014C0007B69072B2AD103E04FF0010000F098F844F22273C4F200031B78DBB203F00203002BF1D044F22273C4F200031B78DBB203F00203002B0ED044F22273C4F2000387
:401500001B78DBB24FEA9303DBB2002B03D14FF000037B6102E04FF0FF337B6100F086FA02E04FF004037B617B69184607F11807BD4680BD80B400AF44F2AC33C4F2000325
:4015400044F2AC32C4F200021278D2B242F01002D2B21A7044F2BC33C4F2000344F2BC32C4F200021278D2B242F01002D2B21A70BD4680BC704700BF80B483B000AF034611
:40158000FB7101BE07F10C07BD4680BC704700BF80B400AF44F2F663C4F2000344F2F662C4F200021278D2B242F00102D2B21A70BD4680BC704700BF80B582B000AF7860DB
:4015C0000BE048F22013C1F6FF731B681846FFF777FE7B68A3F500437B607B68B3F5004FEFD848F21813C1F6FF731B687A6802FB03F31846FFF764FE07F10807BD4680BD01
:4016000080B582B000AF0346FB80FA8848F21C13C1F6FF731B7803FB02F31846FFF750FE07F10807BD4680BD80B584B000AF03463960FB714EF60853CEF200031B68FB60A7
:40164000FB791F2B03D94FF00000FFF795FFFB7903F01F0303F110034FEA8303FA68D3181B68BB60FB7903F01F0303F110034FEA8303FA68D3183A681A60BB68184607F19C
:401680001007BD4680BD00BF80B582B000AF02460B46FA71BB71BB79072B03D94FF00000FFF76AFFFB791F2B03D94FF00000FFF763FFFB7903F01F0303F1604303F56443FE
:4016C000BA794FEA4212D2B21A7007F10807BD4680BD00BF80B582B000AFFFF7FBFD0346FB7144F2A033C4F2000344F2A032C4F200021278D2B242F00802D2B21A7044F24D
:40170000B033C4F2000344F2B032C4F200021278D2B242F00802D2B21A70FB791846FFF7DDFD07F10807BD4680BD00BF80B584B000AF78600B46FB704FF00003FB731DE0E4
:401740004FF00100FFF75CFF00E000BF44F22273C4F200031B78DBB203F00103002BEFD0FB7B7A68D21844F22073C4F200031B78DBB21370FB7B03F10103FB73FA7BFB7889
:401780009A42E2D3FB7B184607F11007BD4680BD80B485B000AF396013460246FA71BB804FF00703FB6044F22273C4F200031B78DBB203F00203002B3ED044F22073C4F285
:4017C00000034FF0B6021A7044F22073C4F200034FF0D5021A7044F22073C4F200034FF002021A7044F22273C4F200031B78DBB203F00203002B1BD144F22073C4F20003BF
:40180000FA791A704FF000037B810CE044F22073C4F200037A8939688A1812781A707B8903F101037B817A89BB889A42EED306E04FF00903FB6002E04FF00403FB60FB6858
:40184000184607F11407BD4680BC704780B485B000AFF871B980BA71FB704FF00703FB6044F22273C4F200031B78DBB203F00203002B46D044F22073C4F200034FF0B602B7
:401880001A7044F22073C4F200034FF0D8021A7044F22073C4F200034FF005021A7044F22273C4F200031B78DBB203F00203002B23D144F22073C4F20003FA791A7044F2B7
:4018C0002073C4F20003BA884FEA122292B2D2B21A7044F22073C4F20003BA88D2B21A7044F22073C4F20003BA791A7044F22073C4F20003FA781A7006E04FF00903FB6080
:4019000002E04FF00403FB60FB68184607F11407BD4680BC704700BF80B485B000AF0346FB714FF00703FB6044F22273C4F200031B78DBB203F00203002B29D044F22073A1
:40194000C4F200034FF0B6021A7044F22073C4F200034FF0E1021A7044F22073C4F200034FF00E021A7044F22273C4F200031B78DBB203F00203002B06D144F22073C4F287
:401980000003FA791A7006E04FF00903FB6002E04FF00403FB60FB68184607F11407BD4680BC704780B582B000AF4FF004037B60FFF790FC0346FB7048F24813C1F6FF7323
:4019C0001B78002B28D148F24813C1F6FF734FF001021A704FF000037B604FF00403C4F208031B6803F00103002B15D04FF00403C4F208034FF00402C4F20802126822F060
:401A000001021A6000BF00BF00BF48F24C13C1F6FF734FF001021A60FB781846FFF75EFC7B68184607F10807BD4680BD80B582B000AFFFF74FFC0346FB7148F24813C1F66D
:401A4000FF734FF000021A7048F24C13C1F6FF731B68012B15D14FF00403C4F208034FF00402C4F20802126842F001021A6000BF00BF00BF48F24C13C1F6FF734FF000025D
:401A80001A60FB791846FFF729FC07F10807BD4680BD00BF80B400AF45F24113C4F200031B78DBB24FEAD313DBB21846BD4680BC704700BF80B500AF62B64FF000004FF039
:401AC000020100F005F948F25213C1F6FF734FF001021A7080BD00BF80B500AF4FF0010000F09EFC80BD00BF80B586B000AFF8607A600A467A817B724FF00200F9684FF056
:401B0000400200F099FB7B7A9BB21A464FEA8202D3184FEA43039AB248F25013C1F6FF731A804FF00003FB8203E04FF00100FFF743FD4FF0020000F02BFB0346002B10D1A6
:401B400048F25013C1F6FF731B88FA8A9A422CBF00230123DBB2FA8A02F10102FA82002BE3D14FF0020000F013FB0346002B03D14FF010033B6105E07B687A891A804FF0EF
:401B800000033B613B69184607F11807BD4680BD80B586B000AFF8607A600A467A817B727B89402B02D94FF040037B817B7A9BB21A464FEA8202D3184FEA43039AB248F292
:401BC0005013C1F6FF731A804FF000037B8248F25213C1F6FF731B78002B2BD003E04FF00100FFF7E9FC00F0A5FA0346002B10D148F25013C1F6FF731B887A8A9A422CBFE9
:401C000000230123DBB27A8A02F101027A82002BE5D100F08FFA0346002B1DD000F096FAFFF75AFF48F25213C1F6FF734FF000021A7011E000F08AFA0346002B0CD000F018
:401C400079FA0346002B07D0FFF746FF04E04FF00100FFF7B1FC00E000BF4FF0010000F097FA0346012B10D048F25013C1F6FF731B887A8A9A422CBF00230123DBB27A8AE3
:401C800002F101027A82002BE1D14FF0010000F07FFA0346012B0ED17B894FF00100F9681A4600F071FB03461A467B681A804FF000037B6106E07B684FF000021A804FF0D0
:401CC00010037B617B69184607F11807BD4680BD80B582B000AF02460B46FA71BB7148F25413C1F6FF731B78002B08D100F012F848F25413C1F6FF734FF001021A70FA79B2
:401D0000BB791046194600F013F907F10807BD4680BD00BF80B582B000AFFFF7DBFA0346FB7144F2A533C4F2000344F2A532C4F200021278D2B242F00102D2B21A7044F20F
:401D4000B533C4F2000344F2B532C4F200021278D2B242F00102D2B21A7046F29D03C4F200034FF001021A7046F20903C4F200034FF002021A7046F21003C4F2000346F239
:401D80001002C4F200021278D2B202F07F02D2B21A704FF00000FFF733FC44F29433C4F2000344F29432C4F200021278D2B222F00602D2B21A7046F21203C4F2000346F288
:401DC0001202C4F200021278D2B222F02002D2B21A7044F29433C4F2000344F29432C4F200021278D2B242F00102D2B21A704FF00100FFF705FC4FF02800FFF701FC45F244
:401E0000F813C4F2000345F2F812C4F200021278D2B202F07F02D2B21A7045F2F813C4F2000345F2F812C4F200021278D2B222F04002D2B21A7044F29433C4F2000344F206
:401E40009432C4F200021278D2B242F00202D2B21A704FF00200FFF7D3FB44F29433C4F2000344F29432C4F200021278D2B242F00402D2B21A7046F28403C4F200034FF018
:401E800000021A7046F28503C4F200034FF000021A70FB791846FFF721FA4FF0170042F69D51C0F20001FFF7BFFB4FF017004FF00701FFF7E9FB4FF0150042F69151C0F2F9
:401EC0000001FFF7B1FB4FF015004FF00701FFF7DBFB4FF0180042F29941C0F20001FFF7A3FB4FF018004FF00701FFF7CDFB4FF0000042F6A941C0F20001FFF795FB4FF0F7
:401F000000004FF00701FFF7BFFB4FF0010042F61D51C0F20001FFF787FB4FF001004FF00701FFF7B1FB07F10807BD4680BD00BF80B584B000AF02460B46FA71BB714FF0E3
:401F40000003FB730BE0FA7B48F20023C1F6FF734FF001019954FB7B03F10103FB73FB7B002BF0D04FF46143CEF200034FF400021A604FF46143CEF200034FF080721A60E1
:401F80004FF46143CEF200034FF001021A604FF46143CEF200034FF002021A6048F27A13C1F6FF734FF000021A70BB79002B02D0012B08D00FE046F20903C4F200034FF039
:401FC00002021A700FE046F20903C4F200034FF003021A7007E046F20903C4F200034FF003021A7000BF48F27413C1F6FF73FA791A7048F27913C1F6FF734FF000021A7087
:4020000048F27513C1F6FF734FF000021A7048F27813C1F6FF734FF000021A7048F26013C1F6FF734FF000021A7048F27713C1F6FF734FF000021A7048F2F113C1F6FF7371
:402040004FF000021A7046F22803C4F200034FF003021A7046F20803C4F200034FF080021A704FF00100FFF72BF946F21203C4F200034FF004021A7007F11007BD4680BDE6
:4020800080B483B000AF4FF00003FB710BE0FA7948F20023C1F6FF734FF001019954FB7903F10103FB71FB79002BF0D048F27A13C1F6FF734FF000021A7048F27913C1F6DB
:4020C000FF734FF000021A7048F27513C1F6FF734FF000021A7048F27813C1F6FF734FF000021A7048F26013C1F6FF734FF000021A7048F27713C1F6FF734FF000021A70DB
:4021000048F2F113C1F6FF734FF000021A7046F22803C4F200034FF003021A7046F20803C4F200034FF080021A7007F10C07BD4680BC704780B400AF48F27913C1F6FF7369
:402140001B78DBB21846BD4680BC704780B483B000AF4FF00003FB7148F27813C1F6FF731B78DBB2002B0CD048F27813C1F6FF731B78FB7148F27813C1F6FF734FF00002F6
:402180001A70FB79184607F10C07BD4680BC704780B483B000AF0346FB71F97948F28412C1F6FF720B464FEA43035B184FEA8303D3185B78DBB2184607F10C07BD4680BC98
:4021C000704700BF80B485B000AF0346FB714FF00003FB81FB79002B27D0FB79082B24D8FB7903F1FF33DBB24FEA03137B737A7B46F20C03C4F20003D3181B78DBB203F04E
:402200000F03FB81FB894FEA03239AB2797B46F20D03C4F20003CB181B78DBB213439BB2FB81FB89A3F10203FB81FB89184607F11407BD4680BC704790B484B000AF396086
:4022400013460246FA71BB80FB79002B00F09680FB79082B00F29280FB7903F1FF33DBB24FEA03137B737A7B46F28803C4F20003D318BB60B888F97948F28412C1F6FF7242
:402280000B464FEA43035B184FEA8303D318DB889BB2C3F50073984210D9F97948F28412C1F6FF720B464FEA43035B184FEA8303D318DB889BB2C3F50073BB807A7B46F2F9
:4022C0000C03C4F20003D3181846BB884FEA13239BB2DCB2F97948F28412C1F6FF720B464FEA43035B184FEA8303D318DB78DBB22343DBB203707A7B46F20D03C4F20003AD
:40230000D318BA88D2B21A703B68002B11D04FF00003FB8109E0FB893A68D3181A78BB681A70FB8903F10103FB81FA89BB889A42F1D3F97948F28412C1F6FF720B464FEA6A
:4023400043035B184FEA8303D3184FF000025A707A7B46F20E03C4F20003D3181846F97948F28412C1F6FF720B464FEA43035B184FEA8303D3185B79DBB2037007F1100775
:40238000BD4690BC704700BF80B586B000AF396013460246FA71BB80FB79002B37D0FB79082B34D83B68002B31D0FB7903F1FF33DBB24FEA03137B757A7D46F28803C4F260
:4023C0000003D3183B61FB791846FFF7FBFE0346FB81BA88FB899A4201D9FB89BB804FF00003FB820AE0FB8A3A68D3183A691278D2B21A70FB8A03F10103FB82FA8ABB88DB
:402400009A42F0D3FB79184600F00AF802E04FF00003BB80BB88184607F11807BD4680BD80B485B000AF0346FB71FB79002B2ED0FB79082B2BD8FB7903F1FF33DBB24FEA6E
:402440000313FB73F97948F28412C1F6FF720B464FEA43035B184FEA8303D3184FF000025A70FA7B46F20E03C4F20003D3181846F97948F28412C1F6FF720B464FEA43037C
:402480005B184FEA8303D3185B79DBB2037007F11407BD4680BC704780B582B000AF46F22803C4F200031B78BB71BB7903F01003002B00F08C804FF00103FB71BB795BB2E0
:4024C000002B18DABB7903F00F03012B03D04FF00003FB7122E000F07FF848F26113C1F6FF731B78DBB2DBB25BB2002B16DA4FF00003FB7112E0BB7903F04003002B02D0BD
:4025000000F0BEF80AE0BB7903F02003002B02D000F0DEF802E04FF00003FB71FB79002B55D046F22803C4F200031B78BB71BB795BB2002B4BDB48F27613C1F6FF731B78BE
:40254000DAB248F2F213C1F6FF731B78DBB21343BB7146F22903C4F20003BA791A7046F22903C4F200031B78DBB2BA799A422ED148F26113C1F6FF731B78FB7146F2280367
:40258000C4F200031B78DBB223F07F03BB71BB79002B13D146F22803C4F2000348F26112C1F6FF721278D2B21A7046F22803C4F200031B78DBB203F00F03FB7148F261135A
:4025C000C1F6FF731B78DBB2FA799A42D0D107F10807BD4680BD00BF80B582B000AF46F22803C4F200031B78FB7146F22803C4F20003FA791A7046F22803C4F200031B78A3
:40260000FB71FB795BB2002B06DA48F26113C1F6FF73FA791A702EE04FF0020000F0F4FA4FF4C043C4F200031B78DBB203F06003202B08D0402B0BD0002B0ED100F032FE99
:402640000346FB710DE002F01FF80346FB7108E001F0F8FF0346FB7103E04FF00003FB7100BFFB79002B06D148F26113C1F6FF734FF003021A7007F10807BD4680BD00BF04
:4026800080B500AF48F27A13C1F6FF731B78DBB2062B1AD801A252F823F000BFCB260000CB260000B9260000CB260000BF260000CB260000C526000000F04AF906E000F0C8
:4026C00037FA03E000F06EFA00E000BF80BD00BF80B500AF48F27A13C1F6FF731B78DBB2062B23D801A252F823F000BF2D2700002D270000092700002D2700000F27000092
:402700002D2700001527000000F028F90FE000F091F90CE04FF0030000F076FA48F26113C1F6FF734FF003021A7000E000BF80BD80B483B000AF4FF00003FB7148F2F1137E
:40274000C1F6FF731B78DBB21A4648F2F413C1F6FF731B889BB2D3189AB248F2F413C1F6FF731A802BE0FB7903F1804303F5C0431A4648F26813C1F6FF735B681B78DBB2C9
:40278000137048F26813C1F6FF735B6803F1010248F26813C1F6FF735A60FB7903F10103FB7148F26813C1F6FF731B889BB203F1FF339AB248F26813C1F6FF731A8048F29C
:4027C0006813C1F6FF731B889BB2002B02D0FB79072BC8D948F2F113C1F6FF731B78DBB2082B02D0FB79002B1ED048F27613C1F6FF731B78DBB283F07F036FEA0303DAB2FC
:4028000048F27613C1F6FF731A7048F26113C1F6FF734FF00F021A7048F27A13C1F6FF734FF002021A700DE048F26113C1F6FF734FF002021A7048F27A13C1F6FF734FF0F4
:4028400002021A7048F2F113C1F6FF73FA791A7048F2F213C1F6FF73FA791A7007F10C07BD4680BC704700BF80B582B000AF48F26813C1F6FF731B889BB2002B02D100F06F
:402880003BF832E048F27A13C1F6FF734FF002021A7048F27613C1F6FF734FF000021A7000F0DEF946F20703C4F200031B78DBB24FEA03239AB246F20603C4F200031B7845
:4028C000DBB213439BB2FB8048F26813C1F6FF731B889BB2FA889A4205D248F26813C1F6FF73FA881A80FFF723FF4FF00103184607F10807BD4680BD80B400AF48F27A1386
:40290000C1F6FF734FF002021A7048F27613C1F6FF734FF080021A7048F26113C1F6FF734FF00F021A7048F2F113C1F6FF734FF000021A7048F2F213C1F6FF734FF00002DE
:402940001A704FF001031846BD4680BC704700BF80B500AFFFF7ECFE80BD00BF80B500AF48F2F113C1F6FF731B78DBB21A4648F2F413C1F6FF731B889BB2D3189AB248F221
:40298000F413C1F6FF731A8048F27A13C1F6FF734FF000021A704FF0010000F035F948F26113C1F6FF734FF003021A7080BD00BF80B582B000AF48F27A13C1F6FF734FF04E
:4029C00004021A7048F27613C1F6FF734FF080021A7000F045F946F20703C4F200031B78DBB24FEA03239AB246F20603C4F200031B78DBB213439BB2FB8048F26813C1F678
:402A0000FF731B889BB2FA889A4205D248F26813C1F6FF73FA881A8048F26113C1F6FF734FF00B021A704FF00103184607F10807BD4680BD80B483B000AF4FF00003BB71EC
:402A400046F22903C4F200031B78DBB203F00F03DBB2A3F10203FB71FB799AB248F2F413C1F6FF731B889BB2D3189AB248F2F413C1F6FF731A802EE048F26813C1F6FF7341
:402A80005A68BB7903F1804303F5C0431B78DBB2137048F26813C1F6FF735B6803F1010248F26813C1F6FF735A60BB7903F10103BB71FB7903F1FF33FB7148F26813C1F6D1
:402AC000FF731B889BB203F1FF339AB248F26813C1F6FF731A8048F26813C1F6FF731B889BB2002B02D0FB79002BC5D148F2F213C1F6FF73FA791A7048F27613C1F6FF7339
:402B00001B78DBB283F07F036FEA0303DAB248F27613C1F6FF731A7048F26113C1F6FF734FF00B021A7007F10C07BD4680BC704780B500AF48F27A13C1F6FF734FF000025C
:402B40001A704FF0010000F05FF848F26113C1F6FF734FF003021A7080BD00BF80B400AF48F27A13C1F6FF734FF006021A7048F26113C1F6FF734FF006021A7048F2761394
:402B8000C1F6FF734FF080021A7048F2F213C1F6FF734FF000021A704FF001031846BD4680BC704780B500AF48F26013C1F6FF731B78DBB2002B14D046F20803C4F20003F2
:402BC00048F26012C1F6FF721278D2B262F07F02D2B21A7048F26013C1F6FF734FF000021A7048F27A13C1F6FF734FF000021A704FF0010000F008F848F26113C1F6FF73AF
:402C00004FF003021A7080BD80B483B000AF0346FB7148F26813C1F6FF739B68002B19D048F26813C1F6FF739B68FA791A7048F26813C1F6FF739A6848F2F413C1F6FF73A1
:402C40001B889BB2538048F26813C1F6FF734FF000029A6007F10C07BD4680BC704700BF80B400AF48F2F413C1F6FF734FF000021A8048F26813C1F6FF739B68002B0FD0A5
:402C800048F26813C1F6FF739B684FF000021A7048F26813C1F6FF739B684FF000025A80BD4680BC704700BF80B400AF46F20E03C4F200031B7848F28413C1F6FF731B7BAF
:402CC000DBB203F00303012B0FD048F28413C1F6FF73DB7BDBB283F07F036FEA0303DAB248F28413C1F6FF73DA7348F28413C1F6FF734FF001025A7346F20B03C4F2000337
:402D000046F20B02C4F200021278D2B222F00102D2B21A70BD4680BC704700BF80B400AF46F21E03C4F200031B7848F28413C1F6FF731B7EDBB203F00303012B0FD048F2CA
:402D40008413C1F6FF73DB7EDBB283F07F036FEA0303DAB248F28413C1F6FF73DA7648F28413C1F6FF734FF001025A7646F20B03C4F2000346F20B02C4F200021278D2B26D
:402D800022F00202D2B21A70BD4680BC704700BF80B400AFBD4680BC704700BF80B500AFFFF76EF980BD00BF80B582B000AF4FF00003FB7146F20403C4F200031B78BB71EA
:402DC0004FF4C043C4F200031B78DBB2DBB25BB2002B80F29C8046F20103C4F200031B78DBB203F1FF33052B00F2248101A252F823F000BF6F2E00008F2E0000D72E000041
:402E000035300000353000000D2E000046F20303C4F200031B78DBB2212B0FD100F022F948F26813C1F6FF731B889BB2002B00F00381FFF719FD0346FB71FDE046F20303F6
:402E4000C4F200031B78DBB2222B40F0F58000F053F948F26813C1F6FF731B889BB2002B00F0EA80FFF700FD0346FB71E4E000F099F948F26813C1F6FF731B889BB2002B11
:402E800000F0DC80FFF7F0FC0346FB71D6E0BB79002B40F0D58046F20203C4F200031B78DBB2002B40F0CC8048F26813C1F6FF734FF001021A80BA7948F2F813C1F6FF737D
:402EC000D21848F26813C1F6FF735A60FFF7CCFC0346FB71B4E0BB79002B40F0B38048F26813C1F6FF734FF001021A80BA7948F20023C1F6FF73D21848F26813C1F6FF734C
:402F00005A60FFF7B1FC0346FB7100BF9AE04FF4C043C4F200031B78DBB2DBB25BB2002BC0F2998046F20103C4F200031B78DBB2092B07D0092BC0F287800A2B11D00B2B3E
:402F40005AD075E000F02EF948F26813C1F6FF731B889BB2002B79D0FFF72AFD0346FB7174E0BB79002B73D146F20203C4F200031B78DBB2002B6BD1BA7946F20303C4F20C
:402F800000031B78D9B248F2F813C1F6FF739954BA7948F2F813C1F6FF739B5CDAB2B97948F2FC13C1F6FF735B5CDBB29A4208D2BA7948F2FC13C1F6FF734FF00001995401
:402FC00015E0BA7948F2FC13C1F6FF739B5CDBB2012B0CD9BA79B97948F2F813C1F6FF735B5CD9B248F2FC13C1F6FF739954FFF7B5FD0346FB712BE0BB79002B2AD146F234
:403000000203C4F200031B78DBB2012B22D8BA7946F20203C4F200031B78D9B248F20023C1F6FF739954FFF799FD0346FB7111E000BF09E000BF0EE000BF0CE000BF0AE0F7
:4030400000BF08E000BF06E000BF04E000BF02E000BF00E000BFFB79184607F10807BD4680BD00BF80B584B000AF48F27913C1F6FF731B78DBB203F1FF33DBB2184601F061
:40308000C5F8F86046F20403C4F200031B78FB72FB7A03F102034FEAC303FA68D318FB60FB685B68FB60FA7A48F26413C1F6FF739B5CDBB24FEAC303FA68D318FB60FB6891
:4030C0005B68FB60FB6803F12003FB60FB685B687B607B681B78DBB21A4648F26813C1F6FF731A8048F26813C1F6FF737A685A6007F11007BD4680BD80B584B000AF48F2E6
:403100007913C1F6FF731B78DBB203F1FF33DBB2184601F07BF8F86046F20403C4F200031B78FB72FB7A03F102034FEAC303FA68D318FB60FB685B68FB60FA7A48F264133A
:40314000C1F6FF739B5CDBB24FEAC303FA68D318FB60FB685B68FB60FB6803F11803FB60FB685B687B607B6803F101031B78DBB24FEA03239AB27B681B78DBB213439BB260
:403180009AB248F26813C1F6FF731A807B6803F1020248F26813C1F6FF735A6007F11007BD4680BD80B584B000AF48F26813C1F6FF734FF000021A8048F27913C1F6FF73C9
:4031C0001B78DBB203F1FF33DBB2184601F01EF8F86046F20303C4F200031B78FB7246F20403C4F200031B78BB72BB7A03F102034FEAC303FA68D318FB60FB685B68FB603A
:40320000BB7A002B49D1BA7A48F26413C1F6FF739B5CDBB24FEAC303FA68D318FB60FB685B68FB60FB7A002B37D0FB7A032B34D8FB7A03F1FF334FEAC303FA68D318FB60C2
:4032400046F20203C4F200031B78FB72FB681B78FA7A9A4221D8FB685B687B60FA7A13464FEA43039B184FEA83037A68D3187B607B685A6848F26813C1F6FF735A607B6892
:403280001A8848F26813C1F6FF731A807B689A6848F26813C1F6FF739A6007F11007BD4680BD00BF80B586B000AF4FF00003FB754FF000033B6148F26813C1F6FF734FF062
:4032C00000021A804FF4C043C4F200031B78DBB2DBB25BB2002B80F27D8146F20103C4F200031B78DBB20A2B00F2C08201A252F823F000BF993400006D3800006D3800008A
:403300006D3800006D3800006D380000213300006D3800006F3500006D3800009935000046F20303C4F200031B78DBB2012B15D100F08EFFB860BB685A6848F26813C1F67F
:40334000FF735A6048F26813C1F6FF734FF012021A80FFF789FA0346FB7589E246F20303C4F200031B78DBB2022B32D146F20203C4F200031B78DBB2184600F047FFB860B0
:40338000BB685A6848F26813C1F6FF735A6048F26813C1F6FF735B6803F103031B78DBB24FEA03239AB248F26813C1F6FF735B6803F102031B78DBB213439BB29AB248F247
:4033C0006813C1F6FF731A80FFF74EFA0346FB754EE246F20303C4F200031B78DBB2032B55D14FF00003FB7344F6CC03C0F200033B610AE03B691B78FB71FB793A69D31864
:403400003B61FB7B03F10103FB7346F20203C4F200031B78DBB2FA7B9A4204D23B691B78DBB2002BE6D146F20203C4F200031B78DBB2002B11D046F20203C4F200031B7886
:40344000DAB244F68C03C0F200031B7C9A4204D144F62413C0F200033B613B691B78DBB2002B00F005823B691B78DBB21A4648F26813C1F6FF731A8048F26813C1F6FF7358
:403480003A695A60FFF7F0F90346FB75F0E101F0FBF80346FB75EBE14FF4C043C4F200031B78DBB203F00303002B37D0022B5CD148F26813C1F6FF734FF002021A8046F246
:4034C0000403C4F200031B78DBB203F07F0148F28412C1F6FF720B464FEA43035B184FEA8303D3189B78DAB248F25813C1F6FF731A7048F25813C1F6FF734FF000025A70C4
:4035000048F26813C1F6FF7348F25812C1F6FF725A60FFF7A9F90346FB7527E048F26813C1F6FF734FF002021A8048F27713C1F6FF731B78DAB248F25813C1F6FF731A70B0
:4035400048F25813C1F6FF734FF000025A7048F26813C1F6FF7348F25812C1F6FF725A60FFF782F90346FB7500E000BF85E148F26813C1F6FF734FF001021A8048F2681370
:40358000C1F6FF7348F27912C1F6FF725A60FFF76BF90346FB7570E148F26813C1F6FF734FF001021A8046F20403C4F200031B78DBB21A4648F26413C1F6FF73D21848F2A7
:4035C0006813C1F6FF735A60FFF74EF90346FB7500BF52E146F20103C4F200031B78DBB203F1FF330A2B00F2458101A252F823F0CD360000753800009D370000753800002C
:403600001D3600007538000075380000753800003D360000753800007336000046F20203C4F200031B78DAB248F26013C1F6FF731A70FFF793FA0346FB751EE146F202037A
:40364000C4F200031B78DAB248F27913C1F6FF731A7048F27813C1F6FF734FF001021A704FF0010000F012FAFFF778FA0346FB7503E100F09FFF0346002B00F0FD8046F257
:403680000403C4F200031B78BB7148F27513C1F6FF73BA791A7048F27813C1F6FF734FF001021A7000F008FCBA79B97948F26413C1F6FF735B5CD9B248F2F013C1F6FF734E
:4036C0009954FFF74BFA0346FB75D5E04FF4C043C4F200031B78DBB203F00303012B2BD0012B0ED3022B52D146F20203C4F200031B78DBB2002B4BD100F07AFE0346FB751A
:4037000046E046F20203C4F200031B78DBB2012B40D148F27713C1F6FF731B78DBB223F00203DAB248F27713C1F6FF731A70FFF715FA0346FB752DE046F20403C4F2000325
:403740001B78DBB2002B27D146F20403C4F200031B78DBB21A46194648F27C13C1F6FF735B5CD9B246F20203C4F200031B78DBB26FEA0303DBB20B40D9B248F27C13C1F6A3
:40378000FF739954FFF7EAF90346FB7504E004E000BF02E000BF00E000BF6EE04FF4C043C4F200031B78DBB203F00303012B2BD0012B0ED3022B52D146F20203C4F2000371
:4037C0001B78DBB2002B4BD100F07AFD0346FB7546E046F20203C4F200031B78DBB2012B40D148F27713C1F6FF731B78DBB243F00203DAB248F27713C1F6FF731A70FFF78B
:40380000ADF90346FB752DE046F20403C4F200031B78DBB2002B27D146F20403C4F200031B78DBB21A46194648F27C13C1F6FF735B5CD9B246F20203C4F200031B78DBB2C0
:403840006FEA0303DBB20B40D9B248F27C13C1F6FF739954FFF782F90346FB7504E004E000BF02E000BF00E000BF06E000BF04E000BF02E000BF00E000BFFB7D184607F160
:403880001807BD4680BD00BF80B483B000AF4FF00103FB714FF00003BB71E5E0BB7903F1804303F5C1434FF00C021A70F97948F28412C1F6FF720B464FEA43035B184FEA4E
:4038C0008303D3185B79DBB2002B25D0F97948F28412C1F6FF720B464FEA43035B184FEA8303D3181B79DBB2DBB25BB2002B09DABA7946F20E03C4F20003D3184FF00C0249
:403900001A7012E0BA7946F20E03C4F20003D3184FF008021A7008E0BA7946F20E03C4F20003D3184FF080021A70BA7946F20C03C4F20003D3181846F97948F28412C1F650
:40394000FF720B464FEA43035B184FEA8303D31803F108031B889BB24FEA13239BB2DBB20370BA7946F20D03C4F20003D3181846F97948F28412C1F6FF720B464FEA430387
:403980005B184FEA8303D31803F108031B889BB2DBB20370BA7946F28603C4F20003D3181846F97948F28412C1F6FF720B464FEA43035B184FEA8303D318DB889BB2DBB271
:4039C0000370BA7946F28703C4F20003D3181846F97948F28412C1F6FF720B464FEA43035B184FEA8303D318DB889BB24FEA13239BB2DBB20370BA7946F28403C4F20003EF
:403A0000D3181846F97948F28412C1F6FF720B464FEA43035B184FEA8303D318DB889BB2DBB20370BA7946F28503C4F20003D3181846F97948F28412C1F6FF720B464FEA4D
:403A400043035B184FEA8303D318DB889BB24FEA13239BB2DBB20370FB7903F10103FB71BB7903F11003BB71BB795BB2002BBFF615AF46F20A03C4F200034FF0FF021A708B
:403A800007F10C07BD4680BC704700BF80B588B000AF0346FB714FF000037B834FF00003FB7770E0F97F48F28412C1F6FF720B464FEA43035B184FEA8303D3184FF0000293
:403AC0001A70F97F48F28412C1F6FF720B464FEA43035B184FEA8303D3184FF000029A70F97F48F28412C1F6FF720B464FEA43035B184FEA8303D3184FF000025A70F97FB4
:403B000048F28412C1F6FF720B464FEA43035B184FEA8303D3184FF00002DA70F97F48F28412C1F6FF720B464FEA43035B184FEA8303D3184FF000025A71F97F48F2841264
:403B4000C1F6FF720B464FEA43035B184FEA8303D31803F108034FF000021A80F97F48F28412C1F6FF720B464FEA43035B184FEA8303D31803F108034FF000029A70FB7F35
:403B800003F10103FB77FB7F082B8BD9FB79002B1AD04FF000037B7713E07A7F48F26413C1F6FF734FF0000199547A7F48F2F013C1F6FF734FF0000199547B7F03F101035C
:403BC0007B777B7F002BE8D048F27913C1F6FF731B78DBB2002B00F06B8148F27913C1F6FF731B78DBB203F1FF33DBB2184600F00DFB38613B695B68FB60FB6803F107030C
:403C00001B7803F04003002B0ED048F27713C1F6FF731B78DBB243F00103DAB248F27713C1F6FF731A700DE048F27713C1F6FF731B78DBB223F00103DAB248F27713C1F653
:403C4000FF731A703B6903F108033B613B691B78FB774FF001037B77C8E03B695B687B614FF00003BB77B8E07A7F7B699B7803F07F039A4240F0A980797F48F28412C1F61B
:403C8000FF720B464FEA43035B184FEA8303D31803F108031B889AB27B699B889A4211D2797F7B69988848F28412C1F6FF720B464FEA43035B184FEA8303D31803F1080312
:403CC00002461A807B691B781A4648F26413C1F6FF739B5CDAB27B695B789A4275D17B69DB7803F00303FB727B699B78DBB25BB2002B25DA797F48F28412C1F6FF720B463C
:403D00004FEA43035B184FEA8303D3184FF001025A70787FFB7A012B02D14FF0070101E04FF00D0148F28412C1F6FF7203464FEA43031B184FEA8303D3180A465A7124E03F
:403D4000797F48F28412C1F6FF720B464FEA43035B184FEA8303D3184FF000025A70787FFB7A012B02D14FF0050101E04FF0090148F28412C1F6FF7203464FEA43031B188E
:403D80004FEA8303D3180A465A71797F7B69987848F28412C1F6FF720B464FEA43035B184FEA8303D31802461A71797F7B69D87848F28412C1F6FF720B464FEA43035B1833
:403DC0004FEA8303D31802461A707B6903F108037B61BB7F03F10103BB77BA7FFB7F9A42FFF442AF7B7F03F101037B777B7F082B7FF633AF3B695B687B614FF000037B77D2
:403E00001CE07B699B7803F07F017B69187848F28412C1F6FF720B464FEA43035B184FEA8303D31803F1080302469A707B6903F108037B617B7F03F101037B777A7FFB7F5C
:403E40009A42DED300F018FA024648F28013C1F6FF731A604FF00103FB7724E0F97F48F28412C1F6FF720B464FEA43035B184FEA8303D3187A8BDA80F97F48F28412C1F687
:403E8000FF720B464FEA43035B184FEA8303D31803F108031B889AB27B8BD3187B83FB7F03F10103FB77FB7F082BD7D9FFF7ECFC07F12007BD4680BD80B584B000AF48F2F7
:403EC0007913C1F6FF731B78DBB2002B00F0998148F27913C1F6FF731B78DBB203F1FF33DBB2184600F092F978607B6803F108037B607B681B78FB707B685B68BB604FF0A7
:403F00000003FB7378E1BB681B781A4648F26413C1F6FF739B5CDAB2BB681B78194648F2F013C1F6FF735B5CDBB29A4200F05C81BB681B781A4648F26413C1F6FF739B5CF5
:403F4000DAB2BB685B789A4240F04E81BB681A7846F20403C4F200031B78DBB29A4240F04381BB689B7803F07F03BB70BB7803F1FF33DBB24FEA03137B70BB68DB7803F0E8
:403F800003033B70BB689B78DBB25BB2002B25DAB97848F28412C1F6FF720B464FEA43035B184FEA8303D3184FF001025A70B8783B78012B02D14FF0070101E04FF00D01DD
:403FC00048F28412C1F6FF7203464FEA43031B184FEA8303D3180A465A7124E0B97848F28412C1F6FF720B464FEA43035B184FEA8303D3184FF000025A70B8783B78012BD5
:4040000002D14FF0050101E04FF0090148F28412C1F6FF7203464FEA43031B184FEA8303D3180A465A717A7846F20E03C4F20003D3184FF001021A70B978BB68988848F22D
:404040008412C1F6FF720B464FEA43035B184FEA8303D31803F1080302461A80B978BB68987848F28412C1F6FF720B464FEA43035B184FEA8303D31802461A71B978BB6844
:40408000D87848F28412C1F6FF720B464FEA43035B184FEA8303D31802461A70B97848F28412C1F6FF720B464FEA43035B184FEA8303D3184FF00002DA707A7846F20C031F
:4040C000C4F20003D3181846B97848F28412C1F6FF720B464FEA43035B184FEA8303D31803F108031B889BB24FEA13239BB2DBB203707A7846F20D03C4F20003D3181846C1
:40410000B97848F28412C1F6FF720B464FEA43035B184FEA8303D31803F108031B889BB2DBB203707A7846F28603C4F20003D3181846B97848F28412C1F6FF720B464FEA12
:4041400043035B184FEA8303D318DB889BB2DBB203707A7846F28703C4F20003D3181846B97848F28412C1F6FF720B464FEA43035B184FEA8303D318DB889BB24FEA132341
:404180009BB2DBB203707A7846F28403C4F20003D3181846B97848F28412C1F6FF720B464FEA43035B184FEA8303D318DB889BB2DBB203707A7846F28503C4F20003D318E3
:4041C0001846B97848F28412C1F6FF720B464FEA43035B184FEA8303D318DB889BB24FEA13239BB2DBB20370BB6803F10803BB60FB7B03F10103FB73FA7BFB789A42FFF40F
:4042000082AE07F11007BD4680BD00BF80B485B000AF0346FB7148F27413C1F6FF731B78DBB244F6E412C0F200024FEAC303D3185B68FB60FB7903F101034FEAC303FA68B0
:40424000D3185B68184607F11407BD4680BC704780B400AF48F27413C1F6FF731B78DBB244F6E412C0F200024FEAC303D3185B681846BD4680BC704780B582B000AF48F207
:404280007913C1F6FF731B78DBB203F1FF33DBB21846FFF7BBFF78607B685B681B79FB70FB7803F102034FEAC3037A68D3187B607B685B68184607F10807BD4680BD00BFCE
:4042C00080B582B000AF4FF00003FB7146F20403C4F200031B78DBB203F07F03BB71BB7903F1FF33DBB24FEA03137B71BB79002B78D0BB79082B75D8B979B87948F2841291
:40430000C1F6FF7203464FEA43031B184FEA8303D3189B78DBB243F00103D8B248F28412C1F6FF720B464FEA43035B184FEA8303D31802469A70B97948F28412C1F6FF72EE
:404340000B464FEA43035B184FEA8303D3184FF00002DA70B979B87948F28412C1F6FF7203464FEA43031B184FEA8303D3185B78DBB243F00203D8B248F28412C1F6FF72AB
:404380000B464FEA43035B184FEA8303D31802465A70B97948F28412C1F6FF720B464FEA43035B184FEA8303D3181B79DBB2DBB25BB2002B09DA7A7946F20E03C4F2000329
:4043C000D3184FF08D021A7008E07A7946F20E03C4F20003D3184FF089021A70FEF7BEFB0346FB71FB79184607F10807BD4680BD80B582B000AF4FF00003FB7146F20403DF
:40440000C4F200031B78DBB203F07F03BB71BB7903F1FF33DBB24FEA03137B71BB79002B00F0C180BB79082B00F2BD80B979B87948F28412C1F6FF7203464FEA43031B1864
:404440004FEA8303D3189B78DBB223F00103D8B248F28412C1F6FF720B464FEA43035B184FEA8303D31802469A70B97948F28412C1F6FF720B464FEA43035B184FEA8303EE
:40448000D3184FF00002DA707A7946F20C03C4F20003D3181A46797946F20C03C4F20003CB181B78DBB203F07F03DBB21370B979B87948F28412C1F6FF7203464FEA4303AB
:4044C0001B184FEA8303D3185B78DBB223F00203D8B248F28412C1F6FF720B464FEA43035B184FEA8303D31802465A70B97948F28412C1F6FF720B464FEA43035B184FEA40
:404500008303D3181B79DBB2DBB25BB2002B23DAB97948F28412C1F6FF720B464FEA43035B184FEA8303D3185B78DBB2012B09D17A7946F20E03C4F20003D3184FF00C027D
:404540001A702CE07A7946F20E03C4F20003D3184FF00D021A7022E0B97948F28412C1F6FF720B464FEA43035B184FEA8303D3185B78DBB2012B09D17A7946F20E03C4F27C
:404580000003D3184FF008021A7008E07A7946F20E03C4F20003D3184FF009021A70FEF7DDFA0346FB71FB79184607F10807BD4680BD00BF80B584B000AF4FF00103FB737C
:4045C00046F20403C4F200031B78BB7348F27913C1F6FF731B78DBB203F1FF33DBB21846FFF714FEB860BB685B681B79FB71BA7BFB799A4202D2BB7B002B03D04FF000030D
:40460000FB7318E0BA7BB97B48F26413C1F6FF735B5CD9B248F2F013C1F6FF739954BA7B46F20203C4F200031B78D9B248F26413C1F6FF739954FB7B184607F11007BD4646
:4046400080BD00BF80B483B000AF4FF00003FB714FF4C043C4F200031B78DBB2DBB25BB2002B09DA46F20103C4F200031B78DBB2012B00D000E000BFFB79184607F10C0726
:40468000BD4680BC704700BF80B582B000AF4FF00003FB714FF00003BB714FF4C043C4F200031B78DBB203F00303012B02D0022B07D01EE046F20403C4F200031B78BB7144
:4046C00018E046F20403C4F200031B78DBB203F07F0148F28412C1F6FF720B464FEA43035B184FEA8303D31803F108039B78BB7100E000BF48F28013C1F6FF731A68BB79C9
:40470000D3181B78022B0AD0032B02D0012B08D004E0FEF749FB0346FB7103E002E000BF00E000BFFB79184607F10807BD4680BD38B50E4D0E4B0024E81A8510AC4205D0C3
:404740000B4951F8242090470134F7E700F04EF90849094A541AA5100024AC4205D0054B53F8240080470134F7E738BDF8490000F8490000F8490000004A000010B5002306
:40478000934203D0CC5CC4540133F9E710BD82180346934202D003F8011BFAE770470000D7000000404A00000000000000510040400050510040200000000140001000145F
:4047C0000140000800400140000A004C01400002005001402000000001450040035200400107014001090140040A0140010B0140011701400119014003400140024101409E
:4048000004420140044301400347014003480140024C0140015101407E02248061017C40EE08AF20B820BE10D804DF011F20EE0AEE0A33803640CC30A640A7805320A6400D
:40484000A780D420A640A780AF20EE1008080F40C20CAE40AF80EE50AC08AF40000A00000100000101000100000000000000000000000000C00000008000800080000000CA
:40488000000000006930122E001401011201000200000008B4041DB701300102800100000902290001010280FA090400000203000002092111010001222400070501034012
:4048C00000010705820340000100000004030904280345006D0062006500640069007400200045006C0065006300740072006F006E006900630073002803500053006F0014
:404900004300200035004C005000200042006F006F0074006C006F006100640065007200000000000A0330003300300031000000240005010900A1000900A10009001500AB
:4049400025FF7508954091020900150025FF750895408102C0C00000410000000882FF1F0482FF1F410000004C82FF1F9082FF1F000000005849000000000000644900005F
:404980000000000000000000010000003049000001000000B24800000100000070490000000001034000030000008203400003000300000001000000A048000002000000CB
:4049C000A0490000010000009849000000000000B0490000010000008C48000001000000B449000001000000D4490000F8B500BFF8BC08BC9E46704755000000910100009C
:404A0000F8B500BFF8BC08BC9E46704731000000204A00000881FF1F200000007001000000000000A0470000A447000000366E01C05D0000180000000000E02E000000006A
:404A40000000000000000000000000000000000000000000000000000000000000000000000000000000000000000000000000000000000000000000000000000000000036
:404A800000000000000000000000000000000000000000000000000000000000000000000000000000000000000000000000000000000000000000000000000000000000F6
:404AC00000000000000000000000000000000000000000000000000000000000000000000000000000000000000000000000000000000000000000000000000000000000B6
:404B000000800020114B0000BD830000BD83000080B500AF03F056FC10B5054C237833B9044810B10448AFF300800121217010BD2081FF1F00000000E8B2000008B5064BD1
:404B40001BB106480649AFF300800648016811B1054A02B1904708BD00000000E8B200002481FF1F0881FF1F00000000B0B5A0B002AF03F05DFB4BF2EC23C0F2000307F1E5
:404B800038041D460FCD0FC495E80F0084E80F004FF0050300934FF4784301934FF000004FF000014FF019024FF4A07304F012FF03F09AFB03F0D4FB4FF000037B674FF053
:404BC00000037B6713E07B6F4FEA830307F17801CB1853F8402C7B6F4FEA830307F17801CB1843F8742C7B6F03F101037B677B6F072BE8DD4FF0000005F008FC03F010FA77
:404C000078667B6E002B15DB7B6E032B12DC7B6E4FEA830307F17802D31853F8403CC3F100027B6E4FEA830307F17801CB1843F8402C0DE07B6E032B0ADD7B6EA3F10403F9
:404C40004FF0010202FA03F3DBB2184605F0DEFB4FF000037B678CE07B6F4FEA830307F17802D31853F8402C7B6F4FEA830307F17801CB1853F8743C9A4276D04FF001039D
:404C8000A7F8703005F0E2FB0346A7F862307B6F4FEA830307F17802D31853F8403CB3F1FF3F3FD1786F4FF0FF3100F0C9F97B6F03F101034FF0FF0202FA03F3A7F860305F
:404CC0004FF00003FB667B6F002B18D04FF00103FB660FE04FF00102FB6E02FA03F39AB2B7F8703013439BB2A7F87030FB6E03F10103FB66FA6E7B6F9A42EBDB03E04FF08F
:404D00000003A7F87030B7F86020B7F870301343A7F85E30B7F86220B7F85E301340A7F872301AE07B6F4FEA830307F17801CB1853F8403C012B10D1786F4FF0010100F04B
:404D40007FF94FF001027B6F02FA03F39AB2B7F8623013439BB2A7F87230B7F87230DBB2184605F063FB00F04FF97B6F03F101037B677B6F032B7FF76FAF05F073FB034649
:404D8000A7F85C304FF000037B673EE0B7F85C30DAB24FF001017B6F01FA03F3DBB21340DBB287F85B30B7F86A30DAB24FF001017B6F01FA03F3DBB21340DBB287F85A30C5
:404DC00097F85B30002B0CD097F85A30002B08D17B6F03F1010318464FF0010101F0D8FC0FE097F85B30002B0BD197F85A30002B07D07B6F03F1010318464FF0000101F093
:404E0000C7FC7B6F03F101037B677B6F032BBDDDB7F85C30A7F86A3005F0ECFA0346A7F85830B7F85820B7F868309A4207D0B7F85830DBB24FF00000194602F099FFB7F8BE
:404E40005830A7F86830B7E690B58FB002AF78604FF008033B623B6A002B06DD4FF4A0723B6A92FBF3F3FB6202E040F24113FB62FB6A4FEAD372D3184FEA6303BB62BB6AF1
:404E80007B62786A05F04CFC02460B46104619465BA3D3E9002305F039FF0346002B08D04FF047037B627B6ABB62BB6A4FEA4303FB623B6A03F101034FF4A07292FBF3F285
:404EC000BB6A4FEAD371CB184FEA6303D31AFB61786A05F025FC02460B46104619464FF000024FF00003C4F2040305F07FFC02460B464FF000004FF00001C4F26E0105F01D
:404F0000C1FA02460B461046194605F009FF0346BB61BB6998B27B6803F101039BB2FA6992B202FB03F39AB27B68B96A01FB03F34FEAD371CB184FEA63039BB2D3189BB20E
:404F400099B27B6A9AB2BB6A9BB200B209B212B21BB247F6EF34009404F064F87B6A4FEAD372D3184FEA63031A46BB69D3187B61B86A05F0D5FB02460B46104619464FF055
:404F800000024FF00003C3F6E87305F02FFC02460B46104619464FF000024FF0804305F04FFD02460B461046194605F0B9FE03463B617B6803F10103FA6902FB03F27B68B5
:404FC00003F10103B96A01FB03F34FEAD371CB184FEA6303D318FB607B6999B2FB689AB23B699BB209B212B21BB2084611461A464FF0000304F038FB07F13407BD4690BD53
:405000000000000000C0514080B500AF4FF017004FF0010103F0DEFC04F098FF0346002B05D000BF04F092FF0346002BFAD14FF000004FF0010103F0CDFC80BD0000000007
:405040002DE9F0438DB002AF786039604FF008033B613B69002B06DD4FF4A0723B6992FBF3F37B6202E040F241137B627B6A4FEAD372D3184FEA63033B623B6A4FEA4303B4
:40508000FB61F86905F04CFB02460B46104619463FA3D3E9002305F039FE0346002B0DD04FF04703FB61FB694FEAD372D3184FEA63033B623B6A4FEA43037B623B6903F1E4
:4050C00001034FF4A07292FBF3F23B6A4FEAD371CB184FEA6303D31AFB60F86905F020FB02460B46104619464FF000024FF00003C3F6F87305F07AFB02460B464FF0000051
:405100004FF00001C4F26E0105F0BCF902460B461046194605F004FE0346BB60BB6898B27B6803F101039BB2FA6892B202FB03F39AB27B68396A01FB03F34FEAD371CB1865
:405140004FEA63039BB2D3189BB299B2FB699AB23B6A9DB23B6A002B01DA03F103034FEAA3039CB200B209B212B22BB224B2009447F6EF34019404F02DFC3B68012B40F0C1
:405180005D854FF00003BB61E7E200BFAFF300800000000000C05140B86805F0C1FA04460D46F86905F0BCFA02460B4610461946A9A3D3E9002305F019FB02460B461046CA
:4051C00019464FF000024FF0804305F039FC02460B462046294605F057F902460B461046194605F09DFD03461FFA83F97B6803F10103FA6802FB03F27B68396A01FB03F3CE
:405200004FEAD371CB184FEA6303D318184605F087FA04460D46386A05F082FA02460B46104619468CA3D3E9002305F0DFFA02460B46104619464FF000024FF0804305F050
:40524000FFFB02460B462046294605F01DF902460B461046194605F063FD03461FFA83F8F86905F05DFA02460B46104619467CA3D3E9002305F0BAFA02460B46104619464B
:4052800005F04EFD03469EB2386A05F049FA02460B461046194672A3D3E9002305F0A6FA02460B461046194605F03AFD03469DB2386A05F035FA02460B461046194668A333
:4052C000D3E9002305F092FA02460B46104619464FF000024FF00003C4F2100305F0B0FB02460B461046194605F01AFD03469CB20FFA89F00FFA88F132B22BB224B20094F4
:405300004FF00004019404F065FBB86805F008FA04460D46F86905F003FA02460B46104619464DA3D3E9002305F060FA02460B46104619464FF000024FF0804305F080FBCD
:4053400002460B462046294605F09EF802460B4614461D46F86905F0E3F902460B46104619463FA3D3E9002305F040FA02460B46104619464FF000024FF0804305F060FB8D
:4053800002460B462046294605F07EF802460B4614461D46B86905F0C3F902460B462046294605F06FF802460B461046194605F0B7FC03461FFA83F97B6803F10103FA6811
:4053C00002FB03F27B68396A01FB03F34FEAD371CB184FEA6303D318184605F0A1F904460D46386A05F09CF902460B461046194619A3D3E9002305F0F9F902460B461046E4
:4054000019464FF000024FF0804305F019FB02460B462046294605F037F802460B461046194605F07DFC03461FFA83F8F86905F077F902460B461046194609A3D3E90023F7
:4054400005F0D4F902460B46104619464FF000020AE000BFAFF30080333333333333C33F333333333333EB3F4FF0804305F0E8FA02460B461046194605F052FC03469EB27D
:40548000386A05F04DF902460B4610461946A8A3D3E9002305F0AAF902460B461046194605F03EFC03469DB2386A05F039F902460B46104619469EA3D3E9002305F096F92F
:4054C00002460B46104619464FF000024FF00003C4F2100305F0B4FA02460B461046194605F01EFC03469CB20FFA89F00FFA88F132B22BB224B200944FF6FF74019404F00B
:4055000069FAB86805F00CF904460D46F86905F007F902460B461046194687A3D3E9002305F064F902460B46104619464FF000024FF0804305F084FA02460B4620462946E0
:4055400004F0A2FF02460B4614461D46F86905F0E7F802460B461046194675A3D3E9002305F044F902460B46104619464FF000024FF0804305F064FA02460B462046294642
:4055800004F082FF02460B4614461D46B86905F0C7F802460B462046294604F073FF02460B461046194605F0BBFB03461FFA83F97B6803F10103FA6802FB03F27B68396AEB
:4055C00001FB03F34FEAD371CB184FEA6303D318184605F0A5F804460D46386A05F0A0F802460B461046194653A3D3E9002305F0FDF802460B46104619464FF000024FF038
:40560000804305F01DFA02460B462046294604F03BFF02460B461046194605F081FB03461FFA83F8F86905F07BF802460B46104619463FA3D3E9002305F0D8F802460B462D
:40564000104619464FF000024FF0804305F0F8F902460B461046194605F062FB03469EB2386A05F05DF802460B461046194630A3D3E9002305F0BAF802460B461046194632
:4056800005F04EFB03469DB2386A05F049F802460B461046194626A3D3E9002305F0A6F802460B46104619464FF000024FF00003C4F2100305F0C4F902460B461046194619
:4056C00005F02EFB03469CB20FFA89F00FFA88F132B22BB224B200944FF00004019404F097F8B86905F01CF804460D46F86905F017F802460B46104619460DA3D3E9002362
:4057000005F074F802460B46104619464FF000024FF0804305F094F902460B46104619464FF000024FF0804305F08AF9024607E0333333333333EB3F333333333333C33F2D
:405740000B462046294604F09FFE02460B461046194605F0E5FA0346BB61B86904F0E0FF04460D46F86904F0DBFF02460B4610461946ABA3D3E9002305F038F802460B46F2
:40578000104619464FF000024FF0804305F058F902460B462046294605F09AFA0346002B7FF4FAACB86804F0BBFF04460D46F86904F0B6FF02460B46104619469AA3D3E96B
:4057C000002305F013F802460B46104619464FF000024FF0804305F033F902460B462046294604F051FE02460B461046194605F097FA03461FFA83F97B6803F10103FA6834
:4058000002FB03F27B68396A01FB03F34FEAD371CB184FEA6303D318184604F081FF04460D46386A04F07CFF02460B46104619467DA3D3E9002304F0D9FF02460B4610468C
:4058400019464FF000024FF0804305F0F9F802460B462046294604F017FE02460B461046194605F05DFA03461FFA83F8F86904F057FF02460B461046194669A3D3E90023CE
:4058800004F0B4FF02460B461046194605F048FA03469EB2386A04F043FF02460B46104619465FA3D3E9002304F0A0FF02460B461046194605F034FA03469DB2386A04F0EA
:4058C0002FFF02460B461046194655A3D3E9002304F08CFF02460B46104619464FF000024FF00003C4F2100305F0AAF802460B461046194605F014FA03469CB20FFA89F03B
:405900000FFA88F132B22BB224B200944FF4FC64019404F05FF8B86804F002FF04460D46F86904F0FDFE02460B46104619463EA3D3E9002304F05AFF02460B46104619468C
:405940004FF000024FF0804305F07AF802460B462046294604F098FD02460B461046194605F0DEF903461FFA83F97B6803F10103FA6802FB03F27B68396A01FB03F34FEAAE
:40598000D371CB184FEA6303D318184604F0C8FE04460D46386A04F0C3FE02460B461046194621A3D3E9002304F020FF02460B46104619464FF000024FF0804305F040F868
:4059C00002460B462046294604F05EFD02460B461046194605F0A4F903461FFA83F8F86904F09EFE02460B46104619460CA3D3E9002304F0FBFE02460B46104619464FF0E6
:405A000000024FF0804305F01BF802460B461046194605F085F903469EB209E0AFF30080333333333333EB3F333333333333C33F386A04F075FE02460B461046194684A3E7
:405A4000D3E9002304F0D2FE02460B461046194605F066F903469DB2386A04F061FE02460B46104619467AA3D3E9002304F0BEFE02460B46104619464FF000024FF0000389
:405A8000C4F2100304F0DCFF02460B461046194605F046F903469CB20FFA89F00FFA88F132B22BB224B200944FF6FF74019403F091FFB86804F034FE04460D46F86904F0FE
:405AC0002FFE02460B461046194663A3D3E9002304F08CFE02460B46104619464FF000024FF0804304F0ACFF02460B462046294604F0CAFC02460B461046194605F010F924
:405B000003461FFA83F97B6803F10103FA6802FB03F27B68396A01FB03F34FEAD371CB184FEA6303D318184604F0FAFD04460D46386A04F0F5FD02460B461046194646A351
:405B4000D3E9002304F052FE02460B46104619464FF000024FF0804304F072FF02460B462046294604F090FC02460B461046194605F0D6F803461FFA83F8F86904F0D0FD0E
:405B800002460B461046194631A3D3E9002304F02DFE02460B46104619464FF000024FF0804304F04DFF02460B461046194605F0B7F803469EB2386A04F0B2FD02460B468B
:405BC0001046194622A3D3E9002304F00FFE02460B461046194605F0A3F803469DB2386A04F09EFD02460B461046194618A3D3E9002304F0FBFD02460B46104619464FF043
:405C000000024FF00003C4F2100304F019FF02460B461046194605F083F803469CB20FFA89F00FFA88F132B22BB224B200944FF00004019403F0ECFD00F0A2BD3B68B3F17D
:405C4000FF3F40F09D854FF000037B61A0E200BF333333333333EB3F333333333333C33FB86804F05DFD04460D46F86904F058FD02460B4610461946A9A3D3E9002304F083
:405C8000B5FD02460B46104619464FF000024FF0804304F0D5FE02460B462046294604F0F3FB02460B461046194605F039F803461FFA83F97B6803F10103FA6802FB03F209
:405CC0007B68396A01FB03F34FEAD371CB184FEA6303D318184604F023FD04460D46386A04F01EFD02460B46104619468CA3D3E9002304F07BFD02460B46104619464FF02D
:405D000000024FF0804304F09BFE02460B462046294604F0B9FB02460B461046194604F0FFFF03461FFA83F8F86904F0F9FC02460B46104619467CA3D3E9002304F056FDC2
:405D400002460B461046194604F0EAFF03469EB2386A04F0E5FC02460B461046194672A3D3E9002304F042FD02460B461046194604F0D6FF03469DB2386A04F0D1FC024619
:405D80000B461046194668A3D3E9002304F02EFD02460B46104619464FF000024FF00003C4F2100304F04CFE02460B461046194604F0B6FF03469CB20FFA89F00FFA88F16A
:405DC00032B22BB224B200944FF4FC64019403F001FEB86804F0A4FC04460D46F86904F09FFC02460B46104619464DA3D3E9002304F0FCFC02460B46104619464FF0000275
:405E00004FF0804304F01CFE02460B462046294604F03AFB02460B4614461D46786904F07FFC02460B462046294604F02DFB02460B461046194604F073FF03461FFA83F9F9
:405E40007B6803F10103FA6802FB03F27B68396A01FB03F34FEAD371CB184FEA6303D318184604F05DFC04460D46386A04F058FC02460B461046194629A3D3E9002304F072
:405E8000B5FC02460B46104619464FF000024FF0804304F0D5FD02460B462046294604F0F3FA02460B461046194604F039FF03461FFA83F8F86904F033FC02460B461046C1
:405EC000194619A3D3E9002304F090FC02460B46104619464FF000024FF0804304F0B0FD02460B461046194604F01AFF03469EB2386A04F015FC02460B46104619460AA360
:405F0000D3E9002304F072FC02460B461046194604F006FF03469DB20AE000BFAFF30080333333333333C33F333333333333EB3F386A04F0F5FB02460B4610461946A8A3C7
:405F4000D3E9002304F052FC02460B46104619464FF000024FF00003C4F2100304F070FD02460B461046194604F0DAFE03469CB20FFA89F00FFA88F132B22BB224B2009425
:405F80004FF6FF74019403F025FDB86804F0C8FB04460D46F86904F0C3FB02460B461046194691A3D3E9002304F020FC02460B46104619464FF000024FF0804304F040FDC5
:405FC00002460B462046294604F05EFA02460B4614461D46786904F0A3FB02460B462046294604F051FA02460B461046194604F097FE03461FFA83F97B6803F10103FA687F
:4060000002FB03F27B68396A01FB03F34FEAD371CB184FEA6303D318184604F081FB04460D46386A04F07CFB02460B46104619466DA3D3E9002304F0D9FB02460B461046A0
:4060400019464FF000024FF0804304F0F9FC02460B462046294604F017FA02460B461046194604F05DFE03461FFA83F8F86904F057FB02460B461046194659A3D3E90023D8
:4060800004F0B4FB02460B46104619464FF000024FF0804304F0D4FC02460B461046194604F03EFE03469EB2386A04F039FB02460B46104619464AA3D3E9002304F096FB68
:4060C00002460B461046194604F02AFE03469DB2386A04F025FB02460B461046194640A3D3E9002304F082FB02460B46104619464FF000024FF00003C4F2100304F0A0FC3D
:4061000002460B461046194604F00AFE03469CB20FFA89F00FFA88F132B22BB224B200944FF00004019403F073FB786904F0F8FA04460D46F86904F0F3FA02460B46104681
:40614000194627A3D3E9002304F050FB02460B46104619464FF000024FF0804304F070FC02460B46104619464FF000024FF0804304F066FC02460B462046294604F084F921
:4061800002460B461046194604F0CAFD03467B61786904F0C5FA04460D46F86904F0C0FA02460B46104619460DA3D3E9002304F01DFB02460B46104619464FF000024FF0BA
:4061C000804304F03DFC02460B462046294604F07FFD0346002B7FF443AD09E0AFF30080333333333333EB3F333333333333C33FB86804F095FA04460D46F86904F090FA40
:4062000002460B4610461946A9A3D3E9002304F0EDFA02460B46104619464FF000024FF0804304F00DFC02460B462046294604F02BF902460B461046194604F071FD0346FD
:406240001FFA83F97B6803F10103FA6802FB03F27B68396A01FB03F34FEAD371CB184FEA6303D318184604F05BFA04460D46386A04F056FA02460B46104619468CA3D3E995
:40628000002304F0B3FA02460B46104619464FF000024FF0804304F0D3FB02460B462046294604F0F1F802460B461046194604F037FD03461FFA83F8F86904F031FA024661
:4062C0000B46104619467CA3D3E9002304F08EFA02460B461046194604F022FD03469EB2386A04F01DFA02460B461046194672A3D3E9002304F07AFA02460B46104619467F
:4063000004F00EFD03469DB2386A04F009FA02460B461046194668A3D3E9002304F066FA02460B46104619464FF000024FF00003C4F2100304F084FB02460B461046194646
:4063400004F0EEFC03469CB20FFA89F00FFA88F132B22BB224B200944FF00004019403F039FBB86804F0DCF904460D46F86904F0D7F902460B46104619464DA3D3E90023B2
:4063800004F034FA02460B46104619464FF000024FF0804304F054FB02460B462046294604F072F802460B4614461D46F86904F0B7F902460B46104619463FA3D3E90023B1
:4063C00004F014FA02460B46104619464FF000024FF0804304F034FB02460B462046294604F052F802460B461046194604F098FC03461FFA83F97B6803F10103FA6802FB4D
:4064000003F27B68396A01FB03F34FEAD371CB184FEA6303D318184604F082F904460D46386A04F07DF902460B461046194620A3D3E9002304F0DAF902460B46104619468A
:406440004FF000024FF0804304F0FAFA02460B462046294604F018F802460B461046194604F05EFC03461FFA83F8F86904F058F902460B46104619460FA3D3E9002304F08D
:40648000B5F902460B46104619464FF000024FF0804304F0D5FA02460B461046194604F03FFC03469EB2386A04F03AF908E000BF333333333333C33F333333333333EB3FC4
:4064C00002460B4610461946A9A3D3E9002304F08DF902460B461046194604F021FC03469DB2386A04F01CF902460B46104619469FA3D3E9002304F079F902460B46104643
:4065000019464FF000024FF00003C4F2100304F097FA02460B461046194604F001FC03469CB20FFA89F00FFA88F132B22BB224B200944FF6FF74019403F04CFAB86804F08C
:40654000EFF804460D46F86904F0EAF802460B461046194688A3D3E9002304F047F902460B46104619464FF000024FF0804304F067FA02460B462046294603F085FF0246C1
:406580000B4614461D46F86904F0CAF802460B461046194676A3D3E9002304F027F902460B46104619464FF000024FF0804304F047FA02460B462046294603F065FF024689
:4065C0000B461046194604F0ABFB03461FFA83F97B6803F10103FA6802FB03F27B68396A01FB03F34FEAD371CB184FEA6303D318184604F095F804460D46386A04F090F8F2
:4066000002460B46104619465BA3D3E9002304F0EDF802460B46104619464FF000024FF0804304F00DFA02460B462046294603F02BFF02460B461046194604F071FB034648
:406640001FFA83F8F86904F06BF802460B461046194647A3D3E9002304F0C8F802460B46104619464FF000024FF0804304F0E8F902460B461046194604F052FB03469EB275
:40668000386A04F04DF802460B461046194638A3D3E9002304F0AAF802460B461046194604F03EFB03469DB2386A04F039F802460B46104619462EA3D3E9002304F096F807
:4066C00002460B46104619464FF000024FF00003C4F2100304F0B4F902460B461046194604F01EFB03469CB20FFA89F00FFA88F132B22BB224B200944FF00004019403F073
:4067000087F8786904F00CF804460D46F86904F007F802460B461046194615A3D3E9002304F064F802460B46104619464FF000024FF0804304F084F902460B46104619468B
:406740004FF000024FF0804304F07AF902460B462046294603F098FE02460B461046194604F0DEFA03467B610AE000BFAFF30080333333333333EB3F333333333333C33FDE
:4067800007F12C07BD46BDE8F08300BFAFF3008080B58CB000AF786039603B68002B03D147F6EF33FB8505E03B68012B02D14FF47843FB854FF005033B623B6A002B06DD04
:4067C0004FF4A0723B6A92FBF3F3BB6202E040F24113BB62BB6A4FEAD372D3184FEA63037B62786A03F09CFF02460B46104619463FA3D3E9002304F089FA0346002B02D044
:406800004FF047037B62BA6A7B6AD31A4FEAD372D3184FEA6303FB61B86A03F081FF02460B46104619464FF000024FF00003C3F6E87303F0DBFF02460B46104619464FF0C4
:4068400000024FF00003C4F2390303F01DFE02460B461046194604F063FA0346BB617B6A4FEAD372D3184FEA63031A46BB69D3187B61786A03F054FF02460B461046194622
:406880004FF000024FF00003C3F6E87303F0AEFF02460B46104619464FF000024FF0804304F0CEF802460B461046194604F038FA03463B617B68BA6A02FB03F2FB69D218B6
:4068C0007B6A4FEAD371CB184FEA6303D318FB607B6999B2FB689AB23B699BB208B211B21AB2FB8D02F0C0FE07F13007BD4680BD0000000000C051402DE9F0438DB002AF27
:4069000078600B46FB704FF005037B617B69002B06DD4FF4A0727B6992FBF3F33B6202E040F241133B623B6A4FEAD372D3184FEA6303FB61FB694FEA4303BB61BB6903F140
:406940001903184603F0ECFE02460B46104619464FF000024FF00003C4F2580304F0D6F90346002B0DD04FF04703BB61BB694FEAD372D3184FEA6303FB61FB694FEA4303BA
:406980003B627B6903F101034FF4A07292FBF3F2FB694FEAD371CB184FEA6303D31A3B61BB694FEAD372D3184FEA630303F11903FB60FB78002B03D04FF47843FB8402E044
:4069C0004FF48173FB84F86803F0AAFE04460D46B86903F0A5FE02460B46104619465EA3D3E9002303F002FF02460B46104619464FF000024FF0804304F022F802460B4638
:406A00002046294603F040FD02460B461046194604F086F903461FFA83F97B6803F101033A6902FB03F27B68F96901FB03F34FEAD371CB184FEA6303D318184603F070FE62
:406A400004460D46F86903F06BFE02460B461046194643A3D3E9002303F0C8FE02460B46104619464FF000024FF0804303F0E8FF02460B462046294603F006FD02460B4688
:406A80001046194604F04CF903461FFA83F8B86903F046FE02460B461046194632A3D3E9002303F0A3FE02460B46104619464FF000024FF00003C4F2240303F0C1FF024674
:406AC0000B461046194604F02BF903469EB2F86903F026FE02460B461046194624A3D3E9002303F083FE02460B461046194604F017F903469DB2B86903F012FE02460B4658
:406B00001046194618A3D3E9002303F06FFE02460B46104619464FF000024FF00003C4F2440303F08DFF02460B461046194604F0F7F803469CB20FFA89F00FFA88F132B2A9
:406B40002BB224B20094FC8C019402F043FF07F12C07BD46BDE8F0839A9999999999C93FCDCCCCCCCCCCDC3F9A9999999999E93F9A9999999999E13F2DE9F0438DB002AF07
:406B800078600B46FB704FF005037B617B69002B06DD4FF4A0727B6992FBF3F33B6202E040F241133B623B6A4FEAD372D3184FEA6303FB61FB694FEA4303BB61BB6903F1BE
:406BC0001903184603F0ACFD02460B46104619464FF000024FF00003C4F2580304F096F80346002B0DD04FF04703BB61BB694FEAD372D3184FEA6303FB61FB694FEA4303BA
:406C00003B627B6903F101034FF4A07292FBF3F2FB694FEAD371CB184FEA6303D31A3B61BB694FEAD372D3184FEA630303F11903FB60FB78002B03D04FF47843FB8402E0C1
:406C40004FF48173FB84F86803F06AFD04460D46B86903F065FD02460B461046194678A3D3E9002303F0C2FD02460B46104619464FF000024FF0804303F0E2FE02460B469A
:406C80002046294603F000FC02460B4614461D46BA6946F26763C6F2666383FB02134FEAA3014FEAE273CB1A184603F039FD02460B462046294603F0E7FB02460B46104678
:406CC000194604F02DF803461FFA83F97B6803F101033A6902FB03F27B68F96901FB03F34FEAD371CB184FEA6303D318184603F017FD04460D46F86903F012FD02460B46AF
:406D00001046194650A3D3E9002303F06FFD02460B46104619464FF000024FF0804303F08FFE02460B462046294603F0ADFB02460B461046194603F0F3FF03461FFA83F843
:406D4000F86903F0EDFC02460B461046194640A3D3E9002303F04AFD02460B4614461D46BA6946F26763C6F2666383FB02134FEAA3014FEAE273CB1A184603F0D1FC024647
:406D80000B462046294603F07DFB02460B461046194603F0C5FF03469EB2B86903F0C0FC02460B46104619462BA3D3E9002303F01DFD02460B46104619464FF000024FF0FE
:406DC0000003C4F2240303F03BFE02460B461046194603F0A5FF03469DB2B86903F0A0FC02460B46104619461BA3D3E9002303F0FDFC02460B46104619464FF000024FF0B5
:406E00000003C4F2440303F01BFE02460B461046194603F085FF03469CB20FFA89F00FFA88F132B22BB224B20094FC8C019402F0D1FD07F12C07BD46BDE8F083AFF3008076
:406E40009A9999999999C93F666666666666D63FCDCCCCCCCCCCE43F9A9999999999E93F2DE9F0438DB002AF78600B46FB704FF005037B617B69002B06DD4FF4A0727B6936
:406E800092FBF3F33B6202E040F241133B623B6A4FEAD372D3184FEA6303FB61FB694FEA4303BB61BB6903F11903184603F038FC02460B46104619464FF000024FF000032B
:406EC000C4F2580303F022FF0346002B0DD04FF04703BB61BB694FEAD372D3184FEA6303FB61FB694FEA43033B627B6903F101034FF4A07292FBF3F2FB694FEAD371CB1808
:406F00004FEA6303D31A3B61BB694FEAD372D3184FEA630303F11903FB60FB78002B03D04FF47843FB8402E04FF48173FB84F86803F0F6FB04460D46B86903F0F1FB0246E3
:406F40000B461046194682A3D3E9002303F04EFC02460B46104619464FF000024FF0804303F06EFD02460B462046294603F08CFA02460B4614461D46BA6946F26763C6F2C1
:406F8000666383FB02134FEAA3014FEAE273CB1A184603F0C5FB02460B462046294603F073FA02460B4614461D46F86903F0B8FB02460B461046194667A3D3E9002303F0BF
:406FC00015FC02460B462046294603F05DFA02460B461046194603F0A3FE03461FFA83F97B6803F101033A6902FB03F27B68F96901FB03F34FEAD371CB184FEA6303D31877
:40700000184603F08DFB04460D46F86903F088FB02460B461046194651A3D3E9002303F0E5FB02460B46104619464FF000024FF0804303F005FD02460B462046294603F028
:4070400023FA02460B461046194603F069FE03461FFA83F8F86903F063FB02460B461046194641A3D3E9002303F0C0FB02460B4614461D46BA6946F26763C6F2666383FB83
:4070800002134FEAA3014FEAE273CB1A184603F047FB02460B462046294603F0F3F902460B461046194603F03BFE03469EB2B86903F036FB02460B46104619462CA3D3E95A
:4070C000002303F093FB02460B46104619464FF000024FF00003C4F2240303F0B1FC02460B461046194603F01BFE03469DB2B86903F016FB02460B46104619461CA3D3E9BE
:40710000002303F073FB02460B46104619464FF000024FF00003C4F2440303F091FC02460B461046194603F0FBFD03469CB20FFA89F00FFA88F132B22BB224B20094FC8CF6
:40714000019402F047FC07F12C07BD46BDE8F0839A9999999999C93F666666666666E63F666666666666D63FCDCCCCCCCCCCE43F9A9999999999E93F2DE9F0438DB002AF7C
:4071800078600B46FB704FF005037B617B69002B06DD4FF4A0727B6992FBF3F33B6202E040F241133B623B6A4FEAD372D3184FEA6303FB61FB694FEA4303BB61BB6903F1B8
:4071C0001903184603F0ACFA02460B46104619464FF000024FF00003C4F2580303F096FD0346002B0DD04FF04703BB61BB694FEAD372D3184FEA6303FB61FB694FEA4303B3
:407200003B627B6903F101034FF4A07292FBF3F2FB694FEAD371CB184FEA6303D31A3B61BB694FEAD372D3184FEA630303F11903FB60FB78002B03D04FF47843FB8402E0BB
