:400000000080002011000000F9030000F903000080B500AF024A034B1B68136000F0F0F9BC760040FA46004010B5054C237833B9044B13B10448AFF300800123237010BD36
:400040002081FF1F000000005C210000084B10B51BB108480849AFF300800848036803B910BD074B002BFBD0BDE81040184700BF000000005C2100002481FF1F0881FF1F17
:400080000000000080B592B002AF4FF47A7001F017FD1720012100F0FFFB0A2001F010FD002387F83F3001F06DFA0346002B02D0012387F83F300020012100F0EDFB0A2076
:4000C00001F0FEFC00F0B4FC002000F0E1FE0020002101F0A9F94FF6FF7001F0D1F9022001F0BAF91720012100F0D6FB0A2001F0E7FC01F047FA0020012100F0CDFB0A200F
:4001000001F0DEFC4FF478430093002000212822282300F03BFE4FF6E0730093282000212822282300F032FE4FF4FC630093502000212822282300F029FE40F2FF73009372
:40014000782000212822282300F020FE1F230093A02000212822282300F018FE4FF61F030093C82000212822282300F00FFE4FF6FF730093002000212822282300F006FE29
:400180008D4B4FF478421A601720012100F084FB012001F095FC01F01DFB0346002B00F00A8107F13C0107F13A0207F13903084611461A4601F0A4FABB8F1A46F02300930C
:4001C0001046962140F6D862002300F0F9F803469BB2BB877B8F1A464FF4A0730093104682214FF47A62002300F0EAF803469BB27B870020012100F04FFB7B8F272B00F2E4
:40020000C3806D4B1B686D4A1360BB8F272B0DD8694B4FF478421A604FF6FF730093002000212822282300F0F5FF52E0BB8F4F2B0DD8614B4FF6E0721A604FF6FF73009384
:40024000282000212822282300F0E4FF41E0BB8F772B0DD8584B4FF4FC621A604FF6FF730093502000212822282300F0D3FF30E0BB8F9F2B0DD8504B40F2FF721A604FF6C5
:40028000FF730093782000212822282300F0C2FF1FE0BB8FC72B0CD8474B1F221A604FF6FF730093A02000212822282300F0B2FF0FE0BB8FEF2B0CD83F4B4FF61F021A60CC
:4002C0004FF6FF730093C82000212822282300F0A1FF3A4B1A68384B1B689A4254D0374B1B68B3F5784F08D14FF478430093002000212822282300F049FD304B1B684FF64C
:40030000E072934208D14FF6E0730093282000212822282300F03AFD284B1B68B3F5FC6F08D14FF4FC630093502000212822282300F02CFD214B1B6840F2FF72934208D1D7
:4003400040F2FF730093782000212822282300F01DFD1A4B1B681F2B07D11F230093A02000212822282300F011FD144B1B684FF61F02934208D14FF61F030093C8200021A2
:400380002822282300F002FD7B8F033B282B12DD7B8F0333B3F5A07F0DDABB8F99B27B8F9AB2054B1B689BB209B212B208461146032200F06BFFE7E65881FF1F4481FF1FEC
:4003C00080B485B000AFF860B9607A603B60FA68BB68D31AB9693A688A1A02FB03F27968BB68CB1A92FBF3F23B68134418461437BD465DF8047B704780B400AFFEE700BF20
:4004000080B586B000AF214B7B61214B3B611F4B7B611F4B3B612FE03B691B68FB603B695B68BB603B699B683B6000237B600AE0BB681A1DBA60FA68111DF96012681A6078
:400440007B6804337B607A683B689A42F0D13B69DB683B6000237B6007E0BB681A1DBA6000221A607B6804337B607A683B689A42F3D13B6910333B617B695A1E7A61002BEF
:40048000CAD101F031FEFFF7FDFDFEE701000000C821000080B582B000AF174B174A1A60174A174B1B6843F40073136000237B600FE07B68032B04D8124A7B6852F8233056
:4004C00000E0114B11497A6841F822307B6801337B607B682F2BECD90D4B1B78DAB20D4B1A700D4B094A1A6000F018F90B4B00221A600837BD4680BD0CED00E00004FA0539
:4005000014ED00E000000000F90300000080FF1FBC7600400481FF1F08ED00E00081FF1F80B582B000AF78603960786800213A6801F00BFE0837BD4680BD00BF80B584B0EC
:4005400000AFF860B9607A60F868B9687A6801F0F1FD1037BD4680BD80B483B000AF0346FB71FEE780B487B000AF7860396000233B6100237B6127E07B699B007A68134400
:400580001B68BB60BB68FB73BB6823F0FF03BB6014E03B695B003A6813441B781A46BB68134419463B695B003A6813445B780B703B6901333B61FB7B013BFB73FB7B002B86
:4005C000E7D17B6901337B617B690F2BD4D91C37BD465DF8047B704780B582B000AF304B00221A802F4B58221A702F4B02221A704FF0402308221A702C4B03221A702C4BBD
:400600002C4A1278D2B21A702B4B08221A802B4B41F251221A800023FB7019237B6014E0FB785B00DAB2264B1B78DBB203F00103DBB21343DBB203F00303FB704FF4F070CA
:4006400001F0BEFA7B68013B7B607B68002B02D0FB78032BE4D17B68002B02D10320FFF77BFF184B4FF480721A80164B07221A70154B00221A70154B48221A70114B002209
:400680001A70134B02221A70124A124B1B78DBB243F00103DBB213700837BD4680BD00BF80400040824000400043004000420040A146004008010049224200402042004080
:4006C0002542004004400040064000400840004001400040A243004080B483B000AF0B4B1B78FB710A4AFB7903F00703DBB21370084AFB791B09DBB21370074B44221A709F
:400700000C37BD465DF8047B704700BFCF0100496E5800406F5800407658004080B586B000AF72B64A4A4A4B1B78DBB243F00403DBB213700023FB7513E0FA7D13465B006F
:4007400013445B00434A13443B613B691A683B699B889BB210461946FFF7E2FEFB7D0133FB75FB7D082BE8D90023FB751CE0FA7D13469B0013445B00374A1344FB60FB68B8
:400780001B68BB60FB685B687B60FB681A7A5B7A1B0213437B807B88B86879681A46FFF7CDFEFB7D0133FB75FB7D002BDFD04FF090402A49FFF7D6FE294A294B1B78DBB27A
:4007C00043F00203DBB21370264A264B1B78DBB243F00203DBB21370234A234B1B78DBB243F04003DBB21370204A204B1B78DBB243F01003DBB213701D481E490822FFF7B0
:400800009DFE1D481D490822FFF798FE1C481D490A22FFF793FE1C4A1B4B1B78DBB243F00803DBB21370194B01221A70FFF7D4FE164B81221A70164B01221A70FFF74CFF2F
:40084000144809490E22FFF779FE1837BD4680BDE84600406021000098210000400000480350014013500140A0430040C2430040C25100407802004812510040800200484C
:400880006051004088020048224300400048004004000840B043004080B584B000AF03460A46FB8013467B7100F0B2F80346FB7300F0A2F80346BB81FA88BB899A4200F066
:4008C0008780454B1B78DBB203F00103FB72FB7B002B20D1BB89002B02D0FB88002B1AD1BB89002B0BD13D4AFB8813803C4A3C4B1B78DBB223F04003DBB2137068E0384A2C
:40090000374B1B78DBB243F04003DBB21370334AFB8813805CE0FB7A002B33D0314B00221A70314B01221A70304B00221A70304A2F4B1B78DBB203F07F03DBB21370284B99
:400940001B78DBB203F00803002B02D0FB88002B18D1284ABB891380224B07221A7000BF204B1B78DBB203F00103002BF8D11A4A194B1B78DBB223F00103DBB21370194BB4
:4009800000221A70144B1B78DBB203F00103002B13D0184AFB881380124A7B79002B01D0032300E00123137000BF0E4B1B78DBB203F00103002BF8D10AE0084AFB88138021
:4009C0000549054B1B78DAB2FB7A1343DBB20B701037BD4680BD00BFA24300408040004082400040014000401040004014400040084000400240004080B400AF034B1B8877
:400A00009BB21846BD465DF8047B70478040004080B400AF054B1B78DBB203F00703DBB21846BD465DF8047B704700BF8240004080B500AF00F04CFD00F06EFD914B00227D
:400A40001A80904B1A88904B1A80904B01221A708F4B4FF6FF721A808D4B1A888D4B1A808D4B01221A708D4B00221A708C4BF0221A608C4B4FF4A0721A604FF4FA7001F09C
:400A80001FF8012000F064FAC82001F019F8CF2000F05EFA002000F049FA8B2000F046FA302000F043FAED2000F052FA672000F03DFA032000F03AFA122000F037FA8120B2
:400AC00000F034FAE82000F043FA852000F02EFA102000F02BFA7A2000F028FACB2000F037FA392000F022FA2C2000F01FFA002000F01CFA342000F019FA022000F016FA90
:400B0000F72000F025FA202000F010FAEA2000F01FFA002000F00AFA002000F007FAC02000F016FA1B2000F001FAC12000F010FA102000F0FBF9C52000F00AFA3F2000F000
:400B4000F5F93C2000F0F2F9C72000F001FAB72000F0ECF9362000F0FBF9082000F0E6F93A2000F0F5F9552000F0E0F9B12000F0EFF9002000F0DAF91B2000F0D7F9B620CE
:400B800000F0E6F90A2000F0D1F9A22000F0CEF9F22000F0DDF9002000F0C8F9262000F0D7F9012000F0C2F9E02000F0D1F90F2000F0BCF92A2000F0B9F9282000F0B6F92D
:400BC000082000F0B3F90E2000F0B0F9082000F0ADF9542000F0AAF9A92000F0A7F9432000F0A4F90A2000F0A1F90F2000F09EF9002000F09BF9002000F098F9002000F09D
:400C000095F9002000F092F9E12000F0A1F9002000F08CF9152000F089F9172000F086F9072000F083F9112000F080F9062000F07DF92B2000F07AF9562000F077F93C2085
:400C400000F074F9052000F071F9102000F06EF90F2000F06BF93F2000F068F93F2000F065F90F2000F062F9112000F071F9782000F026FF292000F06BF9002000F008F9D1
:400C800080BD00BF5081FF1F4081FF1F5381FF1F5C81FF1F5E81FF1F5281FF1F4881FF1F4C81FF1F5481FF1F80B582B000AF0346FB800B46BB8013467B80FA88BB881046F5
:400CC000194600F007F87B88184600F013F90837BD4680BD80B582B000AF03460A46FB801346BB80FA88FB881046194600F0ECF8BA88BB881046194600F006F82C2000F01A
:400D000027F90837BD4680BD80B582B000AF03460A46FB801346BB802B2000F019F9FB88184600F0E7F8BB88184600F0E3F80837BD4680BD90B583B000AF04460846114658
:400D40001A462346FB800346BB800B467B8013463B802A2000F0FCF8FB88184600F0CAF87B88184600F0C6F82B2000F0F1F8BB88184600F0BFF83B88184600F0BBF82C20FF
:400D800000F0E6F80C37BD4690BD00BF90B585B000AF0446084611461A462346FB800346BB800B467B8013463B80B7F90620364B1B689A4205DAB7F90420344B1B689A428C
:400DC00000DB5EE0B7F90620B7F9023013445A1E2D4B1B689A4206DB2B4B1B689AB2FB88D31A9BB27B80B7F90420B7F9003013445A1E264B1B689A4206DB244B1B689AB22C
:400E0000BB88D31A9BB23B80F888B988FA887B8813449BB2013B9CB2BA883B8813449BB2013B9BB22246FFF785FF3B8C1B0A9BB2FB733B8CBB7300F06FFB00F037FB3B8817
:400E4000BB8018E07B88FB800CE0FB7B184600F091F8BB7B184600F08DF8FB889BB2013B9BB2FB80B7F90630002BEEDCBB889BB2013B9BB2BB80B7F90430002BE2DC00F0BF
:400E800027FB1437BD4690BD4C81FF1F5481FF1F90B585B002AF0346FB80094B1B689AB2084B1B689BB212B21CB2FB880093002000212346FFF76AFF0C37BD4690BD00BF5F
:400EC0004C81FF1F5481FF1F80B582B000AF03460A46FB801346BB802A2000F039F8FB88184600F007F8BB88184600F003F80837BD4680BD80B584B000AF0346FB80FB88B1
:400F00001B0A9BB2FB73FB88BB7300F005FB00F0CDFAFB7B184600F02DF8BB7B184600F029F800F0D5FA1037BD4680BD80B582B000AF0346FB7100F0EFFA00F0B7FAFB79EC
:400F4000184600F017F800F0C3FA0837BD4680BD80B582B000AF0346FB7100F0CBFA00F0A5FAFB79184600F005F800F0B1FA0837BD4680BD80B582B000AF0346FB71FB79C1
:400F8000184600F0F9FC0837BD4680BD90B585B000AF0446084611461A462346FB800346BB800B467B8013463B80FA88FB8810461946FFF789FFBA887B8813449BB2BA88CC
:400FC00010461946FFF7A0FE2C20FFF7C1FF00F0A3FA00F06BFA0023FB810EE03B881B0A9BB2DBB21846FFF7C5FF3B88DBB21846FFF7C0FFFB890133FB81FA897B889A4264
:40100000ECD300F065FA1437BD4690BD90B585B002AF0446084611461A462346FB800346BB800B467B8013463B80F888B988FA887B8813449BB2013B9AB2BC883B880093B9
:40104000234600F003F80C37BD4690BD90B589B000AF0446084611461A462346FB800346BB800B467B8013463B807A88FB88D31A9BB2BB823A88BB88D31A9BB27B820023EA
:40108000FB83FB8B7B83B7F91430002B04DDBB8A7B830123FB830AE0B7F91430002B06DABB8A5B429BB27B834FF6FF73FB830023BB83BB8B3B83B7F91230002B04DD7B8A96
:4010C0003B830123BB830AE0B7F91230002B06DA7B8A5B429BB23B834FF6FF73BB83B7F91A20B7F918309A4248DBB7F91230184600F030FE0446B7F91430184600F02AFE44
:4011000003462046194600F02DFF0346FB600023FB822CE0FA8AFB8813449BB27B81B7F91630184600F016FE03461846F96800F065FE03461C46BB88184600F00BFE03464D
:401140002046194600F052FD0346184600F0A6FF03463B8179893A893B8E084611461A46FFF7A2FDFA8AFB8B13449BB2FB82B7F91620B7F914309A42CCD147E0B7F9143069
:40118000184600F0E7FD0446B7F91230184600F0E1FD03462046194600F0E4FE0346FB600023FB822CE0B7F91630184600F0D2FD03461846F96800F021FE03461C46FB880D
:4011C000184600F0C7FD03462046194600F00EFD0346184600F062FF03467B81FA8ABB8813449BB23B8179893A893B8E084611461A46FFF759FDFA8ABB8B13449BB2FB82A6
:40120000B7F91620B7F912309A42CCD12437BD4690BD00BF90B583B000AF0446084611461A462346FB800346BB800B467B8013463B80B7F90600B7F90410B7F902203B8BA3
:40124000FFF7E4FEBA883B8813449BB2013B9BB29BB2B7F9060019B2B7F902203B8BFFF7D5FEF888B9883A883B8BFFF78FFEFA887B8813449BB2013B98B2B9883A883B8BF1
:40128000FFF784FE0C37BD4690BD00BF90B585B002AF0446084611461A462346FB800346BB800B467B8013463B80F888BA887B88D31A99B27B885B009BB201339AB23B8837
:4012C000FFF764FEB7F90600B7F90410B7F90220002300933B880193032300F003F80C37BD4690BD90B587B000AF0446084611461A462346FB800346BB800B467B80134612
:401300007B707B88C3F101039BB2FB820123BB827B881A46D203D31A5B009BB27B8200233B827B88FB8175E0B7F91630002B0DDBFB899BB2013B9BB2FB817B8A02339BB2F8
:401340007B82FA8A7B8A13449BB2FB823B8A9BB201339BB23B82BB8A02339BB2BB82FA8ABB8A13449BB2FB827B7803F00103002B25D0FA883B8A134498B2BA88FB89D31AE3
:4013800099B2FB895B009AB23B8D13449BB201339AB2BB8DFFF7FAFDFA88FB89134498B2BA883B8AD31A99B23B8A5B009AB23B8D13449BB201339AB2BB8DFFF7E7FD7B7843
:4013C00003F00203002B25D0FA883B8AD31A98B2BA88FB89D31A99B2FB895B009AB23B8D13449BB201339AB2BB8DFFF7CFFDFA88FB89D31A98B2BA883B8AD31A99B23B8AF7
:401400005B009AB23B8D13449BB201339AB2BB8DFFF7BCFDB7F91020B7F90E309A4283DB1C37BD4690BD00BF80B483B000AF03460A46FB801346BB80054AFB881380054A46
:40144000BB8813800C37BD465DF8047B704700BF5081FF1F4081FF1F80B483B000AF0346FB71FB79002B01D0FB7900E00123034A13700C37BD465DF8047B70475381FF1FF2
:4014800080B483B000AF0346FB80064AFB881380044B1A88044B1A800C37BD465DF8047B704700BF5C81FF1F5E81FF1F80B582B000AF00F0EDFA0346FB71FB7903F00E0370
:4014C000FB71FB79184600F0D3FA0837BD4680BD80B582B000AF00F0DBFA0346FB71FB7943F00103FB71FB79184600F0C1FA0837BD4680BD80B582B000AF00F0C9FA0346BD
:40150000FB71FB7903F00D03FB71FB79184600F0AFFA0837BD4680BD80B582B000AF00F0B7FA0346FB71FB7943F00203FB71FB79184600F09DFA0837BD4680BD80B582B0AF
:4015400000AF00F0A5FA0346FB71FB7903F00B03FB71FB79184600F08BFA0837BD4680BD80B582B000AF00F093FA0346FB71FB7943F00403FB71FB79184600F079FA0837FB
:40158000BD4680BD80B582B000AF00F0ADF900F009F903461A4640F611039A4201D000234EE0FFF7DDFF0320022100F04DF80A2000F086FA0023BB710123FB7108E0FB793A
:4015C000184600F063F80346BB71FB790133FB71FB79402BF3D90420002100F035F84020012100F031F80A20012100F02DF82020602100F029F82120022100F025F841200C
:40160000A42100F021F85620062100F01DF84A20012100F019F84B20012100F015F84B20002100F011F85820012100F00DF80B20FF2100F009F80920052100F005F8012373
:4016400018460837BD4680BD80B582B000AF03460A46FB801346BB80FFF770FF012000F02FFAFB88DBB21846FFF784FC012000F027FABB88DBB21846FFF77CFC012000F06D
:401680001FFAFFF76DFF0837BD4680BD80B584B000AF0346FB71FFF751FF012000F010FAFB7963F07F03DBB2184600F065F9012000F006FA002000F05FF9012000F000FAFC
:4016C00000BF00F083F90346002BFAD0012000F0F7F9002000F050F9642000F013FA00BF00F074F90346002BFAD000F05FF90346FB73FFF735FFFB7B18461037BD4680BDC8
:4017000090B587B000AFF860B9607A600023FB750DE0FC7DD720FFF7B9FF03461A4607F11803234403F8082CFB7D0133FB75FB7D032BEED93B7C9AB2FB681A80FB681B88B4
:401740001B019AB2FB681A80FB681A887B7C1B09DBB29BB213439AB2FB681A807B7C9BB203F00F039AB2BB681A80BB681B881B029AB2BB681A80BB681A88BB7C9BB213438E
:401780009AB2BB681A80FA7C7B681A7000F038F80346002B03D00B20FF21FFF755FF1C37BD4690BD80B582B000AF0020FFF76EFF0346FB80FB881B02FB800120FFF766FFAA
:4017C00003469AB2FB881343FB80FB8818460837BD4680BD80B582B000AF4020FFF756FF0346FB71FB7923F07F03BB71BB79002B14BF01230023DBB218460837BD4680BD12
:4018000080B500AF4B20FFF741FF034603F02003002B14BF01230023DBB2184680BD00BF80B500AF124B0F221A70124B02221A600120072100F0A0F901200F4900F074F9F9
:401840000C4B01221A600020072100F095F900200A4900F069F900F0D1F800F06DF800F07BF8074B08221A70064B00221A7080BD8D64004080E100E0591A0000651A0000D4
:401880008B6400408A64004080B582B000AF00F09FF90346FB71114A104B1B78DBB243F02003DBB213700E4A0D4B1B78DBB243F01003DBB213700B4A0A4B1B78DBB243F019
:4018C0001003DBB21370FB79184600F085F900F01BF800F025F80837BD4680BD9D6400409B6400409A64004080B500AF054B1B78002B04D1FFF794FF024B01221A70FFF7F8
:40190000C3FF80BD3C81FF1F80B400AF034B02221A60BD465DF8047B704700BF00E100E080B400AF034B01221A60BD465DF8047B704700BF00E100E080B483B000AF054BAE
:401940001B78FB71FB7918460C37BD465DF8047B704700BF6B64004080B483B000AF054B1B78FB71FB7918460C37BD465DF8047B704700BF6A64004080B483B000AF0346C3
:40198000FB7100BF074B1B78DBB203F00403002BF8D0054AFB7913700C37BD465DF8047B704700BF6B6400404D64004080B483B000AF054B1B78FB71FB7918460C37BD464A
:4019C0005DF8047B704700BF5D64004080B483B000AF094B1B78DBB203F02003002B01D0012300E00023FB71FB7918460C37BD465DF8047B704700BF6A64004080B582B096
:401A000000AF01E0114B1B78114B1B78DBB203F02003002BF6D100F0DBF80346FB710D4A0C4B1B78DBB243F00103DBB21370094A084B1B78DBB223F00103DBB21370FB79B5
:401A4000184600F0C9F80837BD4680BD5D6400406A6400409D64004080B400AFBD465DF8047B704780B400AFBD465DF8047B704780B483B000AF0346FB71044AFB79137096
:401A80000C37BD465DF8047B704700BF7A64004080B400AF034B1B78DBB21846BD465DF8047B70477A64004080B483B000AF0346FB7101BE0C37BD465DF8047B704700BF03
:401AC00080B582B000AF786008E00C4B1B68184600F076F87B68A3F500437B607B68B3F5004FF2D8064B1B687A6802FB03F3184600F066F80837BD4680BD00BF1881FF1FF3
:401B00001081FF1F80B582B000AF0346FB80FB88044A127802FB03F3184600F051F80837BD4680BD1481FF1F80B584B000AF03463960FB710F4B1B68FB60FB791F2B02D9CE
:401B40000020FFF7B1FFFB7903F01F0310339B00FA6813441B68BB60FB7903F01F0310339B00FA6813443A681A60BB6818461037BD4680BD08ED00E080B582B000AF034669
:401B80000A46FB711346BB71BB79072B02D90020FFF78AFFFB791F2B02D90020FFF784FFFB7903F01F0303F1604303F56443BA795201D2B21A700837BD4680BD0000000000
:401BC0000230800803D000BF01380046FCD17047EFF3108072B6704780F31088704700BF80F0004002E000BF81F0004142001FBF5FEA410392EA030F7FEA226C7FEA236C97
:401C00006AD04FEA1262D2EB1363C1BFD218414048404140B8BF5B42192B88BF704710F0004F40F4000020F07F4018BF404211F0004F41F4000121F07F4118BF494292EA60
:401C4000030F3FD0A2F1010241FA03FC10EB0C00C3F1200301FA03F100F0004302D5494260EB4000B0F5000F13D3B0F1807F06D340084FEA310102F10102FE2A51D2B1F1DD
:401C8000004F40EBC25008BF20F0010040EA03007047490040EB000010F4000FA2F10102EDD1B0FA80FCACF1080CB2EB0C0200FA0CF0AABF00EBC25052421843BCBFD040A9
:401CC0001843704792F0000F81F4000106BF80F400000132013BB5E74FEA41037FEA226C18BF7FEA236C21D092EA030F04D092F0000F08BF0846704790EA010F1CBF00200F
:401D0000704712F07F4F04D1400028BF40F00040704712F100723CBF00F50000704700F0004343F0FE4040F4000070477FEA226216BF08467FEA23630146420206BF5FEAB6
:401D4000412390EA010F40F4800070474FF0000304E000BF10F0004348BF40425FEA000C08BF704743F0964301464FF000001CE050EA010208BF70474FF000030AE000BF52
:401D800050EA010208BF704711F0004302D5404261EB41015FEA010C02BF84460146002043F0B64308BFA3F18053A3F50003BCFA8CF2083AA3EBC25310DB01FA02FC63445C
:401DC00000FA02FCC2F12002BCF1004F20FA02F243EB020008BF20F00100704702F1200201FA02FCC2F1200250EA4C0021FA02F243EB020008BF20EADC7070474FF0FF0C87
:401E00001CEAD0521EBF1CEAD15392EA0C0F93EA0C0F6FD01A4480EA010C400218BF5FEA41211ED04FF0006343EA501043EA5111A0FB01310CF00040B1F5000F3EBF4900BC
:401E400041EAD3715B0040EA010062F17F02FD2A1DD8B3F1004F40EBC25008BF20F00100704790F0000F0CF0004C08BF49024CEA502040EA51207F3AC2BFD2F1FF0340EA6B
:401E8000C250704740F400004FF00003013A5DDC12F1190FDCBF00F000407047C2F10002410021FA02F1C2F1200200FA02FC5FEA310040F1000053EA4C0308BF20EADC709D
:401EC000704792F0000F00F0004C02BF400010F4000F013AF9D040EA0C0093F0000F01F0004C02BF490011F4000F013BF9D041EA0C018FE70CEAD15392EA0C0F18BF93EA6B
:401F00000C0F0AD030F0004C18BF31F0004CD8D180EA010000F00040704790F0000F17BF90F0004F084691F0000F91F0004F14D092EA0C0F01D142020FD193EA0C0F03D142
:401F40004B0218BF084608D180EA010000F0004040F0FE4040F40000704740F0FE4040F4400070474FF0FF0C1CEAD0521EBF1CEAD15392EA0C0F93EA0C0F69D0A2EB030216
:401F800080EA010C49024FEA402037D04FF0805343EA111143EA10130CF000408B4238BF5B0042F17D024FF4000C8B4224BF5B1A40EA0C00B3EB510F24BFA3EB510340EA6A
:401FC0005C00B3EB910F24BFA3EB910340EA9C00B3EBD10F24BFA3EBD10340EADC001B0118BF5FEA1C1CE0D1FD2A3FF650AF8B4240EBC25008BF20F0010070470CF0004C52
:402000004CEA50207F32C2BFD2F1FF0340EAC250704740F400004FF00003013A37E792F0000F00F0004C02BF400010F4000F013AF9D040EA0C0093F0000F01F0004C02BF96
:40204000490011F4000F013BF9D041EA0C0195E70CEAD15392EA0C0F08D142027FF47DAF93EA0C0F7FF470AF084676E793EA0C0F04D14B023FF44CAF08466EE730F0004C11
:4020800018BF31F0004CCAD130F000427FF45CAF31F000437FF43CAF5FE700BF4FEA4002B2F1FE4F0FD34FF09E03B3EB12620DD94FEA002343F0004310F0004F23FA02F045
:4020C00018BF404270474FF00000704712F1610F01D1420205D110F0004008BF6FF0004070474FF0000070470E4B70B51E460E4C0025E41AA410A54204D056F825309847D8
:402100000135F8E700F04EF8084B094C1E46E41AA4100025A54204D056F8253098470135F8E770BDB0210000B0210000B0210000B821000010B5431E0A44914204D011F882
:40214000014B03F8014FF8E710BD03460244934202D003F8011BFAE77047000000000000005100401000205100404000F0510040100000000140800C000D014000030014E2
:402180000140000800400140000A004C014000020050014020000000800C0140F801004880000000F8B500BFF8BC08BC9E4670474D00000095040000F8B500BFF8BC08BC34
:4021C0009E46704729000000D82100000881FF1F18000000400000000000000000366E01C05D0000180000000000E02E00000000000000000000000000000000000000003B
:40220000000000000000000000000000000000000000000000000000000000000000000000000000000000000000000000000000000000000000000000000000000000009E
:40224000000000000000000000000000000000000000000000000000000000000000000000000000000000000000000000000000000000000000000000000000000000005E
:40228000000000000000000000000000000000000000000000000000000000000000000000000000000000000000000000000000000000000000000000000000000000001E
:4022C00000000000000000000000000000000000000000000000000000000000000000000000000000000000000000000000000000000000000000000000000000000000DE
:020000040003F7
:0200000480007A
:4000000003520040016400400205014004090140380A0140400B01402E0D01400340014002410140064201400C440140094501400546014003470140035001400151014076
:400040003098318834408D0FE208E601A908AD12B010E8010080041D050A0735081D0C0D0E101082120814021507160D1B101C1D1D291F0220212242241D28C22A242D02A4
:400080002E102F3C30E0320F330F3410353039083A0A3E1054405604580459045B045F018002820D8C238E1C9C299E16A835AA0AB010B220B60FBA80BE05D409D604D804C7
:4000C000DB04DF01000801420208040107020A900B010F0210221362172018401A901B111C011D401E401F08210822102B013188321039083A403B405D185E4160806260AE
:4001000063206402678068116B08808082108401874088028B089148920193019440990A9B229D409F08A026A180A228A701B101B208C09FC28DC44FCA08CC0ECE02D6F088
:40014000D89FE40C0054010109800A500B081020132118111A01200621842214232229022B013180321539543B01404141044801492A5002522053046140682469556A5282
:4001800073018F0894109920A810B120C00FC20FC40ECA09CC0FCE0FD00BD20CD808EC0132403580CC3096809D808240858096809D80E210E6800810520857025B025D029C
:4001C00065107320C202D404D607D801DC018F029D129F20A608A702AB02B010E402EA04811085029D129F20A608AB20B208EC0100010C010E01000F849A000004980002A3
:400200000102009856980902049A8000802104D8603800C00713386484020000840000000A00100000FC000300007F0F00E0801308000028000040003405100006CEF0DB05
:400240003BFFFFFF2200F008040000000000022004040404000000010000C00040011011C001001140014001000000000000000000000000000000000040400040000000BF
:40028000000B0B0000000000040040BCBC00BC00000000000000000000000000000000000000000000000000000000000000000000000000000000000000000000000000B0
:4002C00000000000000000000000000000000000000000000000000000000000000000000000000000000000000000000000000000000000000000000000000000000000FE
:4003000000000000000000000000000000000000000000000000000000000000000000000000000000000000000000000000000000000000000000000000000000000000BD
:40034000000000000000000000000000000000000000000000000000000000000000000000000000000000000000000000000000000000000000000000000000000000007D
:40038000000000000000000000000000000000000000000000000000000000000000000000000000000000000000000000000000000000000000000000000000000000003D
:0200000490006A
:0400000000004005B7
:0200000490105A
:04000000BC90ACAF55
:0200000490303A
:02000000B0D876
:0200000490402A
:4000000000000000000000000000000000000000000000000000000000000000000000000000000000000000000000000000000000000000000000000000000000000000C0
:400040000000000000000000000000000000000000000000000000000000000000000000000000000000000000000000000000000000000000000000000000000000000080
:400080000000000000000000000000000000000000000000000000000000000000000000000000000000000000000000000000000000000000000000000000000000000040
:4000C0000000000000000000000000000000000000000000000000000000000000000000000000000000000000000000000000000000000000000000000000000000000000
:0200000490501A
:0C00000000012E12306900012E20E141A9
:00000001FF